{
  "contractName": "EcahoXNFTMinter",
  "abi": [
    {
      "inputs": [
        {
          "internalType": "address",
          "name": "_nftAddress",
          "type": "address"
        }
      ],
      "stateMutability": "nonpayable",
      "type": "constructor"
    },
    {
      "inputs": [],
      "name": "nftContract",
      "outputs": [
        {
          "internalType": "contract IECahoXNFT",
          "name": "",
          "type": "address"
        }
      ],
      "stateMutability": "view",
      "type": "function",
      "constant": true
    },
    {
      "inputs": [],
      "name": "mint",
      "outputs": [],
      "stateMutability": "nonpayable",
      "type": "function"
    }
  ],
  "bytecode": "0x608060405234801561000f575f80fd5b5060405161018138038061018183398101604081905261002e91610052565b5f80546001600160a01b0319166001600160a01b039290921691909117905561007f565b5f60208284031215610062575f80fd5b81516001600160a01b0381168114610078575f80fd5b9392505050565b60f68061008b5f395ff3fe6080604052348015600e575f80fd5b50600436106030575f3560e01c80631249c58b146034578063d56d229d14603c575b5f80fd5b603a6069565b005b5f54604d906001600160a01b031681565b6040516001600160a01b03909116815260200160405180910390f35b5f54604051631a18b03560e21b81523360048201526001600160a01b0390911690636862c0d4906024015f604051808303815f87803b15801560a9575f80fd5b505af115801560ba573d5f803e3d5ffd5b5050505056fea264697066735822122046410e4c1f100ab3a31bc55e2a9b0179a67c5fa81eae7d27d49cd1bc8be4091064736f6c63430008140033",
  "immutableReferences": {},
  "source": "// SPDX-License-Identifier: MIT\npragma solidity ^0.8.20;\n\ninterface IECahoXNFT {\n    function mintThreeNFTs(address to) external;\n}\n\ncontract EcahoXNFTMinter {\n    IECahoXNFT public nftContract;\n\n    constructor(address _nftAddress) {\n        nftContract = IECahoXNFT(_nftAddress);\n    }\n\n    function mint() external {\n        nftContract.mintThreeNFTs(msg.sender);\n    }\n}\n",
  "sourcePath": "/workspaces/echoX-nft/echoX-nft/contracts/EcahoXNFTMinter.sol",
  "compiler": {
    "name": "solc",
    "version": "0.8.20+commit.a1b79de6.Emscripten.clang"
  },
  "schemaVersion": "3.4.16",
  "updatedAt": "2025-05-01T16:12:31.489Z",
  "networkType": "ethereum",
  "devdoc": {
    "kind": "dev",
    "methods": {},
    "version": 1
  },
  "userdoc": {
    "kind": "user",
    "methods": {},
    "version": 1
  }
}