{
  "contractName": "EcahoXNFT",
  "abi": [
    {
      "inputs": [],
      "stateMutability": "nonpayable",
      "type": "constructor"
    },
    {
      "anonymous": false,
      "inputs": [
        {
          "indexed": true,
          "internalType": "address",
          "name": "owner",
          "type": "address"
        },
        {
          "indexed": true,
          "internalType": "address",
          "name": "approved",
          "type": "address"
        },
        {
          "indexed": true,
          "internalType": "uint256",
          "name": "tokenId",
          "type": "uint256"
        }
      ],
      "name": "Approval",
      "type": "event"
    },
    {
      "anonymous": false,
      "inputs": [
        {
          "indexed": true,
          "internalType": "address",
          "name": "owner",
          "type": "address"
        },
        {
          "indexed": true,
          "internalType": "address",
          "name": "operator",
          "type": "address"
        },
        {
          "indexed": false,
          "internalType": "bool",
          "name": "approved",
          "type": "bool"
        }
      ],
      "name": "ApprovalForAll",
      "type": "event"
    },
    {
      "anonymous": false,
      "inputs": [
        {
          "indexed": true,
          "internalType": "address",
          "name": "previousOwner",
          "type": "address"
        },
        {
          "indexed": true,
          "internalType": "address",
          "name": "newOwner",
          "type": "address"
        }
      ],
      "name": "OwnershipTransferred",
      "type": "event"
    },
    {
      "anonymous": false,
      "inputs": [
        {
          "indexed": false,
          "internalType": "address",
          "name": "to",
          "type": "address"
        },
        {
          "indexed": false,
          "internalType": "uint256",
          "name": "tokenId",
          "type": "uint256"
        }
      ],
      "name": "TokenMinted",
      "type": "event"
    },
    {
      "anonymous": false,
      "inputs": [
        {
          "indexed": true,
          "internalType": "address",
          "name": "from",
          "type": "address"
        },
        {
          "indexed": true,
          "internalType": "address",
          "name": "to",
          "type": "address"
        },
        {
          "indexed": true,
          "internalType": "uint256",
          "name": "tokenId",
          "type": "uint256"
        }
      ],
      "name": "Transfer",
      "type": "event"
    },
    {
      "inputs": [
        {
          "internalType": "address",
          "name": "to",
          "type": "address"
        },
        {
          "internalType": "uint256",
          "name": "tokenId",
          "type": "uint256"
        }
      ],
      "name": "approve",
      "outputs": [],
      "stateMutability": "nonpayable",
      "type": "function"
    },
    {
      "inputs": [
        {
          "internalType": "address",
          "name": "owner",
          "type": "address"
        }
      ],
      "name": "balanceOf",
      "outputs": [
        {
          "internalType": "uint256",
          "name": "",
          "type": "uint256"
        }
      ],
      "stateMutability": "view",
      "type": "function"
    },
    {
      "inputs": [],
      "name": "baseURI",
      "outputs": [
        {
          "internalType": "string",
          "name": "",
          "type": "string"
        }
      ],
      "stateMutability": "view",
      "type": "function"
    },
    {
      "inputs": [
        {
          "internalType": "uint256",
          "name": "tokenId",
          "type": "uint256"
        }
      ],
      "name": "getApproved",
      "outputs": [
        {
          "internalType": "address",
          "name": "",
          "type": "address"
        }
      ],
      "stateMutability": "view",
      "type": "function"
    },
    {
      "inputs": [
        {
          "internalType": "address",
          "name": "owner",
          "type": "address"
        },
        {
          "internalType": "address",
          "name": "operator",
          "type": "address"
        }
      ],
      "name": "isApprovedForAll",
      "outputs": [
        {
          "internalType": "bool",
          "name": "",
          "type": "bool"
        }
      ],
      "stateMutability": "view",
      "type": "function"
    },
    {
      "inputs": [],
      "name": "isMintEnabled",
      "outputs": [
        {
          "internalType": "bool",
          "name": "",
          "type": "bool"
        }
      ],
      "stateMutability": "view",
      "type": "function"
    },
    {
      "inputs": [],
      "name": "maxSupply",
      "outputs": [
        {
          "internalType": "uint256",
          "name": "",
          "type": "uint256"
        }
      ],
      "stateMutability": "view",
      "type": "function"
    },
    {
      "inputs": [],
      "name": "name",
      "outputs": [
        {
          "internalType": "string",
          "name": "",
          "type": "string"
        }
      ],
      "stateMutability": "view",
      "type": "function"
    },
    {
      "inputs": [],
      "name": "owner",
      "outputs": [
        {
          "internalType": "address",
          "name": "",
          "type": "address"
        }
      ],
      "stateMutability": "view",
      "type": "function"
    },
    {
      "inputs": [
        {
          "internalType": "uint256",
          "name": "tokenId",
          "type": "uint256"
        }
      ],
      "name": "ownerOf",
      "outputs": [
        {
          "internalType": "address",
          "name": "",
          "type": "address"
        }
      ],
      "stateMutability": "view",
      "type": "function"
    },
    {
      "inputs": [],
      "name": "renounceOwnership",
      "outputs": [],
      "stateMutability": "nonpayable",
      "type": "function"
    },
    {
      "inputs": [
        {
          "internalType": "address",
          "name": "from",
          "type": "address"
        },
        {
          "internalType": "address",
          "name": "to",
          "type": "address"
        },
        {
          "internalType": "uint256",
          "name": "tokenId",
          "type": "uint256"
        }
      ],
      "name": "safeTransferFrom",
      "outputs": [],
      "stateMutability": "nonpayable",
      "type": "function"
    },
    {
      "inputs": [
        {
          "internalType": "address",
          "name": "from",
          "type": "address"
        },
        {
          "internalType": "address",
          "name": "to",
          "type": "address"
        },
        {
          "internalType": "uint256",
          "name": "tokenId",
          "type": "uint256"
        },
        {
          "internalType": "bytes",
          "name": "data",
          "type": "bytes"
        }
      ],
      "name": "safeTransferFrom",
      "outputs": [],
      "stateMutability": "nonpayable",
      "type": "function"
    },
    {
      "inputs": [
        {
          "internalType": "address",
          "name": "operator",
          "type": "address"
        },
        {
          "internalType": "bool",
          "name": "approved",
          "type": "bool"
        }
      ],
      "name": "setApprovalForAll",
      "outputs": [],
      "stateMutability": "nonpayable",
      "type": "function"
    },
    {
      "inputs": [
        {
          "internalType": "bytes4",
          "name": "interfaceId",
          "type": "bytes4"
        }
      ],
      "name": "supportsInterface",
      "outputs": [
        {
          "internalType": "bool",
          "name": "",
          "type": "bool"
        }
      ],
      "stateMutability": "view",
      "type": "function"
    },
    {
      "inputs": [],
      "name": "symbol",
      "outputs": [
        {
          "internalType": "string",
          "name": "",
          "type": "string"
        }
      ],
      "stateMutability": "view",
      "type": "function"
    },
    {
      "inputs": [
        {
          "internalType": "address",
          "name": "from",
          "type": "address"
        },
        {
          "internalType": "address",
          "name": "to",
          "type": "address"
        },
        {
          "internalType": "uint256",
          "name": "tokenId",
          "type": "uint256"
        }
      ],
      "name": "transferFrom",
      "outputs": [],
      "stateMutability": "nonpayable",
      "type": "function"
    },
    {
      "inputs": [
        {
          "internalType": "address",
          "name": "newOwner",
          "type": "address"
        }
      ],
      "name": "transferOwnership",
      "outputs": [],
      "stateMutability": "nonpayable",
      "type": "function"
    },
    {
      "inputs": [
        {
          "internalType": "string",
          "name": "_baseURI",
          "type": "string"
        }
      ],
      "name": "setBaseURI",
      "outputs": [],
      "stateMutability": "nonpayable",
      "type": "function"
    },
    {
      "inputs": [
        {
          "internalType": "bool",
          "name": "_isMintEnabled",
          "type": "bool"
        }
      ],
      "name": "setIsMintEnabled",
      "outputs": [],
      "stateMutability": "nonpayable",
      "type": "function"
    },
    {
      "inputs": [
        {
          "internalType": "address",
          "name": "to",
          "type": "address"
        }
      ],
      "name": "mintThreeNFTs",
      "outputs": [],
      "stateMutability": "nonpayable",
      "type": "function"
    },
    {
      "inputs": [
        {
          "internalType": "uint256",
          "name": "tokenId",
          "type": "uint256"
        }
      ],
      "name": "tokenURI",
      "outputs": [
        {
          "internalType": "string",
          "name": "",
          "type": "string"
        }
      ],
      "stateMutability": "view",
      "type": "function"
    },
    {
      "inputs": [],
      "name": "totalSupply",
      "outputs": [
        {
          "internalType": "uint256",
          "name": "",
          "type": "uint256"
        }
      ],
      "stateMutability": "view",
      "type": "function"
    }
  ],
  "bytecode": "0x610100604052604260808181529062001b4d60a039600890620000239082620001be565b506402540be400600955600a805460ff1916600117905534801562000046575f80fd5b50604051806040016040528060098152602001681158d85a1bd613919560ba1b81525060405180604001604052806005815260200164115613919560da1b815250815f9081620000979190620001be565b506001620000a68282620001be565b505050620000c3620000bd620000c960201b60201c565b620000cd565b62000286565b3390565b600680546001600160a01b038381166001600160a01b0319831681179093556040519116919082907f8be0079c531659141344cd1fd0a4f28419497f9722a3daafe3b4186f6b6457e0905f90a35050565b634e487b7160e01b5f52604160045260245ffd5b600181811c908216806200014757607f821691505b6020821081036200016657634e487b7160e01b5f52602260045260245ffd5b50919050565b601f821115620001b9575f81815260208120601f850160051c81016020861015620001945750805b601f850160051c820191505b81811015620001b557828155600101620001a0565b5050505b505050565b81516001600160401b03811115620001da57620001da6200011e565b620001f281620001eb845462000132565b846200016c565b602080601f83116001811462000228575f8415620002105750858301515b5f19600386901b1c1916600185901b178555620001b5565b5f85815260208120601f198616915b82811015620002585788860151825594840194600190910190840162000237565b50858210156200027657878501515f19600388901b60f8161c191681555b5050505050600190811b01905550565b6118b980620002945f395ff3fe608060405234801561000f575f80fd5b5060043610610148575f3560e01c80636862c0d4116100bf578063a22cb46511610079578063a22cb4651461029a578063b88d4fde146102ad578063c87b56dd146102c0578063d5abeb01146102d3578063e985e9c5146102dc578063f2fde38b146102ef575f80fd5b80636862c0d41461024b5780636c0360eb1461025e57806370a0823114610266578063715018a6146102795780638da5cb5b1461028157806395d89b4114610292575f80fd5b806323b872dd1161011057806323b872dd146101df578063346de50a146101f257806342842e0e146101ff5780634de8bcfb1461021257806355f804b3146102255780636352211e14610238575f80fd5b806301ffc9a71461014c57806306fdde0314610174578063081812fc14610189578063095ea7b3146101b457806318160ddd146101c9575b5f80fd5b61015f61015a366004611274565b610302565b60405190151581526020015b60405180910390f35b61017c610353565b60405161016b91906112e3565b61019c6101973660046112f5565b6103e2565b6040516001600160a01b03909116815260200161016b565b6101c76101c2366004611327565b610407565b005b6101d1610520565b60405190815260200161016b565b6101c76101ed36600461134f565b61052f565b600a5461015f9060ff1681565b6101c761020d36600461134f565b610560565b6101c7610220366004611397565b61057a565b6101c7610233366004611437565b610595565b61019c6102463660046112f5565b6105ad565b6101c761025936600461147c565b61060c565b61017c6106ca565b6101d161027436600461147c565b610756565b6101c76107da565b6006546001600160a01b031661019c565b61017c6107ed565b6101c76102a8366004611495565b6107fc565b6101c76102bb3660046114c6565b610807565b61017c6102ce3660046112f5565b61083f565b6101d160095481565b61015f6102ea36600461153d565b6108e5565b6101c76102fd36600461147c565b610912565b5f6001600160e01b031982166380ac58cd60e01b148061033257506001600160e01b03198216635b5e139f60e01b145b8061034d57506301ffc9a760e01b6001600160e01b03198316145b92915050565b60605f805461036190611565565b80601f016020809104026020016040519081016040528092919081815260200182805461038d90611565565b80156103d85780601f106103af576101008083540402835291602001916103d8565b820191905f5260205f20905b8154815290600101906020018083116103bb57829003601f168201915b5050505050905090565b5f6103ec82610988565b505f908152600460205260409020546001600160a01b031690565b5f610411826105ad565b9050806001600160a01b0316836001600160a01b0316036104835760405162461bcd60e51b815260206004820152602160248201527f4552433732313a20617070726f76616c20746f2063757272656e74206f776e656044820152603960f91b60648201526084015b60405180910390fd5b336001600160a01b038216148061049f575061049f81336108e5565b6105115760405162461bcd60e51b815260206004820152603d60248201527f4552433732313a20617070726f76652063616c6c6572206973206e6f7420746f60448201527f6b656e206f776e6572206f7220617070726f76656420666f7220616c6c000000606482015260840161047a565b61051b83836109e6565b505050565b5f61052a60075490565b905090565b6105393382610a53565b6105555760405162461bcd60e51b815260040161047a9061159d565b61051b838383610ab1565b61051b83838360405180602001604052805f815250610807565b610582610c13565b600a805460ff1916911515919091179055565b61059d610c13565b60086105a98282611637565b5050565b5f818152600260205260408120546001600160a01b03168061034d5760405162461bcd60e51b8152602060048201526018602482015277115490cdcc8c4e881a5b9d985b1a59081d1bdad95b88125160421b604482015260640161047a565b600a5460ff166106575760405162461bcd60e51b8152602060048201526016602482015275135a5b9d1a5b99c81a5cc81b9bdd08195b98589b195960521b604482015260640161047a565b6009546007546106689060036116f3565b11156106ac5760405162461bcd60e51b815260206004820152601360248201527213585e081cdd5c1c1b1e48195e18d959591959606a1b604482015260640161047a565b6106b581610c6d565b6106be81610c6d565b6106c781610c6d565b50565b600880546106d790611565565b80601f016020809104026020016040519081016040528092919081815260200182805461070390611565565b801561074e5780601f106107255761010080835404028352916020019161074e565b820191905f5260205f20905b81548152906001019060200180831161073157829003601f168201915b505050505081565b5f6001600160a01b0382166107bf5760405162461bcd60e51b815260206004820152602960248201527f4552433732313a2061646472657373207a65726f206973206e6f7420612076616044820152683634b21037bbb732b960b91b606482015260840161047a565b506001600160a01b03165f9081526003602052604090205490565b6107e2610c13565b6107eb5f610cd7565b565b60606001805461036190611565565b6105a9338383610d28565b6108113383610a53565b61082d5760405162461bcd60e51b815260040161047a9061159d565b61083984848484610df5565b50505050565b5f818152600260205260409020546060906001600160a01b03166108b35760405162461bcd60e51b815260206004820152602560248201527f546f6b656e2055524920717565727920666f72206e6f6e6578697374656e74206044820152643a37b5b2b760d91b606482015260840161047a565b60086108be83610e28565b6040516020016108cf929190611712565b6040516020818303038152906040529050919050565b6001600160a01b039182165f90815260056020908152604080832093909416825291909152205460ff1690565b61091a610c13565b6001600160a01b03811661097f5760405162461bcd60e51b815260206004820152602660248201527f4f776e61626c653a206e6577206f776e657220697320746865207a65726f206160448201526564647265737360d01b606482015260840161047a565b6106c781610cd7565b5f818152600260205260409020546001600160a01b03166106c75760405162461bcd60e51b8152602060048201526018602482015277115490cdcc8c4e881a5b9d985b1a59081d1bdad95b88125160421b604482015260640161047a565b5f81815260046020526040902080546001600160a01b0319166001600160a01b0384169081179091558190610a1a826105ad565b6001600160a01b03167f8c5be1e5ebec7d5bd14f71427d1e84f3dd0314c0f7b2291e5b200ac8c7c3b92560405160405180910390a45050565b5f80610a5e836105ad565b9050806001600160a01b0316846001600160a01b03161480610a855750610a8581856108e5565b80610aa95750836001600160a01b0316610a9e846103e2565b6001600160a01b0316145b949350505050565b826001600160a01b0316610ac4826105ad565b6001600160a01b031614610aea5760405162461bcd60e51b815260040161047a90611795565b6001600160a01b038216610b4c5760405162461bcd60e51b8152602060048201526024808201527f4552433732313a207472616e7366657220746f20746865207a65726f206164646044820152637265737360e01b606482015260840161047a565b826001600160a01b0316610b5f826105ad565b6001600160a01b031614610b855760405162461bcd60e51b815260040161047a90611795565b5f81815260046020908152604080832080546001600160a01b03199081169091556001600160a01b038781168086526003855283862080545f1901905590871680865283862080546001019055868652600290945282852080549092168417909155905184937fddf252ad1be2c89b69c2b068fc378daa952ba7f163c4a11628f55a4df523b3ef91a4505050565b6006546001600160a01b031633146107eb5760405162461bcd60e51b815260206004820181905260248201527f4f776e61626c653a2063616c6c6572206973206e6f7420746865206f776e6572604482015260640161047a565b610c7b600780546001019055565b5f610c8560075490565b9050610c918282610eb8565b604080516001600160a01b0384168152602081018390527fb9144c96c86541f6fa89c9f2f02495cccf4b08cd6643e26d34ee00aa586558a8910160405180910390a15050565b600680546001600160a01b038381166001600160a01b0319831681179093556040519116919082907f8be0079c531659141344cd1fd0a4f28419497f9722a3daafe3b4186f6b6457e0905f90a35050565b816001600160a01b0316836001600160a01b031603610d895760405162461bcd60e51b815260206004820152601960248201527f4552433732313a20617070726f766520746f2063616c6c657200000000000000604482015260640161047a565b6001600160a01b038381165f81815260056020908152604080832094871680845294825291829020805460ff191686151590811790915591519182527f17307eab39ab6107e8899845ad3d59bd9653f200f220920489ca2b5937696c31910160405180910390a3505050565b610e00848484610ab1565b610e0c84848484610ed1565b6108395760405162461bcd60e51b815260040161047a906117da565b60605f610e3483610fce565b60010190505f8167ffffffffffffffff811115610e5357610e536113b0565b6040519080825280601f01601f191660200182016040528015610e7d576020820181803683370190505b5090508181016020015b5f19016f181899199a1a9b1b9c1cb0b131b232b360811b600a86061a8153600a8504945084610e8757509392505050565b6105a9828260405180602001604052805f8152506110a5565b5f6001600160a01b0384163b15610fc357604051630a85bd0160e11b81526001600160a01b0385169063150b7a0290610f1490339089908890889060040161182c565b6020604051808303815f875af1925050508015610f4e575060408051601f3d908101601f19168201909252610f4b91810190611868565b60015b610fa9573d808015610f7b576040519150601f19603f3d011682016040523d82523d5f602084013e610f80565b606091505b5080515f03610fa15760405162461bcd60e51b815260040161047a906117da565b805181602001fd5b6001600160e01b031916630a85bd0160e11b149050610aa9565b506001949350505050565b5f8072184f03e93ff9f4daa797ed6e38ed64bf6a1f0160401b831061100c5772184f03e93ff9f4daa797ed6e38ed64bf6a1f0160401b830492506040015b6d04ee2d6d415b85acef81000000008310611038576d04ee2d6d415b85acef8100000000830492506020015b662386f26fc10000831061105657662386f26fc10000830492506010015b6305f5e100831061106e576305f5e100830492506008015b612710831061108257612710830492506004015b60648310611094576064830492506002015b600a831061034d5760010192915050565b6110af83836110d7565b6110bb5f848484610ed1565b61051b5760405162461bcd60e51b815260040161047a906117da565b6001600160a01b03821661112d5760405162461bcd60e51b815260206004820181905260248201527f4552433732313a206d696e7420746f20746865207a65726f2061646472657373604482015260640161047a565b5f818152600260205260409020546001600160a01b0316156111915760405162461bcd60e51b815260206004820152601c60248201527f4552433732313a20746f6b656e20616c7265616479206d696e74656400000000604482015260640161047a565b5f818152600260205260409020546001600160a01b0316156111f55760405162461bcd60e51b815260206004820152601c60248201527f4552433732313a20746f6b656e20616c7265616479206d696e74656400000000604482015260640161047a565b6001600160a01b0382165f81815260036020908152604080832080546001019055848352600290915280822080546001600160a01b0319168417905551839291907fddf252ad1be2c89b69c2b068fc378daa952ba7f163c4a11628f55a4df523b3ef908290a45050565b6001600160e01b0319811681146106c7575f80fd5b5f60208284031215611284575f80fd5b813561128f8161125f565b9392505050565b5f5b838110156112b0578181015183820152602001611298565b50505f910152565b5f81518084526112cf816020860160208601611296565b601f01601f19169290920160200192915050565b602081525f61128f60208301846112b8565b5f60208284031215611305575f80fd5b5035919050565b80356001600160a01b0381168114611322575f80fd5b919050565b5f8060408385031215611338575f80fd5b6113418361130c565b946020939093013593505050565b5f805f60608486031215611361575f80fd5b61136a8461130c565b92506113786020850161130c565b9150604084013590509250925092565b80358015158114611322575f80fd5b5f602082840312156113a7575f80fd5b61128f82611388565b634e487b7160e01b5f52604160045260245ffd5b5f67ffffffffffffffff808411156113de576113de6113b0565b604051601f8501601f19908116603f01168101908282118183101715611406576114066113b0565b8160405280935085815286868601111561141e575f80fd5b858560208301375f602087830101525050509392505050565b5f60208284031215611447575f80fd5b813567ffffffffffffffff81111561145d575f80fd5b8201601f8101841361146d575f80fd5b610aa9848235602084016113c4565b5f6020828403121561148c575f80fd5b61128f8261130c565b5f80604083850312156114a6575f80fd5b6114af8361130c565b91506114bd60208401611388565b90509250929050565b5f805f80608085870312156114d9575f80fd5b6114e28561130c565b93506114f06020860161130c565b925060408501359150606085013567ffffffffffffffff811115611512575f80fd5b8501601f81018713611522575f80fd5b611531878235602084016113c4565b91505092959194509250565b5f806040838503121561154e575f80fd5b6115578361130c565b91506114bd6020840161130c565b600181811c9082168061157957607f821691505b60208210810361159757634e487b7160e01b5f52602260045260245ffd5b50919050565b6020808252602d908201527f4552433732313a2063616c6c6572206973206e6f7420746f6b656e206f776e6560408201526c1c881bdc88185c1c1c9bdd9959609a1b606082015260800190565b601f82111561051b575f81815260208120601f850160051c810160208610156116105750805b601f850160051c820191505b8181101561162f5782815560010161161c565b505050505050565b815167ffffffffffffffff811115611651576116516113b0565b6116658161165f8454611565565b846115ea565b602080601f831160018114611698575f84156116815750858301515b5f19600386901b1c1916600185901b17855561162f565b5f85815260208120601f198616915b828110156116c6578886015182559484019460019091019084016116a7565b50858210156116e357878501515f19600388901b60f8161c191681555b5050505050600190811b01905550565b8082018082111561034d57634e487b7160e01b5f52601160045260245ffd5b5f80845461171f81611565565b60018281168015611737576001811461174c57611778565b60ff1984168752821515830287019450611778565b885f526020805f205f5b8581101561176f5781548a820152908401908201611756565b50505082870194505b50505050835161178c818360208801611296565b01949350505050565b60208082526025908201527f4552433732313a207472616e736665722066726f6d20696e636f72726563742060408201526437bbb732b960d91b606082015260800190565b60208082526032908201527f4552433732313a207472616e7366657220746f206e6f6e20455243373231526560408201527131b2b4bb32b91034b6b83632b6b2b73a32b960711b606082015260800190565b6001600160a01b03858116825284166020820152604081018390526080606082018190525f9061185e908301846112b8565b9695505050505050565b5f60208284031215611878575f80fd5b815161128f8161125f56fea2646970667358221220f32ee1a1d00dc7a6bfdecb8cd4dcde7519686d4b56d9016f7bdce0e646bcf19c64736f6c63430008140033697066733a2f2f6261666b7265696361656f727634323666706e68366e337536683332796a75326f37646465697278766e6a6b733661647a36627969716435757669",
  "immutableReferences": {},
  "source": "// SPDX-License-Identifier: MIT\npragma solidity ^0.8.20;\n\nimport \"@openzeppelin/contracts/token/ERC721/ERC721.sol\";\nimport \"@openzeppelin/contracts/access/Ownable.sol\";\nimport \"@openzeppelin/contracts/utils/Counters.sol\";\n\ncontract EcahoXNFT is ERC721, Ownable {\n    using Counters for Counters.Counter;\n    Counters.Counter private _tokenIds;\n\n    string public baseURI = \"ipfs://bafkreicaeorv426fpnh6n3u6h32yju2o7ddeirxvnjks6adz6byiqd5uvi\";\n\n    uint256 public maxSupply = 10000000000; // Example max supply\n    bool public isMintEnabled = true; // Allow minting\n\n    event TokenMinted(address to, uint256 tokenId);\n\n    constructor() ERC721(\"EcahoXNFT\", \"EXNFT\") {}\n\n    // Function to set the base URI.  Useful for updating metadata.\n    function setBaseURI(string memory _baseURI) public onlyOwner {\n        baseURI = _baseURI;\n    }\n\n    // Function to enable/disable minting\n    function setIsMintEnabled(bool _isMintEnabled) public onlyOwner {\n        isMintEnabled = _isMintEnabled;\n    }\n\n    // Minting function (users call this)\n    function mintThreeNFTs(address to) public {\n      require(isMintEnabled, \"Minting is not enabled\");\n\n        require(_tokenIds.current() + 3 <= maxSupply, \"Max supply exceeded\");\n\n        _mintNFT(to);\n        _mintNFT(to);\n        _mintNFT(to);\n    }\n\n    function _mintNFT(address to) private {\n        _tokenIds.increment();\n        uint256 newItemId = _tokenIds.current();\n        _safeMint(to, newItemId);\n        emit TokenMinted(to, newItemId);\n    }\n    \n    function tokenURI(uint256 tokenId) public view override returns (string memory) {\n        require(_exists(tokenId), \"Token URI query for nonexistent token\");\n        return string(abi.encodePacked(baseURI, Strings.toString(tokenId)));\n    }\n\n    function totalSupply() public view returns (uint256) {\n        return _tokenIds.current();\n    }\n}\n",
  "sourcePath": "/workspaces/echoX-nft/echoX-nft/contracts/EchoXNFT.sol",
  "compiler": {
    "name": "solc",
    "version": "0.8.20+commit.a1b79de6.Emscripten.clang"
  },
  "schemaVersion": "3.4.16",
  "updatedAt": "2025-05-02T08:43:45.111Z",
  "devdoc": {
    "events": {
      "Approval(address,address,uint256)": {
        "details": "Emitted when `owner` enables `approved` to manage the `tokenId` token."
      },
      "ApprovalForAll(address,address,bool)": {
        "details": "Emitted when `owner` enables or disables (`approved`) `operator` to manage all of its assets."
      },
      "Transfer(address,address,uint256)": {
        "details": "Emitted when `tokenId` token is transferred from `from` to `to`."
      }
    },
    "kind": "dev",
    "methods": {
      "approve(address,uint256)": {
        "details": "See {IERC721-approve}."
      },
      "balanceOf(address)": {
        "details": "See {IERC721-balanceOf}."
      },
      "getApproved(uint256)": {
        "details": "See {IERC721-getApproved}."
      },
      "isApprovedForAll(address,address)": {
        "details": "See {IERC721-isApprovedForAll}."
      },
      "name()": {
        "details": "See {IERC721Metadata-name}."
      },
      "owner()": {
        "details": "Returns the address of the current owner."
      },
      "ownerOf(uint256)": {
        "details": "See {IERC721-ownerOf}."
      },
      "renounceOwnership()": {
        "details": "Leaves the contract without owner. It will not be possible to call `onlyOwner` functions. Can only be called by the current owner. NOTE: Renouncing ownership will leave the contract without an owner, thereby disabling any functionality that is only available to the owner."
      },
      "safeTransferFrom(address,address,uint256)": {
        "details": "See {IERC721-safeTransferFrom}."
      },
      "safeTransferFrom(address,address,uint256,bytes)": {
        "details": "See {IERC721-safeTransferFrom}."
      },
      "setApprovalForAll(address,bool)": {
        "details": "See {IERC721-setApprovalForAll}."
      },
      "supportsInterface(bytes4)": {
        "details": "See {IERC165-supportsInterface}."
      },
      "symbol()": {
        "details": "See {IERC721Metadata-symbol}."
      },
      "tokenURI(uint256)": {
        "details": "See {IERC721Metadata-tokenURI}."
      },
      "transferFrom(address,address,uint256)": {
        "details": "See {IERC721-transferFrom}."
      },
      "transferOwnership(address)": {
        "details": "Transfers ownership of the contract to a new account (`newOwner`). Can only be called by the current owner."
      }
    },
    "version": 1
  },
  "userdoc": {
    "kind": "user",
    "methods": {},
    "version": 1
  }
}