{
  "contractName": "EchoXCore",
  "abi": [
    {
      "inputs": [
        {
          "internalType": "address",
          "name": "_nft",
          "type": "address"
        },
        {
          "internalType": "address",
          "name": "_ex",
          "type": "address"
        },
        {
          "internalType": "address",
          "name": "_points",
          "type": "address"
        }
      ],
      "stateMutability": "nonpayable",
      "type": "constructor"
    },
    {
      "anonymous": false,
      "inputs": [
        {
          "indexed": false,
          "internalType": "address",
          "name": "user",
          "type": "address"
        },
        {
          "indexed": false,
          "internalType": "uint256",
          "name": "amount",
          "type": "uint256"
        }
      ],
      "name": "EXStaked",
      "type": "event"
    },
    {
      "anonymous": false,
      "inputs": [
        {
          "indexed": false,
          "internalType": "address",
          "name": "user",
          "type": "address"
        },
        {
          "indexed": false,
          "internalType": "uint256[]",
          "name": "tokenIds",
          "type": "uint256[]"
        }
      ],
      "name": "NFTSwapped",
      "type": "event"
    },
    {
      "anonymous": false,
      "inputs": [
        {
          "indexed": true,
          "internalType": "address",
          "name": "user",
          "type": "address"
        },
        {
          "indexed": false,
          "internalType": "uint256",
          "name": "points",
          "type": "uint256"
        }
      ],
      "name": "PointsEarned",
      "type": "event"
    },
    {
      "anonymous": false,
      "inputs": [
        {
          "indexed": true,
          "internalType": "address",
          "name": "pool",
          "type": "address"
        },
        {
          "indexed": true,
          "internalType": "address",
          "name": "creator",
          "type": "address"
        }
      ],
      "name": "PoolCreated",
      "type": "event"
    },
    {
      "inputs": [],
      "name": "ex",
      "outputs": [
        {
          "internalType": "contract IEchoXToken",
          "name": "",
          "type": "address"
        }
      ],
      "stateMutability": "view",
      "type": "function",
      "constant": true
    },
    {
      "inputs": [],
      "name": "nft",
      "outputs": [
        {
          "internalType": "contract IEchoXNFT",
          "name": "",
          "type": "address"
        }
      ],
      "stateMutability": "view",
      "type": "function",
      "constant": true
    },
    {
      "inputs": [],
      "name": "owner",
      "outputs": [
        {
          "internalType": "address",
          "name": "",
          "type": "address"
        }
      ],
      "stateMutability": "view",
      "type": "function",
      "constant": true
    },
    {
      "inputs": [],
      "name": "points",
      "outputs": [
        {
          "internalType": "contract EchoXPoints",
          "name": "",
          "type": "address"
        }
      ],
      "stateMutability": "view",
      "type": "function",
      "constant": true
    },
    {
      "inputs": [
        {
          "internalType": "address",
          "name": "",
          "type": "address"
        },
        {
          "internalType": "uint256",
          "name": "",
          "type": "uint256"
        }
      ],
      "name": "userPools",
      "outputs": [
        {
          "internalType": "address",
          "name": "",
          "type": "address"
        }
      ],
      "stateMutability": "view",
      "type": "function",
      "constant": true
    },
    {
      "inputs": [
        {
          "internalType": "string",
          "name": "name",
          "type": "string"
        },
        {
          "internalType": "uint256",
          "name": "nftPriceInEx",
          "type": "uint256"
        }
      ],
      "name": "createPool",
      "outputs": [],
      "stateMutability": "nonpayable",
      "type": "function"
    },
    {
      "inputs": [
        {
          "internalType": "address",
          "name": "poolAddr",
          "type": "address"
        },
        {
          "internalType": "uint256",
          "name": "tokenId",
          "type": "uint256"
        }
      ],
      "name": "swapNFTForEX",
      "outputs": [],
      "stateMutability": "nonpayable",
      "type": "function"
    },
    {
      "inputs": [
        {
          "internalType": "address",
          "name": "poolAddr",
          "type": "address"
        },
        {
          "internalType": "uint256",
          "name": "fromTokenId",
          "type": "uint256"
        },
        {
          "internalType": "uint256",
          "name": "toTokenId",
          "type": "uint256"
        }
      ],
      "name": "swapNFTForNFT",
      "outputs": [],
      "stateMutability": "nonpayable",
      "type": "function"
    },
    {
      "inputs": [
        {
          "internalType": "address",
          "name": "poolAddr",
          "type": "address"
        },
        {
          "internalType": "uint256[]",
          "name": "tokenIds",
          "type": "uint256[]"
        }
      ],
      "name": "batchSwap",
      "outputs": [],
      "stateMutability": "nonpayable",
      "type": "function"
    },
    {
      "inputs": [
        {
          "internalType": "address",
          "name": "poolAddr",
          "type": "address"
        },
        {
          "internalType": "uint256",
          "name": "amount",
          "type": "uint256"
        }
      ],
      "name": "provideLiquidity",
      "outputs": [],
      "stateMutability": "nonpayable",
      "type": "function"
    }
  ],
  "bytecode": "0x608060405234801561000f575f80fd5b5060405161150c38038061150c83398101604081905261002e91610095565b5f80546001600160a01b03199081163317909155600180546001600160a01b039586169083161790556002805493851693821693909317909255600380549190931691161790556100d5565b80516001600160a01b0381168114610090575f80fd5b919050565b5f805f606084860312156100a7575f80fd5b6100b08461007a565b92506100be6020850161007a565b91506100cc6040850161007a565b90509250925092565b61142a806100e25f395ff3fe608060405234801562000010575f80fd5b5060043610620000a8575f3560e01c806348ebdae7116200006b57806348ebdae714620001375780635fea6120146200014e5780637b53bd3414620001655780638da5cb5b146200017c578063e1c34549146200018f575f80fd5b806304ec86cf14620000ac5780631064aa5514620000c55780631be6dd6414620000f857806326fc66ab146200010c57806347ccca021462000123575b5f80fd5b620000c3620000bd3660046200080b565b620001a3565b005b620000dc620000d63660046200080b565b62000314565b6040516001600160a01b03909116815260200160405180910390f35b600354620000dc906001600160a01b031681565b620000c36200011d3660046200084a565b62000349565b600154620000dc906001600160a01b031681565b620000c36200014836600462000903565b62000416565b620000c36200015f3660046200080b565b62000554565b620000c36200017636600462000989565b620006ce565b5f54620000dc906001600160a01b031681565b600254620000dc906001600160a01b031681565b600154604051632142170760e11b81523360048201526001600160a01b03808516602483015260448201849052849216906342842e0e906064015f604051808303815f87803b158015620001f5575f80fd5b505af115801562000208573d5f803e3d5ffd5b50506040516326bd1c2160e11b8152336004820152602481018590526001600160a01b0384169250634d7a384291506044015f604051808303815f87803b15801562000252575f80fd5b505af115801562000265573d5f803e3d5ffd5b505060035460405163507cd30f60e01b8152336004820152600560248201526001600160a01b03909116925063507cd30f91506044015f604051808303815f87803b158015620002b3575f80fd5b505af1158015620002c6573d5f803e3d5ffd5b505050507f8e7877d8649b4ad705a6ccf4212bef9543948a1df6d9129356e8cd47a3c1142633620002f78462000798565b60405162000307929190620009bc565b60405180910390a1505050565b6004602052815f5260405f2081815481106200032e575f80fd5b5f918252602090912001546001600160a01b03169150829050565b6001546002546003546040515f9333936001600160a01b03918216939082169288929091169087906200037c90620007e1565b6200038d9695949392919062000a13565b604051809103905ff080158015620003a7573d5f803e3d5ffd5b50335f818152600460209081526040808320805460018101825590845291832090910180546001600160a01b0319166001600160a01b038616908117909155905193945091927f4f2ce4e40f623ca765fc0167a25cb7842ceaafb8d82d3dec26ca0d0e0d2d48969190a3505050565b60058110156200045d5760405162461bcd60e51b815260206004820152600e60248201526d4d696e696d756d2035204e46547360901b604482015260640160405180910390fd5b6040516348ebdae760e01b81526001600160a01b038416906348ebdae7906200048f9033908690869060040162000aa3565b5f604051808303815f87803b158015620004a7575f80fd5b505af1158015620004ba573d5f803e3d5ffd5b505060035460405163507cd30f60e01b8152336004820152600660248201526001600160a01b03909116925063507cd30f91506044015f604051808303815f87803b15801562000508575f80fd5b505af11580156200051b573d5f803e3d5ffd5b505050507f8e7877d8649b4ad705a6ccf4212bef9543948a1df6d9129356e8cd47a3c11426338383604051620003079392919062000aa3565b6002546040516323b872dd60e01b81523360048201526001600160a01b03848116602483015260448201849052909116906323b872dd906064016020604051808303815f875af1158015620005ab573d5f803e3d5ffd5b505050506040513d601f19601f82011682018060405250810190620005d1919062000aec565b506040516353ccbd2960e01b8152336004820152602481018290526001600160a01b038316906353ccbd29906044015f604051808303815f87803b15801562000618575f80fd5b505af11580156200062b573d5f803e3d5ffd5b50506003805460405163507cd30f60e01b815233600482015260248101929092526001600160a01b0316925063507cd30f91506044015f604051808303815f87803b15801562000679575f80fd5b505af11580156200068c573d5f803e3d5ffd5b505060408051338152602081018590527f93a07acba0823973bde20f14689e188f2ea80147a26cb279d8d9a4b7d4b8bd1d935001905060405180910390a15050565b604051633ebf05dd60e01b815233600482015260248101839052604481018290526001600160a01b03841690633ebf05dd906064015f604051808303815f87803b1580156200071b575f80fd5b505af11580156200072e573d5f803e3d5ffd5b505060035460405163507cd30f60e01b8152336004820152600560248201526001600160a01b03909116925063507cd30f91506044015f604051808303815f87803b1580156200077c575f80fd5b505af11580156200078f573d5f803e3d5ffd5b50505050505050565b6040805160018082528183019092526060916020808301908036833701905050905081815f81518110620007d057620007d062000b14565b602002602001018181525050919050565b6108cc8062000b2983390190565b80356001600160a01b038116811462000806575f80fd5b919050565b5f80604083850312156200081d575f80fd5b6200082883620007ef565b946020939093013593505050565b634e487b7160e01b5f52604160045260245ffd5b5f80604083850312156200085c575f80fd5b823567ffffffffffffffff8082111562000874575f80fd5b818501915085601f83011262000888575f80fd5b8135818111156200089d576200089d62000836565b604051601f8201601f19908116603f01168101908382118183101715620008c857620008c862000836565b81604052828152886020848701011115620008e1575f80fd5b826020860160208301375f602093820184015298969091013596505050505050565b5f805f6040848603121562000916575f80fd5b6200092184620007ef565b9250602084013567ffffffffffffffff808211156200093e575f80fd5b818601915086601f83011262000952575f80fd5b81358181111562000961575f80fd5b8760208260051b850101111562000976575f80fd5b6020830194508093505050509250925092565b5f805f606084860312156200099c575f80fd5b620009a784620007ef565b95602085013595506040909401359392505050565b6001600160a01b03831681526040602080830182905283519183018290525f9184820191906060850190845b8181101562000a0657845183529383019391830191600101620009e8565b5090979650505050505050565b5f60018060a01b038089168352602081891681850152818816604085015260c06060850152865191508160c08501525f5b8281101562000a625787810182015185820160e00152810162000a44565b50505f60e0828501015260e0601f19601f83011684010191505062000a9260808301856001600160a01b03169052565b8260a0830152979650505050505050565b6001600160a01b038416815260406020820181905281018290525f6001600160fb1b0383111562000ad2575f80fd5b8260051b8085606085013791909101606001949350505050565b5f6020828403121562000afd575f80fd5b8151801515811462000b0d575f80fd5b9392505050565b634e487b7160e01b5f52603260045260245ffdfe608060405234801561000f575f80fd5b50604051620008cc380380620008cc833981016040819052610030916100d6565b5f80546001600160a01b038089166001600160a01b03199283161790925560038054888416908316179055600480549287169290911691909117905560016100788482610267565b50600580546001600160a01b0319166001600160a01b0393909316929092179091556002555061032292505050565b80516001600160a01b03811681146100bd575f80fd5b919050565b634e487b7160e01b5f52604160045260245ffd5b5f805f805f8060c087890312156100eb575f80fd5b6100f4876100a7565b955060206101038189016100a7565b9550610111604089016100a7565b60608901519095506001600160401b038082111561012d575f80fd5b818a0191508a601f830112610140575f80fd5b815181811115610152576101526100c2565b604051601f8201601f19908116603f0116810190838211818310171561017a5761017a6100c2565b816040528281528d86848701011115610191575f80fd5b5f93505b828410156101b25784840186015181850187015292850192610195565b5f8684830101528098505050505050506101ce608088016100a7565b915060a087015190509295509295509295565b600181811c908216806101f557607f821691505b60208210810361021357634e487b7160e01b5f52602260045260245ffd5b50919050565b601f821115610262575f81815260208120601f850160051c8101602086101561023f5750805b601f850160051c820191505b8181101561025e5782815560010161024b565b5050505b505050565b81516001600160401b03811115610280576102806100c2565b6102948161028e84546101e1565b84610219565b602080601f8311600181146102c7575f84156102b05750858301515b5f19600386901b1c1916600185901b17855561025e565b5f85815260208120601f198616915b828110156102f5578886015182559484019460019091019084016102d6565b508582101561031257878501515f19600388901b60f8161c191681555b5050505050600190811b01905550565b61059c80620003305f395ff3fe608060405234801561000f575f80fd5b50600436106100a6575f3560e01c806348ebdae71161006e57806348ebdae71461012b5780634d7a38421461013e57806353ccbd29146101515780637d9a7a4c14610164578063e1c3454914610177578063f3466dfa1461018a575f80fd5b8063010db027146100aa57806302d05d3f146100c65780631be6dd64146100f05780633ebf05dd1461010357806347ccca0214610118575b5f80fd5b6100b360025481565b6040519081526020015b60405180910390f35b5f546100d8906001600160a01b031681565b6040516001600160a01b0390911681526020016100bd565b6005546100d8906001600160a01b031681565b6101166101113660046103f5565b61019f565b005b6003546100d8906001600160a01b031681565b610116610139366004610425565b610206565b61011661014c3660046104a4565b61023f565b61011661015f3660046104a4565b6102a5565b6101166101723660046104cc565b6102de565b6004546100d8906001600160a01b031681565b61019261034e565b6040516100bd91906104e3565b60055460405163507cd30f60e01b81526001600160a01b038581166004830152600260248301529091169063507cd30f906044015b5f604051808303815f87803b1580156101eb575f80fd5b505af11580156101fd573d5f803e3d5ffd5b50505050505050565b60055460405163507cd30f60e01b81526001600160a01b038581166004830152602482018490529091169063507cd30f906044016101d4565b60055460405163507cd30f60e01b81526001600160a01b038481166004830152600260248301529091169063507cd30f906044015b5f604051808303815f87803b15801561028b575f80fd5b505af115801561029d573d5f803e3d5ffd5b505050505050565b60055460405163507cd30f60e01b81526001600160a01b038481166004830152600160248301529091169063507cd30f90604401610274565b5f546001600160a01b031633146103495760405162461bcd60e51b815260206004820152602560248201527f4f6e6c79207468652063726561746f722063616e206368616e67652074686520604482015264707269636560d81b606482015260840160405180910390fd5b600255565b6001805461035b9061052e565b80601f01602080910402602001604051908101604052809291908181526020018280546103879061052e565b80156103d25780601f106103a9576101008083540402835291602001916103d2565b820191905f5260205f20905b8154815290600101906020018083116103b557829003601f168201915b505050505081565b80356001600160a01b03811681146103f0575f80fd5b919050565b5f805f60608486031215610407575f80fd5b610410846103da565b95602085013595506040909401359392505050565b5f805f60408486031215610437575f80fd5b610440846103da565b9250602084013567ffffffffffffffff8082111561045c575f80fd5b818601915086601f83011261046f575f80fd5b81358181111561047d575f80fd5b8760208260051b8501011115610491575f80fd5b6020830194508093505050509250925092565b5f80604083850312156104b5575f80fd5b6104be836103da565b946020939093013593505050565b5f602082840312156104dc575f80fd5b5035919050565b5f6020808352835180828501525f5b8181101561050e578581018301518582016040015282016104f2565b505f604082860101526040601f19601f8301168501019250505092915050565b600181811c9082168061054257607f821691505b60208210810361056057634e487b7160e01b5f52602260045260245ffd5b5091905056fea26469706673582212200268c1cb5f3f275976309c4efa1229fc1125a643e2d0c08e107cbbbd1feaed2a64736f6c63430008140033a26469706673582212205c584c3dd801f0bec4b432ef00a71ebd06d4ee14db602aeed6aee08a8482b1ff64736f6c63430008140033",
  "immutableReferences": {},
  "source": "// SPDX-License-Identifier: MIT\npragma solidity ^0.8.20;\n\nimport \"./EchoXInterfaces.sol\";\nimport \"./EchoXPool.sol\";\nimport \"./EchoXPoints.sol\";\n\ncontract EchoXCore {\n    address public owner;\n    IEchoXNFT public nft;\n    IEchoXToken public ex;\n    EchoXPoints public points;\n\n    mapping(address => address[]) public userPools;\n\n    event PoolCreated(address indexed pool, address indexed creator);\n    event NFTSwapped(address user, uint256[] tokenIds);\n    event EXStaked(address user, uint256 amount);\n    event PointsEarned(address indexed user, uint256 points);\n\n    constructor(address _nft, address _ex, address _points) {\n        owner = msg.sender;\n        nft = IEchoXNFT(_nft);\n        ex = IEchoXToken(_ex);\n        points = EchoXPoints(_points);\n    }\n\n    function createPool(string memory name, uint256 nftPriceInEx) external {\n        EchoXPool pool = new EchoXPool(msg.sender, address(nft), address(ex), name, address(points), nftPriceInEx);\n        userPools[msg.sender].push(address(pool));\n        emit PoolCreated(address(pool), msg.sender);\n    }\n\n    function swapNFTForEX(address poolAddr, uint256 tokenId) external {\n        EchoXPool pool = EchoXPool(poolAddr);\n        nft.safeTransferFrom(msg.sender, poolAddr, tokenId);\n        pool.swapForEX(msg.sender, tokenId);\n        points.addPoints(msg.sender, 5);\n        emit NFTSwapped(msg.sender, _asSingletonArray(tokenId));\n    }\n\n    function swapNFTForNFT(address poolAddr, uint256 fromTokenId, uint256 toTokenId) external {\n        EchoXPool(poolAddr).swapNFTtoNFT(msg.sender, fromTokenId, toTokenId);\n        points.addPoints(msg.sender, 5);\n    }\n\n    function batchSwap(address poolAddr, uint256[] calldata tokenIds) external {\n        require(tokenIds.length >= 5, \"Minimum 5 NFTs\");\n        EchoXPool(poolAddr).batchSwap(msg.sender, tokenIds);\n        points.addPoints(msg.sender, 6);\n        emit NFTSwapped(msg.sender, tokenIds);\n    }\n\n    function provideLiquidity(address poolAddr, uint256 amount) external {\n        ex.transferFrom(msg.sender, poolAddr, amount);\n        EchoXPool(poolAddr).stakeEX(msg.sender, amount);\n        points.addPoints(msg.sender, 3);\n        emit EXStaked(msg.sender, amount);\n    }\n\n    function _asSingletonArray(uint256 element) internal pure returns (uint256[] memory arr) {\n    arr = new uint256[](1);\n    arr[0] = element; // Assign the element to the first index\n}\n}\n",
  "sourcePath": "/workspaces/echoX-nft/echoX-nft/contracts/EchoXCore.sol",
  "compiler": {
    "name": "solc",
    "version": "0.8.20+commit.a1b79de6.Emscripten.clang"
  },
  "schemaVersion": "3.4.16",
  "updatedAt": "2025-05-02T16:26:43.632Z",
  "networkType": "ethereum",
  "devdoc": {
    "kind": "dev",
    "methods": {},
    "version": 1
  },
  "userdoc": {
    "kind": "user",
    "methods": {},
    "version": 1
  }
}