{
  "contractName": "EchoXPool",
  "abi": [
    {
      "inputs": [
        {
          "internalType": "address",
          "name": "_creator",
          "type": "address"
        },
        {
          "internalType": "address",
          "name": "_nft",
          "type": "address"
        },
        {
          "internalType": "address",
          "name": "_ex",
          "type": "address"
        },
        {
          "internalType": "string",
          "name": "_poolName",
          "type": "string"
        },
        {
          "internalType": "address",
          "name": "_points",
          "type": "address"
        }
      ],
      "stateMutability": "nonpayable",
      "type": "constructor"
    },
    {
      "inputs": [],
      "name": "creator",
      "outputs": [
        {
          "internalType": "address",
          "name": "",
          "type": "address"
        }
      ],
      "stateMutability": "view",
      "type": "function",
      "constant": true
    },
    {
      "inputs": [],
      "name": "ex",
      "outputs": [
        {
          "internalType": "contract IEchoXToken",
          "name": "",
          "type": "address"
        }
      ],
      "stateMutability": "view",
      "type": "function",
      "constant": true
    },
    {
      "inputs": [],
      "name": "nft",
      "outputs": [
        {
          "internalType": "contract IEchoXNFT",
          "name": "",
          "type": "address"
        }
      ],
      "stateMutability": "view",
      "type": "function",
      "constant": true
    },
    {
      "inputs": [],
      "name": "points",
      "outputs": [
        {
          "internalType": "contract EchoXPoints",
          "name": "",
          "type": "address"
        }
      ],
      "stateMutability": "view",
      "type": "function",
      "constant": true
    },
    {
      "inputs": [],
      "name": "poolName",
      "outputs": [
        {
          "internalType": "string",
          "name": "",
          "type": "string"
        }
      ],
      "stateMutability": "view",
      "type": "function",
      "constant": true
    },
    {
      "inputs": [
        {
          "internalType": "address",
          "name": "user",
          "type": "address"
        },
        {
          "internalType": "uint256",
          "name": "tokenId",
          "type": "uint256"
        }
      ],
      "name": "swapForEX",
      "outputs": [],
      "stateMutability": "nonpayable",
      "type": "function"
    },
    {
      "inputs": [
        {
          "internalType": "address",
          "name": "user",
          "type": "address"
        },
        {
          "internalType": "uint256",
          "name": "fromTokenId",
          "type": "uint256"
        },
        {
          "internalType": "uint256",
          "name": "toTokenId",
          "type": "uint256"
        }
      ],
      "name": "swapNFTtoNFT",
      "outputs": [],
      "stateMutability": "nonpayable",
      "type": "function"
    },
    {
      "inputs": [
        {
          "internalType": "address",
          "name": "user",
          "type": "address"
        },
        {
          "internalType": "uint256[]",
          "name": "tokenIds",
          "type": "uint256[]"
        }
      ],
      "name": "batchSwap",
      "outputs": [],
      "stateMutability": "nonpayable",
      "type": "function"
    },
    {
      "inputs": [
        {
          "internalType": "address",
          "name": "user",
          "type": "address"
        },
        {
          "internalType": "uint256",
          "name": "amount",
          "type": "uint256"
        }
      ],
      "name": "stakeEX",
      "outputs": [],
      "stateMutability": "nonpayable",
      "type": "function"
    }
  ],
  "bytecode": "0x608060405234801562000010575f80fd5b506040516200111b3803806200111b833981810160405281019062000036919062000338565b845f806101000a81548173ffffffffffffffffffffffffffffffffffffffff021916908373ffffffffffffffffffffffffffffffffffffffff1602179055508360025f6101000a81548173ffffffffffffffffffffffffffffffffffffffff021916908373ffffffffffffffffffffffffffffffffffffffff1602179055508260035f6101000a81548173ffffffffffffffffffffffffffffffffffffffff021916908373ffffffffffffffffffffffffffffffffffffffff160217905550816001908162000106919062000612565b508060045f6101000a81548173ffffffffffffffffffffffffffffffffffffffff021916908373ffffffffffffffffffffffffffffffffffffffff1602179055505050505050620006f6565b5f604051905090565b5f80fd5b5f80fd5b5f73ffffffffffffffffffffffffffffffffffffffff82169050919050565b5f6200018e8262000163565b9050919050565b620001a08162000182565b8114620001ab575f80fd5b50565b5f81519050620001be8162000195565b92915050565b5f80fd5b5f80fd5b5f601f19601f8301169050919050565b7f4e487b71000000000000000000000000000000000000000000000000000000005f52604160045260245ffd5b6200021482620001cc565b810181811067ffffffffffffffff82111715620002365762000235620001dc565b5b80604052505050565b5f6200024a62000152565b905062000258828262000209565b919050565b5f67ffffffffffffffff8211156200027a5762000279620001dc565b5b6200028582620001cc565b9050602081019050919050565b5f5b83811015620002b157808201518184015260208101905062000294565b5f8484015250505050565b5f620002d2620002cc846200025d565b6200023f565b905082815260208101848484011115620002f157620002f0620001c8565b5b620002fe84828562000292565b509392505050565b5f82601f8301126200031d576200031c620001c4565b5b81516200032f848260208601620002bc565b91505092915050565b5f805f805f60a086880312156200035457620003536200015b565b5b5f6200036388828901620001ae565b95505060206200037688828901620001ae565b94505060406200038988828901620001ae565b935050606086015167ffffffffffffffff811115620003ad57620003ac6200015f565b5b620003bb8882890162000306565b9250506080620003ce88828901620001ae565b9150509295509295909350565b5f81519050919050565b7f4e487b71000000000000000000000000000000000000000000000000000000005f52602260045260245ffd5b5f60028204905060018216806200042a57607f821691505b60208210810362000440576200043f620003e5565b5b50919050565b5f819050815f5260205f209050919050565b5f6020601f8301049050919050565b5f82821b905092915050565b5f60088302620004a47fffffffffffffffffffffffffffffffffffffffffffffffffffffffffffffffff8262000467565b620004b0868362000467565b95508019841693508086168417925050509392505050565b5f819050919050565b5f819050919050565b5f620004fa620004f4620004ee84620004c8565b620004d1565b620004c8565b9050919050565b5f819050919050565b6200051583620004da565b6200052d620005248262000501565b84845462000473565b825550505050565b5f90565b6200054362000535565b620005508184846200050a565b505050565b5b8181101562000577576200056b5f8262000539565b60018101905062000556565b5050565b601f821115620005c657620005908162000446565b6200059b8462000458565b81016020851015620005ab578190505b620005c3620005ba8562000458565b83018262000555565b50505b505050565b5f82821c905092915050565b5f620005e85f1984600802620005cb565b1980831691505092915050565b5f620006028383620005d7565b9150826002028217905092915050565b6200061d82620003db565b67ffffffffffffffff811115620006395762000638620001dc565b5b62000645825462000412565b620006528282856200057b565b5f60209050601f83116001811462000688575f841562000673578287015190505b6200067f8582620005f5565b865550620006ee565b601f198416620006988662000446565b5f5b82811015620006c1578489015182556001820191506020850194506020810190506200069a565b86831015620006e15784890151620006dd601f891682620005d7565b8355505b6001600288020188555050505b505050505050565b610a1780620007045f395ff3fe608060405234801561000f575f80fd5b5060043610610091575f3560e01c806348ebdae71161006457806348ebdae71461010b5780634d7a38421461012757806353ccbd2914610143578063e1c345491461015f578063f3466dfa1461017d57610091565b806302d05d3f146100955780631be6dd64146100b35780633ebf05dd146100d157806347ccca02146100ed575b5f80fd5b61009d61019b565b6040516100aa9190610534565b60405180910390f35b6100bb6101be565b6040516100c891906105a8565b60405180910390f35b6100eb60048036038101906100e69190610626565b6101e3565b005b6100f5610272565b6040516101029190610696565b60405180910390f35b61012560048036038101906101209190610710565b610297565b005b610141600480360381019061013c919061076d565b610328565b005b61015d6004803603810190610158919061076d565b6103b6565b005b610167610444565b60405161017491906107cb565b60405180910390f35b610185610469565b604051610192919061086e565b60405180910390f35b5f8054906101000a900473ffffffffffffffffffffffffffffffffffffffff1681565b60045f9054906101000a900473ffffffffffffffffffffffffffffffffffffffff1681565b60045f9054906101000a900473ffffffffffffffffffffffffffffffffffffffff1673ffffffffffffffffffffffffffffffffffffffff1663507cd30f8460026040518363ffffffff1660e01b81526004016102409291906108c7565b5f604051808303815f87803b158015610257575f80fd5b505af1158015610269573d5f803e3d5ffd5b50505050505050565b60025f9054906101000a900473ffffffffffffffffffffffffffffffffffffffff1681565b60045f9054906101000a900473ffffffffffffffffffffffffffffffffffffffff1673ffffffffffffffffffffffffffffffffffffffff1663507cd30f84848490506040518363ffffffff1660e01b81526004016102f69291906108fd565b5f604051808303815f87803b15801561030d575f80fd5b505af115801561031f573d5f803e3d5ffd5b50505050505050565b60045f9054906101000a900473ffffffffffffffffffffffffffffffffffffffff1673ffffffffffffffffffffffffffffffffffffffff1663507cd30f8360026040518363ffffffff1660e01b81526004016103859291906108c7565b5f604051808303815f87803b15801561039c575f80fd5b505af11580156103ae573d5f803e3d5ffd5b505050505050565b60045f9054906101000a900473ffffffffffffffffffffffffffffffffffffffff1673ffffffffffffffffffffffffffffffffffffffff1663507cd30f8360016040518363ffffffff1660e01b815260040161041392919061095d565b5f604051808303815f87803b15801561042a575f80fd5b505af115801561043c573d5f803e3d5ffd5b505050505050565b60035f9054906101000a900473ffffffffffffffffffffffffffffffffffffffff1681565b60018054610476906109b1565b80601f01602080910402602001604051908101604052809291908181526020018280546104a2906109b1565b80156104ed5780601f106104c4576101008083540402835291602001916104ed565b820191905f5260205f20905b8154815290600101906020018083116104d057829003601f168201915b505050505081565b5f73ffffffffffffffffffffffffffffffffffffffff82169050919050565b5f61051e826104f5565b9050919050565b61052e81610514565b82525050565b5f6020820190506105475f830184610525565b92915050565b5f819050919050565b5f61057061056b610566846104f5565b61054d565b6104f5565b9050919050565b5f61058182610556565b9050919050565b5f61059282610577565b9050919050565b6105a281610588565b82525050565b5f6020820190506105bb5f830184610599565b92915050565b5f80fd5b5f80fd5b6105d281610514565b81146105dc575f80fd5b50565b5f813590506105ed816105c9565b92915050565b5f819050919050565b610605816105f3565b811461060f575f80fd5b50565b5f81359050610620816105fc565b92915050565b5f805f6060848603121561063d5761063c6105c1565b5b5f61064a868287016105df565b935050602061065b86828701610612565b925050604061066c86828701610612565b9150509250925092565b5f61068082610577565b9050919050565b61069081610676565b82525050565b5f6020820190506106a95f830184610687565b92915050565b5f80fd5b5f80fd5b5f80fd5b5f8083601f8401126106d0576106cf6106af565b5b8235905067ffffffffffffffff8111156106ed576106ec6106b3565b5b602083019150836020820283011115610709576107086106b7565b5b9250929050565b5f805f60408486031215610727576107266105c1565b5b5f610734868287016105df565b935050602084013567ffffffffffffffff811115610755576107546105c5565b5b610761868287016106bb565b92509250509250925092565b5f8060408385031215610783576107826105c1565b5b5f610790858286016105df565b92505060206107a185828601610612565b9150509250929050565b5f6107b582610577565b9050919050565b6107c5816107ab565b82525050565b5f6020820190506107de5f8301846107bc565b92915050565b5f81519050919050565b5f82825260208201905092915050565b5f5b8381101561081b578082015181840152602081019050610800565b5f8484015250505050565b5f601f19601f8301169050919050565b5f610840826107e4565b61084a81856107ee565b935061085a8185602086016107fe565b61086381610826565b840191505092915050565b5f6020820190508181035f8301526108868184610836565b905092915050565b5f819050919050565b5f6108b16108ac6108a78461088e565b61054d565b6105f3565b9050919050565b6108c181610897565b82525050565b5f6040820190506108da5f830185610525565b6108e760208301846108b8565b9392505050565b6108f7816105f3565b82525050565b5f6040820190506109105f830185610525565b61091d60208301846108ee565b9392505050565b5f819050919050565b5f61094761094261093d84610924565b61054d565b6105f3565b9050919050565b6109578161092d565b82525050565b5f6040820190506109705f830185610525565b61097d602083018461094e565b9392505050565b7f4e487b71000000000000000000000000000000000000000000000000000000005f52602260045260245ffd5b5f60028204905060018216806109c857607f821691505b6020821081036109db576109da610984565b5b5091905056fea2646970667358221220092bd7d1e8d6f72b03e10556a43ef3f351d3493aee5d87367bc68208204c061d64736f6c63430008140033",
  "immutableReferences": {},
  "source": "// SPDX-License-Identifier: MIT\npragma solidity ^0.8.20;\n\nimport \"./EchoXInterfaces.sol\";\nimport \"./EchoXPoints.sol\";\n\ncontract EchoXPool {\n    address public creator;\n    string public poolName;\n    IEchoXNFT public nft;\n    IEchoXToken public ex;\n    EchoXPoints public points;\n\n    constructor(address _creator, address _nft, address _ex, string memory _poolName, address _points) {\n        creator = _creator;\n        nft = IEchoXNFT(_nft);\n        ex = IEchoXToken(_ex);\n        poolName = _poolName;\n        points = EchoXPoints(_points);\n    }\n\n    function swapForEX(address user, uint256 tokenId) external {\n        // Logic to handle NFT-to-EX conversion (placeholder)\n        points.addPoints(user, 2);\n    }\n\n    function swapNFTtoNFT(address user, uint256 fromTokenId, uint256 toTokenId) external {\n        // Logic to swap NFTs (placeholder)\n        points.addPoints(user, 2);\n    }\n\n    function batchSwap(address user, uint256[] calldata tokenIds) external {\n        // Logic for batch swapping NFTs (placeholder)\n        points.addPoints(user, tokenIds.length);\n    }\n\n    function stakeEX(address user, uint256 amount) external {\n        // Logic for staking EX tokens (placeholder)\n        points.addPoints(user, 1);\n    }\n}\n",
  "sourcePath": "/workspaces/echoX-nft/echoX-nft/contracts/EchoXPool.sol",
  "compiler": {
    "name": "solc",
    "version": "0.8.20+commit.a1b79de6.Emscripten.clang"
  },
  "schemaVersion": "3.4.16",
  "updatedAt": "2025-05-01T08:51:03.613Z",
  "networkType": "ethereum",
  "devdoc": {
    "kind": "dev",
    "methods": {},
    "version": 1
  },
  "userdoc": {
    "kind": "user",
    "methods": {},
    "version": 1
  }
}