{
  "contractName": "EchoXNFT",
  "abi": [
    {
      "inputs": [],
      "stateMutability": "nonpayable",
      "type": "constructor"
    },
    {
      "inputs": [
        {
          "internalType": "address",
          "name": "sender",
          "type": "address"
        },
        {
          "internalType": "uint256",
          "name": "tokenId",
          "type": "uint256"
        },
        {
          "internalType": "address",
          "name": "owner",
          "type": "address"
        }
      ],
      "name": "ERC721IncorrectOwner",
      "type": "error"
    },
    {
      "inputs": [
        {
          "internalType": "address",
          "name": "operator",
          "type": "address"
        },
        {
          "internalType": "uint256",
          "name": "tokenId",
          "type": "uint256"
        }
      ],
      "name": "ERC721InsufficientApproval",
      "type": "error"
    },
    {
      "inputs": [
        {
          "internalType": "address",
          "name": "approver",
          "type": "address"
        }
      ],
      "name": "ERC721InvalidApprover",
      "type": "error"
    },
    {
      "inputs": [
        {
          "internalType": "address",
          "name": "operator",
          "type": "address"
        }
      ],
      "name": "ERC721InvalidOperator",
      "type": "error"
    },
    {
      "inputs": [
        {
          "internalType": "address",
          "name": "owner",
          "type": "address"
        }
      ],
      "name": "ERC721InvalidOwner",
      "type": "error"
    },
    {
      "inputs": [
        {
          "internalType": "address",
          "name": "receiver",
          "type": "address"
        }
      ],
      "name": "ERC721InvalidReceiver",
      "type": "error"
    },
    {
      "inputs": [
        {
          "internalType": "address",
          "name": "sender",
          "type": "address"
        }
      ],
      "name": "ERC721InvalidSender",
      "type": "error"
    },
    {
      "inputs": [
        {
          "internalType": "uint256",
          "name": "tokenId",
          "type": "uint256"
        }
      ],
      "name": "ERC721NonexistentToken",
      "type": "error"
    },
    {
      "inputs": [
        {
          "internalType": "address",
          "name": "owner",
          "type": "address"
        }
      ],
      "name": "OwnableInvalidOwner",
      "type": "error"
    },
    {
      "inputs": [
        {
          "internalType": "address",
          "name": "account",
          "type": "address"
        }
      ],
      "name": "OwnableUnauthorizedAccount",
      "type": "error"
    },
    {
      "anonymous": false,
      "inputs": [
        {
          "indexed": true,
          "internalType": "address",
          "name": "owner",
          "type": "address"
        },
        {
          "indexed": true,
          "internalType": "address",
          "name": "approved",
          "type": "address"
        },
        {
          "indexed": true,
          "internalType": "uint256",
          "name": "tokenId",
          "type": "uint256"
        }
      ],
      "name": "Approval",
      "type": "event"
    },
    {
      "anonymous": false,
      "inputs": [
        {
          "indexed": true,
          "internalType": "address",
          "name": "owner",
          "type": "address"
        },
        {
          "indexed": true,
          "internalType": "address",
          "name": "operator",
          "type": "address"
        },
        {
          "indexed": false,
          "internalType": "bool",
          "name": "approved",
          "type": "bool"
        }
      ],
      "name": "ApprovalForAll",
      "type": "event"
    },
    {
      "anonymous": false,
      "inputs": [
        {
          "indexed": false,
          "internalType": "uint256",
          "name": "_fromTokenId",
          "type": "uint256"
        },
        {
          "indexed": false,
          "internalType": "uint256",
          "name": "_toTokenId",
          "type": "uint256"
        }
      ],
      "name": "BatchMetadataUpdate",
      "type": "event"
    },
    {
      "anonymous": false,
      "inputs": [
        {
          "indexed": false,
          "internalType": "uint256",
          "name": "_tokenId",
          "type": "uint256"
        }
      ],
      "name": "MetadataUpdate",
      "type": "event"
    },
    {
      "anonymous": false,
      "inputs": [
        {
          "indexed": true,
          "internalType": "address",
          "name": "previousOwner",
          "type": "address"
        },
        {
          "indexed": true,
          "internalType": "address",
          "name": "newOwner",
          "type": "address"
        }
      ],
      "name": "OwnershipTransferred",
      "type": "event"
    },
    {
      "anonymous": false,
      "inputs": [
        {
          "indexed": true,
          "internalType": "address",
          "name": "from",
          "type": "address"
        },
        {
          "indexed": true,
          "internalType": "address",
          "name": "to",
          "type": "address"
        },
        {
          "indexed": true,
          "internalType": "uint256",
          "name": "tokenId",
          "type": "uint256"
        }
      ],
      "name": "Transfer",
      "type": "event"
    },
    {
      "inputs": [
        {
          "internalType": "address",
          "name": "to",
          "type": "address"
        },
        {
          "internalType": "uint256",
          "name": "tokenId",
          "type": "uint256"
        }
      ],
      "name": "approve",
      "outputs": [],
      "stateMutability": "nonpayable",
      "type": "function"
    },
    {
      "inputs": [
        {
          "internalType": "address",
          "name": "owner",
          "type": "address"
        }
      ],
      "name": "balanceOf",
      "outputs": [
        {
          "internalType": "uint256",
          "name": "",
          "type": "uint256"
        }
      ],
      "stateMutability": "view",
      "type": "function",
      "constant": true
    },
    {
      "inputs": [
        {
          "internalType": "uint256",
          "name": "tokenId",
          "type": "uint256"
        }
      ],
      "name": "getApproved",
      "outputs": [
        {
          "internalType": "address",
          "name": "",
          "type": "address"
        }
      ],
      "stateMutability": "view",
      "type": "function",
      "constant": true
    },
    {
      "inputs": [
        {
          "internalType": "address",
          "name": "owner",
          "type": "address"
        },
        {
          "internalType": "address",
          "name": "operator",
          "type": "address"
        }
      ],
      "name": "isApprovedForAll",
      "outputs": [
        {
          "internalType": "bool",
          "name": "",
          "type": "bool"
        }
      ],
      "stateMutability": "view",
      "type": "function",
      "constant": true
    },
    {
      "inputs": [],
      "name": "metadataURI",
      "outputs": [
        {
          "internalType": "string",
          "name": "",
          "type": "string"
        }
      ],
      "stateMutability": "view",
      "type": "function",
      "constant": true
    },
    {
      "inputs": [],
      "name": "name",
      "outputs": [
        {
          "internalType": "string",
          "name": "",
          "type": "string"
        }
      ],
      "stateMutability": "view",
      "type": "function",
      "constant": true
    },
    {
      "inputs": [],
      "name": "owner",
      "outputs": [
        {
          "internalType": "address",
          "name": "",
          "type": "address"
        }
      ],
      "stateMutability": "view",
      "type": "function",
      "constant": true
    },
    {
      "inputs": [
        {
          "internalType": "uint256",
          "name": "tokenId",
          "type": "uint256"
        }
      ],
      "name": "ownerOf",
      "outputs": [
        {
          "internalType": "address",
          "name": "",
          "type": "address"
        }
      ],
      "stateMutability": "view",
      "type": "function",
      "constant": true
    },
    {
      "inputs": [],
      "name": "renounceOwnership",
      "outputs": [],
      "stateMutability": "nonpayable",
      "type": "function"
    },
    {
      "inputs": [
        {
          "internalType": "address",
          "name": "from",
          "type": "address"
        },
        {
          "internalType": "address",
          "name": "to",
          "type": "address"
        },
        {
          "internalType": "uint256",
          "name": "tokenId",
          "type": "uint256"
        }
      ],
      "name": "safeTransferFrom",
      "outputs": [],
      "stateMutability": "nonpayable",
      "type": "function"
    },
    {
      "inputs": [
        {
          "internalType": "address",
          "name": "from",
          "type": "address"
        },
        {
          "internalType": "address",
          "name": "to",
          "type": "address"
        },
        {
          "internalType": "uint256",
          "name": "tokenId",
          "type": "uint256"
        },
        {
          "internalType": "bytes",
          "name": "data",
          "type": "bytes"
        }
      ],
      "name": "safeTransferFrom",
      "outputs": [],
      "stateMutability": "nonpayable",
      "type": "function"
    },
    {
      "inputs": [
        {
          "internalType": "address",
          "name": "operator",
          "type": "address"
        },
        {
          "internalType": "bool",
          "name": "approved",
          "type": "bool"
        }
      ],
      "name": "setApprovalForAll",
      "outputs": [],
      "stateMutability": "nonpayable",
      "type": "function"
    },
    {
      "inputs": [
        {
          "internalType": "bytes4",
          "name": "interfaceId",
          "type": "bytes4"
        }
      ],
      "name": "supportsInterface",
      "outputs": [
        {
          "internalType": "bool",
          "name": "",
          "type": "bool"
        }
      ],
      "stateMutability": "view",
      "type": "function",
      "constant": true
    },
    {
      "inputs": [],
      "name": "symbol",
      "outputs": [
        {
          "internalType": "string",
          "name": "",
          "type": "string"
        }
      ],
      "stateMutability": "view",
      "type": "function",
      "constant": true
    },
    {
      "inputs": [],
      "name": "tokenCounter",
      "outputs": [
        {
          "internalType": "uint256",
          "name": "",
          "type": "uint256"
        }
      ],
      "stateMutability": "view",
      "type": "function",
      "constant": true
    },
    {
      "inputs": [
        {
          "internalType": "uint256",
          "name": "tokenId",
          "type": "uint256"
        }
      ],
      "name": "tokenURI",
      "outputs": [
        {
          "internalType": "string",
          "name": "",
          "type": "string"
        }
      ],
      "stateMutability": "view",
      "type": "function",
      "constant": true
    },
    {
      "inputs": [
        {
          "internalType": "address",
          "name": "from",
          "type": "address"
        },
        {
          "internalType": "address",
          "name": "to",
          "type": "address"
        },
        {
          "internalType": "uint256",
          "name": "tokenId",
          "type": "uint256"
        }
      ],
      "name": "transferFrom",
      "outputs": [],
      "stateMutability": "nonpayable",
      "type": "function"
    },
    {
      "inputs": [
        {
          "internalType": "address",
          "name": "newOwner",
          "type": "address"
        }
      ],
      "name": "transferOwnership",
      "outputs": [],
      "stateMutability": "nonpayable",
      "type": "function"
    },
    {
      "inputs": [
        {
          "internalType": "address",
          "name": "to",
          "type": "address"
        }
      ],
      "name": "mintThreeNFTs",
      "outputs": [],
      "stateMutability": "nonpayable",
      "type": "function"
    }
  ],
  "bytecode": "0x608060405234801562000010575f80fd5b50336040518060400160405280600981526020017f4563686f58204e465400000000000000000000000000000000000000000000008152506040518060400160405280600581526020017f45584e4654000000000000000000000000000000000000000000000000000000815250815f90816200008e919062000455565b508060019081620000a0919062000455565b5050505f73ffffffffffffffffffffffffffffffffffffffff168173ffffffffffffffffffffffffffffffffffffffff160362000116575f6040517f1e4fbdf70000000000000000000000000000000000000000000000000000000081526004016200010d91906200057c565b60405180910390fd5b62000127816200012e60201b60201c565b5062000597565b5f60075f9054906101000a900473ffffffffffffffffffffffffffffffffffffffff1690508160075f6101000a81548173ffffffffffffffffffffffffffffffffffffffff021916908373ffffffffffffffffffffffffffffffffffffffff1602179055508173ffffffffffffffffffffffffffffffffffffffff168173ffffffffffffffffffffffffffffffffffffffff167f8be0079c531659141344cd1fd0a4f28419497f9722a3daafe3b4186f6b6457e060405160405180910390a35050565b5f81519050919050565b7f4e487b71000000000000000000000000000000000000000000000000000000005f52604160045260245ffd5b7f4e487b71000000000000000000000000000000000000000000000000000000005f52602260045260245ffd5b5f60028204905060018216806200026d57607f821691505b60208210810362000283576200028262000228565b5b50919050565b5f819050815f5260205f209050919050565b5f6020601f8301049050919050565b5f82821b905092915050565b5f60088302620002e77fffffffffffffffffffffffffffffffffffffffffffffffffffffffffffffffff82620002aa565b620002f38683620002aa565b95508019841693508086168417925050509392505050565b5f819050919050565b5f819050919050565b5f6200033d6200033762000331846200030b565b62000314565b6200030b565b9050919050565b5f819050919050565b62000358836200031d565b62000370620003678262000344565b848454620002b6565b825550505050565b5f90565b6200038662000378565b620003938184846200034d565b505050565b5b81811015620003ba57620003ae5f826200037c565b60018101905062000399565b5050565b601f8211156200040957620003d38162000289565b620003de846200029b565b81016020851015620003ee578190505b62000406620003fd856200029b565b83018262000398565b50505b505050565b5f82821c905092915050565b5f6200042b5f19846008026200040e565b1980831691505092915050565b5f6200044583836200041a565b9150826002028217905092915050565b6200046082620001f1565b67ffffffffffffffff8111156200047c576200047b620001fb565b5b62000488825462000255565b62000495828285620003be565b5f60209050601f831160018114620004cb575f8415620004b6578287015190505b620004c2858262000438565b86555062000531565b601f198416620004db8662000289565b5f5b828110156200050457848901518255600182019150602085019450602081019050620004dd565b8683101562000524578489015162000520601f8916826200041a565b8355505b6001600288020188555050505b505050505050565b5f73ffffffffffffffffffffffffffffffffffffffff82169050919050565b5f620005648262000539565b9050919050565b620005768162000558565b82525050565b5f602082019050620005915f8301846200056b565b92915050565b61257f80620005a55f395ff3fe608060405234801561000f575f80fd5b506004361061011f575f3560e01c806370a08231116100ab578063b88d4fde1161006f578063b88d4fde146102f1578063c87b56dd1461030d578063d082e3811461033d578063e985e9c51461035b578063f2fde38b1461038b5761011f565b806370a082311461025f578063715018a61461028f5780638da5cb5b1461029957806395d89b41146102b7578063a22cb465146102d55761011f565b8063095ea7b3116100f2578063095ea7b3146101bf57806323b872dd146101db57806342842e0e146101f75780636352211e146102135780636862c0d4146102435761011f565b806301ffc9a71461012357806303ee438c1461015357806306fdde0314610171578063081812fc1461018f575b5f80fd5b61013d60048036038101906101389190611aee565b6103a7565b60405161014a9190611b33565b60405180910390f35b61015b610407565b6040516101689190611bd6565b60405180910390f35b610179610423565b6040516101869190611bd6565b60405180910390f35b6101a960048036038101906101a49190611c29565b6104b2565b6040516101b69190611c93565b60405180910390f35b6101d960048036038101906101d49190611cd6565b6104cd565b005b6101f560048036038101906101f09190611d14565b6104e3565b005b610211600480360381019061020c9190611d14565b6105e2565b005b61022d60048036038101906102289190611c29565b610601565b60405161023a9190611c93565b60405180910390f35b61025d60048036038101906102589190611d64565b610612565b005b61027960048036038101906102749190611d64565b61067e565b6040516102869190611d9e565b60405180910390f35b610297610734565b005b6102a1610747565b6040516102ae9190611c93565b60405180910390f35b6102bf61076f565b6040516102cc9190611bd6565b60405180910390f35b6102ef60048036038101906102ea9190611de1565b6107ff565b005b61030b60048036038101906103069190611f4b565b610815565b005b61032760048036038101906103229190611c29565b61083a565b6040516103349190611bd6565b60405180910390f35b610345610945565b6040516103529190611d9e565b60405180910390f35b61037560048036038101906103709190611fcb565b61094b565b6040516103829190611b33565b60405180910390f35b6103a560048036038101906103a09190611d64565b6109d9565b005b5f634906490660e01b7bffffffffffffffffffffffffffffffffffffffffffffffffffffffff1916827bffffffffffffffffffffffffffffffffffffffffffffffffffffffff1916148061040057506103ff82610a5d565b5b9050919050565b6040518060800160405280604281526020016125086042913981565b60605f805461043190612036565b80601f016020809104026020016040519081016040528092919081815260200182805461045d90612036565b80156104a85780601f1061047f576101008083540402835291602001916104a8565b820191905f5260205f20905b81548152906001019060200180831161048b57829003601f168201915b5050505050905090565b5f6104bc82610b3e565b506104c682610bc4565b9050919050565b6104df82826104da610bfd565b610c04565b5050565b5f73ffffffffffffffffffffffffffffffffffffffff168273ffffffffffffffffffffffffffffffffffffffff1603610553575f6040517f64a0ae9200000000000000000000000000000000000000000000000000000000815260040161054a9190611c93565b60405180910390fd5b5f6105668383610561610bfd565b610c16565b90508373ffffffffffffffffffffffffffffffffffffffff168173ffffffffffffffffffffffffffffffffffffffff16146105dc578382826040517f64283d7b0000000000000000000000000000000000000000000000000000000081526004016105d393929190612066565b60405180910390fd5b50505050565b6105fc83838360405180602001604052805f815250610815565b505050565b5f61060b82610b3e565b9050919050565b5f5b600381101561067a575f600854905061062d8382610e21565b61064f8160405180608001604052806042815260200161250860429139610e3e565b60085f815480929190610661906120c8565b9190505550508080610672906120c8565b915050610614565b5050565b5f8073ffffffffffffffffffffffffffffffffffffffff168273ffffffffffffffffffffffffffffffffffffffff16036106ef575f6040517f89c62b640000000000000000000000000000000000000000000000000000000081526004016106e69190611c93565b60405180910390fd5b60035f8373ffffffffffffffffffffffffffffffffffffffff1673ffffffffffffffffffffffffffffffffffffffff1681526020019081526020015f20549050919050565b61073c610e98565b6107455f610f1f565b565b5f60075f9054906101000a900473ffffffffffffffffffffffffffffffffffffffff16905090565b60606001805461077e90612036565b80601f01602080910402602001604051908101604052809291908181526020018280546107aa90612036565b80156107f55780601f106107cc576101008083540402835291602001916107f5565b820191905f5260205f20905b8154815290600101906020018083116107d857829003601f168201915b5050505050905090565b61081161080a610bfd565b8383610fe2565b5050565b6108208484846104e3565b61083461082b610bfd565b8585858561114b565b50505050565b606061084582610b3e565b505f60065f8481526020019081526020015f20805461086390612036565b80601f016020809104026020016040519081016040528092919081815260200182805461088f90612036565b80156108da5780601f106108b1576101008083540402835291602001916108da565b820191905f5260205f20905b8154815290600101906020018083116108bd57829003601f168201915b505050505090505f6108ea6112f7565b90505f8151036108fe578192505050610940565b5f8251111561093257808260405160200161091a929190612149565b60405160208183030381529060405292505050610940565b61093b8461130d565b925050505b919050565b60085481565b5f60055f8473ffffffffffffffffffffffffffffffffffffffff1673ffffffffffffffffffffffffffffffffffffffff1681526020019081526020015f205f8373ffffffffffffffffffffffffffffffffffffffff1673ffffffffffffffffffffffffffffffffffffffff1681526020019081526020015f205f9054906101000a900460ff16905092915050565b6109e1610e98565b5f73ffffffffffffffffffffffffffffffffffffffff168173ffffffffffffffffffffffffffffffffffffffff1603610a51575f6040517f1e4fbdf7000000000000000000000000000000000000000000000000000000008152600401610a489190611c93565b60405180910390fd5b610a5a81610f1f565b50565b5f7f80ac58cd000000000000000000000000000000000000000000000000000000007bffffffffffffffffffffffffffffffffffffffffffffffffffffffff1916827bffffffffffffffffffffffffffffffffffffffffffffffffffffffff19161480610b2757507f5b5e139f000000000000000000000000000000000000000000000000000000007bffffffffffffffffffffffffffffffffffffffffffffffffffffffff1916827bffffffffffffffffffffffffffffffffffffffffffffffffffffffff1916145b80610b375750610b3682611373565b5b9050919050565b5f80610b49836113dc565b90505f73ffffffffffffffffffffffffffffffffffffffff168173ffffffffffffffffffffffffffffffffffffffff1603610bbb57826040517f7e273289000000000000000000000000000000000000000000000000000000008152600401610bb29190611d9e565b60405180910390fd5b80915050919050565b5f60045f8381526020019081526020015f205f9054906101000a900473ffffffffffffffffffffffffffffffffffffffff169050919050565b5f33905090565b610c118383836001611415565b505050565b5f80610c21846113dc565b90505f73ffffffffffffffffffffffffffffffffffffffff168373ffffffffffffffffffffffffffffffffffffffff1614610c6257610c618184866115d4565b5b5f73ffffffffffffffffffffffffffffffffffffffff168173ffffffffffffffffffffffffffffffffffffffff1614610ced57610ca15f855f80611415565b600160035f8373ffffffffffffffffffffffffffffffffffffffff1673ffffffffffffffffffffffffffffffffffffffff1681526020019081526020015f205f82825403925050819055505b5f73ffffffffffffffffffffffffffffffffffffffff168573ffffffffffffffffffffffffffffffffffffffff1614610d6c57600160035f8773ffffffffffffffffffffffffffffffffffffffff1673ffffffffffffffffffffffffffffffffffffffff1681526020019081526020015f205f82825401925050819055505b8460025f8681526020019081526020015f205f6101000a81548173ffffffffffffffffffffffffffffffffffffffff021916908373ffffffffffffffffffffffffffffffffffffffff160217905550838573ffffffffffffffffffffffffffffffffffffffff168273ffffffffffffffffffffffffffffffffffffffff167fddf252ad1be2c89b69c2b068fc378daa952ba7f163c4a11628f55a4df523b3ef60405160405180910390a4809150509392505050565b610e3a828260405180602001604052805f815250611697565b5050565b8060065f8481526020019081526020015f209081610e5c9190612309565b507ff8e1a15aba9398e019f0b49df1a4fde98ee17ae345cb5f6b5e2c27f5033e8ce782604051610e8c9190611d9e565b60405180910390a15050565b610ea0610bfd565b73ffffffffffffffffffffffffffffffffffffffff16610ebe610747565b73ffffffffffffffffffffffffffffffffffffffff1614610f1d57610ee1610bfd565b6040517f118cdaa7000000000000000000000000000000000000000000000000000000008152600401610f149190611c93565b60405180910390fd5b565b5f60075f9054906101000a900473ffffffffffffffffffffffffffffffffffffffff1690508160075f6101000a81548173ffffffffffffffffffffffffffffffffffffffff021916908373ffffffffffffffffffffffffffffffffffffffff1602179055508173ffffffffffffffffffffffffffffffffffffffff168173ffffffffffffffffffffffffffffffffffffffff167f8be0079c531659141344cd1fd0a4f28419497f9722a3daafe3b4186f6b6457e060405160405180910390a35050565b5f73ffffffffffffffffffffffffffffffffffffffff168273ffffffffffffffffffffffffffffffffffffffff160361105257816040517f5b08ba180000000000000000000000000000000000000000000000000000000081526004016110499190611c93565b60405180910390fd5b8060055f8573ffffffffffffffffffffffffffffffffffffffff1673ffffffffffffffffffffffffffffffffffffffff1681526020019081526020015f205f8473ffffffffffffffffffffffffffffffffffffffff1673ffffffffffffffffffffffffffffffffffffffff1681526020019081526020015f205f6101000a81548160ff0219169083151502179055508173ffffffffffffffffffffffffffffffffffffffff168373ffffffffffffffffffffffffffffffffffffffff167f17307eab39ab6107e8899845ad3d59bd9653f200f220920489ca2b5937696c318360405161113e9190611b33565b60405180910390a3505050565b5f8373ffffffffffffffffffffffffffffffffffffffff163b11156112f0578273ffffffffffffffffffffffffffffffffffffffff1663150b7a02868685856040518563ffffffff1660e01b81526004016111a9949392919061242a565b6020604051808303815f875af19250505080156111e457506040513d601f19601f820116820180604052508101906111e19190612488565b60015b611265573d805f8114611212576040519150601f19603f3d011682016040523d82523d5f602084013e611217565b606091505b505f81510361125d57836040517f64a0ae920000000000000000000000000000000000000000000000000000000081526004016112549190611c93565b60405180910390fd5b805181602001fd5b63150b7a0260e01b7bffffffffffffffffffffffffffffffffffffffffffffffffffffffff1916817bffffffffffffffffffffffffffffffffffffffffffffffffffffffff1916146112ee57836040517f64a0ae920000000000000000000000000000000000000000000000000000000081526004016112e59190611c93565b60405180910390fd5b505b5050505050565b606060405180602001604052805f815250905090565b606061131882610b3e565b505f6113226112f7565b90505f8151116113405760405180602001604052805f81525061136b565b8061134a846116ba565b60405160200161135b929190612149565b6040516020818303038152906040525b915050919050565b5f7f01ffc9a7000000000000000000000000000000000000000000000000000000007bffffffffffffffffffffffffffffffffffffffffffffffffffffffff1916827bffffffffffffffffffffffffffffffffffffffffffffffffffffffff1916149050919050565b5f60025f8381526020019081526020015f205f9054906101000a900473ffffffffffffffffffffffffffffffffffffffff169050919050565b808061144d57505f73ffffffffffffffffffffffffffffffffffffffff168273ffffffffffffffffffffffffffffffffffffffff1614155b1561157f575f61145c84610b3e565b90505f73ffffffffffffffffffffffffffffffffffffffff168373ffffffffffffffffffffffffffffffffffffffff16141580156114c657508273ffffffffffffffffffffffffffffffffffffffff168173ffffffffffffffffffffffffffffffffffffffff1614155b80156114d957506114d7818461094b565b155b1561151b57826040517fa9fbf51f0000000000000000000000000000000000000000000000000000000081526004016115129190611c93565b60405180910390fd5b811561157d57838573ffffffffffffffffffffffffffffffffffffffff168273ffffffffffffffffffffffffffffffffffffffff167f8c5be1e5ebec7d5bd14f71427d1e84f3dd0314c0f7b2291e5b200ac8c7c3b92560405160405180910390a45b505b8360045f8581526020019081526020015f205f6101000a81548173ffffffffffffffffffffffffffffffffffffffff021916908373ffffffffffffffffffffffffffffffffffffffff16021790555050505050565b6115df838383611784565b611692575f73ffffffffffffffffffffffffffffffffffffffff168373ffffffffffffffffffffffffffffffffffffffff160361165357806040517f7e27328900000000000000000000000000000000000000000000000000000000815260040161164a9190611d9e565b60405180910390fd5b81816040517f177e802f0000000000000000000000000000000000000000000000000000000081526004016116899291906124b3565b60405180910390fd5b505050565b6116a18383611844565b6116b56116ac610bfd565b5f85858561114b565b505050565b60605f60016116c884611937565b0190505f8167ffffffffffffffff8111156116e6576116e5611e27565b5b6040519080825280601f01601f1916602001820160405280156117185781602001600182028036833780820191505090505b5090505f82602001820190505b600115611779578080600190039150507f3031323334353637383961626364656600000000000000000000000000000000600a86061a8153600a858161176e5761176d6124da565b5b0494505f8503611725575b819350505050919050565b5f8073ffffffffffffffffffffffffffffffffffffffff168373ffffffffffffffffffffffffffffffffffffffff161415801561183b57508273ffffffffffffffffffffffffffffffffffffffff168473ffffffffffffffffffffffffffffffffffffffff1614806117fc57506117fb848461094b565b5b8061183a57508273ffffffffffffffffffffffffffffffffffffffff1661182283610bc4565b73ffffffffffffffffffffffffffffffffffffffff16145b5b90509392505050565b5f73ffffffffffffffffffffffffffffffffffffffff168273ffffffffffffffffffffffffffffffffffffffff16036118b4575f6040517f64a0ae920000000000000000000000000000000000000000000000000000000081526004016118ab9190611c93565b60405180910390fd5b5f6118c083835f610c16565b90505f73ffffffffffffffffffffffffffffffffffffffff168173ffffffffffffffffffffffffffffffffffffffff1614611932575f6040517f73c6ac6e0000000000000000000000000000000000000000000000000000000081526004016119299190611c93565b60405180910390fd5b505050565b5f805f90507a184f03e93ff9f4daa797ed6e38ed64bf6a1f0100000000000000008310611993577a184f03e93ff9f4daa797ed6e38ed64bf6a1f0100000000000000008381611989576119886124da565b5b0492506040810190505b6d04ee2d6d415b85acef810000000083106119d0576d04ee2d6d415b85acef810000000083816119c6576119c56124da565b5b0492506020810190505b662386f26fc1000083106119ff57662386f26fc1000083816119f5576119f46124da565b5b0492506010810190505b6305f5e1008310611a28576305f5e1008381611a1e57611a1d6124da565b5b0492506008810190505b6127108310611a4d576127108381611a4357611a426124da565b5b0492506004810190505b60648310611a705760648381611a6657611a656124da565b5b0492506002810190505b600a8310611a7f576001810190505b80915050919050565b5f604051905090565b5f80fd5b5f80fd5b5f7fffffffff0000000000000000000000000000000000000000000000000000000082169050919050565b611acd81611a99565b8114611ad7575f80fd5b50565b5f81359050611ae881611ac4565b92915050565b5f60208284031215611b0357611b02611a91565b5b5f611b1084828501611ada565b91505092915050565b5f8115159050919050565b611b2d81611b19565b82525050565b5f602082019050611b465f830184611b24565b92915050565b5f81519050919050565b5f82825260208201905092915050565b5f5b83811015611b83578082015181840152602081019050611b68565b5f8484015250505050565b5f601f19601f8301169050919050565b5f611ba882611b4c565b611bb28185611b56565b9350611bc2818560208601611b66565b611bcb81611b8e565b840191505092915050565b5f6020820190508181035f830152611bee8184611b9e565b905092915050565b5f819050919050565b611c0881611bf6565b8114611c12575f80fd5b50565b5f81359050611c2381611bff565b92915050565b5f60208284031215611c3e57611c3d611a91565b5b5f611c4b84828501611c15565b91505092915050565b5f73ffffffffffffffffffffffffffffffffffffffff82169050919050565b5f611c7d82611c54565b9050919050565b611c8d81611c73565b82525050565b5f602082019050611ca65f830184611c84565b92915050565b611cb581611c73565b8114611cbf575f80fd5b50565b5f81359050611cd081611cac565b92915050565b5f8060408385031215611cec57611ceb611a91565b5b5f611cf985828601611cc2565b9250506020611d0a85828601611c15565b9150509250929050565b5f805f60608486031215611d2b57611d2a611a91565b5b5f611d3886828701611cc2565b9350506020611d4986828701611cc2565b9250506040611d5a86828701611c15565b9150509250925092565b5f60208284031215611d7957611d78611a91565b5b5f611d8684828501611cc2565b91505092915050565b611d9881611bf6565b82525050565b5f602082019050611db15f830184611d8f565b92915050565b611dc081611b19565b8114611dca575f80fd5b50565b5f81359050611ddb81611db7565b92915050565b5f8060408385031215611df757611df6611a91565b5b5f611e0485828601611cc2565b9250506020611e1585828601611dcd565b9150509250929050565b5f80fd5b5f80fd5b7f4e487b71000000000000000000000000000000000000000000000000000000005f52604160045260245ffd5b611e5d82611b8e565b810181811067ffffffffffffffff82111715611e7c57611e7b611e27565b5b80604052505050565b5f611e8e611a88565b9050611e9a8282611e54565b919050565b5f67ffffffffffffffff821115611eb957611eb8611e27565b5b611ec282611b8e565b9050602081019050919050565b828183375f83830152505050565b5f611eef611eea84611e9f565b611e85565b905082815260208101848484011115611f0b57611f0a611e23565b5b611f16848285611ecf565b509392505050565b5f82601f830112611f3257611f31611e1f565b5b8135611f42848260208601611edd565b91505092915050565b5f805f8060808587031215611f6357611f62611a91565b5b5f611f7087828801611cc2565b9450506020611f8187828801611cc2565b9350506040611f9287828801611c15565b925050606085013567ffffffffffffffff811115611fb357611fb2611a95565b5b611fbf87828801611f1e565b91505092959194509250565b5f8060408385031215611fe157611fe0611a91565b5b5f611fee85828601611cc2565b9250506020611fff85828601611cc2565b9150509250929050565b7f4e487b71000000000000000000000000000000000000000000000000000000005f52602260045260245ffd5b5f600282049050600182168061204d57607f821691505b6020821081036120605761205f612009565b5b50919050565b5f6060820190506120795f830186611c84565b6120866020830185611d8f565b6120936040830184611c84565b949350505050565b7f4e487b71000000000000000000000000000000000000000000000000000000005f52601160045260245ffd5b5f6120d282611bf6565b91507fffffffffffffffffffffffffffffffffffffffffffffffffffffffffffffffff82036121045761210361209b565b5b600182019050919050565b5f81905092915050565b5f61212382611b4c565b61212d818561210f565b935061213d818560208601611b66565b80840191505092915050565b5f6121548285612119565b91506121608284612119565b91508190509392505050565b5f819050815f5260205f209050919050565b5f6020601f8301049050919050565b5f82821b905092915050565b5f600883026121c87fffffffffffffffffffffffffffffffffffffffffffffffffffffffffffffffff8261218d565b6121d2868361218d565b95508019841693508086168417925050509392505050565b5f819050919050565b5f61220d61220861220384611bf6565b6121ea565b611bf6565b9050919050565b5f819050919050565b612226836121f3565b61223a61223282612214565b848454612199565b825550505050565b5f90565b61224e612242565b61225981848461221d565b505050565b5b8181101561227c576122715f82612246565b60018101905061225f565b5050565b601f8211156122c1576122928161216c565b61229b8461217e565b810160208510156122aa578190505b6122be6122b68561217e565b83018261225e565b50505b505050565b5f82821c905092915050565b5f6122e15f19846008026122c6565b1980831691505092915050565b5f6122f983836122d2565b9150826002028217905092915050565b61231282611b4c565b67ffffffffffffffff81111561232b5761232a611e27565b5b6123358254612036565b612340828285612280565b5f60209050601f831160018114612371575f841561235f578287015190505b61236985826122ee565b8655506123d0565b601f19841661237f8661216c565b5f5b828110156123a657848901518255600182019150602085019450602081019050612381565b868310156123c357848901516123bf601f8916826122d2565b8355505b6001600288020188555050505b505050505050565b5f81519050919050565b5f82825260208201905092915050565b5f6123fc826123d8565b61240681856123e2565b9350612416818560208601611b66565b61241f81611b8e565b840191505092915050565b5f60808201905061243d5f830187611c84565b61244a6020830186611c84565b6124576040830185611d8f565b818103606083015261246981846123f2565b905095945050505050565b5f8151905061248281611ac4565b92915050565b5f6020828403121561249d5761249c611a91565b5b5f6124aa84828501612474565b91505092915050565b5f6040820190506124c65f830185611c84565b6124d36020830184611d8f565b9392505050565b7f4e487b71000000000000000000000000000000000000000000000000000000005f52601260045260245ffdfe697066733a2f2f6261666b7265696361656f727634323666706e68366e337536683332796a75326f37646465697278766e6a6b733661647a36627969716435757669a2646970667358221220744d7ce2161e0efa89888a77e50000f9e8cc3471c7582c39b2c2fa6865a6f34464736f6c63430008140033",
  "immutableReferences": {},
  "source": "// SPDX-License-Identifier: MIT\npragma solidity ^0.8.20;\n\nimport \"@openzeppelin/contracts/token/ERC721/extensions/ERC721URIStorage.sol\";\nimport \"@openzeppelin/contracts/access/Ownable.sol\";\n\ncontract EchoXNFT is ERC721URIStorage, Ownable {\n    uint256 public tokenCounter;\n    string public constant metadataURI = \"ipfs://bafkreicaeorv426fpnh6n3u6h32yju2o7ddeirxvnjks6adz6byiqd5uvi\";\n\n    constructor() ERC721(\"EchoX NFT\", \"EXNFT\") Ownable(msg.sender) {}\n\n    function mintThreeNFTs(address to) public {\n        for (uint256 i = 0; i < 3; i++) {\n            uint256 newTokenId = tokenCounter;\n            _safeMint(to, newTokenId);\n            _setTokenURI(newTokenId, metadataURI);\n            tokenCounter++;\n        }\n    }\n}\n",
  "sourcePath": "/workspaces/echoX-nft/echoX-nft/contracts/EchoXNFT.sol",
  "compiler": {
    "name": "solc",
    "version": "0.8.20+commit.a1b79de6.Emscripten.clang"
  },
  "schemaVersion": "3.4.16",
  "updatedAt": "2025-05-01T08:48:55.726Z",
  "networkType": "ethereum",
  "devdoc": {
    "errors": {
      "ERC721IncorrectOwner(address,uint256,address)": [
        {
          "details": "Indicates an error related to the ownership over a particular token. Used in transfers.",
          "params": {
            "owner": "Address of the current owner of a token.",
            "sender": "Address whose tokens are being transferred.",
            "tokenId": "Identifier number of a token."
          }
        }
      ],
      "ERC721InsufficientApproval(address,uint256)": [
        {
          "details": "Indicates a failure with the `operator`s approval. Used in transfers.",
          "params": {
            "operator": "Address that may be allowed to operate on tokens without being their owner.",
            "tokenId": "Identifier number of a token."
          }
        }
      ],
      "ERC721InvalidApprover(address)": [
        {
          "details": "Indicates a failure with the `approver` of a token to be approved. Used in approvals.",
          "params": {
            "approver": "Address initiating an approval operation."
          }
        }
      ],
      "ERC721InvalidOperator(address)": [
        {
          "details": "Indicates a failure with the `operator` to be approved. Used in approvals.",
          "params": {
            "operator": "Address that may be allowed to operate on tokens without being their owner."
          }
        }
      ],
      "ERC721InvalidOwner(address)": [
        {
          "details": "Indicates that an address can't be an owner. For example, `address(0)` is a forbidden owner in ERC-20. Used in balance queries.",
          "params": {
            "owner": "Address of the current owner of a token."
          }
        }
      ],
      "ERC721InvalidReceiver(address)": [
        {
          "details": "Indicates a failure with the token `receiver`. Used in transfers.",
          "params": {
            "receiver": "Address to which tokens are being transferred."
          }
        }
      ],
      "ERC721InvalidSender(address)": [
        {
          "details": "Indicates a failure with the token `sender`. Used in transfers.",
          "params": {
            "sender": "Address whose tokens are being transferred."
          }
        }
      ],
      "ERC721NonexistentToken(uint256)": [
        {
          "details": "Indicates a `tokenId` whose `owner` is the zero address.",
          "params": {
            "tokenId": "Identifier number of a token."
          }
        }
      ],
      "OwnableInvalidOwner(address)": [
        {
          "details": "The owner is not a valid owner account. (eg. `address(0)`)"
        }
      ],
      "OwnableUnauthorizedAccount(address)": [
        {
          "details": "The caller account is not authorized to perform an operation."
        }
      ]
    },
    "events": {
      "Approval(address,address,uint256)": {
        "details": "Emitted when `owner` enables `approved` to manage the `tokenId` token."
      },
      "ApprovalForAll(address,address,bool)": {
        "details": "Emitted when `owner` enables or disables (`approved`) `operator` to manage all of its assets."
      },
      "BatchMetadataUpdate(uint256,uint256)": {
        "details": "This event emits when the metadata of a range of tokens is changed. So that the third-party platforms such as NFT market could timely update the images and related attributes of the NFTs."
      },
      "MetadataUpdate(uint256)": {
        "details": "This event emits when the metadata of a token is changed. So that the third-party platforms such as NFT market could timely update the images and related attributes of the NFT."
      },
      "Transfer(address,address,uint256)": {
        "details": "Emitted when `tokenId` token is transferred from `from` to `to`."
      }
    },
    "kind": "dev",
    "methods": {
      "approve(address,uint256)": {
        "details": "See {IERC721-approve}."
      },
      "balanceOf(address)": {
        "details": "See {IERC721-balanceOf}."
      },
      "getApproved(uint256)": {
        "details": "See {IERC721-getApproved}."
      },
      "isApprovedForAll(address,address)": {
        "details": "See {IERC721-isApprovedForAll}."
      },
      "name()": {
        "details": "See {IERC721Metadata-name}."
      },
      "owner()": {
        "details": "Returns the address of the current owner."
      },
      "ownerOf(uint256)": {
        "details": "See {IERC721-ownerOf}."
      },
      "renounceOwnership()": {
        "details": "Leaves the contract without owner. It will not be possible to call `onlyOwner` functions. Can only be called by the current owner. NOTE: Renouncing ownership will leave the contract without an owner, thereby disabling any functionality that is only available to the owner."
      },
      "safeTransferFrom(address,address,uint256)": {
        "details": "See {IERC721-safeTransferFrom}."
      },
      "safeTransferFrom(address,address,uint256,bytes)": {
        "details": "See {IERC721-safeTransferFrom}."
      },
      "setApprovalForAll(address,bool)": {
        "details": "See {IERC721-setApprovalForAll}."
      },
      "supportsInterface(bytes4)": {
        "details": "See {IERC165-supportsInterface}"
      },
      "symbol()": {
        "details": "See {IERC721Metadata-symbol}."
      },
      "tokenURI(uint256)": {
        "details": "See {IERC721Metadata-tokenURI}."
      },
      "transferFrom(address,address,uint256)": {
        "details": "See {IERC721-transferFrom}."
      },
      "transferOwnership(address)": {
        "details": "Transfers ownership of the contract to a new account (`newOwner`). Can only be called by the current owner."
      }
    },
    "version": 1
  },
  "userdoc": {
    "kind": "user",
    "methods": {},
    "version": 1
  }
}