{
  "contractName": "EchoXUSDT",
  "abi": [
    {
      "inputs": [],
      "stateMutability": "nonpayable",
      "type": "constructor"
    },
    {
      "anonymous": false,
      "inputs": [
        {
          "indexed": true,
          "internalType": "address",
          "name": "owner",
          "type": "address"
        },
        {
          "indexed": true,
          "internalType": "address",
          "name": "spender",
          "type": "address"
        },
        {
          "indexed": false,
          "internalType": "uint256",
          "name": "value",
          "type": "uint256"
        }
      ],
      "name": "Approval",
      "type": "event"
    },
    {
      "anonymous": false,
      "inputs": [
        {
          "indexed": true,
          "internalType": "address",
          "name": "from",
          "type": "address"
        },
        {
          "indexed": true,
          "internalType": "address",
          "name": "to",
          "type": "address"
        },
        {
          "indexed": false,
          "internalType": "uint256",
          "name": "value",
          "type": "uint256"
        }
      ],
      "name": "Transfer",
      "type": "event"
    },
    {
      "inputs": [
        {
          "internalType": "address",
          "name": "owner",
          "type": "address"
        },
        {
          "internalType": "address",
          "name": "spender",
          "type": "address"
        }
      ],
      "name": "allowance",
      "outputs": [
        {
          "internalType": "uint256",
          "name": "",
          "type": "uint256"
        }
      ],
      "stateMutability": "view",
      "type": "function",
      "constant": true
    },
    {
      "inputs": [
        {
          "internalType": "address",
          "name": "spender",
          "type": "address"
        },
        {
          "internalType": "uint256",
          "name": "amount",
          "type": "uint256"
        }
      ],
      "name": "approve",
      "outputs": [
        {
          "internalType": "bool",
          "name": "",
          "type": "bool"
        }
      ],
      "stateMutability": "nonpayable",
      "type": "function"
    },
    {
      "inputs": [
        {
          "internalType": "address",
          "name": "account",
          "type": "address"
        }
      ],
      "name": "balanceOf",
      "outputs": [
        {
          "internalType": "uint256",
          "name": "",
          "type": "uint256"
        }
      ],
      "stateMutability": "view",
      "type": "function",
      "constant": true
    },
    {
      "inputs": [],
      "name": "decimals",
      "outputs": [
        {
          "internalType": "uint8",
          "name": "",
          "type": "uint8"
        }
      ],
      "stateMutability": "view",
      "type": "function",
      "constant": true
    },
    {
      "inputs": [
        {
          "internalType": "address",
          "name": "spender",
          "type": "address"
        },
        {
          "internalType": "uint256",
          "name": "subtractedValue",
          "type": "uint256"
        }
      ],
      "name": "decreaseAllowance",
      "outputs": [
        {
          "internalType": "bool",
          "name": "",
          "type": "bool"
        }
      ],
      "stateMutability": "nonpayable",
      "type": "function"
    },
    {
      "inputs": [
        {
          "internalType": "address",
          "name": "spender",
          "type": "address"
        },
        {
          "internalType": "uint256",
          "name": "addedValue",
          "type": "uint256"
        }
      ],
      "name": "increaseAllowance",
      "outputs": [
        {
          "internalType": "bool",
          "name": "",
          "type": "bool"
        }
      ],
      "stateMutability": "nonpayable",
      "type": "function"
    },
    {
      "inputs": [],
      "name": "name",
      "outputs": [
        {
          "internalType": "string",
          "name": "",
          "type": "string"
        }
      ],
      "stateMutability": "view",
      "type": "function",
      "constant": true
    },
    {
      "inputs": [],
      "name": "symbol",
      "outputs": [
        {
          "internalType": "string",
          "name": "",
          "type": "string"
        }
      ],
      "stateMutability": "view",
      "type": "function",
      "constant": true
    },
    {
      "inputs": [],
      "name": "totalSupply",
      "outputs": [
        {
          "internalType": "uint256",
          "name": "",
          "type": "uint256"
        }
      ],
      "stateMutability": "view",
      "type": "function",
      "constant": true
    },
    {
      "inputs": [
        {
          "internalType": "address",
          "name": "to",
          "type": "address"
        },
        {
          "internalType": "uint256",
          "name": "amount",
          "type": "uint256"
        }
      ],
      "name": "transfer",
      "outputs": [
        {
          "internalType": "bool",
          "name": "",
          "type": "bool"
        }
      ],
      "stateMutability": "nonpayable",
      "type": "function"
    },
    {
      "inputs": [
        {
          "internalType": "address",
          "name": "from",
          "type": "address"
        },
        {
          "internalType": "address",
          "name": "to",
          "type": "address"
        },
        {
          "internalType": "uint256",
          "name": "amount",
          "type": "uint256"
        }
      ],
      "name": "transferFrom",
      "outputs": [
        {
          "internalType": "bool",
          "name": "",
          "type": "bool"
        }
      ],
      "stateMutability": "nonpayable",
      "type": "function"
    },
    {
      "inputs": [],
      "name": "mintOneBillion",
      "outputs": [],
      "stateMutability": "nonpayable",
      "type": "function"
    }
  ],
  "bytecode": "0x608034620003ad576040906001600160401b0381830181811183821017620002b8578352600a8252602090691158da1bd6081554d11560b21b8284015283519284840184811083821117620002b857855260078452661156151554d11560ca1b83850152805191808311620002b85760038054936001938486811c96168015620003a2575b878710146200038e578190601f968781116200033b575b508790878311600114620002d8575f92620002cc575b50505f1982841b1c191690841b1781555b8551918211620002b85760049586548481811c91168015620002ad575b878210146200029a5785811162000252575b508590858411600114620001eb579383949184925f95620001df575b50501b925f19911b1c19161783555b3315620001a057506002546b204fce5e3e25026110000000928382018092116200018d57505f917fddf252ad1be2c89b69c2b068fc378daa952ba7f163c4a11628f55a4df523b3ef9160025533835282815284832084815401905584519384523393a351610ee69081620003b28239f35b601190634e487b7160e01b5f525260245ffd5b90606493519262461bcd60e51b845283015260248201527f45524332303a206d696e7420746f20746865207a65726f2061646472657373006044820152fd5b015193505f806200010d565b9190601f19841692885f5284885f20945f5b8a898383106200023a575050501062000220575b50505050811b0183556200011c565b01519060f8845f19921b161c191690555f80808062000211565b868601518955909701969485019488935001620001fd565b875f52865f208680860160051c82019289871062000290575b0160051c019085905b82811062000284575050620000f1565b5f815501859062000274565b925081926200026b565b602288634e487b7160e01b5f525260245ffd5b90607f1690620000df565b634e487b7160e01b5f52604160045260245ffd5b015190505f80620000b1565b90869350601f19831691855f52895f20925f5b8b8282106200032457505084116200030c575b505050811b018155620000c2565b01515f1983861b60f8161c191690555f8080620002fe565b8385015186558a97909501949384019301620002eb565b909150835f52875f208780850160051c8201928a861062000384575b918891869594930160051c01915b828110620003755750506200009b565b5f815585945088910162000365565b9250819262000357565b634e487b7160e01b5f52602260045260245ffd5b95607f169562000084565b5f80fdfe6080604081815260049182361015610015575f80fd5b5f92833560e01c91826306fdde031461094157508163095ea7b3146108f957816318160ddd146108bc57816323b872dd1461078e578163313ce5671461075457816339509351146106aa57816370a082311461064957816395d89b4114610453578163a457c2d71461034d578163a7c26b471461016a57508063a9059cbb1461011c5763dd62ed3e146100a6575f80fd5b3461011857807ffffffffffffffffffffffffffffffffffffffffffffffffffffffffffffffffc36011261011857806020926100e0610ae7565b6100e8610b0e565b73ffffffffffffffffffffffffffffffffffffffff91821683526001865283832091168252845220549051908152f35b5080fd5b503461011857807ffffffffffffffffffffffffffffffffffffffffffffffffffffffffffffffffc36011261011857602090610163610159610ae7565b6024359033610b31565b5160018152f35b83833461011857817ffffffffffffffffffffffffffffffffffffffffffffffffffffffffffffffffc3601126101185733825260206005815260ff82842054166102cb57331561026f576002546b033b2e3c9fd0803ce8000000908181018091116102435790600592916002553385528482528385208181540190558351908152847fddf252ad1be2c89b69c2b068fc378daa952ba7f163c4a11628f55a4df523b3ef833393a333845252812060017fffffffffffffffffffffffffffffffffffffffffffffffffffffffffffffff0082541617905580f35b6024856011887f4e487b7100000000000000000000000000000000000000000000000000000000835252fd5b839060649251917f08c379a0000000000000000000000000000000000000000000000000000000008352820152601f60248201527f45524332303a206d696e7420746f20746865207a65726f2061646472657373006044820152fd5b839060849251917f08c379a0000000000000000000000000000000000000000000000000000000008352820152602960248201527f596f75206861766520616c7265616479206d696e74656420312062696c6c696f60448201527f6e20746f6b656e732e00000000000000000000000000000000000000000000006064820152fd5b9050823461045057827ffffffffffffffffffffffffffffffffffffffffffffffffffffffffffffffffc36011261045057610386610ae7565b918360243592338152600160205281812073ffffffffffffffffffffffffffffffffffffffff861682526020522054908282106103cd576020856101638585038733610d3f565b60849060208651917f08c379a0000000000000000000000000000000000000000000000000000000008352820152602560248201527f45524332303a2064656372656173656420616c6c6f77616e63652062656c6f7760448201527f207a65726f0000000000000000000000000000000000000000000000000000006064820152fd5b80fd5b83833461011857817ffffffffffffffffffffffffffffffffffffffffffffffffffffffffffffffffc36011261011857805190828454600181811c9080831692831561063f575b60209384841081146106135783885287959493929181156105b8575060011461053c575b50505003601f017fffffffffffffffffffffffffffffffffffffffffffffffffffffffffffffffe01682019267ffffffffffffffff841183851017610510575082918261050c925282610a83565b0390f35b806041867f4e487b71000000000000000000000000000000000000000000000000000000006024945252fd5b8888529193925086917f8a35acfbc15ff81a39ae7d344fd709f28e8600b4aa8c65c6b64bfe7fe36bd19b5b8284106105a257505050907fffffffffffffffffffffffffffffffffffffffffffffffffffffffffffffffe092601f928201019181936104be565b8054888501870152879450928501928101610567565b7fffffffffffffffffffffffffffffffffffffffffffffffffffffffffffffff0016848701525050151560051b830101905081601f7fffffffffffffffffffffffffffffffffffffffffffffffffffffffffffffffe06104be565b60248960228c7f4e487b7100000000000000000000000000000000000000000000000000000000835252fd5b91607f169161049a565b5050346101185760207ffffffffffffffffffffffffffffffffffffffffffffffffffffffffffffffffc360112610118578060209273ffffffffffffffffffffffffffffffffffffffff61069b610ae7565b16815280845220549051908152f35b82843461045057817ffffffffffffffffffffffffffffffffffffffffffffffffffffffffffffffffc360112610450576106e2610ae7565b338252600160205282822073ffffffffffffffffffffffffffffffffffffffff821683526020528282205491602435830180931161072857602084610163858533610d3f565b806011867f4e487b71000000000000000000000000000000000000000000000000000000006024945252fd5b50503461011857817ffffffffffffffffffffffffffffffffffffffffffffffffffffffffffffffffc360112610118576020905160128152f35b839150346101185760607ffffffffffffffffffffffffffffffffffffffffffffffffffffffffffffffffc360112610118576107c8610ae7565b6107d0610b0e565b91846044359473ffffffffffffffffffffffffffffffffffffffff8416815260016020528181203382526020522054907fffffffffffffffffffffffffffffffffffffffffffffffffffffffffffffffff8203610836575b602086610163878787610b31565b84821061085f57509183916108546020969561016395033383610d3f565b919394819350610828565b60649060208751917f08c379a0000000000000000000000000000000000000000000000000000000008352820152601d60248201527f45524332303a20696e73756666696369656e7420616c6c6f77616e63650000006044820152fd5b50503461011857817ffffffffffffffffffffffffffffffffffffffffffffffffffffffffffffffffc360112610118576020906002549051908152f35b50503461011857807ffffffffffffffffffffffffffffffffffffffffffffffffffffffffffffffffc36011261011857602090610163610937610ae7565b6024359033610d3f565b84908434610a7f57827ffffffffffffffffffffffffffffffffffffffffffffffffffffffffffffffffc360112610a7f5782600354600181811c90808316928315610a75575b60209384841081146106135783885287959493929181156105b857506001146109f85750505003601f017fffffffffffffffffffffffffffffffffffffffffffffffffffffffffffffffe01682019267ffffffffffffffff841183851017610510575082918261050c925282610a83565b600388529193925086917fc2575a0e9e593c00f959f8c92f12db2869c3395a3b0502d05e2516446f71f85b5b828410610a5f57505050907fffffffffffffffffffffffffffffffffffffffffffffffffffffffffffffffe092601f928201019181936104be565b8054888501870152879450928501928101610a24565b91607f1691610987565b8280fd5b6020808252825181830181905293925f5b858110610ad3575050507fffffffffffffffffffffffffffffffffffffffffffffffffffffffffffffffe0601f845f6040809697860101520116010190565b818101830151848201604001528201610a94565b6004359073ffffffffffffffffffffffffffffffffffffffff82168203610b0a57565b5f80fd5b6024359073ffffffffffffffffffffffffffffffffffffffff82168203610b0a57565b73ffffffffffffffffffffffffffffffffffffffff809116918215610cbb5716918215610c37575f82815280602052604081205491808310610bb357604082827fddf252ad1be2c89b69c2b068fc378daa952ba7f163c4a11628f55a4df523b3ef958760209652828652038282205586815220818154019055604051908152a3565b60846040517f08c379a000000000000000000000000000000000000000000000000000000000815260206004820152602660248201527f45524332303a207472616e7366657220616d6f756e742065786365656473206260448201527f616c616e636500000000000000000000000000000000000000000000000000006064820152fd5b60846040517f08c379a000000000000000000000000000000000000000000000000000000000815260206004820152602360248201527f45524332303a207472616e7366657220746f20746865207a65726f206164647260448201527f65737300000000000000000000000000000000000000000000000000000000006064820152fd5b60846040517f08c379a000000000000000000000000000000000000000000000000000000000815260206004820152602560248201527f45524332303a207472616e736665722066726f6d20746865207a65726f20616460448201527f64726573730000000000000000000000000000000000000000000000000000006064820152fd5b73ffffffffffffffffffffffffffffffffffffffff809116918215610e2d5716918215610da95760207f8c5be1e5ebec7d5bd14f71427d1e84f3dd0314c0f7b2291e5b200ac8c7c3b92591835f526001825260405f20855f5282528060405f2055604051908152a3565b60846040517f08c379a000000000000000000000000000000000000000000000000000000000815260206004820152602260248201527f45524332303a20617070726f766520746f20746865207a65726f20616464726560448201527f73730000000000000000000000000000000000000000000000000000000000006064820152fd5b60846040517f08c379a0000000000000000000000000000000000000000000000000000000008152602060048201526024808201527f45524332303a20617070726f76652066726f6d20746865207a65726f2061646460448201527f72657373000000000000000000000000000000000000000000000000000000006064820152fdfea2646970667358221220ca488e424cf2dba7ce56fa0fa0ca3b720760369b8fe6ad9640e2d5b9325bdd5464736f6c63430008140033",
  "immutableReferences": {},
  "source": "// SPDX-License-Identifier: MIT\npragma solidity ^0.8.20;\n\nimport \"@openzeppelin/contracts/token/ERC20/ERC20.sol\";\n\ncontract EchoXUSDT is ERC20 {\n    // Changed initial supply to 10 Billion\n    uint256 private constant INITIAL_SUPPLY = 10_000_000_000 * 10 ** 18;\n\n    // Mapping to track if an address has already minted 1 billion tokens\n    mapping(address => bool) private hasMintedOneBillion;\n\n    constructor() ERC20(\"EchoX USDT\", \"EXTUSDT\") {\n        // Mint initial supply to the contract deployer (creator wallet)\n        _mint(msg.sender, INITIAL_SUPPLY);\n    }\n\n    // Anyone can call this to mint 1,000,000,000 EXTUSDT tokens, but only once per wallet\n    function mintOneBillion() public {\n        // Require that the sender has not minted before\n        require(!hasMintedOneBillion[msg.sender], \"You have already minted 1 billion tokens.\");\n\n        // Mint the tokens\n        _mint(msg.sender, 1_000_000_000 * 10 ** decimals());\n\n        // Mark that this address has now minted\n        hasMintedOneBillion[msg.sender] = true;\n    }\n}",
  "sourcePath": "/workspaces/echoX-nft/echoX-nft/contracts/EchoXUSDT.sol",
  "compiler": {
    "name": "solc",
    "version": "0.8.20+commit.a1b79de6.Emscripten.clang"
  },
  "schemaVersion": "3.4.16",
  "updatedAt": "2025-06-10T09:18:17.775Z",
  "networkType": "ethereum",
  "devdoc": {
    "events": {
      "Approval(address,address,uint256)": {
        "details": "Emitted when the allowance of a `spender` for an `owner` is set by a call to {approve}. `value` is the new allowance."
      },
      "Transfer(address,address,uint256)": {
        "details": "Emitted when `value` tokens are moved from one account (`from`) to another (`to`). Note that `value` may be zero."
      }
    },
    "kind": "dev",
    "methods": {
      "allowance(address,address)": {
        "details": "See {IERC20-allowance}."
      },
      "approve(address,uint256)": {
        "details": "See {IERC20-approve}. NOTE: If `amount` is the maximum `uint256`, the allowance is not updated on `transferFrom`. This is semantically equivalent to an infinite approval. Requirements: - `spender` cannot be the zero address."
      },
      "balanceOf(address)": {
        "details": "See {IERC20-balanceOf}."
      },
      "decimals()": {
        "details": "Returns the number of decimals used to get its user representation. For example, if `decimals` equals `2`, a balance of `505` tokens should be displayed to a user as `5.05` (`505 / 10 ** 2`). Tokens usually opt for a value of 18, imitating the relationship between Ether and Wei. This is the default value returned by this function, unless it's overridden. NOTE: This information is only used for _display_ purposes: it in no way affects any of the arithmetic of the contract, including {IERC20-balanceOf} and {IERC20-transfer}."
      },
      "decreaseAllowance(address,uint256)": {
        "details": "Atomically decreases the allowance granted to `spender` by the caller. This is an alternative to {approve} that can be used as a mitigation for problems described in {IERC20-approve}. Emits an {Approval} event indicating the updated allowance. Requirements: - `spender` cannot be the zero address. - `spender` must have allowance for the caller of at least `subtractedValue`."
      },
      "increaseAllowance(address,uint256)": {
        "details": "Atomically increases the allowance granted to `spender` by the caller. This is an alternative to {approve} that can be used as a mitigation for problems described in {IERC20-approve}. Emits an {Approval} event indicating the updated allowance. Requirements: - `spender` cannot be the zero address."
      },
      "name()": {
        "details": "Returns the name of the token."
      },
      "symbol()": {
        "details": "Returns the symbol of the token, usually a shorter version of the name."
      },
      "totalSupply()": {
        "details": "See {IERC20-totalSupply}."
      },
      "transfer(address,uint256)": {
        "details": "See {IERC20-transfer}. Requirements: - `to` cannot be the zero address. - the caller must have a balance of at least `amount`."
      },
      "transferFrom(address,address,uint256)": {
        "details": "See {IERC20-transferFrom}. Emits an {Approval} event indicating the updated allowance. This is not required by the EIP. See the note at the beginning of {ERC20}. NOTE: Does not update the allowance if the current allowance is the maximum `uint256`. Requirements: - `from` and `to` cannot be the zero address. - `from` must have a balance of at least `amount`. - the caller must have allowance for ``from``'s tokens of at least `amount`."
      }
    },
    "version": 1
  },
  "userdoc": {
    "kind": "user",
    "methods": {},
    "version": 1
  }
}