{
  "contractName": "EchoXPoints",
  "abi": [
    {
      "inputs": [],
      "stateMutability": "nonpayable",
      "type": "constructor"
    },
    {
      "anonymous": false,
      "inputs": [
        {
          "indexed": true,
          "internalType": "address",
          "name": "contractAddress",
          "type": "address"
        }
      ],
      "name": "ContractAuthorized",
      "type": "event"
    },
    {
      "anonymous": false,
      "inputs": [
        {
          "indexed": true,
          "internalType": "address",
          "name": "contractAddress",
          "type": "address"
        }
      ],
      "name": "ContractDeauthorized",
      "type": "event"
    },
    {
      "anonymous": false,
      "inputs": [
        {
          "indexed": true,
          "internalType": "address",
          "name": "previousOwner",
          "type": "address"
        },
        {
          "indexed": true,
          "internalType": "address",
          "name": "newOwner",
          "type": "address"
        }
      ],
      "name": "OwnershipTransferred",
      "type": "event"
    },
    {
      "anonymous": false,
      "inputs": [
        {
          "indexed": true,
          "internalType": "address",
          "name": "user",
          "type": "address"
        },
        {
          "indexed": false,
          "internalType": "uint256",
          "name": "amount",
          "type": "uint256"
        },
        {
          "indexed": false,
          "internalType": "string",
          "name": "reason",
          "type": "string"
        }
      ],
      "name": "PointsAdded",
      "type": "event"
    },
    {
      "inputs": [
        {
          "internalType": "address",
          "name": "",
          "type": "address"
        }
      ],
      "name": "authorizedContracts",
      "outputs": [
        {
          "internalType": "bool",
          "name": "",
          "type": "bool"
        }
      ],
      "stateMutability": "view",
      "type": "function",
      "constant": true
    },
    {
      "inputs": [
        {
          "internalType": "address",
          "name": "",
          "type": "address"
        },
        {
          "internalType": "uint256",
          "name": "",
          "type": "uint256"
        }
      ],
      "name": "dailySwapTimestamps",
      "outputs": [
        {
          "internalType": "uint256",
          "name": "",
          "type": "uint256"
        }
      ],
      "stateMutability": "view",
      "type": "function",
      "constant": true
    },
    {
      "inputs": [
        {
          "internalType": "address",
          "name": "",
          "type": "address"
        }
      ],
      "name": "lp3ChallengeCompleted",
      "outputs": [
        {
          "internalType": "bool",
          "name": "",
          "type": "bool"
        }
      ],
      "stateMutability": "view",
      "type": "function",
      "constant": true
    },
    {
      "inputs": [
        {
          "internalType": "address",
          "name": "",
          "type": "address"
        }
      ],
      "name": "memeCreatedCount",
      "outputs": [
        {
          "internalType": "uint256",
          "name": "",
          "type": "uint256"
        }
      ],
      "stateMutability": "view",
      "type": "function",
      "constant": true
    },
    {
      "inputs": [
        {
          "internalType": "address",
          "name": "",
          "type": "address"
        }
      ],
      "name": "memeTxCount",
      "outputs": [
        {
          "internalType": "uint256",
          "name": "",
          "type": "uint256"
        }
      ],
      "stateMutability": "view",
      "type": "function",
      "constant": true
    },
    {
      "inputs": [],
      "name": "owner",
      "outputs": [
        {
          "internalType": "address",
          "name": "",
          "type": "address"
        }
      ],
      "stateMutability": "view",
      "type": "function",
      "constant": true
    },
    {
      "inputs": [
        {
          "internalType": "address",
          "name": "",
          "type": "address"
        }
      ],
      "name": "poolCreatedCount",
      "outputs": [
        {
          "internalType": "uint256",
          "name": "",
          "type": "uint256"
        }
      ],
      "stateMutability": "view",
      "type": "function",
      "constant": true
    },
    {
      "inputs": [
        {
          "internalType": "address",
          "name": "",
          "type": "address"
        }
      ],
      "name": "poolTxCount",
      "outputs": [
        {
          "internalType": "uint256",
          "name": "",
          "type": "uint256"
        }
      ],
      "stateMutability": "view",
      "type": "function",
      "constant": true
    },
    {
      "inputs": [
        {
          "internalType": "address",
          "name": "",
          "type": "address"
        }
      ],
      "name": "referralTaskCompleted",
      "outputs": [
        {
          "internalType": "uint256",
          "name": "",
          "type": "uint256"
        }
      ],
      "stateMutability": "view",
      "type": "function",
      "constant": true
    },
    {
      "inputs": [
        {
          "internalType": "address",
          "name": "",
          "type": "address"
        }
      ],
      "name": "referredUsers",
      "outputs": [
        {
          "internalType": "uint256",
          "name": "",
          "type": "uint256"
        }
      ],
      "stateMutability": "view",
      "type": "function",
      "constant": true
    },
    {
      "inputs": [
        {
          "internalType": "address",
          "name": "",
          "type": "address"
        }
      ],
      "name": "swap5DaysCompleted",
      "outputs": [
        {
          "internalType": "bool",
          "name": "",
          "type": "bool"
        }
      ],
      "stateMutability": "view",
      "type": "function",
      "constant": true
    },
    {
      "inputs": [
        {
          "internalType": "address",
          "name": "",
          "type": "address"
        }
      ],
      "name": "userPoints",
      "outputs": [
        {
          "internalType": "uint256",
          "name": "",
          "type": "uint256"
        }
      ],
      "stateMutability": "view",
      "type": "function",
      "constant": true
    },
    {
      "inputs": [
        {
          "internalType": "address",
          "name": "",
          "type": "address"
        }
      ],
      "name": "userPoolParticipation",
      "outputs": [
        {
          "internalType": "uint256",
          "name": "",
          "type": "uint256"
        }
      ],
      "stateMutability": "view",
      "type": "function",
      "constant": true
    },
    {
      "inputs": [
        {
          "internalType": "address",
          "name": "user",
          "type": "address"
        }
      ],
      "name": "getPoints",
      "outputs": [
        {
          "internalType": "uint256",
          "name": "",
          "type": "uint256"
        }
      ],
      "stateMutability": "view",
      "type": "function",
      "constant": true
    },
    {
      "inputs": [
        {
          "internalType": "address",
          "name": "newOwner",
          "type": "address"
        }
      ],
      "name": "transferOwnership",
      "outputs": [],
      "stateMutability": "nonpayable",
      "type": "function"
    },
    {
      "inputs": [
        {
          "internalType": "address",
          "name": "contractAddress",
          "type": "address"
        }
      ],
      "name": "authorizeContract",
      "outputs": [],
      "stateMutability": "nonpayable",
      "type": "function"
    },
    {
      "inputs": [
        {
          "internalType": "address",
          "name": "contractAddress",
          "type": "address"
        }
      ],
      "name": "deauthorizeContract",
      "outputs": [],
      "stateMutability": "nonpayable",
      "type": "function"
    },
    {
      "inputs": [
        {
          "internalType": "address",
          "name": "user",
          "type": "address"
        }
      ],
      "name": "recordNftForExSwap",
      "outputs": [],
      "stateMutability": "nonpayable",
      "type": "function"
    },
    {
      "inputs": [
        {
          "internalType": "address",
          "name": "user",
          "type": "address"
        }
      ],
      "name": "recordNftForNftSwap",
      "outputs": [],
      "stateMutability": "nonpayable",
      "type": "function"
    },
    {
      "inputs": [
        {
          "internalType": "address",
          "name": "referrer",
          "type": "address"
        },
        {
          "internalType": "address",
          "name": "referredUser",
          "type": "address"
        }
      ],
      "name": "recordReferralTaskCompletion",
      "outputs": [],
      "stateMutability": "nonpayable",
      "type": "function"
    },
    {
      "inputs": [
        {
          "internalType": "address",
          "name": "user",
          "type": "address"
        },
        {
          "internalType": "uint256",
          "name": "nftCount",
          "type": "uint256"
        }
      ],
      "name": "recordBatchSwap",
      "outputs": [],
      "stateMutability": "nonpayable",
      "type": "function"
    },
    {
      "inputs": [
        {
          "internalType": "address",
          "name": "user",
          "type": "address"
        },
        {
          "internalType": "address",
          "name": "pool",
          "type": "address"
        }
      ],
      "name": "recordLpParticipation",
      "outputs": [],
      "stateMutability": "nonpayable",
      "type": "function"
    },
    {
      "inputs": [
        {
          "internalType": "address",
          "name": "user",
          "type": "address"
        }
      ],
      "name": "recordDailySwap",
      "outputs": [],
      "stateMutability": "nonpayable",
      "type": "function"
    },
    {
      "inputs": [
        {
          "internalType": "address",
          "name": "user",
          "type": "address"
        }
      ],
      "name": "recordPoolCreation",
      "outputs": [],
      "stateMutability": "nonpayable",
      "type": "function"
    },
    {
      "inputs": [
        {
          "internalType": "address",
          "name": "poolCreator",
          "type": "address"
        }
      ],
      "name": "recordPoolTransaction",
      "outputs": [],
      "stateMutability": "nonpayable",
      "type": "function"
    },
    {
      "inputs": [
        {
          "internalType": "address",
          "name": "user",
          "type": "address"
        }
      ],
      "name": "recordMemeCreation",
      "outputs": [],
      "stateMutability": "nonpayable",
      "type": "function"
    },
    {
      "inputs": [
        {
          "internalType": "address",
          "name": "memeCreator",
          "type": "address"
        }
      ],
      "name": "recordMemeTransaction",
      "outputs": [],
      "stateMutability": "nonpayable",
      "type": "function"
    },
    {
      "inputs": [
        {
          "internalType": "address",
          "name": "user",
          "type": "address"
        },
        {
          "internalType": "uint256",
          "name": "amountUsd",
          "type": "uint256"
        }
      ],
      "name": "recordDexAggregatorTrade",
      "outputs": [],
      "stateMutability": "nonpayable",
      "type": "function"
    },
    {
      "inputs": [
        {
          "internalType": "address",
          "name": "user",
          "type": "address"
        },
        {
          "internalType": "uint256",
          "name": "amount",
          "type": "uint256"
        },
        {
          "internalType": "string",
          "name": "reason",
          "type": "string"
        }
      ],
      "name": "giveBonus",
      "outputs": [],
      "stateMutability": "nonpayable",
      "type": "function"
    }
  ],
  "bytecode": "0x608060405234801561000f575f80fd5b505f80546001600160a01b031916331790556112928061002e5f395ff3fe608060405234801561000f575f80fd5b50600436106101c6575f3560e01c8063907e8408116100fe578063d5b9221b1161009e578063efa6cae21161006e578063efa6cae214610468578063f2fde38b1461047b578063f50ddbc71461048e578063fcb333ba146104ad575f80fd5b8063d5b9221b146103f8578063e2e356be1461041a578063ecfc9f011461042d578063ee204abb14610440575f80fd5b8063a66cc242116100d9578063a66cc24214610394578063a7c43668146103b3578063c12a50c6146103c6578063c97b4b43146103e5575f80fd5b8063907e84081461034f5780639da147f814610362578063a1ca2e3e14610375575f80fd5b8063657e2ce1116101695780636e861c0e116101445780636e861c0e146102ec5780637ef851ab146102ff5780638d16f27a146103125780638da5cb5b14610325575f80fd5b8063657e2ce1146102a757806367561d93146102c657806367a10e09146102d9575f80fd5b80630a07beeb116101a45780630a07beeb146102305780630f1407e11461024f578063169f81631461026257806363d4b04614610275575f80fd5b806302884fd2146101ca5780630289ef55146101fc57806308c069541461021b575b5f80fd5b6101e96101d8366004611059565b60066020525f908152604090205481565b6040519081526020015b60405180910390f35b6101e961020a366004611059565b60056020525f908152604090205481565b61022e610229366004611059565b6104cf565b005b6101e961023e366004611059565b60096020525f908152604090205481565b61022e61025d366004611079565b610586565b61022e610270366004611079565b6106ad565b610297610283366004611059565b600b6020525f908152604090205460ff1681565b60405190151581526020016101f3565b6101e96102b5366004611059565b60086020525f908152604090205481565b61022e6102d4366004611059565b6107a0565b61022e6102e7366004611059565b610814565b61022e6102fa366004611059565b6108a2565b61022e61030d3660046110aa565b610913565b6101e96103203660046110aa565b61099e565b5f54610337906001600160a01b031681565b6040516001600160a01b0390911681526020016101f3565b61022e61035d366004611059565b6109c9565b61022e610370366004611059565b610b74565b6101e9610383366004611059565b60076020525f908152604090205481565b6101e96103a2366004611059565b60036020525f908152604090205481565b61022e6103c13660046110aa565b610c12565b6101e96103d4366004611059565b60046020525f908152604090205481565b61022e6103f3366004611059565b610ce6565b610297610406366004611059565b600c6020525f908152604090205460ff1681565b61022e6104283660046110d2565b610d5c565b61022e61043b366004611059565b610de4565b6101e961044e366004611059565b6001600160a01b03165f9081526001602052604090205490565b61022e610476366004611059565b610e7b565b61022e610489366004611059565b610ef0565b6101e961049c366004611059565b60016020525f908152604090205481565b6102976104bb366004611059565b600a6020525f908152604090205460ff1681565b5f546001600160a01b03163314806104f55750335f908152600c602052604090205460ff165b61051a5760405162461bcd60e51b815260040161051190611152565b60405180910390fd5b6001600160a01b0381165f90815260066020526040812080549161053d8361118e565b919050555061058381600a6040518060400160405280601881526020017f4d656d6520437265617465642028314220537570706c79290000000000000000815250610fc8565b50565b5f546001600160a01b03163314806105ac5750335f908152600c602052604090205460ff165b6105c85760405162461bcd60e51b815260040161051190611152565b6001600160a01b0382165f90815260096020526040902054600311156106a9576001600160a01b0382165f90815260096020526040812080549161060b8361118e565b90915550506001600160a01b0382165f90815260096020526040902054600314801561064f57506001600160a01b0382165f908152600a602052604090205460ff16155b156106a9576106868260076040518060400160405280600e81526020016d4c5020696e20332b20506f6f6c7360901b815250610fc8565b6001600160a01b0382165f908152600a60205260409020805460ff191660011790555b5050565b5f546001600160a01b03163314806106d35750335f908152600c602052604090205460ff165b6106ef5760405162461bcd60e51b815260040161051190611152565b6001600160a01b0381165f9081526003602052604081208054916107128361118e565b90915550506001600160a01b0381165f90815260036020819052604090912054106106a9576001600160a01b0382165f90815260046020526040812080549161075a8361118e565b91905055506106a98260036040518060400160405280601c81526020017f526566657272616c204d696c6573746f6e65202833205461736b732900000000815250610fc8565b5f546001600160a01b031633146107c95760405162461bcd60e51b815260040161051190611152565b6001600160a01b0381165f818152600c6020526040808220805460ff19166001179055517f8983a1f3c3cb45c24c8226b5b805e3b6eb49686530b808534b2a920129eff6519190a250565b5f546001600160a01b031633148061083a5750335f908152600c602052604090205460ff165b6108565760405162461bcd60e51b815260040161051190611152565b6001600160a01b0381165f9081526005602052604081208054916108798361118e565b919050555061058381600360405180606001604052806023815260200161123a60239139610fc8565b5f546001600160a01b031633146108cb5760405162461bcd60e51b815260040161051190611152565b6001600160a01b0381165f818152600c6020526040808220805460ff19169055517f54142b7cb3ceaa9e564243ce4cc2303723c842a1144192de6b3c594f68b16a9a9190a250565b5f546001600160a01b03163314806109395750335f908152600c602052604090205460ff165b6109555760405162461bcd60e51b815260040161051190611152565b600581106106a9576106a98260066040518060400160405280601881526020017f4261746368204e465420537761702028352b204e465473290000000000000000815250610fc8565b6002602052815f5260405f2081815481106109b7575f80fd5b905f5260205f20015f91509150505481565b5f546001600160a01b03163314806109ef5750335f908152600c602052604090205460ff165b610a0b5760405162461bcd60e51b815260040161051190611152565b6001600160a01b0381165f9081526002602090815260408220805460018101825590835290822042910155805b6001600160a01b0383165f90815260026020526040902054811015610abf576001600160a01b0383165f908152600260205260409020805462069780919083908110610a8657610a866111a6565b905f5260205f20015442610a9a91906111ba565b11610aad5781610aa98161118e565b9250505b80610ab78161118e565b915050610a38565b5060058110158015610ae957506001600160a01b0382165f908152600b602052604090205460ff16155b15610b4657610b2382600a60405180604001604052806011815260200170352d44617920537761702053747265616b60781b815250610fc8565b6001600160a01b0382165f908152600b60205260409020805460ff191660011790555b6106a98260026040518060400160405280600a81526020016904461696c7920537761760b41b815250610fc8565b5f546001600160a01b0316331480610b9a5750335f908152600c602052604090205460ff165b610bb65760405162461bcd60e51b815260040161051190611152565b6001600160a01b0381165f908152600860205260408120805491610bd98361118e565b91905055506105838160016040518060400160405280601081526020016f2837b7b6102a3930b739b0b1ba34b7b760811b815250610fc8565b5f546001600160a01b0316331480610c385750335f908152600c602052604090205460ff165b610c545760405162461bcd60e51b815260040161051190611152565b6802b5e3af16b18800008110610ca5576106a982600a6040518060400160405280601b81526020017f4445582041676772656761746f7220547261646520282435302b290000000000815250610fc8565b6106a98260056040518060400160405280601b81526020017f4445582041676772656761746f7220547261646520283c243530290000000000815250610fc8565b5f546001600160a01b0316331480610d0c5750335f908152600c602052604090205460ff165b610d285760405162461bcd60e51b815260040161051190611152565b6105838160056040518060400160405280601081526020016f04e46542d666f722d4e465420537761760841b815250610fc8565b5f546001600160a01b0316331480610d825750335f908152600c602052604090205460ff165b610d9e5760405162461bcd60e51b815260040161051190611152565b610dde848484848080601f0160208091040260200160405190810160405280939291908181526020018383808284375f92019190915250610fc892505050565b50505050565b5f546001600160a01b0316331480610e0a5750335f908152600c602052604090205460ff165b610e265760405162461bcd60e51b815260040161051190611152565b6001600160a01b0381165f908152600760205260408120805491610e498361118e565b91905055506105838160036040518060400160405280600981526020016804d656d6520537761760bc1b815250610fc8565b5f546001600160a01b0316331480610ea15750335f908152600c602052604090205460ff165b610ebd5760405162461bcd60e51b815260040161051190611152565b6105838160056040518060400160405280600f81526020016e04e46542d666f722d4558205377617608c1b815250610fc8565b5f546001600160a01b03163314610f195760405162461bcd60e51b815260040161051190611152565b6001600160a01b038116610f6f5760405162461bcd60e51b815260206004820152601d60248201527f4e6577206f776e657220697320746865207a65726f20616464726573730000006044820152606401610511565b5f80546040516001600160a01b03808516939216917f8be0079c531659141344cd1fd0a4f28419497f9722a3daafe3b4186f6b6457e091a35f80546001600160a01b0319166001600160a01b0392909216919091179055565b6001600160a01b0383165f9081526001602052604081208054849290610fef9084906111d3565b92505081905550826001600160a01b03167f53370cf37058fbb70f95a5950efa0ff8304d84707adab9046a6bf98aba15cb0b83836040516110319291906111e6565b60405180910390a2505050565b80356001600160a01b0381168114611054575f80fd5b919050565b5f60208284031215611069575f80fd5b6110728261103e565b9392505050565b5f806040838503121561108a575f80fd5b6110938361103e565b91506110a16020840161103e565b90509250929050565b5f80604083850312156110bb575f80fd5b6110c48361103e565b946020939093013593505050565b5f805f80606085870312156110e5575f80fd5b6110ee8561103e565b935060208501359250604085013567ffffffffffffffff80821115611111575f80fd5b818701915087601f830112611124575f80fd5b813581811115611132575f80fd5b886020828501011115611143575f80fd5b95989497505060200194505050565b6020808252600e908201526d139bdd08185d5d1a1bdc9a5e995960921b604082015260600190565b634e487b7160e01b5f52601160045260245ffd5b5f6001820161119f5761119f61117a565b5060010190565b634e487b7160e01b5f52603260045260245ffd5b818103818111156111cd576111cd61117a565b92915050565b808201808211156111cd576111cd61117a565b8281525f602060408184015283518060408501525f5b81811015611218578581018301518582016060015282016111fc565b505f606082860101526060601f19601f83011685010192505050939250505056fe506f6f6c204372656174656420283130302055534454202b203530304d204d656d6529a26469706673582212201e40b4b77569a62bd06fe5644a1f4418897b29ecc86e6d79bdfa826398311de964736f6c63430008140033",
  "immutableReferences": {},
  "source": "// SPDX-License-Identifier: MIT\npragma solidity ^0.8.20;\n\ncontract EchoXPoints {\n    address public owner;\n    \n    mapping(address => uint256) public userPoints;\n    mapping(address => uint256[]) public dailySwapTimestamps;\n    mapping(address => uint256) public referralTaskCompleted;\n    mapping(address => uint256) public referredUsers;\n    mapping(address => uint256) public poolCreatedCount;\n    mapping(address => uint256) public memeCreatedCount;\n    mapping(address => uint256) public memeTxCount;\n    mapping(address => uint256) public poolTxCount;\n    mapping(address => uint256) public userPoolParticipation;\n    mapping(address => bool) public lp3ChallengeCompleted;\n    mapping(address => bool) public swap5DaysCompleted;\n    \n    // Add a mapping for authorized contracts\n    mapping(address => bool) public authorizedContracts;\n    \n    event PointsAdded(address indexed user, uint256 amount, string reason);\n    event OwnershipTransferred(address indexed previousOwner, address indexed newOwner);\n    event ContractAuthorized(address indexed contractAddress);\n    event ContractDeauthorized(address indexed contractAddress);\n    \n    modifier onlyOwner() {\n        require(msg.sender == owner, \"Not authorized\");\n        _;\n    }\n    \n    // New modifier that allows either the owner or authorized contracts\n    modifier onlyAuthorized() {\n        require(msg.sender == owner || authorizedContracts[msg.sender], \"Not authorized\");\n        _;\n    }\n    \n    constructor() {\n        owner = msg.sender;\n    }\n    \n    function _addPoints(address user, uint256 amount, string memory reason) internal {\n        userPoints[user] += amount;\n        emit PointsAdded(user, amount, reason);\n    }\n    \n    function getPoints(address user) external view returns (uint256) {\n        return userPoints[user];\n    }\n    \n    // Transfer ownership to a new address\n    function transferOwnership(address newOwner) external onlyOwner {\n        require(newOwner != address(0), \"New owner is the zero address\");\n        emit OwnershipTransferred(owner, newOwner);\n        owner = newOwner;\n    }\n    \n    // Authorize a contract to call restricted functions\n    function authorizeContract(address contractAddress) external onlyOwner {\n        authorizedContracts[contractAddress] = true;\n        emit ContractAuthorized(contractAddress);\n    }\n    \n    // Deauthorize a contract\n    function deauthorizeContract(address contractAddress) external onlyOwner {\n        authorizedContracts[contractAddress] = false;\n        emit ContractDeauthorized(contractAddress);\n    }\n    \n    // ===  Tasks ===\n    \n    // Update all these functions to use onlyAuthorized instead of onlyOwner\n    function recordNftForExSwap(address user) external onlyAuthorized {\n        _addPoints(user, 5, \"NFT-for-EX Swap\");\n    }\n    \n    function recordNftForNftSwap(address user) external onlyAuthorized {\n        _addPoints(user, 5, \"NFT-for-NFT Swap\");\n    }\n    \n    function recordReferralTaskCompletion(address referrer, address referredUser) external onlyAuthorized {\n        referralTaskCompleted[referredUser]++;\n        if (referralTaskCompleted[referredUser] >= 3) {\n            referredUsers[referrer]++;\n            _addPoints(referrer, 3, \"Referral Milestone (3 Tasks)\");\n        }\n    }\n    \n    function recordBatchSwap(address user, uint256 nftCount) external onlyAuthorized {\n        if (nftCount >= 5) {\n            _addPoints(user, 6, \"Batch NFT Swap (5+ NFTs)\");\n        }\n    }\n    \n    function recordLpParticipation(address user, address pool) external onlyAuthorized {\n        if (userPoolParticipation[user] < 3) {\n            userPoolParticipation[user]++;\n            if (userPoolParticipation[user] == 3 && !lp3ChallengeCompleted[user]) {\n                _addPoints(user, 7, \"LP in 3+ Pools\");\n                lp3ChallengeCompleted[user] = true;\n            }\n        }\n    }\n    \n    function recordDailySwap(address user) external onlyAuthorized {\n        dailySwapTimestamps[user].push(block.timestamp);\n        uint256 count = 0;\n        for (uint256 i = 0; i < dailySwapTimestamps[user].length; i++) {\n            if (block.timestamp - dailySwapTimestamps[user][i] <= 5 days) {\n                count++;\n            }\n        }\n        if (count >= 5 && !swap5DaysCompleted[user]) {\n            _addPoints(user, 10, \"5-Day Swap Streak\");\n            swap5DaysCompleted[user] = true;\n        }\n        _addPoints(user, 2, \"Daily Swap\");\n    }\n    \n    function recordPoolCreation(address user) external onlyAuthorized {\n        poolCreatedCount[user]++;\n        _addPoints(user, 3, \"Pool Created (100 USDT + 500M Meme)\");\n    }\n    \n    function recordPoolTransaction(address poolCreator) external onlyAuthorized {\n        poolTxCount[poolCreator]++;\n        _addPoints(poolCreator, 1, \"Pool Transaction\");\n    }\n    \n    function recordMemeCreation(address user) external onlyAuthorized {\n        memeCreatedCount[user]++;\n        _addPoints(user, 10, \"Meme Created (1B Supply)\");\n    }\n    \n    function recordMemeTransaction(address memeCreator) external onlyAuthorized {\n        memeTxCount[memeCreator]++;\n        _addPoints(memeCreator, 3, \"Meme Swap\");\n    }\n    \n    function recordDexAggregatorTrade(address user, uint256 amountUsd) external onlyAuthorized {\n        if (amountUsd >= 50 * 1e18) {\n            _addPoints(user, 10, \"DEX Aggregator Trade ($50+)\");\n        } else {\n            _addPoints(user, 5, \"DEX Aggregator Trade (<$50)\");\n        }\n    }\n    \n    function giveBonus(address user, uint256 amount, string calldata reason) external onlyAuthorized {\n        _addPoints(user, amount, reason);\n    }\n}\n",
  "sourcePath": "/workspaces/echoX-nft/echoX-nft/contracts/EchoXPoints.sol",
  "compiler": {
    "name": "solc",
    "version": "0.8.20+commit.a1b79de6.Emscripten.clang"
  },
  "schemaVersion": "3.4.16",
  "updatedAt": "2025-05-14T10:52:23.638Z",
  "networkType": "ethereum",
  "devdoc": {
    "kind": "dev",
    "methods": {},
    "version": 1
  },
  "userdoc": {
    "kind": "user",
    "methods": {},
    "version": 1
  }
}