{
  "contractName": "EchoXToken",
  "abi": [
    {
      "inputs": [],
      "stateMutability": "nonpayable",
      "type": "constructor"
    },
    {
      "inputs": [
        {
          "internalType": "address",
          "name": "spender",
          "type": "address"
        },
        {
          "internalType": "uint256",
          "name": "allowance",
          "type": "uint256"
        },
        {
          "internalType": "uint256",
          "name": "needed",
          "type": "uint256"
        }
      ],
      "name": "ERC20InsufficientAllowance",
      "type": "error"
    },
    {
      "inputs": [
        {
          "internalType": "address",
          "name": "sender",
          "type": "address"
        },
        {
          "internalType": "uint256",
          "name": "balance",
          "type": "uint256"
        },
        {
          "internalType": "uint256",
          "name": "needed",
          "type": "uint256"
        }
      ],
      "name": "ERC20InsufficientBalance",
      "type": "error"
    },
    {
      "inputs": [
        {
          "internalType": "address",
          "name": "approver",
          "type": "address"
        }
      ],
      "name": "ERC20InvalidApprover",
      "type": "error"
    },
    {
      "inputs": [
        {
          "internalType": "address",
          "name": "receiver",
          "type": "address"
        }
      ],
      "name": "ERC20InvalidReceiver",
      "type": "error"
    },
    {
      "inputs": [
        {
          "internalType": "address",
          "name": "sender",
          "type": "address"
        }
      ],
      "name": "ERC20InvalidSender",
      "type": "error"
    },
    {
      "inputs": [
        {
          "internalType": "address",
          "name": "spender",
          "type": "address"
        }
      ],
      "name": "ERC20InvalidSpender",
      "type": "error"
    },
    {
      "anonymous": false,
      "inputs": [
        {
          "indexed": true,
          "internalType": "address",
          "name": "owner",
          "type": "address"
        },
        {
          "indexed": true,
          "internalType": "address",
          "name": "spender",
          "type": "address"
        },
        {
          "indexed": false,
          "internalType": "uint256",
          "name": "value",
          "type": "uint256"
        }
      ],
      "name": "Approval",
      "type": "event"
    },
    {
      "anonymous": false,
      "inputs": [
        {
          "indexed": true,
          "internalType": "address",
          "name": "from",
          "type": "address"
        },
        {
          "indexed": true,
          "internalType": "address",
          "name": "to",
          "type": "address"
        },
        {
          "indexed": false,
          "internalType": "uint256",
          "name": "value",
          "type": "uint256"
        }
      ],
      "name": "Transfer",
      "type": "event"
    },
    {
      "inputs": [
        {
          "internalType": "address",
          "name": "owner",
          "type": "address"
        },
        {
          "internalType": "address",
          "name": "spender",
          "type": "address"
        }
      ],
      "name": "allowance",
      "outputs": [
        {
          "internalType": "uint256",
          "name": "",
          "type": "uint256"
        }
      ],
      "stateMutability": "view",
      "type": "function",
      "constant": true
    },
    {
      "inputs": [
        {
          "internalType": "address",
          "name": "spender",
          "type": "address"
        },
        {
          "internalType": "uint256",
          "name": "value",
          "type": "uint256"
        }
      ],
      "name": "approve",
      "outputs": [
        {
          "internalType": "bool",
          "name": "",
          "type": "bool"
        }
      ],
      "stateMutability": "nonpayable",
      "type": "function"
    },
    {
      "inputs": [
        {
          "internalType": "address",
          "name": "account",
          "type": "address"
        }
      ],
      "name": "balanceOf",
      "outputs": [
        {
          "internalType": "uint256",
          "name": "",
          "type": "uint256"
        }
      ],
      "stateMutability": "view",
      "type": "function",
      "constant": true
    },
    {
      "inputs": [],
      "name": "decimals",
      "outputs": [
        {
          "internalType": "uint8",
          "name": "",
          "type": "uint8"
        }
      ],
      "stateMutability": "view",
      "type": "function",
      "constant": true
    },
    {
      "inputs": [],
      "name": "name",
      "outputs": [
        {
          "internalType": "string",
          "name": "",
          "type": "string"
        }
      ],
      "stateMutability": "view",
      "type": "function",
      "constant": true
    },
    {
      "inputs": [],
      "name": "symbol",
      "outputs": [
        {
          "internalType": "string",
          "name": "",
          "type": "string"
        }
      ],
      "stateMutability": "view",
      "type": "function",
      "constant": true
    },
    {
      "inputs": [],
      "name": "totalSupply",
      "outputs": [
        {
          "internalType": "uint256",
          "name": "",
          "type": "uint256"
        }
      ],
      "stateMutability": "view",
      "type": "function",
      "constant": true
    },
    {
      "inputs": [
        {
          "internalType": "address",
          "name": "to",
          "type": "address"
        },
        {
          "internalType": "uint256",
          "name": "value",
          "type": "uint256"
        }
      ],
      "name": "transfer",
      "outputs": [
        {
          "internalType": "bool",
          "name": "",
          "type": "bool"
        }
      ],
      "stateMutability": "nonpayable",
      "type": "function"
    },
    {
      "inputs": [
        {
          "internalType": "address",
          "name": "from",
          "type": "address"
        },
        {
          "internalType": "address",
          "name": "to",
          "type": "address"
        },
        {
          "internalType": "uint256",
          "name": "value",
          "type": "uint256"
        }
      ],
      "name": "transferFrom",
      "outputs": [
        {
          "internalType": "bool",
          "name": "",
          "type": "bool"
        }
      ],
      "stateMutability": "nonpayable",
      "type": "function"
    },
    {
      "inputs": [],
      "name": "mintOne",
      "outputs": [],
      "stateMutability": "nonpayable",
      "type": "function"
    }
  ],
  "bytecode": "0x608060405234801562000010575f80fd5b506040518060400160405280601081526020017f4563686f58205465737420546f6b656e000000000000000000000000000000008152506040518060400160405280600281526020017f455800000000000000000000000000000000000000000000000000000000000081525081600390816200008e919062000603565b508060049081620000a0919062000603565b505050620000e333620000b8620000e960201b60201c565b600a620000c6919062000870565b631dcd6500620000d79190620008c0565b620000f160201b60201c565b62000a09565b5f6012905090565b5f73ffffffffffffffffffffffffffffffffffffffff168273ffffffffffffffffffffffffffffffffffffffff160362000164575f6040517fec442f050000000000000000000000000000000000000000000000000000000081526004016200015b91906200094d565b60405180910390fd5b620001775f83836200017b60201b60201c565b5050565b5f73ffffffffffffffffffffffffffffffffffffffff168373ffffffffffffffffffffffffffffffffffffffff1603620001cf578060025f828254620001c2919062000968565b92505081905550620002a0565b5f805f8573ffffffffffffffffffffffffffffffffffffffff1673ffffffffffffffffffffffffffffffffffffffff1681526020019081526020015f20549050818110156200025b578381836040517fe450d38c0000000000000000000000000000000000000000000000000000000081526004016200025293929190620009b3565b60405180910390fd5b8181035f808673ffffffffffffffffffffffffffffffffffffffff1673ffffffffffffffffffffffffffffffffffffffff1681526020019081526020015f2081905550505b5f73ffffffffffffffffffffffffffffffffffffffff168273ffffffffffffffffffffffffffffffffffffffff1603620002e9578060025f828254039250508190555062000333565b805f808473ffffffffffffffffffffffffffffffffffffffff1673ffffffffffffffffffffffffffffffffffffffff1681526020019081526020015f205f82825401925050819055505b8173ffffffffffffffffffffffffffffffffffffffff168373ffffffffffffffffffffffffffffffffffffffff167fddf252ad1be2c89b69c2b068fc378daa952ba7f163c4a11628f55a4df523b3ef83604051620003929190620009ee565b60405180910390a3505050565b5f81519050919050565b7f4e487b71000000000000000000000000000000000000000000000000000000005f52604160045260245ffd5b7f4e487b71000000000000000000000000000000000000000000000000000000005f52602260045260245ffd5b5f60028204905060018216806200041b57607f821691505b602082108103620004315762000430620003d6565b5b50919050565b5f819050815f5260205f209050919050565b5f6020601f8301049050919050565b5f82821b905092915050565b5f60088302620004957fffffffffffffffffffffffffffffffffffffffffffffffffffffffffffffffff8262000458565b620004a1868362000458565b95508019841693508086168417925050509392505050565b5f819050919050565b5f819050919050565b5f620004eb620004e5620004df84620004b9565b620004c2565b620004b9565b9050919050565b5f819050919050565b6200050683620004cb565b6200051e6200051582620004f2565b84845462000464565b825550505050565b5f90565b6200053462000526565b62000541818484620004fb565b505050565b5b8181101562000568576200055c5f826200052a565b60018101905062000547565b5050565b601f821115620005b757620005818162000437565b6200058c8462000449565b810160208510156200059c578190505b620005b4620005ab8562000449565b83018262000546565b50505b505050565b5f82821c905092915050565b5f620005d95f1984600802620005bc565b1980831691505092915050565b5f620005f38383620005c8565b9150826002028217905092915050565b6200060e826200039f565b67ffffffffffffffff8111156200062a5762000629620003a9565b5b62000636825462000403565b620006438282856200056c565b5f60209050601f83116001811462000679575f841562000664578287015190505b620006708582620005e6565b865550620006df565b601f198416620006898662000437565b5f5b82811015620006b2578489015182556001820191506020850194506020810190506200068b565b86831015620006d25784890151620006ce601f891682620005c8565b8355505b6001600288020188555050505b505050505050565b7f4e487b71000000000000000000000000000000000000000000000000000000005f52601160045260245ffd5b5f8160011c9050919050565b5f808291508390505b60018511156200077157808604811115620007495762000748620006e7565b5b6001851615620007595780820291505b8081029050620007698562000714565b945062000729565b94509492505050565b5f826200078b57600190506200085d565b816200079a575f90506200085d565b8160018114620007b35760028114620007be57620007f4565b60019150506200085d565b60ff841115620007d357620007d2620006e7565b5b8360020a915084821115620007ed57620007ec620006e7565b5b506200085d565b5060208310610133831016604e8410600b84101617156200082e5782820a905083811115620008285762000827620006e7565b5b6200085d565b6200083d848484600162000720565b92509050818404811115620008575762000856620006e7565b5b81810290505b9392505050565b5f60ff82169050919050565b5f6200087c82620004b9565b9150620008898362000864565b9250620008b87fffffffffffffffffffffffffffffffffffffffffffffffffffffffffffffffff84846200077a565b905092915050565b5f620008cc82620004b9565b9150620008d983620004b9565b9250828202620008e981620004b9565b91508282048414831517620009035762000902620006e7565b5b5092915050565b5f73ffffffffffffffffffffffffffffffffffffffff82169050919050565b5f62000935826200090a565b9050919050565b620009478162000929565b82525050565b5f602082019050620009625f8301846200093c565b92915050565b5f6200097482620004b9565b91506200098183620004b9565b92508282019050808211156200099c576200099b620006e7565b5b92915050565b620009ad81620004b9565b82525050565b5f606082019050620009c85f8301866200093c565b620009d76020830185620009a2565b620009e66040830184620009a2565b949350505050565b5f60208201905062000a035f830184620009a2565b92915050565b6110758062000a175f395ff3fe608060405234801561000f575f80fd5b506004361061009c575f3560e01c8063313ce56711610064578063313ce5671461014657806370a082311461016457806395d89b4114610194578063a9059cbb146101b2578063dd62ed3e146101e25761009c565b806306fdde03146100a0578063095ea7b3146100be5780630ced8637146100ee57806318160ddd146100f857806323b872dd14610116575b5f80fd5b6100a8610212565b6040516100b59190610b34565b60405180910390f35b6100d860048036038101906100d39190610be5565b6102a2565b6040516100e59190610c3d565b60405180910390f35b6100f66102c4565b005b6101006102ef565b60405161010d9190610c65565b60405180910390f35b610130600480360381019061012b9190610c7e565b6102f8565b60405161013d9190610c3d565b60405180910390f35b61014e610326565b60405161015b9190610ce9565b60405180910390f35b61017e60048036038101906101799190610d02565b61032e565b60405161018b9190610c65565b60405180910390f35b61019c610373565b6040516101a99190610b34565b60405180910390f35b6101cc60048036038101906101c79190610be5565b610403565b6040516101d99190610c3d565b60405180910390f35b6101fc60048036038101906101f79190610d2d565b610425565b6040516102099190610c65565b60405180910390f35b60606003805461022190610d98565b80601f016020809104026020016040519081016040528092919081815260200182805461024d90610d98565b80156102985780601f1061026f57610100808354040283529160200191610298565b820191905f5260205f20905b81548152906001019060200180831161027b57829003601f168201915b5050505050905090565b5f806102ac6104a7565b90506102b98185856104ae565b600191505092915050565b6102ed336102d0610326565b600a6102dc9190610f24565b60016102e89190610f6e565b6104c0565b565b5f600254905090565b5f806103026104a7565b905061030f85828561053f565b61031a8585856105d2565b60019150509392505050565b5f6012905090565b5f805f8373ffffffffffffffffffffffffffffffffffffffff1673ffffffffffffffffffffffffffffffffffffffff1681526020019081526020015f20549050919050565b60606004805461038290610d98565b80601f01602080910402602001604051908101604052809291908181526020018280546103ae90610d98565b80156103f95780601f106103d0576101008083540402835291602001916103f9565b820191905f5260205f20905b8154815290600101906020018083116103dc57829003601f168201915b5050505050905090565b5f8061040d6104a7565b905061041a8185856105d2565b600191505092915050565b5f60015f8473ffffffffffffffffffffffffffffffffffffffff1673ffffffffffffffffffffffffffffffffffffffff1681526020019081526020015f205f8373ffffffffffffffffffffffffffffffffffffffff1673ffffffffffffffffffffffffffffffffffffffff1681526020019081526020015f2054905092915050565b5f33905090565b6104bb83838360016106c2565b505050565b5f73ffffffffffffffffffffffffffffffffffffffff168273ffffffffffffffffffffffffffffffffffffffff1603610530575f6040517fec442f050000000000000000000000000000000000000000000000000000000081526004016105279190610fbe565b60405180910390fd5b61053b5f8383610891565b5050565b5f61054a8484610425565b90507fffffffffffffffffffffffffffffffffffffffffffffffffffffffffffffffff8110156105cc57818110156105bd578281836040517ffb8f41b20000000000000000000000000000000000000000000000000000000081526004016105b493929190610fd7565b60405180910390fd5b6105cb84848484035f6106c2565b5b50505050565b5f73ffffffffffffffffffffffffffffffffffffffff168373ffffffffffffffffffffffffffffffffffffffff1603610642575f6040517f96c6fd1e0000000000000000000000000000000000000000000000000000000081526004016106399190610fbe565b60405180910390fd5b5f73ffffffffffffffffffffffffffffffffffffffff168273ffffffffffffffffffffffffffffffffffffffff16036106b2575f6040517fec442f050000000000000000000000000000000000000000000000000000000081526004016106a99190610fbe565b60405180910390fd5b6106bd838383610891565b505050565b5f73ffffffffffffffffffffffffffffffffffffffff168473ffffffffffffffffffffffffffffffffffffffff1603610732575f6040517fe602df050000000000000000000000000000000000000000000000000000000081526004016107299190610fbe565b60405180910390fd5b5f73ffffffffffffffffffffffffffffffffffffffff168373ffffffffffffffffffffffffffffffffffffffff16036107a2575f6040517f94280d620000000000000000000000000000000000000000000000000000000081526004016107999190610fbe565b60405180910390fd5b8160015f8673ffffffffffffffffffffffffffffffffffffffff1673ffffffffffffffffffffffffffffffffffffffff1681526020019081526020015f205f8573ffffffffffffffffffffffffffffffffffffffff1673ffffffffffffffffffffffffffffffffffffffff1681526020019081526020015f2081905550801561088b578273ffffffffffffffffffffffffffffffffffffffff168473ffffffffffffffffffffffffffffffffffffffff167f8c5be1e5ebec7d5bd14f71427d1e84f3dd0314c0f7b2291e5b200ac8c7c3b925846040516108829190610c65565b60405180910390a35b50505050565b5f73ffffffffffffffffffffffffffffffffffffffff168373ffffffffffffffffffffffffffffffffffffffff16036108e1578060025f8282546108d5919061100c565b925050819055506109af565b5f805f8573ffffffffffffffffffffffffffffffffffffffff1673ffffffffffffffffffffffffffffffffffffffff1681526020019081526020015f205490508181101561096a578381836040517fe450d38c00000000000000000000000000000000000000000000000000000000815260040161096193929190610fd7565b60405180910390fd5b8181035f808673ffffffffffffffffffffffffffffffffffffffff1673ffffffffffffffffffffffffffffffffffffffff1681526020019081526020015f2081905550505b5f73ffffffffffffffffffffffffffffffffffffffff168273ffffffffffffffffffffffffffffffffffffffff16036109f6578060025f8282540392505081905550610a40565b805f808473ffffffffffffffffffffffffffffffffffffffff1673ffffffffffffffffffffffffffffffffffffffff1681526020019081526020015f205f82825401925050819055505b8173ffffffffffffffffffffffffffffffffffffffff168373ffffffffffffffffffffffffffffffffffffffff167fddf252ad1be2c89b69c2b068fc378daa952ba7f163c4a11628f55a4df523b3ef83604051610a9d9190610c65565b60405180910390a3505050565b5f81519050919050565b5f82825260208201905092915050565b5f5b83811015610ae1578082015181840152602081019050610ac6565b5f8484015250505050565b5f601f19601f8301169050919050565b5f610b0682610aaa565b610b108185610ab4565b9350610b20818560208601610ac4565b610b2981610aec565b840191505092915050565b5f6020820190508181035f830152610b4c8184610afc565b905092915050565b5f80fd5b5f73ffffffffffffffffffffffffffffffffffffffff82169050919050565b5f610b8182610b58565b9050919050565b610b9181610b77565b8114610b9b575f80fd5b50565b5f81359050610bac81610b88565b92915050565b5f819050919050565b610bc481610bb2565b8114610bce575f80fd5b50565b5f81359050610bdf81610bbb565b92915050565b5f8060408385031215610bfb57610bfa610b54565b5b5f610c0885828601610b9e565b9250506020610c1985828601610bd1565b9150509250929050565b5f8115159050919050565b610c3781610c23565b82525050565b5f602082019050610c505f830184610c2e565b92915050565b610c5f81610bb2565b82525050565b5f602082019050610c785f830184610c56565b92915050565b5f805f60608486031215610c9557610c94610b54565b5b5f610ca286828701610b9e565b9350506020610cb386828701610b9e565b9250506040610cc486828701610bd1565b9150509250925092565b5f60ff82169050919050565b610ce381610cce565b82525050565b5f602082019050610cfc5f830184610cda565b92915050565b5f60208284031215610d1757610d16610b54565b5b5f610d2484828501610b9e565b91505092915050565b5f8060408385031215610d4357610d42610b54565b5b5f610d5085828601610b9e565b9250506020610d6185828601610b9e565b9150509250929050565b7f4e487b71000000000000000000000000000000000000000000000000000000005f52602260045260245ffd5b5f6002820490506001821680610daf57607f821691505b602082108103610dc257610dc1610d6b565b5b50919050565b7f4e487b71000000000000000000000000000000000000000000000000000000005f52601160045260245ffd5b5f8160011c9050919050565b5f808291508390505b6001851115610e4a57808604811115610e2657610e25610dc8565b5b6001851615610e355780820291505b8081029050610e4385610df5565b9450610e0a565b94509492505050565b5f82610e625760019050610f1d565b81610e6f575f9050610f1d565b8160018114610e855760028114610e8f57610ebe565b6001915050610f1d565b60ff841115610ea157610ea0610dc8565b5b8360020a915084821115610eb857610eb7610dc8565b5b50610f1d565b5060208310610133831016604e8410600b8410161715610ef35782820a905083811115610eee57610eed610dc8565b5b610f1d565b610f008484846001610e01565b92509050818404811115610f1757610f16610dc8565b5b81810290505b9392505050565b5f610f2e82610bb2565b9150610f3983610cce565b9250610f667fffffffffffffffffffffffffffffffffffffffffffffffffffffffffffffffff8484610e53565b905092915050565b5f610f7882610bb2565b9150610f8383610bb2565b9250828202610f9181610bb2565b91508282048414831517610fa857610fa7610dc8565b5b5092915050565b610fb881610b77565b82525050565b5f602082019050610fd15f830184610faf565b92915050565b5f606082019050610fea5f830186610faf565b610ff76020830185610c56565b6110046040830184610c56565b949350505050565b5f61101682610bb2565b915061102183610bb2565b925082820190508082111561103957611038610dc8565b5b9291505056fea2646970667358221220624972457aa8852d23ea3441f0b969e5a3caf29e672d0c883960fdedd0617eb164736f6c63430008140033",
  "immutableReferences": {},
  "source": "// SPDX-License-Identifier: MIT\npragma solidity ^0.8.20;\n\nimport \"@openzeppelin/contracts/token/ERC20/ERC20.sol\";\n\ncontract EchoXToken is ERC20 {\n    constructor() ERC20(\"EchoX Test Token\", \"EX\") {\n        _mint(msg.sender, 500_000_000 * 10 ** decimals()); // Mint initial supply to the contract creator\n    }\n\n    // Make this public so anyone can mint one EX token\n    function mintOne() public {\n        _mint(msg.sender, 1 * 10 ** decimals());\n    }\n}\n",
  "sourcePath": "/workspaces/echoX-nft/echoX-nft/contracts/EchoXToken.sol",
  "compiler": {
    "name": "solc",
    "version": "0.8.20+commit.a1b79de6.Emscripten.clang"
  },
  "schemaVersion": "3.4.16",
  "updatedAt": "2025-05-01T08:48:55.734Z",
  "networkType": "ethereum",
  "devdoc": {
    "errors": {
      "ERC20InsufficientAllowance(address,uint256,uint256)": [
        {
          "details": "Indicates a failure with the `spender`s `allowance`. Used in transfers.",
          "params": {
            "allowance": "Amount of tokens a `spender` is allowed to operate with.",
            "needed": "Minimum amount required to perform a transfer.",
            "spender": "Address that may be allowed to operate on tokens without being their owner."
          }
        }
      ],
      "ERC20InsufficientBalance(address,uint256,uint256)": [
        {
          "details": "Indicates an error related to the current `balance` of a `sender`. Used in transfers.",
          "params": {
            "balance": "Current balance for the interacting account.",
            "needed": "Minimum amount required to perform a transfer.",
            "sender": "Address whose tokens are being transferred."
          }
        }
      ],
      "ERC20InvalidApprover(address)": [
        {
          "details": "Indicates a failure with the `approver` of a token to be approved. Used in approvals.",
          "params": {
            "approver": "Address initiating an approval operation."
          }
        }
      ],
      "ERC20InvalidReceiver(address)": [
        {
          "details": "Indicates a failure with the token `receiver`. Used in transfers.",
          "params": {
            "receiver": "Address to which tokens are being transferred."
          }
        }
      ],
      "ERC20InvalidSender(address)": [
        {
          "details": "Indicates a failure with the token `sender`. Used in transfers.",
          "params": {
            "sender": "Address whose tokens are being transferred."
          }
        }
      ],
      "ERC20InvalidSpender(address)": [
        {
          "details": "Indicates a failure with the `spender` to be approved. Used in approvals.",
          "params": {
            "spender": "Address that may be allowed to operate on tokens without being their owner."
          }
        }
      ]
    },
    "events": {
      "Approval(address,address,uint256)": {
        "details": "Emitted when the allowance of a `spender` for an `owner` is set by a call to {approve}. `value` is the new allowance."
      },
      "Transfer(address,address,uint256)": {
        "details": "Emitted when `value` tokens are moved from one account (`from`) to another (`to`). Note that `value` may be zero."
      }
    },
    "kind": "dev",
    "methods": {
      "allowance(address,address)": {
        "details": "See {IERC20-allowance}."
      },
      "approve(address,uint256)": {
        "details": "See {IERC20-approve}. NOTE: If `value` is the maximum `uint256`, the allowance is not updated on `transferFrom`. This is semantically equivalent to an infinite approval. Requirements: - `spender` cannot be the zero address."
      },
      "balanceOf(address)": {
        "details": "See {IERC20-balanceOf}."
      },
      "decimals()": {
        "details": "Returns the number of decimals used to get its user representation. For example, if `decimals` equals `2`, a balance of `505` tokens should be displayed to a user as `5.05` (`505 / 10 ** 2`). Tokens usually opt for a value of 18, imitating the relationship between Ether and Wei. This is the default value returned by this function, unless it's overridden. NOTE: This information is only used for _display_ purposes: it in no way affects any of the arithmetic of the contract, including {IERC20-balanceOf} and {IERC20-transfer}."
      },
      "name()": {
        "details": "Returns the name of the token."
      },
      "symbol()": {
        "details": "Returns the symbol of the token, usually a shorter version of the name."
      },
      "totalSupply()": {
        "details": "See {IERC20-totalSupply}."
      },
      "transfer(address,uint256)": {
        "details": "See {IERC20-transfer}. Requirements: - `to` cannot be the zero address. - the caller must have a balance of at least `value`."
      },
      "transferFrom(address,address,uint256)": {
        "details": "See {IERC20-transferFrom}. Skips emitting an {Approval} event indicating an allowance update. This is not required by the ERC. See {xref-ERC20-_approve-address-address-uint256-bool-}[_approve]. NOTE: Does not update the allowance if the current allowance is the maximum `uint256`. Requirements: - `from` and `to` cannot be the zero address. - `from` must have a balance of at least `value`. - the caller must have allowance for ``from``'s tokens of at least `value`."
      }
    },
    "version": 1
  },
  "userdoc": {
    "kind": "user",
    "methods": {},
    "version": 1
  }
}