{
  "contractName": "EchoXAggregator",
  "abi": [
    {
      "inputs": [
        {
          "internalType": "address",
          "name": "_pointsContract",
          "type": "address"
        }
      ],
      "stateMutability": "nonpayable",
      "type": "constructor"
    },
    {
      "anonymous": false,
      "inputs": [
        {
          "indexed": true,
          "internalType": "address",
          "name": "previousOwner",
          "type": "address"
        },
        {
          "indexed": true,
          "internalType": "address",
          "name": "newOwner",
          "type": "address"
        }
      ],
      "name": "OwnershipTransferred",
      "type": "event"
    },
    {
      "anonymous": false,
      "inputs": [
        {
          "indexed": false,
          "internalType": "string",
          "name": "chainKey",
          "type": "string"
        },
        {
          "indexed": false,
          "internalType": "address",
          "name": "router",
          "type": "address"
        }
      ],
      "name": "RouterSet",
      "type": "event"
    },
    {
      "anonymous": false,
      "inputs": [
        {
          "indexed": true,
          "internalType": "address",
          "name": "user",
          "type": "address"
        },
        {
          "indexed": false,
          "internalType": "string",
          "name": "chainKey",
          "type": "string"
        },
        {
          "indexed": false,
          "internalType": "address[]",
          "name": "path",
          "type": "address[]"
        },
        {
          "indexed": false,
          "internalType": "uint256",
          "name": "amountIn",
          "type": "uint256"
        },
        {
          "indexed": false,
          "internalType": "uint256",
          "name": "amountOut",
          "type": "uint256"
        }
      ],
      "name": "SwapExecuted",
      "type": "event"
    },
    {
      "inputs": [],
      "name": "owner",
      "outputs": [
        {
          "internalType": "address",
          "name": "",
          "type": "address"
        }
      ],
      "stateMutability": "view",
      "type": "function",
      "constant": true
    },
    {
      "inputs": [],
      "name": "pointsContract",
      "outputs": [
        {
          "internalType": "address",
          "name": "",
          "type": "address"
        }
      ],
      "stateMutability": "view",
      "type": "function",
      "constant": true
    },
    {
      "inputs": [],
      "name": "renounceOwnership",
      "outputs": [],
      "stateMutability": "nonpayable",
      "type": "function"
    },
    {
      "inputs": [
        {
          "internalType": "string",
          "name": "",
          "type": "string"
        }
      ],
      "name": "routers",
      "outputs": [
        {
          "internalType": "address",
          "name": "",
          "type": "address"
        }
      ],
      "stateMutability": "view",
      "type": "function",
      "constant": true
    },
    {
      "inputs": [
        {
          "internalType": "address",
          "name": "newOwner",
          "type": "address"
        }
      ],
      "name": "transferOwnership",
      "outputs": [],
      "stateMutability": "nonpayable",
      "type": "function"
    },
    {
      "inputs": [
        {
          "internalType": "address",
          "name": "_pointsContract",
          "type": "address"
        }
      ],
      "name": "setPointsContract",
      "outputs": [],
      "stateMutability": "nonpayable",
      "type": "function"
    },
    {
      "inputs": [
        {
          "internalType": "string",
          "name": "key",
          "type": "string"
        },
        {
          "internalType": "address",
          "name": "router",
          "type": "address"
        }
      ],
      "name": "setRouter",
      "outputs": [],
      "stateMutability": "nonpayable",
      "type": "function"
    },
    {
      "inputs": [
        {
          "internalType": "string",
          "name": "chainKey",
          "type": "string"
        },
        {
          "internalType": "address[]",
          "name": "path",
          "type": "address[]"
        },
        {
          "internalType": "uint256",
          "name": "amountIn",
          "type": "uint256"
        },
        {
          "internalType": "uint256",
          "name": "amountOutMin",
          "type": "uint256"
        }
      ],
      "name": "swap",
      "outputs": [],
      "stateMutability": "nonpayable",
      "type": "function"
    },
    {
      "inputs": [
        {
          "internalType": "string",
          "name": "chainKey",
          "type": "string"
        }
      ],
      "name": "getRouter",
      "outputs": [
        {
          "internalType": "address",
          "name": "",
          "type": "address"
        }
      ],
      "stateMutability": "view",
      "type": "function",
      "constant": true
    }
  ],
  "bytecode": "0x608060405234801561000f575f80fd5b50604051610d37380380610d3783398101604081905261002e916100ab565b6100373361005c565b600180546001600160a01b0319166001600160a01b03929092169190911790556100d8565b5f80546001600160a01b038381166001600160a01b0319831681178455604051919092169283917f8be0079c531659141344cd1fd0a4f28419497f9722a3daafe3b4186f6b6457e09190a35050565b5f602082840312156100bb575f80fd5b81516001600160a01b03811681146100d1575f80fd5b9392505050565b610c52806100e55f395ff3fe608060405234801561000f575f80fd5b5060043610610090575f3560e01c8063715018a611610063578063715018a61461011f5780638da5cb5b1461012757806395754abb14610137578063f2fde38b1461014a578063fc518b4a1461015d575f80fd5b80631677ee6d146100945780632b4f8a1f146100a95780633576d024146100d857806337ee35d41461010c575b5f80fd5b6100a76100a23660046107ad565b610170565b005b6001546100bc906001600160a01b031681565b6040516001600160a01b03909116815260200160405180910390f35b6100bc6100e6366004610895565b80516020818301810180516002825292820191909301209152546001600160a01b031681565b6100a761011a36600461093f565b6104fd565b6100a76105d5565b5f546001600160a01b03166100bc565b6100a761014536600461098f565b6105e8565b6100a761015836600461098f565b610612565b6100bc61016b3660046109af565b61068b565b5f600287876040516101839291906109ee565b908152604051908190036020019020546001600160a01b03169050806101e85760405162461bcd60e51b8152602060048201526015602482015274149bdd5d195c881b9bdd0818dbdb999a59dd5c9959605a1b60448201526064015b60405180910390fd5b84845f8181106101fa576101fa6109fd565b905060200201602081019061020f919061098f565b6040516323b872dd60e01b8152336004820152306024820152604481018590526001600160a01b0391909116906323b872dd906064016020604051808303815f875af1158015610261573d5f803e3d5ffd5b505050506040513d601f19601f820116820180604052508101906102859190610a11565b5084845f818110610298576102986109fd565b90506020020160208101906102ad919061098f565b60405163095ea7b360e01b81526001600160a01b03838116600483015260248201869052919091169063095ea7b3906044016020604051808303815f875af11580156102fb573d5f803e3d5ffd5b505050506040513d601f19601f8201168201806040525081019061031f9190610a11565b505f6001600160a01b0382166338ed173985858989336103414261012c610a44565b6040518763ffffffff1660e01b815260040161036296959493929190610a9c565b5f604051808303815f875af115801561037d573d5f803e3d5ffd5b505050506040513d5f823e601f3d908101601f191682016040526103a49190810190610ad9565b90505f81600183516103b69190610b7a565b815181106103c6576103c66109fd565b60209081029190910101516001546040516314f886cd60e31b8152336004820152602481018390529192506001600160a01b03169063a7c43668906044015f604051808303815f87803b15801561041b575f80fd5b505af192505050801561042c575060015b5060015460405163120fd08160e31b81523360048201526001600160a01b039091169063907e8408906024015f604051808303815f87803b15801561046f575f80fd5b505af1925050508015610480575060015b50336001600160a01b03167fe433fba6b8ce6e0dfccb28cfc0bb3237f2a6134b559587cb8a5a89c13199ac748a8a8a8a8a8860018a516104c09190610b7a565b815181106104d0576104d06109fd565b60200260200101516040516104ea96959493929190610bb5565b60405180910390a2505050505050505050565b6105056106c0565b6001600160a01b0381166105545760405162461bcd60e51b8152602060048201526016602482015275496e76616c696420726f75746572206164647265737360501b60448201526064016101df565b80600284846040516105679291906109ee565b90815260405190819003602001812080546001600160a01b03939093166001600160a01b0319909316929092179091557f3b94e547db7598a3e9e35bd74cd0ace98451413bd3951dace9c16dc22ef7cc9e906105c890859085908590610bf1565b60405180910390a1505050565b6105dd6106c0565b6105e65f610719565b565b6105f06106c0565b600180546001600160a01b0319166001600160a01b0392909216919091179055565b61061a6106c0565b6001600160a01b03811661067f5760405162461bcd60e51b815260206004820152602660248201527f4f776e61626c653a206e6577206f776e657220697320746865207a65726f206160448201526564647265737360d01b60648201526084016101df565b61068881610719565b50565b5f6002838360405161069e9291906109ee565b908152604051908190036020019020546001600160a01b031690505b92915050565b5f546001600160a01b031633146105e65760405162461bcd60e51b815260206004820181905260248201527f4f776e61626c653a2063616c6c6572206973206e6f7420746865206f776e657260448201526064016101df565b5f80546001600160a01b038381166001600160a01b0319831681178455604051919092169283917f8be0079c531659141344cd1fd0a4f28419497f9722a3daafe3b4186f6b6457e09190a35050565b5f8083601f840112610778575f80fd5b50813567ffffffffffffffff81111561078f575f80fd5b6020830191508360208285010111156107a6575f80fd5b9250929050565b5f805f805f80608087890312156107c2575f80fd5b863567ffffffffffffffff808211156107d9575f80fd5b6107e58a838b01610768565b909850965060208901359150808211156107fd575f80fd5b818901915089601f830112610810575f80fd5b81358181111561081e575f80fd5b8a60208260051b8501011115610832575f80fd5b979a9699505060200196604081013595606090910135945092505050565b634e487b7160e01b5f52604160045260245ffd5b604051601f8201601f1916810167ffffffffffffffff8111828210171561088d5761088d610850565b604052919050565b5f60208083850312156108a6575f80fd5b823567ffffffffffffffff808211156108bd575f80fd5b818501915085601f8301126108d0575f80fd5b8135818111156108e2576108e2610850565b6108f4601f8201601f19168501610864565b91508082528684828501011115610909575f80fd5b80848401858401375f90820190930192909252509392505050565b80356001600160a01b038116811461093a575f80fd5b919050565b5f805f60408486031215610951575f80fd5b833567ffffffffffffffff811115610967575f80fd5b61097386828701610768565b9094509250610986905060208501610924565b90509250925092565b5f6020828403121561099f575f80fd5b6109a882610924565b9392505050565b5f80602083850312156109c0575f80fd5b823567ffffffffffffffff8111156109d6575f80fd5b6109e285828601610768565b90969095509350505050565b818382375f9101908152919050565b634e487b7160e01b5f52603260045260245ffd5b5f60208284031215610a21575f80fd5b815180151581146109a8575f80fd5b634e487b7160e01b5f52601160045260245ffd5b808201808211156106ba576106ba610a30565b8183525f60208085019450825f5b85811015610a91576001600160a01b03610a7e83610924565b1687529582019590820190600101610a65565b509495945050505050565b86815285602082015260a060408201525f610abb60a083018688610a57565b6001600160a01b039490941660608301525060800152949350505050565b5f6020808385031215610aea575f80fd5b825167ffffffffffffffff80821115610b01575f80fd5b818501915085601f830112610b14575f80fd5b815181811115610b2657610b26610850565b8060051b9150610b37848301610864565b8181529183018401918481019088841115610b50575f80fd5b938501935b83851015610b6e57845182529385019390850190610b55565b98975050505050505050565b818103818111156106ba576106ba610a30565b81835281816020850137505f828201602090810191909152601f909101601f19169091010190565b608081525f610bc860808301888a610b8d565b8281036020840152610bdb818789610a57565b6040840195909552505060600152949350505050565b604081525f610c04604083018587610b8d565b905060018060a01b038316602083015294935050505056fea264697066735822122025834b888074c9dfec1e7a895114e6f8fca91bb2bf98f2e593fcb19f9ee134cb64736f6c63430008140033",
  "immutableReferences": {},
  "source": "// SPDX-License-Identifier: MIT\npragma solidity ^0.8.20;\n\nimport \"@openzeppelin/contracts/access/Ownable.sol\";\nimport \"@openzeppelin/contracts/token/ERC20/IERC20.sol\";\nimport \"./EchoXInterfaces.sol\";\n\ninterface IUniswapRouter {\n    function swapExactTokensForTokens(\n        uint amountIn,\n        uint amountOutMin,\n        address[] calldata path,\n        address to,\n        uint deadline\n    ) external returns (uint[] memory amounts);\n}\n\ncontract EchoXAggregator is Ownable {\n    address public pointsContract;\n    mapping(string => address) public routers; // e.g., \"arb\" => 0xUniswapRouter\n\n    event RouterSet(string chainKey, address router);\n    event SwapExecuted(\n        address indexed user,\n        string chainKey,\n        address[] path,\n        uint256 amountIn,\n        uint256 amountOut\n    );\n\n    constructor(address _pointsContract) {\n        pointsContract = _pointsContract;\n    }\n\n    // Allow updating the Points contract (optional flexibility)\n    function setPointsContract(address _pointsContract) external onlyOwner {\n        pointsContract = _pointsContract;\n    }\n\n    // Set router for a specific chain (e.g., Arbitrum or Mumbai)\n    function setRouter(string calldata key, address router) external onlyOwner {\n        require(router != address(0), \"Invalid router address\");\n        routers[key] = router;\n        emit RouterSet(key, router);\n    }\n\n    // Core swap function\n    function swap(\n        string calldata chainKey,           // e.g., \"arb\"\n        address[] calldata path,            // tokenIn -> tokenOut\n        uint256 amountIn,                   // amount to swap\n        uint256 amountOutMin                // min acceptable output\n    ) external {\n        address router = routers[chainKey];\n        require(router != address(0), \"Router not configured\");\n\n        IERC20(path[0]).transferFrom(msg.sender, address(this), amountIn);\n        IERC20(path[0]).approve(router, amountIn);\n\n        uint256[] memory amounts = IUniswapRouter(router).swapExactTokensForTokens(\n            amountIn,\n            amountOutMin,\n            path,\n            msg.sender,\n            block.timestamp + 300\n        );\n\n        uint256 amountUsd = amounts[amounts.length - 1]; // Simplified USD value\n\n        // Reward user for the swap\n        try IEchoXPoints(pointsContract).recordDexAggregatorTrade(msg.sender, amountUsd) {\n            // success\n        } catch {\n            // silently fail\n        }\n\n        // Record daily swap\n        try IEchoXPoints(pointsContract).recordDailySwap(msg.sender) {\n            // success\n        } catch {\n            // silently fail\n        }\n\n        emit SwapExecuted(msg.sender, chainKey, path, amountIn, amounts[amounts.length - 1]);\n    }\n\n    // View function to fetch the router for a chain\n    function getRouter(string calldata chainKey) external view returns (address) {\n        return routers[chainKey];\n    }\n}\n",
  "sourcePath": "/workspaces/echoX-nft/echoX-nft/contracts/EchoXAggregrator.sol",
  "compiler": {
    "name": "solc",
    "version": "0.8.20+commit.a1b79de6.Emscripten.clang"
  },
  "schemaVersion": "3.4.16",
  "updatedAt": "2025-05-16T14:39:10.541Z",
  "networkType": "ethereum",
  "devdoc": {
    "kind": "dev",
    "methods": {
      "owner()": {
        "details": "Returns the address of the current owner."
      },
      "renounceOwnership()": {
        "details": "Leaves the contract without owner. It will not be possible to call `onlyOwner` functions. Can only be called by the current owner. NOTE: Renouncing ownership will leave the contract without an owner, thereby disabling any functionality that is only available to the owner."
      },
      "transferOwnership(address)": {
        "details": "Transfers ownership of the contract to a new account (`newOwner`). Can only be called by the current owner."
      }
    },
    "version": 1
  },
  "userdoc": {
    "kind": "user",
    "methods": {},
    "version": 1
  }
}