{
  "contractName": "EchoXCore",
  "abi": [
    {
      "inputs": [
        {
          "internalType": "address",
          "name": "_nft",
          "type": "address"
        },
        {
          "internalType": "address",
          "name": "_ex",
          "type": "address"
        },
        {
          "internalType": "address",
          "name": "_points",
          "type": "address"
        }
      ],
      "stateMutability": "nonpayable",
      "type": "constructor"
    },
    {
      "anonymous": false,
      "inputs": [
        {
          "indexed": false,
          "internalType": "address",
          "name": "user",
          "type": "address"
        },
        {
          "indexed": false,
          "internalType": "uint256",
          "name": "amount",
          "type": "uint256"
        }
      ],
      "name": "EXStaked",
      "type": "event"
    },
    {
      "anonymous": false,
      "inputs": [
        {
          "indexed": false,
          "internalType": "address",
          "name": "user",
          "type": "address"
        },
        {
          "indexed": false,
          "internalType": "uint256[]",
          "name": "tokenIds",
          "type": "uint256[]"
        }
      ],
      "name": "NFTSwapped",
      "type": "event"
    },
    {
      "anonymous": false,
      "inputs": [
        {
          "indexed": true,
          "internalType": "address",
          "name": "user",
          "type": "address"
        },
        {
          "indexed": false,
          "internalType": "uint256",
          "name": "points",
          "type": "uint256"
        }
      ],
      "name": "PointsEarned",
      "type": "event"
    },
    {
      "anonymous": false,
      "inputs": [
        {
          "indexed": true,
          "internalType": "address",
          "name": "pool",
          "type": "address"
        },
        {
          "indexed": true,
          "internalType": "address",
          "name": "creator",
          "type": "address"
        }
      ],
      "name": "PoolCreated",
      "type": "event"
    },
    {
      "inputs": [],
      "name": "ex",
      "outputs": [
        {
          "internalType": "contract IEchoXToken",
          "name": "",
          "type": "address"
        }
      ],
      "stateMutability": "view",
      "type": "function",
      "constant": true
    },
    {
      "inputs": [],
      "name": "nft",
      "outputs": [
        {
          "internalType": "contract IEchoXNFT",
          "name": "",
          "type": "address"
        }
      ],
      "stateMutability": "view",
      "type": "function",
      "constant": true
    },
    {
      "inputs": [],
      "name": "nftPriceInEx",
      "outputs": [
        {
          "internalType": "uint256",
          "name": "",
          "type": "uint256"
        }
      ],
      "stateMutability": "view",
      "type": "function",
      "constant": true
    },
    {
      "inputs": [],
      "name": "owner",
      "outputs": [
        {
          "internalType": "address",
          "name": "",
          "type": "address"
        }
      ],
      "stateMutability": "view",
      "type": "function",
      "constant": true
    },
    {
      "inputs": [],
      "name": "points",
      "outputs": [
        {
          "internalType": "contract EchoXPoints",
          "name": "",
          "type": "address"
        }
      ],
      "stateMutability": "view",
      "type": "function",
      "constant": true
    },
    {
      "inputs": [
        {
          "internalType": "address",
          "name": "",
          "type": "address"
        },
        {
          "internalType": "uint256",
          "name": "",
          "type": "uint256"
        }
      ],
      "name": "userPools",
      "outputs": [
        {
          "internalType": "address",
          "name": "",
          "type": "address"
        }
      ],
      "stateMutability": "view",
      "type": "function",
      "constant": true
    },
    {
      "inputs": [
        {
          "internalType": "string",
          "name": "name",
          "type": "string"
        }
      ],
      "name": "createPool",
      "outputs": [],
      "stateMutability": "nonpayable",
      "type": "function"
    },
    {
      "inputs": [
        {
          "internalType": "address",
          "name": "poolAddr",
          "type": "address"
        },
        {
          "internalType": "uint256",
          "name": "tokenId",
          "type": "uint256"
        }
      ],
      "name": "swapNFTForEX",
      "outputs": [],
      "stateMutability": "nonpayable",
      "type": "function"
    },
    {
      "inputs": [
        {
          "internalType": "address",
          "name": "poolAddr",
          "type": "address"
        },
        {
          "internalType": "uint256",
          "name": "fromTokenId",
          "type": "uint256"
        },
        {
          "internalType": "uint256",
          "name": "toTokenId",
          "type": "uint256"
        }
      ],
      "name": "swapNFTForNFT",
      "outputs": [],
      "stateMutability": "nonpayable",
      "type": "function"
    },
    {
      "inputs": [
        {
          "internalType": "address",
          "name": "poolAddr",
          "type": "address"
        },
        {
          "internalType": "uint256[]",
          "name": "tokenIds",
          "type": "uint256[]"
        }
      ],
      "name": "batchSwap",
      "outputs": [],
      "stateMutability": "nonpayable",
      "type": "function"
    },
    {
      "inputs": [
        {
          "internalType": "address",
          "name": "poolAddr",
          "type": "address"
        },
        {
          "internalType": "uint256",
          "name": "amount",
          "type": "uint256"
        }
      ],
      "name": "provideLiquidity",
      "outputs": [],
      "stateMutability": "nonpayable",
      "type": "function"
    }
  ],
  "bytecode": "0x60806040526706f05b59d3b200006004553480156200001c575f80fd5b5060405162002964380380620029648339818101604052810190620000429190620001af565b335f806101000a81548173ffffffffffffffffffffffffffffffffffffffff021916908373ffffffffffffffffffffffffffffffffffffffff1602179055508260015f6101000a81548173ffffffffffffffffffffffffffffffffffffffff021916908373ffffffffffffffffffffffffffffffffffffffff1602179055508160025f6101000a81548173ffffffffffffffffffffffffffffffffffffffff021916908373ffffffffffffffffffffffffffffffffffffffff1602179055508060035f6101000a81548173ffffffffffffffffffffffffffffffffffffffff021916908373ffffffffffffffffffffffffffffffffffffffff16021790555050505062000208565b5f80fd5b5f73ffffffffffffffffffffffffffffffffffffffff82169050919050565b5f62000179826200014e565b9050919050565b6200018b816200016d565b811462000196575f80fd5b50565b5f81519050620001a98162000180565b92915050565b5f805f60608486031215620001c957620001c86200014a565b5b5f620001d88682870162000199565b9350506020620001eb8682870162000199565b9250506040620001fe8682870162000199565b9150509250925092565b61274e80620002165f395ff3fe608060405234801562000010575f80fd5b5060043610620000b6575f3560e01c806348ebdae7116200007957806348ebdae714620001765780635fea612014620001965780637b53bd3414620001b65780638da5cb5b14620001d6578063d0d1303614620001f8578063e1c34549146200021857620000b6565b8063010db02714620000ba57806304ec86cf14620000dc5780631064aa5514620000fc5780631be6dd64146200013257806347ccca021462000154575b5f80fd5b620000c46200023a565b604051620000d3919062000b97565b60405180910390f35b620000fa6004803603810190620000f4919062000c53565b62000240565b005b6200011a600480360381019062000114919062000c53565b62000417565b60405162000129919062000ca9565b60405180910390f35b6200013c62000460565b6040516200014b919062000d2b565b60405180910390f35b6200015e62000485565b6040516200016d919062000d6a565b60405180910390f35b6200019460048036038101906200018e919062000def565b620004aa565b005b620001b46004803603810190620001ae919062000c53565b62000632565b005b620001d46004803603810190620001ce919062000e56565b6200080f565b005b620001e062000910565b604051620001ef919062000ca9565b60405180910390f35b62000216600480360381019062000210919062001003565b62000933565b005b6200022262000ad0565b60405162000231919062001076565b60405180910390f35b60045481565b5f82905060015f9054906101000a900473ffffffffffffffffffffffffffffffffffffffff1673ffffffffffffffffffffffffffffffffffffffff166342842e0e3385856040518463ffffffff1660e01b8152600401620002a49392919062001091565b5f604051808303815f87803b158015620002bc575f80fd5b505af1158015620002cf573d5f803e3d5ffd5b505050508073ffffffffffffffffffffffffffffffffffffffff16634d7a384233846040518363ffffffff1660e01b815260040162000310929190620010cc565b5f604051808303815f87803b15801562000328575f80fd5b505af11580156200033b573d5f803e3d5ffd5b5050505060035f9054906101000a900473ffffffffffffffffffffffffffffffffffffffff1673ffffffffffffffffffffffffffffffffffffffff1663507cd30f3360056040518363ffffffff1660e01b81526004016200039e92919062001138565b5f604051808303815f87803b158015620003b6575f80fd5b505af1158015620003c9573d5f803e3d5ffd5b505050507f8e7877d8649b4ad705a6ccf4212bef9543948a1df6d9129356e8cd47a3c1142633620003fa8462000af5565b6040516200040a9291906200122a565b60405180910390a1505050565b6005602052815f5260405f20818154811062000431575f80fd5b905f5260205f20015f915091509054906101000a900473ffffffffffffffffffffffffffffffffffffffff1681565b60035f9054906101000a900473ffffffffffffffffffffffffffffffffffffffff1681565b60015f9054906101000a900473ffffffffffffffffffffffffffffffffffffffff1681565b6005828290501015620004f4576040517f08c379a0000000000000000000000000000000000000000000000000000000008152600401620004eb90620012ba565b60405180910390fd5b8273ffffffffffffffffffffffffffffffffffffffff166348ebdae73384846040518463ffffffff1660e01b8152600401620005339392919062001349565b5f604051808303815f87803b1580156200054b575f80fd5b505af11580156200055e573d5f803e3d5ffd5b5050505060035f9054906101000a900473ffffffffffffffffffffffffffffffffffffffff1673ffffffffffffffffffffffffffffffffffffffff1663507cd30f3360066040518363ffffffff1660e01b8152600401620005c1929190620013be565b5f604051808303815f87803b158015620005d9575f80fd5b505af1158015620005ec573d5f803e3d5ffd5b505050507f8e7877d8649b4ad705a6ccf4212bef9543948a1df6d9129356e8cd47a3c11426338383604051620006259392919062001349565b60405180910390a1505050565b60025f9054906101000a900473ffffffffffffffffffffffffffffffffffffffff1673ffffffffffffffffffffffffffffffffffffffff166323b872dd3384846040518463ffffffff1660e01b8152600401620006929392919062001091565b6020604051808303815f875af1158015620006af573d5f803e3d5ffd5b505050506040513d601f19601f82011682018060405250810190620006d5919062001423565b508173ffffffffffffffffffffffffffffffffffffffff166353ccbd2933836040518363ffffffff1660e01b815260040162000713929190620010cc565b5f604051808303815f87803b1580156200072b575f80fd5b505af11580156200073e573d5f803e3d5ffd5b5050505060035f9054906101000a900473ffffffffffffffffffffffffffffffffffffffff1673ffffffffffffffffffffffffffffffffffffffff1663507cd30f3360036040518363ffffffff1660e01b8152600401620007a192919062001494565b5f604051808303815f87803b158015620007b9575f80fd5b505af1158015620007cc573d5f803e3d5ffd5b505050507f93a07acba0823973bde20f14689e188f2ea80147a26cb279d8d9a4b7d4b8bd1d338260405162000803929190620010cc565b60405180910390a15050565b8273ffffffffffffffffffffffffffffffffffffffff16633ebf05dd3384846040518463ffffffff1660e01b81526004016200084e93929190620014bf565b5f604051808303815f87803b15801562000866575f80fd5b505af115801562000879573d5f803e3d5ffd5b5050505060035f9054906101000a900473ffffffffffffffffffffffffffffffffffffffff1673ffffffffffffffffffffffffffffffffffffffff1663507cd30f3360056040518363ffffffff1660e01b8152600401620008dc92919062001138565b5f604051808303815f87803b158015620008f4575f80fd5b505af115801562000907573d5f803e3d5ffd5b50505050505050565b5f8054906101000a900473ffffffffffffffffffffffffffffffffffffffff1681565b5f3360015f9054906101000a900473ffffffffffffffffffffffffffffffffffffffff1660025f9054906101000a900473ffffffffffffffffffffffffffffffffffffffff168460035f9054906101000a900473ffffffffffffffffffffffffffffffffffffffff16604051620009aa9062000b6f565b620009ba9594939291906200156e565b604051809103905ff080158015620009d4573d5f803e3d5ffd5b50905060055f3373ffffffffffffffffffffffffffffffffffffffff1673ffffffffffffffffffffffffffffffffffffffff1681526020019081526020015f2081908060018154018082558091505060019003905f5260205f20015f9091909190916101000a81548173ffffffffffffffffffffffffffffffffffffffff021916908373ffffffffffffffffffffffffffffffffffffffff1602179055503373ffffffffffffffffffffffffffffffffffffffff168173ffffffffffffffffffffffffffffffffffffffff167f4f2ce4e40f623ca765fc0167a25cb7842ceaafb8d82d3dec26ca0d0e0d2d489660405160405180910390a35050565b60025f9054906101000a900473ffffffffffffffffffffffffffffffffffffffff1681565b6060600167ffffffffffffffff81111562000b155762000b1462000ec3565b5b60405190808252806020026020018201604052801562000b445781602001602082028036833780820191505090505b50905081815f8151811062000b5e5762000b5d620015d0565b5b602002602001018181525050919050565b61111b80620015fe83390190565b5f819050919050565b62000b918162000b7d565b82525050565b5f60208201905062000bac5f83018462000b86565b92915050565b5f604051905090565b5f80fd5b5f80fd5b5f73ffffffffffffffffffffffffffffffffffffffff82169050919050565b5f62000bee8262000bc3565b9050919050565b62000c008162000be2565b811462000c0b575f80fd5b50565b5f8135905062000c1e8162000bf5565b92915050565b62000c2f8162000b7d565b811462000c3a575f80fd5b50565b5f8135905062000c4d8162000c24565b92915050565b5f806040838503121562000c6c5762000c6b62000bbb565b5b5f62000c7b8582860162000c0e565b925050602062000c8e8582860162000c3d565b9150509250929050565b62000ca38162000be2565b82525050565b5f60208201905062000cbe5f83018462000c98565b92915050565b5f819050919050565b5f62000ced62000ce762000ce18462000bc3565b62000cc4565b62000bc3565b9050919050565b5f62000d008262000ccd565b9050919050565b5f62000d138262000cf4565b9050919050565b62000d258162000d07565b82525050565b5f60208201905062000d405f83018462000d1a565b92915050565b5f62000d528262000cf4565b9050919050565b62000d648162000d46565b82525050565b5f60208201905062000d7f5f83018462000d59565b92915050565b5f80fd5b5f80fd5b5f80fd5b5f8083601f84011262000da95762000da862000d85565b5b8235905067ffffffffffffffff81111562000dc95762000dc862000d89565b5b60208301915083602082028301111562000de85762000de762000d8d565b5b9250929050565b5f805f6040848603121562000e095762000e0862000bbb565b5b5f62000e188682870162000c0e565b935050602084013567ffffffffffffffff81111562000e3c5762000e3b62000bbf565b5b62000e4a8682870162000d91565b92509250509250925092565b5f805f6060848603121562000e705762000e6f62000bbb565b5b5f62000e7f8682870162000c0e565b935050602062000e928682870162000c3d565b925050604062000ea58682870162000c3d565b9150509250925092565b5f80fd5b5f601f19601f8301169050919050565b7f4e487b71000000000000000000000000000000000000000000000000000000005f52604160045260245ffd5b62000efb8262000eb3565b810181811067ffffffffffffffff8211171562000f1d5762000f1c62000ec3565b5b80604052505050565b5f62000f3162000bb2565b905062000f3f828262000ef0565b919050565b5f67ffffffffffffffff82111562000f615762000f6062000ec3565b5b62000f6c8262000eb3565b9050602081019050919050565b828183375f83830152505050565b5f62000f9d62000f978462000f44565b62000f26565b90508281526020810184848401111562000fbc5762000fbb62000eaf565b5b62000fc984828562000f79565b509392505050565b5f82601f83011262000fe85762000fe762000d85565b5b813562000ffa84826020860162000f87565b91505092915050565b5f602082840312156200101b576200101a62000bbb565b5b5f82013567ffffffffffffffff8111156200103b576200103a62000bbf565b5b620010498482850162000fd1565b91505092915050565b5f6200105e8262000cf4565b9050919050565b620010708162001052565b82525050565b5f6020820190506200108b5f83018462001065565b92915050565b5f606082019050620010a65f83018662000c98565b620010b5602083018562000c98565b620010c4604083018462000b86565b949350505050565b5f604082019050620010e15f83018562000c98565b620010f0602083018462000b86565b9392505050565b5f819050919050565b5f620011206200111a6200111484620010f7565b62000cc4565b62000b7d565b9050919050565b620011328162001100565b82525050565b5f6040820190506200114d5f83018562000c98565b6200115c602083018462001127565b9392505050565b5f81519050919050565b5f82825260208201905092915050565b5f819050602082019050919050565b620011978162000b7d565b82525050565b5f620011aa83836200118c565b60208301905092915050565b5f602082019050919050565b5f620011ce8262001163565b620011da81856200116d565b9350620011e7836200117d565b805f5b838110156200121d5781516200120188826200119d565b97506200120e83620011b6565b925050600181019050620011ea565b5085935050505092915050565b5f6040820190506200123f5f83018562000c98565b8181036020830152620012538184620011c2565b90509392505050565b5f82825260208201905092915050565b7f4d696e696d756d2035204e4654730000000000000000000000000000000000005f82015250565b5f620012a2600e836200125c565b9150620012af826200126c565b602082019050919050565b5f6020820190508181035f830152620012d38162001294565b9050919050565b5f80fd5b82818337505050565b5f620012f483856200116d565b93507f07ffffffffffffffffffffffffffffffffffffffffffffffffffffffffffffff8311156200132a5762001329620012da565b5b6020830292506200133d838584620012de565b82840190509392505050565b5f6040820190506200135e5f83018662000c98565b818103602083015262001373818486620012e7565b9050949350505050565b5f819050919050565b5f620013a6620013a06200139a846200137d565b62000cc4565b62000b7d565b9050919050565b620013b88162001386565b82525050565b5f604082019050620013d35f83018562000c98565b620013e26020830184620013ad565b9392505050565b5f8115159050919050565b620013ff81620013e9565b81146200140a575f80fd5b50565b5f815190506200141d81620013f4565b92915050565b5f602082840312156200143b576200143a62000bbb565b5b5f6200144a848285016200140d565b91505092915050565b5f819050919050565b5f6200147c62001476620014708462001453565b62000cc4565b62000b7d565b9050919050565b6200148e816200145c565b82525050565b5f604082019050620014a95f83018562000c98565b620014b8602083018462001483565b9392505050565b5f606082019050620014d45f83018662000c98565b620014e3602083018562000b86565b620014f2604083018462000b86565b949350505050565b5f81519050919050565b5f5b838110156200152357808201518184015260208101905062001506565b5f8484015250505050565b5f6200153a82620014fa565b6200154681856200125c565b93506200155881856020860162001504565b620015638162000eb3565b840191505092915050565b5f60a082019050620015835f83018862000c98565b62001592602083018762000c98565b620015a1604083018662000c98565b8181036060830152620015b581856200152e565b9050620015c6608083018462000c98565b9695505050505050565b7f4e487b71000000000000000000000000000000000000000000000000000000005f52603260045260245ffdfe608060405234801562000010575f80fd5b506040516200111b3803806200111b833981810160405281019062000036919062000338565b845f806101000a81548173ffffffffffffffffffffffffffffffffffffffff021916908373ffffffffffffffffffffffffffffffffffffffff1602179055508360025f6101000a81548173ffffffffffffffffffffffffffffffffffffffff021916908373ffffffffffffffffffffffffffffffffffffffff1602179055508260035f6101000a81548173ffffffffffffffffffffffffffffffffffffffff021916908373ffffffffffffffffffffffffffffffffffffffff160217905550816001908162000106919062000612565b508060045f6101000a81548173ffffffffffffffffffffffffffffffffffffffff021916908373ffffffffffffffffffffffffffffffffffffffff1602179055505050505050620006f6565b5f604051905090565b5f80fd5b5f80fd5b5f73ffffffffffffffffffffffffffffffffffffffff82169050919050565b5f6200018e8262000163565b9050919050565b620001a08162000182565b8114620001ab575f80fd5b50565b5f81519050620001be8162000195565b92915050565b5f80fd5b5f80fd5b5f601f19601f8301169050919050565b7f4e487b71000000000000000000000000000000000000000000000000000000005f52604160045260245ffd5b6200021482620001cc565b810181811067ffffffffffffffff82111715620002365762000235620001dc565b5b80604052505050565b5f6200024a62000152565b905062000258828262000209565b919050565b5f67ffffffffffffffff8211156200027a5762000279620001dc565b5b6200028582620001cc565b9050602081019050919050565b5f5b83811015620002b157808201518184015260208101905062000294565b5f8484015250505050565b5f620002d2620002cc846200025d565b6200023f565b905082815260208101848484011115620002f157620002f0620001c8565b5b620002fe84828562000292565b509392505050565b5f82601f8301126200031d576200031c620001c4565b5b81516200032f848260208601620002bc565b91505092915050565b5f805f805f60a086880312156200035457620003536200015b565b5b5f6200036388828901620001ae565b95505060206200037688828901620001ae565b94505060406200038988828901620001ae565b935050606086015167ffffffffffffffff811115620003ad57620003ac6200015f565b5b620003bb8882890162000306565b9250506080620003ce88828901620001ae565b9150509295509295909350565b5f81519050919050565b7f4e487b71000000000000000000000000000000000000000000000000000000005f52602260045260245ffd5b5f60028204905060018216806200042a57607f821691505b60208210810362000440576200043f620003e5565b5b50919050565b5f819050815f5260205f209050919050565b5f6020601f8301049050919050565b5f82821b905092915050565b5f60088302620004a47fffffffffffffffffffffffffffffffffffffffffffffffffffffffffffffffff8262000467565b620004b0868362000467565b95508019841693508086168417925050509392505050565b5f819050919050565b5f819050919050565b5f620004fa620004f4620004ee84620004c8565b620004d1565b620004c8565b9050919050565b5f819050919050565b6200051583620004da565b6200052d620005248262000501565b84845462000473565b825550505050565b5f90565b6200054362000535565b620005508184846200050a565b505050565b5b8181101562000577576200056b5f8262000539565b60018101905062000556565b5050565b601f821115620005c657620005908162000446565b6200059b8462000458565b81016020851015620005ab578190505b620005c3620005ba8562000458565b83018262000555565b50505b505050565b5f82821c905092915050565b5f620005e85f1984600802620005cb565b1980831691505092915050565b5f620006028383620005d7565b9150826002028217905092915050565b6200061d82620003db565b67ffffffffffffffff811115620006395762000638620001dc565b5b62000645825462000412565b620006528282856200057b565b5f60209050601f83116001811462000688575f841562000673578287015190505b6200067f8582620005f5565b865550620006ee565b601f198416620006988662000446565b5f5b82811015620006c1578489015182556001820191506020850194506020810190506200069a565b86831015620006e15784890151620006dd601f891682620005d7565b8355505b6001600288020188555050505b505050505050565b610a1780620007045f395ff3fe608060405234801561000f575f80fd5b5060043610610091575f3560e01c806348ebdae71161006457806348ebdae71461010b5780634d7a38421461012757806353ccbd2914610143578063e1c345491461015f578063f3466dfa1461017d57610091565b806302d05d3f146100955780631be6dd64146100b35780633ebf05dd146100d157806347ccca02146100ed575b5f80fd5b61009d61019b565b6040516100aa9190610534565b60405180910390f35b6100bb6101be565b6040516100c891906105a8565b60405180910390f35b6100eb60048036038101906100e69190610626565b6101e3565b005b6100f5610272565b6040516101029190610696565b60405180910390f35b61012560048036038101906101209190610710565b610297565b005b610141600480360381019061013c919061076d565b610328565b005b61015d6004803603810190610158919061076d565b6103b6565b005b610167610444565b60405161017491906107cb565b60405180910390f35b610185610469565b604051610192919061086e565b60405180910390f35b5f8054906101000a900473ffffffffffffffffffffffffffffffffffffffff1681565b60045f9054906101000a900473ffffffffffffffffffffffffffffffffffffffff1681565b60045f9054906101000a900473ffffffffffffffffffffffffffffffffffffffff1673ffffffffffffffffffffffffffffffffffffffff1663507cd30f8460026040518363ffffffff1660e01b81526004016102409291906108c7565b5f604051808303815f87803b158015610257575f80fd5b505af1158015610269573d5f803e3d5ffd5b50505050505050565b60025f9054906101000a900473ffffffffffffffffffffffffffffffffffffffff1681565b60045f9054906101000a900473ffffffffffffffffffffffffffffffffffffffff1673ffffffffffffffffffffffffffffffffffffffff1663507cd30f84848490506040518363ffffffff1660e01b81526004016102f69291906108fd565b5f604051808303815f87803b15801561030d575f80fd5b505af115801561031f573d5f803e3d5ffd5b50505050505050565b60045f9054906101000a900473ffffffffffffffffffffffffffffffffffffffff1673ffffffffffffffffffffffffffffffffffffffff1663507cd30f8360026040518363ffffffff1660e01b81526004016103859291906108c7565b5f604051808303815f87803b15801561039c575f80fd5b505af11580156103ae573d5f803e3d5ffd5b505050505050565b60045f9054906101000a900473ffffffffffffffffffffffffffffffffffffffff1673ffffffffffffffffffffffffffffffffffffffff1663507cd30f8360016040518363ffffffff1660e01b815260040161041392919061095d565b5f604051808303815f87803b15801561042a575f80fd5b505af115801561043c573d5f803e3d5ffd5b505050505050565b60035f9054906101000a900473ffffffffffffffffffffffffffffffffffffffff1681565b60018054610476906109b1565b80601f01602080910402602001604051908101604052809291908181526020018280546104a2906109b1565b80156104ed5780601f106104c4576101008083540402835291602001916104ed565b820191905f5260205f20905b8154815290600101906020018083116104d057829003601f168201915b505050505081565b5f73ffffffffffffffffffffffffffffffffffffffff82169050919050565b5f61051e826104f5565b9050919050565b61052e81610514565b82525050565b5f6020820190506105475f830184610525565b92915050565b5f819050919050565b5f61057061056b610566846104f5565b61054d565b6104f5565b9050919050565b5f61058182610556565b9050919050565b5f61059282610577565b9050919050565b6105a281610588565b82525050565b5f6020820190506105bb5f830184610599565b92915050565b5f80fd5b5f80fd5b6105d281610514565b81146105dc575f80fd5b50565b5f813590506105ed816105c9565b92915050565b5f819050919050565b610605816105f3565b811461060f575f80fd5b50565b5f81359050610620816105fc565b92915050565b5f805f6060848603121561063d5761063c6105c1565b5b5f61064a868287016105df565b935050602061065b86828701610612565b925050604061066c86828701610612565b9150509250925092565b5f61068082610577565b9050919050565b61069081610676565b82525050565b5f6020820190506106a95f830184610687565b92915050565b5f80fd5b5f80fd5b5f80fd5b5f8083601f8401126106d0576106cf6106af565b5b8235905067ffffffffffffffff8111156106ed576106ec6106b3565b5b602083019150836020820283011115610709576107086106b7565b5b9250929050565b5f805f60408486031215610727576107266105c1565b5b5f610734868287016105df565b935050602084013567ffffffffffffffff811115610755576107546105c5565b5b610761868287016106bb565b92509250509250925092565b5f8060408385031215610783576107826105c1565b5b5f610790858286016105df565b92505060206107a185828601610612565b9150509250929050565b5f6107b582610577565b9050919050565b6107c5816107ab565b82525050565b5f6020820190506107de5f8301846107bc565b92915050565b5f81519050919050565b5f82825260208201905092915050565b5f5b8381101561081b578082015181840152602081019050610800565b5f8484015250505050565b5f601f19601f8301169050919050565b5f610840826107e4565b61084a81856107ee565b935061085a8185602086016107fe565b61086381610826565b840191505092915050565b5f6020820190508181035f8301526108868184610836565b905092915050565b5f819050919050565b5f6108b16108ac6108a78461088e565b61054d565b6105f3565b9050919050565b6108c181610897565b82525050565b5f6040820190506108da5f830185610525565b6108e760208301846108b8565b9392505050565b6108f7816105f3565b82525050565b5f6040820190506109105f830185610525565b61091d60208301846108ee565b9392505050565b5f819050919050565b5f61094761094261093d84610924565b61054d565b6105f3565b9050919050565b6109578161092d565b82525050565b5f6040820190506109705f830185610525565b61097d602083018461094e565b9392505050565b7f4e487b71000000000000000000000000000000000000000000000000000000005f52602260045260245ffd5b5f60028204905060018216806109c857607f821691505b6020821081036109db576109da610984565b5b5091905056fea2646970667358221220092bd7d1e8d6f72b03e10556a43ef3f351d3493aee5d87367bc68208204c061d64736f6c63430008140033a2646970667358221220983ad35c5f23e15a77bd2c95afa42c4bb7553f0aa47f1436bd7d1b2eb17b253864736f6c63430008140033",
  "immutableReferences": {},
  "source": "// SPDX-License-Identifier: MIT\npragma solidity ^0.8.20;\n\nimport \"./EchoXInterfaces.sol\";\nimport \"./EchoXPool.sol\";\nimport \"./EchoXPoints.sol\";\n\ncontract EchoXCore {\n    address public owner;\n    IEchoXNFT public nft;\n    IEchoXToken public ex;\n    EchoXPoints public points;\n\n    uint256 public nftPriceInEx = 0.5 ether;\n\n    mapping(address => address[]) public userPools;\n\n    event PoolCreated(address indexed pool, address indexed creator);\n    event NFTSwapped(address user, uint256[] tokenIds);\n    event EXStaked(address user, uint256 amount);\n    event PointsEarned(address indexed user, uint256 points);\n\n    constructor(address _nft, address _ex, address _points) {\n        owner = msg.sender;\n        nft = IEchoXNFT(_nft);\n        ex = IEchoXToken(_ex);\n        points = EchoXPoints(_points);\n    }\n\n    function createPool(string memory name) external {\n        EchoXPool pool = new EchoXPool(msg.sender, address(nft), address(ex), name, address(points));\n        userPools[msg.sender].push(address(pool));\n        emit PoolCreated(address(pool), msg.sender);\n    }\n\n    function swapNFTForEX(address poolAddr, uint256 tokenId) external {\n        EchoXPool pool = EchoXPool(poolAddr);\n        nft.safeTransferFrom(msg.sender, poolAddr, tokenId);\n        pool.swapForEX(msg.sender, tokenId);\n        points.addPoints(msg.sender, 5);\n        emit NFTSwapped(msg.sender, _asSingletonArray(tokenId));\n    }\n\n    function swapNFTForNFT(address poolAddr, uint256 fromTokenId, uint256 toTokenId) external {\n        EchoXPool(poolAddr).swapNFTtoNFT(msg.sender, fromTokenId, toTokenId);\n        points.addPoints(msg.sender, 5);\n    }\n\n    function batchSwap(address poolAddr, uint256[] calldata tokenIds) external {\n        require(tokenIds.length >= 5, \"Minimum 5 NFTs\");\n        EchoXPool(poolAddr).batchSwap(msg.sender, tokenIds);\n        points.addPoints(msg.sender, 6);\n        emit NFTSwapped(msg.sender, tokenIds);\n    }\n\n    function provideLiquidity(address poolAddr, uint256 amount) external {\n        ex.transferFrom(msg.sender, poolAddr, amount);\n        EchoXPool(poolAddr).stakeEX(msg.sender, amount);\n        points.addPoints(msg.sender, 3);\n        emit EXStaked(msg.sender, amount);\n    }\n\nfunction _asSingletonArray(uint256 element) internal pure returns (uint256[] memory arr) {\n    arr = new uint256[](1); // Specify the size as 1\n    arr[0] = element;\n}\n\n}\n",
  "sourcePath": "/workspaces/echoX-nft/echoX-nft/contracts/EchoXCore.sol",
  "compiler": {
    "name": "solc",
    "version": "0.8.20+commit.a1b79de6.Emscripten.clang"
  },
  "schemaVersion": "3.4.16",
  "updatedAt": "2025-05-01T08:51:03.606Z",
  "networkType": "ethereum",
  "devdoc": {
    "kind": "dev",
    "methods": {},
    "version": 1
  },
  "userdoc": {
    "kind": "user",
    "methods": {},
    "version": 1
  }
}