{
  "contractName": "EchoXNFT",
  "abi": [
    {
      "inputs": [],
      "stateMutability": "nonpayable",
      "type": "constructor"
    },
    {
      "anonymous": false,
      "inputs": [
        {
          "indexed": true,
          "internalType": "address",
          "name": "owner",
          "type": "address"
        },
        {
          "indexed": true,
          "internalType": "address",
          "name": "approved",
          "type": "address"
        },
        {
          "indexed": true,
          "internalType": "uint256",
          "name": "tokenId",
          "type": "uint256"
        }
      ],
      "name": "Approval",
      "type": "event"
    },
    {
      "anonymous": false,
      "inputs": [
        {
          "indexed": true,
          "internalType": "address",
          "name": "owner",
          "type": "address"
        },
        {
          "indexed": true,
          "internalType": "address",
          "name": "operator",
          "type": "address"
        },
        {
          "indexed": false,
          "internalType": "bool",
          "name": "approved",
          "type": "bool"
        }
      ],
      "name": "ApprovalForAll",
      "type": "event"
    },
    {
      "anonymous": false,
      "inputs": [
        {
          "indexed": true,
          "internalType": "address",
          "name": "previousOwner",
          "type": "address"
        },
        {
          "indexed": true,
          "internalType": "address",
          "name": "newOwner",
          "type": "address"
        }
      ],
      "name": "OwnershipTransferred",
      "type": "event"
    },
    {
      "anonymous": false,
      "inputs": [
        {
          "indexed": false,
          "internalType": "address",
          "name": "to",
          "type": "address"
        },
        {
          "indexed": false,
          "internalType": "uint256",
          "name": "tokenId",
          "type": "uint256"
        }
      ],
      "name": "TokenMinted",
      "type": "event"
    },
    {
      "anonymous": false,
      "inputs": [
        {
          "indexed": true,
          "internalType": "address",
          "name": "from",
          "type": "address"
        },
        {
          "indexed": true,
          "internalType": "address",
          "name": "to",
          "type": "address"
        },
        {
          "indexed": true,
          "internalType": "uint256",
          "name": "tokenId",
          "type": "uint256"
        }
      ],
      "name": "Transfer",
      "type": "event"
    },
    {
      "inputs": [
        {
          "internalType": "address",
          "name": "to",
          "type": "address"
        },
        {
          "internalType": "uint256",
          "name": "tokenId",
          "type": "uint256"
        }
      ],
      "name": "approve",
      "outputs": [],
      "stateMutability": "nonpayable",
      "type": "function"
    },
    {
      "inputs": [
        {
          "internalType": "address",
          "name": "owner",
          "type": "address"
        }
      ],
      "name": "balanceOf",
      "outputs": [
        {
          "internalType": "uint256",
          "name": "",
          "type": "uint256"
        }
      ],
      "stateMutability": "view",
      "type": "function"
    },
    {
      "inputs": [],
      "name": "baseURI",
      "outputs": [
        {
          "internalType": "string",
          "name": "",
          "type": "string"
        }
      ],
      "stateMutability": "view",
      "type": "function"
    },
    {
      "inputs": [
        {
          "internalType": "uint256",
          "name": "tokenId",
          "type": "uint256"
        }
      ],
      "name": "getApproved",
      "outputs": [
        {
          "internalType": "address",
          "name": "",
          "type": "address"
        }
      ],
      "stateMutability": "view",
      "type": "function"
    },
    {
      "inputs": [
        {
          "internalType": "address",
          "name": "owner",
          "type": "address"
        },
        {
          "internalType": "address",
          "name": "operator",
          "type": "address"
        }
      ],
      "name": "isApprovedForAll",
      "outputs": [
        {
          "internalType": "bool",
          "name": "",
          "type": "bool"
        }
      ],
      "stateMutability": "view",
      "type": "function"
    },
    {
      "inputs": [],
      "name": "isMintEnabled",
      "outputs": [
        {
          "internalType": "bool",
          "name": "",
          "type": "bool"
        }
      ],
      "stateMutability": "view",
      "type": "function"
    },
    {
      "inputs": [],
      "name": "maxSupply",
      "outputs": [
        {
          "internalType": "uint256",
          "name": "",
          "type": "uint256"
        }
      ],
      "stateMutability": "view",
      "type": "function"
    },
    {
      "inputs": [],
      "name": "name",
      "outputs": [
        {
          "internalType": "string",
          "name": "",
          "type": "string"
        }
      ],
      "stateMutability": "view",
      "type": "function"
    },
    {
      "inputs": [],
      "name": "owner",
      "outputs": [
        {
          "internalType": "address",
          "name": "",
          "type": "address"
        }
      ],
      "stateMutability": "view",
      "type": "function"
    },
    {
      "inputs": [
        {
          "internalType": "uint256",
          "name": "tokenId",
          "type": "uint256"
        }
      ],
      "name": "ownerOf",
      "outputs": [
        {
          "internalType": "address",
          "name": "",
          "type": "address"
        }
      ],
      "stateMutability": "view",
      "type": "function"
    },
    {
      "inputs": [],
      "name": "renounceOwnership",
      "outputs": [],
      "stateMutability": "nonpayable",
      "type": "function"
    },
    {
      "inputs": [
        {
          "internalType": "address",
          "name": "from",
          "type": "address"
        },
        {
          "internalType": "address",
          "name": "to",
          "type": "address"
        },
        {
          "internalType": "uint256",
          "name": "tokenId",
          "type": "uint256"
        }
      ],
      "name": "safeTransferFrom",
      "outputs": [],
      "stateMutability": "nonpayable",
      "type": "function"
    },
    {
      "inputs": [
        {
          "internalType": "address",
          "name": "from",
          "type": "address"
        },
        {
          "internalType": "address",
          "name": "to",
          "type": "address"
        },
        {
          "internalType": "uint256",
          "name": "tokenId",
          "type": "uint256"
        },
        {
          "internalType": "bytes",
          "name": "data",
          "type": "bytes"
        }
      ],
      "name": "safeTransferFrom",
      "outputs": [],
      "stateMutability": "nonpayable",
      "type": "function"
    },
    {
      "inputs": [
        {
          "internalType": "address",
          "name": "operator",
          "type": "address"
        },
        {
          "internalType": "bool",
          "name": "approved",
          "type": "bool"
        }
      ],
      "name": "setApprovalForAll",
      "outputs": [],
      "stateMutability": "nonpayable",
      "type": "function"
    },
    {
      "inputs": [
        {
          "internalType": "bytes4",
          "name": "interfaceId",
          "type": "bytes4"
        }
      ],
      "name": "supportsInterface",
      "outputs": [
        {
          "internalType": "bool",
          "name": "",
          "type": "bool"
        }
      ],
      "stateMutability": "view",
      "type": "function"
    },
    {
      "inputs": [],
      "name": "symbol",
      "outputs": [
        {
          "internalType": "string",
          "name": "",
          "type": "string"
        }
      ],
      "stateMutability": "view",
      "type": "function"
    },
    {
      "inputs": [
        {
          "internalType": "address",
          "name": "from",
          "type": "address"
        },
        {
          "internalType": "address",
          "name": "to",
          "type": "address"
        },
        {
          "internalType": "uint256",
          "name": "tokenId",
          "type": "uint256"
        }
      ],
      "name": "transferFrom",
      "outputs": [],
      "stateMutability": "nonpayable",
      "type": "function"
    },
    {
      "inputs": [
        {
          "internalType": "address",
          "name": "newOwner",
          "type": "address"
        }
      ],
      "name": "transferOwnership",
      "outputs": [],
      "stateMutability": "nonpayable",
      "type": "function"
    },
    {
      "inputs": [
        {
          "internalType": "string",
          "name": "_baseURI",
          "type": "string"
        }
      ],
      "name": "setBaseURI",
      "outputs": [],
      "stateMutability": "nonpayable",
      "type": "function"
    },
    {
      "inputs": [
        {
          "internalType": "bool",
          "name": "_isMintEnabled",
          "type": "bool"
        }
      ],
      "name": "setIsMintEnabled",
      "outputs": [],
      "stateMutability": "nonpayable",
      "type": "function"
    },
    {
      "inputs": [
        {
          "internalType": "address",
          "name": "to",
          "type": "address"
        }
      ],
      "name": "mintThreeNFTs",
      "outputs": [],
      "stateMutability": "nonpayable",
      "type": "function"
    },
    {
      "inputs": [
        {
          "internalType": "uint256",
          "name": "tokenId",
          "type": "uint256"
        }
      ],
      "name": "tokenURI",
      "outputs": [
        {
          "internalType": "string",
          "name": "",
          "type": "string"
        }
      ],
      "stateMutability": "view",
      "type": "function"
    },
    {
      "inputs": [],
      "name": "totalSupply",
      "outputs": [
        {
          "internalType": "uint256",
          "name": "",
          "type": "uint256"
        }
      ],
      "stateMutability": "view",
      "type": "function"
    }
  ],
  "bytecode": "0x60803462000393576040906001600160401b03818301818111838210176200037f57835260098252602090681158d85a1bd613919560ba1b82840152835192848401848110838211176200037f57855260059081855264115613919560da1b848601528051928084116200037f575f93806200007c865462000397565b93601f9485811162000346575b508790858311600114620002df578792620002d3575b50508160011b915f199060031b1c19161784555b8551908111620002bf57600195620000cc875462000397565b83811162000286575b5085908383116001146200021257918086949261766960f01b9896946002989262000206575b50505f19600383901b1c191690881b1787555b60068054336001600160a01b0319821681179092556001600160a01b03167f8be0079c531659141344cd1fd0a4f28419497f9722a3daafe3b4186f6b6457e08580a36200015d60085462000397565b90808211620001e0575b505050608560085560088152207f697066733a2f2f6261666b7265696361656f727634323666706e68366e33753681557f683332796a75326f37646465697278766e6a6b733661647a36627969716435758482015501556402540be40060095560ff19600a541617600a55516121b99081620003eb8239f35b620001fd92600391600886528686209301901c82019101620003d2565b5f808062000167565b015190505f80620000fb565b8786528686208893929091601f198416885b8181106200026e57509161766960f01b99979593918560029a9896941062000255575b505050811b0187556200010e565b01515f1960f88460031b161c191690555f808062000247565b8284015185558b9690940193928a01928a0162000224565b620002ae9088875287872085808601881c8201928a8710620002b5575b01871c0190620003d2565b5f620000d5565b92508192620002a3565b634e487b7160e01b84526041600452602484fd5b015190505f806200009f565b8780528888209250601f198416885b8a8282106200032f57505090846001959493921062000316575b505050811b018455620000b3565b01515f1960f88460031b161c191690555f808062000308565b6001859682939686015181550195019301620002ee565b6200036e90888052898920878086018a1c8201928c871062000375575b01891c0190620003d2565b5f62000089565b9250819262000363565b634e487b7160e01b5f52604160045260245ffd5b5f80fd5b90600182811c92168015620003c7575b6020831014620003b357565b634e487b7160e01b5f52602260045260245ffd5b91607f1691620003a7565b818110620003de575050565b5f8155600101620003d256fe60806040818152600480361015610014575f80fd5b5f92833560e01c90816301ffc9a7146114a35750806306fdde03146113dd578063081812fc1461138a578063095ea7b31461118c57806318160ddd1461114f57806323b872dd1461112a578063346de50a146110e857806342842e0e146110b45780634de8bcfb1461104057806355f804b314610e0f5780636352211e14610db45780636862c0d414610c585780636c0360eb14610b9057806370a0823114610aa1578063715018a614610a035780638da5cb5b146109b057806395d89b4114610891578063a22cb4651461075f578063b88d4fde146106b3578063c87b56dd14610312578063d5abeb01146102d5578063e985e9c5146102585763f2fde38b1461011d575f80fd5b346102545760207ffffffffffffffffffffffffffffffffffffffffffffffffffffffffffffffffc360112610254576101546115f5565b9061015d6117ea565b73ffffffffffffffffffffffffffffffffffffffff8092169283156101d1575050600654827fffffffffffffffffffffffff0000000000000000000000000000000000000000821617600655167f8be0079c531659141344cd1fd0a4f28419497f9722a3daafe3b4186f6b6457e08380a380f35b90602060849251917f08c379a0000000000000000000000000000000000000000000000000000000008352820152602660248201527f4f776e61626c653a206e6577206f776e657220697320746865207a65726f206160448201527f64647265737300000000000000000000000000000000000000000000000000006064820152fd5b8280fd5b5050346102d157807ffffffffffffffffffffffffffffffffffffffffffffffffffffffffffffffffc3601126102d15760ff816020936102966115f5565b61029e61161c565b73ffffffffffffffffffffffffffffffffffffffff91821683526005875283832091168252855220549151911615158152f35b5080fd5b5050346102d157817ffffffffffffffffffffffffffffffffffffffffffffffffffffffffffffffffc3601126102d1576020906009549051908152f35b509190346102d157602091827ffffffffffffffffffffffffffffffffffffffffffffffffffffffffffffffffc3601126106b0578335610373815f52600260205273ffffffffffffffffffffffffffffffffffffffff60405f205416151590565b1561062e578091819581927a184f03e93ff9f4daa797ed6e38ed64bf6a1f0100000000000000009081811015610621575b50506d04ee2d6d415b85acef810000000080881015610613575b50662386f26fc1000080881015610604575b506305f5e100808810156105f5575b50612710808810156105e6575b505060648610156105d6575b600a809610156105cc575b6001918281019661042b61041689611729565b9861042388519a8b6116e8565b808a52611729565b94846021898b01947fffffffffffffffffffffffffffffffffffffffffffffffffffffffffffffffe08099013687378b0101905b610572575b5050508451968793836008549161047a83611799565b928a82821691825f1461052d5750506001146104cd575b50505091806104ad6104ba95936104c998979551938491611591565b01039081018652856116e8565b519282849384528301906115b2565b0390f35b8993949550600882527ff3f7a9fe364faab93b216da50a3214154f22a0a2b415b23a84c8169e8b636ee35b838310610513575050508401019190806104ad6104c9610491565b80549783018501979097528a968a949092019181016104f8565b7fffffffffffffffffffffffffffffffffffffffffffffffffffffffffffffff001689820152841515909402880190930195508392506104ad91506104c99050610491565b7fffffffffffffffffffffffffffffffffffffffffffffffffffffffffffffffff839101917f30313233343536373839616263646566000000000000000000000000000000008282061a83530490858261045f5750610464565b9060010190610403565b90946064600291049501906103f8565b90919296049501905f806103ec565b6008919397049601915f6103df565b6010919397049601915f6103d0565b86919397049601915f6103be565b0496508492505f806103a4565b608485858551917f08c379a0000000000000000000000000000000000000000000000000000000008352820152602560248201527f546f6b656e2055524920717565727920666f72206e6f6e6578697374656e742060448201527f746f6b656e0000000000000000000000000000000000000000000000000000006064820152fd5b80fd5b8382346102d15760807ffffffffffffffffffffffffffffffffffffffffffffffffffffffffffffffffc3601126102d1576106ec6115f5565b906106f561161c565b916044356064359367ffffffffffffffff851161075b573660238601121561075b576107306107539486602461075898369301359101611763565b9261074361073e8433611a6d565b611956565b61074e838383611b6f565b611ecc565b6119e1565b80f35b8580fd5b50903461025457807ffffffffffffffffffffffffffffffffffffffffffffffffffffffffffffffffc360112610254576107976115f5565b906024359182151580930361088d5773ffffffffffffffffffffffffffffffffffffffff1692833314610831575033845260056020528084208385526020528084207fffffffffffffffffffffffffffffffffffffffffffffffffffffffffffffff0081541660ff8416179055519081527f17307eab39ab6107e8899845ad3d59bd9653f200f220920489ca2b5937696c3160203392a380f35b602060649251917f08c379a0000000000000000000000000000000000000000000000000000000008352820152601960248201527f4552433732313a20617070726f766520746f2063616c6c6572000000000000006044820152fd5b8480fd5b5050346102d157817ffffffffffffffffffffffffffffffffffffffffffffffffffffffffffffffffc3601126102d1578051908260018054916108d383611799565b8086529282811690811561096a575060011461090e575b5050506108fc826104c99403836116e8565b519182916020835260208301906115b2565b94508085527fb10e2d527612073b26eecdfd717e6a320cf44b4afac2b0732d9fcbe2b7fa0cf65b828610610952575050506108fc8260206104c995820101946108ea565b80546020878701810191909152909501948101610935565b6104c99750869350602092506108fc9491507fffffffffffffffffffffffffffffffffffffffffffffffffffffffffffffff001682840152151560051b820101946108ea565b5050346102d157817ffffffffffffffffffffffffffffffffffffffffffffffffffffffffffffffffc3601126102d15760209073ffffffffffffffffffffffffffffffffffffffff600654169051908152f35b83346106b057807ffffffffffffffffffffffffffffffffffffffffffffffffffffffffffffffffc3601126106b057610a3a6117ea565b8073ffffffffffffffffffffffffffffffffffffffff6006547fffffffffffffffffffffffff00000000000000000000000000000000000000008116600655167f8be0079c531659141344cd1fd0a4f28419497f9722a3daafe3b4186f6b6457e08280a380f35b508290346102d15760207ffffffffffffffffffffffffffffffffffffffffffffffffffffffffffffffffc3601126102d15773ffffffffffffffffffffffffffffffffffffffff610af06115f5565b16908115610b0d5760208480858581526003845220549051908152f35b60849060208551917f08c379a0000000000000000000000000000000000000000000000000000000008352820152602960248201527f4552433732313a2061646472657373207a65726f206973206e6f74206120766160448201527f6c6964206f776e657200000000000000000000000000000000000000000000006064820152fd5b5050346102d157817ffffffffffffffffffffffffffffffffffffffffffffffffffffffffffffffffc3601126102d15780519082600854610bd081611799565b8085529160019180831690811561096a5750600114610bfb575050506108fc826104c99403836116e8565b9450600885527ff3f7a9fe364faab93b216da50a3214154f22a0a2b415b23a84c8169e8b636ee35b828610610c40575050506108fc8260206104c995820101946108ea565b80546020878701810191909152909501948101610c23565b50346102545760207ffffffffffffffffffffffffffffffffffffffffffffffffffffffffffffffffc36011261025457610c906115f5565b9160ff600a541615610d575760075460038101809111610d2b5760095410610cce578361075884610cc081611f78565b610cc981611f78565b611f78565b90602060649251917f08c379a0000000000000000000000000000000000000000000000000000000008352820152601360248201527f4d617820737570706c79206578636565646564000000000000000000000000006044820152fd5b6024856011857f4e487b7100000000000000000000000000000000000000000000000000000000835252fd5b90602060649251917f08c379a0000000000000000000000000000000000000000000000000000000008352820152601660248201527f4d696e74696e67206973206e6f7420656e61626c6564000000000000000000006044820152fd5b5091346106b05760207ffffffffffffffffffffffffffffffffffffffffffffffffffffffffffffffffc3601126106b0575073ffffffffffffffffffffffffffffffffffffffff610e07602093356118ce565b915191168152f35b5082346106b0576020807ffffffffffffffffffffffffffffffffffffffffffffffffffffffffffffffffc3601126102d15767ffffffffffffffff90833582811161103c573660238201121561103c57610e729036906024818801359101611763565b93610e7b6117ea565b84519283116110105750610e90600854611799565b601f8111610fae575b5080601f8311600114610ef157508293829392610ee6575b50507fffffffffffffffffffffffffffffffffffffffffffffffffffffffffffffffff8260011b9260031b1c19161760085580f35b015190508380610eb1565b907fffffffffffffffffffffffffffffffffffffffffffffffffffffffffffffffe0831694600885527ff3f7a9fe364faab93b216da50a3214154f22a0a2b415b23a84c8169e8b636ee39285905b878210610f96575050836001959610610f5f575b505050811b0160085580f35b01517fffffffffffffffffffffffffffffffffffffffffffffffffffffffffffffffff60f88460031b161c19169055838080610f53565b80600185968294968601518155019501930190610f3f565b600884527ff3f7a9fe364faab93b216da50a3214154f22a0a2b415b23a84c8169e8b636ee3601f840160051c810191838510611006575b601f0160051c01905b818110610ffb5750610e99565b848155600101610fee565b9091508190610fe5565b8360416024927f4e487b7100000000000000000000000000000000000000000000000000000000835252fd5b8380fd5b8382346102d15760207ffffffffffffffffffffffffffffffffffffffffffffffffffffffffffffffffc3601126102d157358015158091036102d1576110846117ea565b60ff7fffffffffffffffffffffffffffffffffffffffffffffffffffffffffffffff00600a5416911617600a5580f35b5050346102d157610753610758916110cb3661163f565b919251926110d88461169f565b86845261074361073e8433611a6d565b5050346102d157817ffffffffffffffffffffffffffffffffffffffffffffffffffffffffffffffffc3601126102d15760209060ff600a541690519015158152f35b83346106b05761075861113c3661163f565b9161114a61073e8433611a6d565b611b6f565b5050346102d157817ffffffffffffffffffffffffffffffffffffffffffffffffffffffffffffffffc3601126102d1576020906007549051908152f35b503461025457817ffffffffffffffffffffffffffffffffffffffffffffffffffffffffffffffffc360112610254576111c36115f5565b906024359273ffffffffffffffffffffffffffffffffffffffff9182806111e9876118ce565b16941693808514611307578033149081156112e8575b5015611266578486526020528420827fffffffffffffffffffffffff000000000000000000000000000000000000000082541617905561123e836118ce565b167f8c5be1e5ebec7d5bd14f71427d1e84f3dd0314c0f7b2291e5b200ac8c7c3b9258480a480f35b602060849251917f08c379a0000000000000000000000000000000000000000000000000000000008352820152603d60248201527f4552433732313a20617070726f76652063616c6c6572206973206e6f7420746f60448201527f6b656e206f776e6572206f7220617070726f76656420666f7220616c6c0000006064820152fd5b90508652600560205281862033875260205260ff82872054165f6111ff565b50602060849251917f08c379a0000000000000000000000000000000000000000000000000000000008352820152602160248201527f4552433732313a20617070726f76616c20746f2063757272656e74206f776e6560448201527f72000000000000000000000000000000000000000000000000000000000000006064820152fd5b5091346106b05760207ffffffffffffffffffffffffffffffffffffffffffffffffffffffffffffffffc3601126106b0575073ffffffffffffffffffffffffffffffffffffffff610e07602093356118fe565b5050346102d157817ffffffffffffffffffffffffffffffffffffffffffffffffffffffffffffffffc3601126102d15780519082805461141c81611799565b8085529160019180831690811561096a5750600114611447575050506108fc826104c99403836116e8565b80809650527f290decd9548b62a8d60345a988386fc84ba6bc95484008f6362f93160ef3e5635b82861061148b575050506108fc8260206104c995820101946108ea565b8054602087870181019190915290950194810161146e565b925050346102545760207ffffffffffffffffffffffffffffffffffffffffffffffffffffffffffffffffc36011261025457357fffffffff00000000000000000000000000000000000000000000000000000000811680910361025457602092507f80ac58cd000000000000000000000000000000000000000000000000000000008114908115611567575b811561153d575b5015158152f35b7f01ffc9a7000000000000000000000000000000000000000000000000000000009150145f611536565b7f5b5e139f000000000000000000000000000000000000000000000000000000008114915061152f565b5f5b8381106115a25750505f910152565b8181015183820152602001611593565b907fffffffffffffffffffffffffffffffffffffffffffffffffffffffffffffffe0601f6020936115ee81518092818752878088019101611591565b0116010190565b6004359073ffffffffffffffffffffffffffffffffffffffff8216820361161857565b5f80fd5b6024359073ffffffffffffffffffffffffffffffffffffffff8216820361161857565b7ffffffffffffffffffffffffffffffffffffffffffffffffffffffffffffffffc60609101126116185773ffffffffffffffffffffffffffffffffffffffff90600435828116810361161857916024359081168103611618579060443590565b6020810190811067ffffffffffffffff8211176116bb57604052565b7f4e487b71000000000000000000000000000000000000000000000000000000005f52604160045260245ffd5b90601f7fffffffffffffffffffffffffffffffffffffffffffffffffffffffffffffffe0910116810190811067ffffffffffffffff8211176116bb57604052565b67ffffffffffffffff81116116bb57601f017fffffffffffffffffffffffffffffffffffffffffffffffffffffffffffffffe01660200190565b92919261176f82611729565b9161177d60405193846116e8565b829481845281830111611618578281602093845f960137010152565b90600182811c921680156117e0575b60208310146117b357565b7f4e487b71000000000000000000000000000000000000000000000000000000005f52602260045260245ffd5b91607f16916117a8565b73ffffffffffffffffffffffffffffffffffffffff60065416330361180b57565b60646040517f08c379a000000000000000000000000000000000000000000000000000000000815260206004820152602060248201527f4f776e61626c653a2063616c6c6572206973206e6f7420746865206f776e65726044820152fd5b1561187057565b60646040517f08c379a000000000000000000000000000000000000000000000000000000000815260206004820152601860248201527f4552433732313a20696e76616c696420746f6b656e20494400000000000000006044820152fd5b5f52600260205273ffffffffffffffffffffffffffffffffffffffff60405f2054166118fb811515611869565b90565b61193161192c825f52600260205273ffffffffffffffffffffffffffffffffffffffff60405f205416151590565b611869565b5f52600460205273ffffffffffffffffffffffffffffffffffffffff60405f20541690565b1561195d57565b60846040517f08c379a000000000000000000000000000000000000000000000000000000000815260206004820152602d60248201527f4552433732313a2063616c6c6572206973206e6f7420746f6b656e206f776e6560448201527f72206f7220617070726f766564000000000000000000000000000000000000006064820152fd5b156119e857565b6040517f08c379a000000000000000000000000000000000000000000000000000000000815260206004820152603260248201527f4552433732313a207472616e7366657220746f206e6f6e20455243373231526560448201527f63656976657220696d706c656d656e74657200000000000000000000000000006064820152608490fd5b9073ffffffffffffffffffffffffffffffffffffffff8080611a8e846118ce565b16931691838314938415611ac1575b508315611aab575b50505090565b611ab7919293506118fe565b16145f8080611aa5565b9093505f52600560205260405f20825f5260205260ff60405f205416925f611a9d565b15611aeb57565b60846040517f08c379a000000000000000000000000000000000000000000000000000000000815260206004820152602560248201527f4552433732313a207472616e736665722066726f6d20696e636f72726563742060448201527f6f776e65720000000000000000000000000000000000000000000000000000006064820152fd5b90611ba491611b7d846118ce565b9173ffffffffffffffffffffffffffffffffffffffff938493848094169485911614611ae4565b16918215611c6f5781611bc191611bba866118ce565b1614611ae4565b7fddf252ad1be2c89b69c2b068fc378daa952ba7f163c4a11628f55a4df523b3ef5f8481526004602052604081207fffffffffffffffffffffffff0000000000000000000000000000000000000000908181541690558382526003602052604082207fffffffffffffffffffffffffffffffffffffffffffffffffffffffffffffffff81540190558482526040822060018154019055858252600260205284604083209182541617905580a4565b60846040517f08c379a0000000000000000000000000000000000000000000000000000000008152602060048201526024808201527f4552433732313a207472616e7366657220746f20746865207a65726f2061646460448201527f72657373000000000000000000000000000000000000000000000000000000006064820152fd5b91929091803b15611ec357611d6c9360405190817f150b7a0200000000000000000000000000000000000000000000000000000000938482523360048301525f96876024840152604483015260806064830152818773ffffffffffffffffffffffffffffffffffffffff8260209b8c9760848301906115b2565b0393165af1849181611e6b575b50611e42575050503d5f14611e3a573d611d9281611729565b90611da060405192836116e8565b81528091833d92013e5b80519182611e37576040517f08c379a000000000000000000000000000000000000000000000000000000000815260206004820152603260248201527f4552433732313a207472616e7366657220746f206e6f6e20455243373231526560448201527f63656976657220696d706c656d656e74657200000000000000000000000000006064820152608490fd5b01fd5b506060611daa565b7fffffffff00000000000000000000000000000000000000000000000000000000161492509050565b9091508581813d8311611ebc575b611e8381836116e8565b8101031261088d57517fffffffff000000000000000000000000000000000000000000000000000000008116810361088d57905f611d79565b503d611e79565b50915050600190565b92939190803b15611f6e57611f459460405180927f150b7a02000000000000000000000000000000000000000000000000000000009485835233600484015273ffffffffffffffffffffffffffffffffffffffff809816602484015260448301526080606483015281806020998a9560848301906115b2565b03915f988991165af1849181611e6b5750611e42575050503d5f14611e3a573d611d9281611729565b5050915050600190565b906001600754019182600755604090815193611f938561169f565b5f9182865273ffffffffffffffffffffffffffffffffffffffff81169283156120c1577fb9144c96c86541f6fa89c9f2f02495cccf4b08cd6643e26d34ee00aa586558a89596836120b493818761075395612018612012845f52600260205273ffffffffffffffffffffffffffffffffffffffff60405f205416151590565b1561211e565b612046612012845f52600260205273ffffffffffffffffffffffffffffffffffffffff60405f205416151590565b81815260036020528a81206001815401905582815260026020528a8120827fffffffffffffffffffffffff00000000000000000000000000000000000000008254161790557fddf252ad1be2c89b69c2b068fc378daa952ba7f163c4a11628f55a4df523b3ef8180a4611cf2565b82519182526020820152a1565b606485517f08c379a000000000000000000000000000000000000000000000000000000000815260206004820152602060248201527f4552433732313a206d696e7420746f20746865207a65726f20616464726573736044820152fd5b1561212557565b60646040517f08c379a000000000000000000000000000000000000000000000000000000000815260206004820152601c60248201527f4552433732313a20746f6b656e20616c7265616479206d696e746564000000006044820152fdfea26469706673582212203a9c87c02138701a2545f6212a0b469a016493e5253de673e078c29010fcf1fa64736f6c63430008140033",
  "immutableReferences": {},
  "source": "// SPDX-License-Identifier: MIT\npragma solidity ^0.8.20;\n\nimport \"@openzeppelin/contracts/token/ERC721/ERC721.sol\";\nimport \"@openzeppelin/contracts/access/Ownable.sol\";\nimport \"@openzeppelin/contracts/utils/Counters.sol\";\nimport \"@openzeppelin/contracts/utils/Strings.sol\"; // Make sure to import Strings for tokenURI\n\ncontract EchoXNFT is ERC721, Ownable {\n    using Counters for Counters.Counter;\n    Counters.Counter private _tokenIds;\n\n    string public baseURI = \"ipfs://bafkreicaeorv426fpnh6n3u6h32yju2o7ddeirxvnjks6adz6byiqd5uvi\";\n\n    uint256 public maxSupply = 10000000000; // Example max supply\n    bool public isMintEnabled; // Minting flag\n\n    event TokenMinted(address to, uint256 tokenId);\n\n    // Constructor with minting enabled by default\n    constructor() ERC721(\"EcahoXNFT\", \"EXNFT\") {\n        isMintEnabled = true; // Set minting enabled by default\n    }\n\n    // Function to set the base URI. Useful for updating metadata.\n    function setBaseURI(string memory _baseURI) public onlyOwner {\n        baseURI = _baseURI;\n    }\n\n    // Function to enable/disable minting\n    function setIsMintEnabled(bool _isMintEnabled) public onlyOwner {\n        isMintEnabled = _isMintEnabled;\n    }\n\n    // Minting function (users call this)\n    function mintThreeNFTs(address to) public {\n        require(isMintEnabled, \"Minting is not enabled\");\n        require(_tokenIds.current() + 3 <= maxSupply, \"Max supply exceeded\");\n\n        _mintNFT(to);\n        _mintNFT(to);\n        _mintNFT(to);\n    }\n\n    function _mintNFT(address to) private {\n        _tokenIds.increment();\n        uint256 newItemId = _tokenIds.current();\n        _safeMint(to, newItemId);\n        emit TokenMinted(to, newItemId);\n    }\n\n    function tokenURI(uint256 tokenId) public view override returns (string memory) {\n        require(_exists(tokenId), \"Token URI query for nonexistent token\");\n        return string(abi.encodePacked(baseURI, Strings.toString(tokenId)));\n    }\n\n    function totalSupply() public view returns (uint256) {\n        return _tokenIds.current();\n    }\n}\n",
  "sourcePath": "/workspaces/echoX-nft/echoX-nft/contracts/EchoXNFT.sol",
  "compiler": {
    "name": "solc",
    "version": "0.8.20+commit.a1b79de6.Emscripten.clang"
  },
  "schemaVersion": "3.4.16",
  "updatedAt": "2025-06-12T07:50:21.259Z",
  "devdoc": {
    "events": {
      "Approval(address,address,uint256)": {
        "details": "Emitted when `owner` enables `approved` to manage the `tokenId` token."
      },
      "ApprovalForAll(address,address,bool)": {
        "details": "Emitted when `owner` enables or disables (`approved`) `operator` to manage all of its assets."
      },
      "Transfer(address,address,uint256)": {
        "details": "Emitted when `tokenId` token is transferred from `from` to `to`."
      }
    },
    "kind": "dev",
    "methods": {
      "approve(address,uint256)": {
        "details": "See {IERC721-approve}."
      },
      "balanceOf(address)": {
        "details": "See {IERC721-balanceOf}."
      },
      "getApproved(uint256)": {
        "details": "See {IERC721-getApproved}."
      },
      "isApprovedForAll(address,address)": {
        "details": "See {IERC721-isApprovedForAll}."
      },
      "name()": {
        "details": "See {IERC721Metadata-name}."
      },
      "owner()": {
        "details": "Returns the address of the current owner."
      },
      "ownerOf(uint256)": {
        "details": "See {IERC721-ownerOf}."
      },
      "renounceOwnership()": {
        "details": "Leaves the contract without owner. It will not be possible to call `onlyOwner` functions. Can only be called by the current owner. NOTE: Renouncing ownership will leave the contract without an owner, thereby disabling any functionality that is only available to the owner."
      },
      "safeTransferFrom(address,address,uint256)": {
        "details": "See {IERC721-safeTransferFrom}."
      },
      "safeTransferFrom(address,address,uint256,bytes)": {
        "details": "See {IERC721-safeTransferFrom}."
      },
      "setApprovalForAll(address,bool)": {
        "details": "See {IERC721-setApprovalForAll}."
      },
      "supportsInterface(bytes4)": {
        "details": "See {IERC165-supportsInterface}."
      },
      "symbol()": {
        "details": "See {IERC721Metadata-symbol}."
      },
      "tokenURI(uint256)": {
        "details": "See {IERC721Metadata-tokenURI}."
      },
      "transferFrom(address,address,uint256)": {
        "details": "See {IERC721-transferFrom}."
      },
      "transferOwnership(address)": {
        "details": "Transfers ownership of the contract to a new account (`newOwner`). Can only be called by the current owner."
      }
    },
    "version": 1
  },
  "userdoc": {
    "kind": "user",
    "methods": {},
    "version": 1
  }
}