{
  "contractName": "EchoXToken",
  "abi": [
    {
      "inputs": [],
      "stateMutability": "nonpayable",
      "type": "constructor"
    },
    {
      "anonymous": false,
      "inputs": [
        {
          "indexed": true,
          "internalType": "address",
          "name": "owner",
          "type": "address"
        },
        {
          "indexed": true,
          "internalType": "address",
          "name": "spender",
          "type": "address"
        },
        {
          "indexed": false,
          "internalType": "uint256",
          "name": "value",
          "type": "uint256"
        }
      ],
      "name": "Approval",
      "type": "event"
    },
    {
      "anonymous": false,
      "inputs": [
        {
          "indexed": true,
          "internalType": "address",
          "name": "from",
          "type": "address"
        },
        {
          "indexed": true,
          "internalType": "address",
          "name": "to",
          "type": "address"
        },
        {
          "indexed": false,
          "internalType": "uint256",
          "name": "value",
          "type": "uint256"
        }
      ],
      "name": "Transfer",
      "type": "event"
    },
    {
      "inputs": [
        {
          "internalType": "address",
          "name": "owner",
          "type": "address"
        },
        {
          "internalType": "address",
          "name": "spender",
          "type": "address"
        }
      ],
      "name": "allowance",
      "outputs": [
        {
          "internalType": "uint256",
          "name": "",
          "type": "uint256"
        }
      ],
      "stateMutability": "view",
      "type": "function",
      "constant": true
    },
    {
      "inputs": [
        {
          "internalType": "address",
          "name": "spender",
          "type": "address"
        },
        {
          "internalType": "uint256",
          "name": "amount",
          "type": "uint256"
        }
      ],
      "name": "approve",
      "outputs": [
        {
          "internalType": "bool",
          "name": "",
          "type": "bool"
        }
      ],
      "stateMutability": "nonpayable",
      "type": "function"
    },
    {
      "inputs": [
        {
          "internalType": "address",
          "name": "account",
          "type": "address"
        }
      ],
      "name": "balanceOf",
      "outputs": [
        {
          "internalType": "uint256",
          "name": "",
          "type": "uint256"
        }
      ],
      "stateMutability": "view",
      "type": "function",
      "constant": true
    },
    {
      "inputs": [],
      "name": "decimals",
      "outputs": [
        {
          "internalType": "uint8",
          "name": "",
          "type": "uint8"
        }
      ],
      "stateMutability": "view",
      "type": "function",
      "constant": true
    },
    {
      "inputs": [
        {
          "internalType": "address",
          "name": "spender",
          "type": "address"
        },
        {
          "internalType": "uint256",
          "name": "subtractedValue",
          "type": "uint256"
        }
      ],
      "name": "decreaseAllowance",
      "outputs": [
        {
          "internalType": "bool",
          "name": "",
          "type": "bool"
        }
      ],
      "stateMutability": "nonpayable",
      "type": "function"
    },
    {
      "inputs": [
        {
          "internalType": "address",
          "name": "spender",
          "type": "address"
        },
        {
          "internalType": "uint256",
          "name": "addedValue",
          "type": "uint256"
        }
      ],
      "name": "increaseAllowance",
      "outputs": [
        {
          "internalType": "bool",
          "name": "",
          "type": "bool"
        }
      ],
      "stateMutability": "nonpayable",
      "type": "function"
    },
    {
      "inputs": [],
      "name": "name",
      "outputs": [
        {
          "internalType": "string",
          "name": "",
          "type": "string"
        }
      ],
      "stateMutability": "view",
      "type": "function",
      "constant": true
    },
    {
      "inputs": [],
      "name": "symbol",
      "outputs": [
        {
          "internalType": "string",
          "name": "",
          "type": "string"
        }
      ],
      "stateMutability": "view",
      "type": "function",
      "constant": true
    },
    {
      "inputs": [],
      "name": "totalSupply",
      "outputs": [
        {
          "internalType": "uint256",
          "name": "",
          "type": "uint256"
        }
      ],
      "stateMutability": "view",
      "type": "function",
      "constant": true
    },
    {
      "inputs": [
        {
          "internalType": "address",
          "name": "to",
          "type": "address"
        },
        {
          "internalType": "uint256",
          "name": "amount",
          "type": "uint256"
        }
      ],
      "name": "transfer",
      "outputs": [
        {
          "internalType": "bool",
          "name": "",
          "type": "bool"
        }
      ],
      "stateMutability": "nonpayable",
      "type": "function"
    },
    {
      "inputs": [
        {
          "internalType": "address",
          "name": "from",
          "type": "address"
        },
        {
          "internalType": "address",
          "name": "to",
          "type": "address"
        },
        {
          "internalType": "uint256",
          "name": "amount",
          "type": "uint256"
        }
      ],
      "name": "transferFrom",
      "outputs": [
        {
          "internalType": "bool",
          "name": "",
          "type": "bool"
        }
      ],
      "stateMutability": "nonpayable",
      "type": "function"
    },
    {
      "inputs": [],
      "name": "mintHundred",
      "outputs": [],
      "stateMutability": "nonpayable",
      "type": "function"
    }
  ],
  "bytecode": "0x608060405234801562000010575f80fd5b506040518060400160405280601081526020016f22b1b437ac102a32b9ba102a37b5b2b760811b8152506040518060400160405280600281526020016108ab60f31b815250816003908162000066919062000204565b50600462000075828262000204565b50505062000096336b019d971e4fe8401e740000006200009c60201b60201c565b620002f2565b6001600160a01b038216620000f75760405162461bcd60e51b815260206004820152601f60248201527f45524332303a206d696e7420746f20746865207a65726f206164647265737300604482015260640160405180910390fd5b8060025f8282546200010a9190620002cc565b90915550506001600160a01b0382165f81815260208181526040808320805486019055518481527fddf252ad1be2c89b69c2b068fc378daa952ba7f163c4a11628f55a4df523b3ef910160405180910390a35050565b505050565b634e487b7160e01b5f52604160045260245ffd5b600181811c908216806200018e57607f821691505b602082108103620001ad57634e487b7160e01b5f52602260045260245ffd5b50919050565b601f82111562000160575f81815260208120601f850160051c81016020861015620001db5750805b601f850160051c820191505b81811015620001fc57828155600101620001e7565b505050505050565b81516001600160401b0381111562000220576200022062000165565b620002388162000231845462000179565b84620001b3565b602080601f8311600181146200026e575f8415620002565750858301515b5f19600386901b1c1916600185901b178555620001fc565b5f85815260208120601f198616915b828110156200029e578886015182559484019460019091019084016200027d565b5085821015620002bc57878501515f19600388901b60f8161c191681555b5050505050600190811b01905550565b80820180821115620002ec57634e487b7160e01b5f52601160045260245ffd5b92915050565b610a3080620003005f395ff3fe608060405234801561000f575f80fd5b50600436106100b1575f3560e01c80634838e6471161006e5780634838e6471461013d57806370a082311461014757806395d89b411461016f578063a457c2d714610177578063a9059cbb1461018a578063dd62ed3e1461019d575f80fd5b806306fdde03146100b5578063095ea7b3146100d357806318160ddd146100f657806323b872dd14610108578063313ce5671461011b578063395093511461012a575b5f80fd5b6100bd6101b0565b6040516100ca919061077e565b60405180910390f35b6100e66100e13660046107e4565b610240565b60405190151581526020016100ca565b6002545b6040519081526020016100ca565b6100e661011636600461080c565b610259565b604051601281526020016100ca565b6100e66101383660046107e4565b61027c565b61014561029d565b005b6100fa610155366004610845565b6001600160a01b03165f9081526020819052604090205490565b6100bd6102bf565b6100e66101853660046107e4565b6102ce565b6100e66101983660046107e4565b61034d565b6100fa6101ab366004610865565b61035a565b6060600380546101bf90610896565b80601f01602080910402602001604051908101604052809291908181526020018280546101eb90610896565b80156102365780601f1061020d57610100808354040283529160200191610236565b820191905f5260205f20905b81548152906001019060200180831161021957829003601f168201915b5050505050905090565b5f3361024d818585610384565b60019150505b92915050565b5f336102668582856104a7565b61027185858561051f565b506001949350505050565b5f3361024d81858561028e838361035a565b61029891906108e2565b610384565b6102bd336102ad6012600a6109d5565b6102b89060646109e3565b6106c1565b565b6060600480546101bf90610896565b5f33816102db828661035a565b9050838110156103405760405162461bcd60e51b815260206004820152602560248201527f45524332303a2064656372656173656420616c6c6f77616e63652062656c6f77604482015264207a65726f60d81b60648201526084015b60405180910390fd5b6102718286868403610384565b5f3361024d81858561051f565b6001600160a01b039182165f90815260016020908152604080832093909416825291909152205490565b6001600160a01b0383166103e65760405162461bcd60e51b8152602060048201526024808201527f45524332303a20617070726f76652066726f6d20746865207a65726f206164646044820152637265737360e01b6064820152608401610337565b6001600160a01b0382166104475760405162461bcd60e51b815260206004820152602260248201527f45524332303a20617070726f766520746f20746865207a65726f206164647265604482015261737360f01b6064820152608401610337565b6001600160a01b038381165f8181526001602090815260408083209487168084529482529182902085905590518481527f8c5be1e5ebec7d5bd14f71427d1e84f3dd0314c0f7b2291e5b200ac8c7c3b925910160405180910390a3505050565b5f6104b2848461035a565b90505f198114610519578181101561050c5760405162461bcd60e51b815260206004820152601d60248201527f45524332303a20696e73756666696369656e7420616c6c6f77616e63650000006044820152606401610337565b6105198484848403610384565b50505050565b6001600160a01b0383166105835760405162461bcd60e51b815260206004820152602560248201527f45524332303a207472616e736665722066726f6d20746865207a65726f206164604482015264647265737360d81b6064820152608401610337565b6001600160a01b0382166105e55760405162461bcd60e51b815260206004820152602360248201527f45524332303a207472616e7366657220746f20746865207a65726f206164647260448201526265737360e81b6064820152608401610337565b6001600160a01b0383165f908152602081905260409020548181101561065c5760405162461bcd60e51b815260206004820152602660248201527f45524332303a207472616e7366657220616d6f756e7420657863656564732062604482015265616c616e636560d01b6064820152608401610337565b6001600160a01b038481165f81815260208181526040808320878703905593871680835291849020805487019055925185815290927fddf252ad1be2c89b69c2b068fc378daa952ba7f163c4a11628f55a4df523b3ef910160405180910390a3610519565b6001600160a01b0382166107175760405162461bcd60e51b815260206004820152601f60248201527f45524332303a206d696e7420746f20746865207a65726f2061646472657373006044820152606401610337565b8060025f82825461072891906108e2565b90915550506001600160a01b0382165f81815260208181526040808320805486019055518481527fddf252ad1be2c89b69c2b068fc378daa952ba7f163c4a11628f55a4df523b3ef910160405180910390a35050565b5f6020808352835180828501525f5b818110156107a95785810183015185820160400152820161078d565b505f604082860101526040601f19601f8301168501019250505092915050565b80356001600160a01b03811681146107df575f80fd5b919050565b5f80604083850312156107f5575f80fd5b6107fe836107c9565b946020939093013593505050565b5f805f6060848603121561081e575f80fd5b610827846107c9565b9250610835602085016107c9565b9150604084013590509250925092565b5f60208284031215610855575f80fd5b61085e826107c9565b9392505050565b5f8060408385031215610876575f80fd5b61087f836107c9565b915061088d602084016107c9565b90509250929050565b600181811c908216806108aa57607f821691505b6020821081036108c857634e487b7160e01b5f52602260045260245ffd5b50919050565b634e487b7160e01b5f52601160045260245ffd5b80820180821115610253576102536108ce565b600181815b8085111561092f57815f1904821115610915576109156108ce565b8085161561092257918102915b93841c93908002906108fa565b509250929050565b5f8261094557506001610253565b8161095157505f610253565b816001811461096757600281146109715761098d565b6001915050610253565b60ff841115610982576109826108ce565b50506001821b610253565b5060208310610133831016604e8410600b84101617156109b0575081810a610253565b6109ba83836108f5565b805f19048211156109cd576109cd6108ce565b029392505050565b5f61085e60ff841683610937565b8082028115828204841417610253576102536108ce56fea2646970667358221220d0e16168d643f2f34738c3cac5aa39876df35093510bc171b1ce7d80563b598264736f6c63430008140033",
  "immutableReferences": {},
  "source": "// SPDX-License-Identifier: MIT\npragma solidity ^0.8.20;\n\nimport \"@openzeppelin/contracts/token/ERC20/ERC20.sol\";\n\ncontract EchoXToken is ERC20 {\n    uint256 private constant INITIAL_SUPPLY = 500_000_000 * 10 ** 18;\n\n    constructor() ERC20(\"EchoX Test Token\", \"EX\") {\n        _mint(msg.sender, INITIAL_SUPPLY);\n    }\n\n    // Anyone can call this to mint 100 EX tokens\n    function mintHundred() public {\n        _mint(msg.sender, 100 * 10 ** decimals());\n    }\n}\n",
  "sourcePath": "/workspaces/echoX-nft/echoX-nft/contracts/EchoXToken.sol",
  "compiler": {
    "name": "solc",
    "version": "0.8.20+commit.a1b79de6.Emscripten.clang"
  },
  "schemaVersion": "3.4.16",
  "updatedAt": "2025-05-12T08:53:07.759Z",
  "networkType": "ethereum",
  "devdoc": {
    "events": {
      "Approval(address,address,uint256)": {
        "details": "Emitted when the allowance of a `spender` for an `owner` is set by a call to {approve}. `value` is the new allowance."
      },
      "Transfer(address,address,uint256)": {
        "details": "Emitted when `value` tokens are moved from one account (`from`) to another (`to`). Note that `value` may be zero."
      }
    },
    "kind": "dev",
    "methods": {
      "allowance(address,address)": {
        "details": "See {IERC20-allowance}."
      },
      "approve(address,uint256)": {
        "details": "See {IERC20-approve}. NOTE: If `amount` is the maximum `uint256`, the allowance is not updated on `transferFrom`. This is semantically equivalent to an infinite approval. Requirements: - `spender` cannot be the zero address."
      },
      "balanceOf(address)": {
        "details": "See {IERC20-balanceOf}."
      },
      "decimals()": {
        "details": "Returns the number of decimals used to get its user representation. For example, if `decimals` equals `2`, a balance of `505` tokens should be displayed to a user as `5.05` (`505 / 10 ** 2`). Tokens usually opt for a value of 18, imitating the relationship between Ether and Wei. This is the default value returned by this function, unless it's overridden. NOTE: This information is only used for _display_ purposes: it in no way affects any of the arithmetic of the contract, including {IERC20-balanceOf} and {IERC20-transfer}."
      },
      "decreaseAllowance(address,uint256)": {
        "details": "Atomically decreases the allowance granted to `spender` by the caller. This is an alternative to {approve} that can be used as a mitigation for problems described in {IERC20-approve}. Emits an {Approval} event indicating the updated allowance. Requirements: - `spender` cannot be the zero address. - `spender` must have allowance for the caller of at least `subtractedValue`."
      },
      "increaseAllowance(address,uint256)": {
        "details": "Atomically increases the allowance granted to `spender` by the caller. This is an alternative to {approve} that can be used as a mitigation for problems described in {IERC20-approve}. Emits an {Approval} event indicating the updated allowance. Requirements: - `spender` cannot be the zero address."
      },
      "name()": {
        "details": "Returns the name of the token."
      },
      "symbol()": {
        "details": "Returns the symbol of the token, usually a shorter version of the name."
      },
      "totalSupply()": {
        "details": "See {IERC20-totalSupply}."
      },
      "transfer(address,uint256)": {
        "details": "See {IERC20-transfer}. Requirements: - `to` cannot be the zero address. - the caller must have a balance of at least `amount`."
      },
      "transferFrom(address,address,uint256)": {
        "details": "See {IERC20-transferFrom}. Emits an {Approval} event indicating the updated allowance. This is not required by the EIP. See the note at the beginning of {ERC20}. NOTE: Does not update the allowance if the current allowance is the maximum `uint256`. Requirements: - `from` and `to` cannot be the zero address. - `from` must have a balance of at least `amount`. - the caller must have allowance for ``from``'s tokens of at least `amount`."
      }
    },
    "version": 1
  },
  "userdoc": {
    "kind": "user",
    "methods": {},
    "version": 1
  }
}