{
  "contractName": "EchoXPool",
  "abi": [
    {
      "inputs": [
        {
          "internalType": "address",
          "name": "exTokenAddress",
          "type": "address"
        },
        {
          "internalType": "address",
          "name": "pointsAddress",
          "type": "address"
        }
      ],
      "stateMutability": "nonpayable",
      "type": "constructor"
    },
    {
      "anonymous": false,
      "inputs": [
        {
          "indexed": true,
          "internalType": "uint256",
          "name": "poolId",
          "type": "uint256"
        },
        {
          "indexed": true,
          "internalType": "address",
          "name": "provider",
          "type": "address"
        },
        {
          "indexed": false,
          "internalType": "uint256",
          "name": "amount",
          "type": "uint256"
        }
      ],
      "name": "LiquidityAdded",
      "type": "event"
    },
    {
      "anonymous": false,
      "inputs": [
        {
          "indexed": true,
          "internalType": "uint256",
          "name": "poolId",
          "type": "uint256"
        },
        {
          "indexed": true,
          "internalType": "address",
          "name": "user",
          "type": "address"
        },
        {
          "indexed": false,
          "internalType": "uint256",
          "name": "amount",
          "type": "uint256"
        }
      ],
      "name": "LiquidityWithdrawn",
      "type": "event"
    },
    {
      "anonymous": false,
      "inputs": [
        {
          "indexed": true,
          "internalType": "uint256",
          "name": "poolId",
          "type": "uint256"
        },
        {
          "indexed": true,
          "internalType": "address",
          "name": "buyer",
          "type": "address"
        },
        {
          "indexed": false,
          "internalType": "uint256",
          "name": "tokenId",
          "type": "uint256"
        },
        {
          "indexed": false,
          "internalType": "uint256",
          "name": "price",
          "type": "uint256"
        }
      ],
      "name": "NFTPurchased",
      "type": "event"
    },
    {
      "anonymous": false,
      "inputs": [
        {
          "indexed": true,
          "internalType": "uint256",
          "name": "poolId",
          "type": "uint256"
        },
        {
          "indexed": true,
          "internalType": "address",
          "name": "seller",
          "type": "address"
        },
        {
          "indexed": false,
          "internalType": "uint256",
          "name": "tokenId",
          "type": "uint256"
        },
        {
          "indexed": false,
          "internalType": "uint256",
          "name": "price",
          "type": "uint256"
        }
      ],
      "name": "NFTSold",
      "type": "event"
    },
    {
      "anonymous": false,
      "inputs": [
        {
          "indexed": true,
          "internalType": "uint256",
          "name": "poolId",
          "type": "uint256"
        },
        {
          "indexed": true,
          "internalType": "address",
          "name": "creator",
          "type": "address"
        },
        {
          "indexed": false,
          "internalType": "address",
          "name": "nftAddress",
          "type": "address"
        },
        {
          "indexed": false,
          "internalType": "uint256",
          "name": "initialLiquidity",
          "type": "uint256"
        }
      ],
      "name": "PoolCreated",
      "type": "event"
    },
    {
      "inputs": [],
      "name": "ex",
      "outputs": [
        {
          "internalType": "contract IERC20",
          "name": "",
          "type": "address"
        }
      ],
      "stateMutability": "view",
      "type": "function",
      "constant": true
    },
    {
      "inputs": [
        {
          "internalType": "uint256",
          "name": "",
          "type": "uint256"
        },
        {
          "internalType": "address",
          "name": "",
          "type": "address"
        }
      ],
      "name": "liquidityProviderShares",
      "outputs": [
        {
          "internalType": "uint256",
          "name": "",
          "type": "uint256"
        }
      ],
      "stateMutability": "view",
      "type": "function",
      "constant": true
    },
    {
      "inputs": [],
      "name": "nextPoolId",
      "outputs": [
        {
          "internalType": "uint256",
          "name": "",
          "type": "uint256"
        }
      ],
      "stateMutability": "view",
      "type": "function",
      "constant": true
    },
    {
      "inputs": [
        {
          "internalType": "uint256",
          "name": "",
          "type": "uint256"
        },
        {
          "internalType": "uint256",
          "name": "",
          "type": "uint256"
        }
      ],
      "name": "nftOwners",
      "outputs": [
        {
          "internalType": "address",
          "name": "",
          "type": "address"
        }
      ],
      "stateMutability": "view",
      "type": "function",
      "constant": true
    },
    {
      "inputs": [],
      "name": "owner",
      "outputs": [
        {
          "internalType": "address",
          "name": "",
          "type": "address"
        }
      ],
      "stateMutability": "view",
      "type": "function",
      "constant": true
    },
    {
      "inputs": [],
      "name": "points",
      "outputs": [
        {
          "internalType": "contract IEchoXPoints",
          "name": "",
          "type": "address"
        }
      ],
      "stateMutability": "view",
      "type": "function",
      "constant": true
    },
    {
      "inputs": [
        {
          "internalType": "uint256",
          "name": "",
          "type": "uint256"
        }
      ],
      "name": "pools",
      "outputs": [
        {
          "internalType": "address",
          "name": "nftAddress",
          "type": "address"
        },
        {
          "internalType": "uint256",
          "name": "currentPrice",
          "type": "uint256"
        },
        {
          "internalType": "uint256",
          "name": "liquidity",
          "type": "uint256"
        },
        {
          "internalType": "uint256",
          "name": "feePercentage",
          "type": "uint256"
        },
        {
          "internalType": "address",
          "name": "creator",
          "type": "address"
        }
      ],
      "stateMutability": "view",
      "type": "function",
      "constant": true
    },
    {
      "inputs": [
        {
          "internalType": "address",
          "name": "nftAddress",
          "type": "address"
        },
        {
          "internalType": "uint256",
          "name": "initialLiquidity",
          "type": "uint256"
        },
        {
          "internalType": "uint256",
          "name": "initialPrice",
          "type": "uint256"
        },
        {
          "internalType": "uint256",
          "name": "feePercentage",
          "type": "uint256"
        }
      ],
      "name": "createPool",
      "outputs": [],
      "stateMutability": "nonpayable",
      "type": "function"
    },
    {
      "inputs": [
        {
          "internalType": "uint256",
          "name": "poolId",
          "type": "uint256"
        },
        {
          "internalType": "uint256",
          "name": "amount",
          "type": "uint256"
        }
      ],
      "name": "addLiquidity",
      "outputs": [],
      "stateMutability": "nonpayable",
      "type": "function"
    },
    {
      "inputs": [
        {
          "internalType": "uint256",
          "name": "poolId",
          "type": "uint256"
        },
        {
          "internalType": "uint256",
          "name": "tokenId",
          "type": "uint256"
        }
      ],
      "name": "buyNFT",
      "outputs": [],
      "stateMutability": "nonpayable",
      "type": "function"
    },
    {
      "inputs": [
        {
          "internalType": "uint256",
          "name": "poolId",
          "type": "uint256"
        },
        {
          "internalType": "uint256",
          "name": "tokenId",
          "type": "uint256"
        }
      ],
      "name": "sellNFT",
      "outputs": [],
      "stateMutability": "nonpayable",
      "type": "function"
    },
    {
      "inputs": [
        {
          "internalType": "uint256",
          "name": "poolId",
          "type": "uint256"
        },
        {
          "internalType": "uint256",
          "name": "amount",
          "type": "uint256"
        }
      ],
      "name": "withdrawLiquidity",
      "outputs": [],
      "stateMutability": "nonpayable",
      "type": "function"
    },
    {
      "inputs": [
        {
          "internalType": "address",
          "name": "newAddress",
          "type": "address"
        }
      ],
      "name": "updatePointsContract",
      "outputs": [],
      "stateMutability": "nonpayable",
      "type": "function"
    },
    {
      "inputs": [
        {
          "internalType": "address",
          "name": "newAddress",
          "type": "address"
        }
      ],
      "name": "updateEXToken",
      "outputs": [],
      "stateMutability": "nonpayable",
      "type": "function"
    }
  ],
  "bytecode": "0x608060405234801561000f575f80fd5b5060405161115938038061115983398101604081905261002e9161008e565b60015f55600680546001600160a01b039384166001600160a01b03199182161790915560078054929093169181169190911790915560058054909116331790556100bf565b80516001600160a01b0381168114610089575f80fd5b919050565b5f806040838503121561009f575f80fd5b6100a883610073565b91506100b660208401610073565b90509250929050565b61108d806100cc5f395ff3fe608060405234801561000f575f80fd5b50600436106100e5575f3560e01c806391a48a1e116100885780639cd441da116100635780639cd441da14610201578063ac4afa3814610214578063d530ed4514610290578063e1c34549146102a3575f80fd5b806391a48a1e146101a8578063922d3e4c146101bb5780639536230f146101ce575f80fd5b80634ab3f58d116100c35780634ab3f58d146101455780636195c1401461016f5780637ddced5a146101825780638da5cb5b14610195575f80fd5b806318e56131146100e95780631be6dd64146101055780631d85bf0314610130575b5f80fd5b6100f260045481565b6040519081526020015b60405180910390f35b600754610118906001600160a01b031681565b6040516001600160a01b0390911681526020016100fc565b61014361013e366004610e95565b6102b6565b005b6100f2610153366004610ecc565b600360209081525f928352604080842090915290825290205481565b61014361017d366004610efa565b610567565b610143610190366004610e95565b6105d0565b600554610118906001600160a01b031681565b6101436101b6366004610e95565b6107c4565b6101436101c9366004610f1c565b6109c6565b6101186101dc366004610e95565b600260209081525f92835260408084209091529082529020546001600160a01b031681565b61014361020f366004610e95565b610c33565b61025c610222366004610f54565b600160208190525f9182526040909120805491810154600282015460038301546004909301546001600160a01b0394851694929391921685565b604080516001600160a01b03968716815260208101959095528401929092526060830152909116608082015260a0016100fc565b61014361029e366004610efa565b610dd5565b600654610118906001600160a01b031681565b6102be610e3e565b5f8281526001602081905260408220600381015491810154909291612710916102e79190610f7f565b6102f19190610f9c565b90505f8183600101546103049190610fbb565b83546040516331a9108f60e11b8152600481018790529192505f916001600160a01b0390911690636352211e90602401602060405180830381865afa15801561034f573d5f803e3d5ffd5b505050506040513d601f19601f820116820180604052508101906103739190610fce565b90506001600160a01b0381166103c45760405162461bcd60e51b815260206004820152601160248201527024b73b30b634b21027232a1037bbb732b960791b60448201526064015b60405180910390fd5b6006546040516323b872dd60e01b81526001600160a01b03909116906323b872dd906103f890339030908790600401610fe9565b6020604051808303815f875af1158015610414573d5f803e3d5ffd5b505050506040513d601f19601f82011682018060405250810190610438919061100d565b5083546040516323b872dd60e01b81526001600160a01b03909116906323b872dd9061046c90849033908a90600401610fe9565b5f604051808303815f87803b158015610483575f80fd5b505af1158015610495573d5f803e3d5ffd5b505050508360010154846002015f8282546104b09190610fbb565b90915550506007546004858101546040516313b428ff60e31b81526001600160a01b039182169281019290925290911690639da147f8906024015f604051808303815f87803b158015610501575f80fd5b505af1925050508015610512575060015b506001840154604080518781526020810192909252339188917fe65053baf2552c73f4daf8c2256e85bee60d26e07421e21b4391ef6b0c63da78910160405180910390a35050505061056360015f55565b5050565b6005546001600160a01b031633146105ae5760405162461bcd60e51b815260206004820152600a60248201526927b7363c9037bbb732b960b11b60448201526064016103bb565b600680546001600160a01b0319166001600160a01b0392909216919091179055565b6105d8610e3e565b5f81116106155760405162461bcd60e51b815260206004820152600b60248201526a16995c9bc8185b5bdd5b9d60aa1b60448201526064016103bb565b5f8281526003602090815260408083203384529091529020548111156106725760405162461bcd60e51b8152602060048201526012602482015271496e73756666696369656e7420736861726560701b60448201526064016103bb565b5f82815260016020526040902060028101548211156106c85760405162461bcd60e51b8152602060048201526012602482015271506f6f6c206c6971756964697479206c6f7760701b60448201526064016103bb565b5f838152600360209081526040808320338452909152812080548492906106f090849061102c565b9250508190555081816002015f82825461070a919061102c565b909155505060065460405163a9059cbb60e01b8152336004820152602481018490526001600160a01b039091169063a9059cbb906044016020604051808303815f875af115801561075d573d5f803e3d5ffd5b505050506040513d601f19601f82011682018060405250810190610781919061100d565b50604051828152339084907f02318968e33516654cb34389e0140034a5db180fecaac18baf6e47a633b0f469906020015b60405180910390a35061056360015f55565b6107cc610e3e565b5f82815260016020819052604090912090810154600282015410156108335760405162461bcd60e51b815260206004820152601b60248201527f496e73756666696369656e7420706f6f6c206c6971756964697479000000000060448201526064016103bb565b80546040516323b872dd60e01b81526001600160a01b03909116906323b872dd9061086690339030908790600401610fe9565b5f604051808303815f87803b15801561087d575f80fd5b505af115801561088f573d5f803e3d5ffd5b5050600654600184015460405163a9059cbb60e01b815233600482015260248101919091526001600160a01b03909116925063a9059cbb91506044016020604051808303815f875af11580156108e7573d5f803e3d5ffd5b505050506040513d601f19601f8201168201806040525081019061090b919061100d565b508060010154816002015f828254610923919061102c565b90915550506007546004828101546040516313b428ff60e31b81526001600160a01b039182169281019290925290911690639da147f8906024015f604051808303815f87803b158015610974575f80fd5b505af1925050508015610985575060015b506001810154604080518481526020810192909252339185917fb91c1d5733a11add12a3fe79d34b64a351a845d7b07eba88230fbbc3802c690e91016107b2565b6109ce610e3e565b612710811115610a0f5760405162461bcd60e51b815260206004820152600c60248201526b08ccaca40e8dede40d0d2ced60a31b60448201526064016103bb565b5f8311610a4f5760405162461bcd60e51b815260206004820152600e60248201526d5a65726f206c697175696469747960901b60448201526064016103bb565b6006546040516323b872dd60e01b81526001600160a01b03909116906323b872dd90610a8390339030908890600401610fe9565b6020604051808303815f875af1158015610a9f573d5f803e3d5ffd5b505050506040513d601f19601f82011682018060405250810190610ac3919061100d565b506040805160a0810182526001600160a01b0380871682526020808301868152838501888152606085018781523360808701818152600480545f90815260018089528b82209a518b54908b166001600160a01b0319918216178c559751908b0155945160028a015592516003808a019190915590519783018054989097169790941696909617909455925483528152838220928252919091529081208054859290610b6f908490610fbb565b90915550506007546040516367a10e0960e01b81523360048201526001600160a01b03909116906367a10e09906024015f604051808303815f87803b158015610bb6575f80fd5b505af1925050508015610bc7575060015b50600454604080516001600160a01b0387168152602081018690523392917ff756876565d755443228c555dcee8573d6405d9be751ac121eb5e386ed86913a910160405180910390a360048054905f610c1f8361103f565b9190505550610c2d60015f55565b50505050565b610c3b610e3e565b5f8111610c7f5760405162461bcd60e51b81526020600482015260126024820152710416d6f756e74206d757374206265203e20360741b60448201526064016103bb565b5f828152600160205260409081902060065491516323b872dd60e01b815290916001600160a01b0316906323b872dd90610cc190339030908790600401610fe9565b6020604051808303815f875af1158015610cdd573d5f803e3d5ffd5b505050506040513d601f19601f82011682018060405250810190610d01919061100d565b5081816002015f828254610d159190610fbb565b90915550505f83815260036020908152604080832033845290915281208054849290610d42908490610fbb565b9091555050600754604051630f1407e160e01b81523360048201523060248201526001600160a01b0390911690630f1407e1906044015f604051808303815f87803b158015610d8f575f80fd5b505af1925050508015610da0575060015b50604051828152339084907fc733c2813826d31c105dbff518b08258e9e7aeb3eb1c7c7f642d77696faf501d906020016107b2565b6005546001600160a01b03163314610e1c5760405162461bcd60e51b815260206004820152600a60248201526927b7363c9037bbb732b960b11b60448201526064016103bb565b600780546001600160a01b0319166001600160a01b0392909216919091179055565b60025f5403610e8f5760405162461bcd60e51b815260206004820152601f60248201527f5265656e7472616e637947756172643a207265656e7472616e742063616c6c0060448201526064016103bb565b60025f55565b5f8060408385031215610ea6575f80fd5b50508035926020909101359150565b6001600160a01b0381168114610ec9575f80fd5b50565b5f8060408385031215610edd575f80fd5b823591506020830135610eef81610eb5565b809150509250929050565b5f60208284031215610f0a575f80fd5b8135610f1581610eb5565b9392505050565b5f805f8060808587031215610f2f575f80fd5b8435610f3a81610eb5565b966020860135965060408601359560600135945092505050565b5f60208284031215610f64575f80fd5b5035919050565b634e487b7160e01b5f52601160045260245ffd5b8082028115828204841417610f9657610f96610f6b565b92915050565b5f82610fb657634e487b7160e01b5f52601260045260245ffd5b500490565b80820180821115610f9657610f96610f6b565b5f60208284031215610fde575f80fd5b8151610f1581610eb5565b6001600160a01b039384168152919092166020820152604081019190915260600190565b5f6020828403121561101d575f80fd5b81518015158114610f15575f80fd5b81810381811115610f9657610f96610f6b565b5f6001820161105057611050610f6b565b506001019056fea2646970667358221220e8e99adf05ec016b14613ac4e99f80e10162d8575c39f59214e9f9573a3ba25564736f6c63430008140033",
  "immutableReferences": {},
  "source": "// SPDX-License-Identifier: MIT\npragma solidity ^0.8.20;\n\nimport \"./EchoXInterfaces.sol\";\nimport \"@openzeppelin/contracts/security/ReentrancyGuard.sol\";\n\ninterface IERC721 {\n    function transferFrom(address from, address to, uint256 tokenId) external;\n    function ownerOf(uint256 tokenId) external view returns (address);\n}\n\ninterface IERC20 {\n    function transferFrom(address sender, address recipient, uint256 amount) external returns (bool);\n    function transfer(address to, uint256 amount) external returns (bool);\n}\n\ncontract EchoXPool is ReentrancyGuard {\n    struct Pool {\n        address nftAddress;\n        uint256 currentPrice;\n        uint256 liquidity;\n        uint256 feePercentage; // in basis points (e.g., 100 = 1%)\n        address creator;\n    }\n    \n    mapping(uint256 => Pool) public pools;\n    mapping(uint256 => mapping(uint256 => address)) public nftOwners;\n    mapping(uint256 => mapping(address => uint256)) public liquidityProviderShares;\n    \n    uint256 public nextPoolId;\n    address public owner;\n    \n    IERC20 public ex;\n    IEchoXPoints public points;\n    \n    event PoolCreated(uint256 indexed poolId, address indexed creator, address nftAddress, uint256 initialLiquidity);\n    event LiquidityAdded(uint256 indexed poolId, address indexed provider, uint256 amount);\n    event NFTPurchased(uint256 indexed poolId, address indexed buyer, uint256 tokenId, uint256 price);\n    event NFTSold(uint256 indexed poolId, address indexed seller, uint256 tokenId, uint256 price);\n    event LiquidityWithdrawn(uint256 indexed poolId, address indexed user, uint256 amount);\n    \n    constructor(address exTokenAddress, address pointsAddress) {\n        ex = IERC20(exTokenAddress);\n        points = IEchoXPoints(pointsAddress);\n        owner = msg.sender;\n    }\n    \n    function createPool(\n        address nftAddress,\n        uint256 initialLiquidity,\n        uint256 initialPrice,\n        uint256 feePercentage\n    ) external nonReentrant {\n        require(feePercentage <= 10000, \"Fee too high\");\n        require(initialLiquidity > 0, \"Zero liquidity\");\n        \n        ex.transferFrom(msg.sender, address(this), initialLiquidity);\n        \n        pools[nextPoolId] = Pool({\n            nftAddress: nftAddress,\n            currentPrice: initialPrice,\n            liquidity: initialLiquidity,\n            feePercentage: feePercentage,\n            creator: msg.sender\n        });\n        \n        liquidityProviderShares[nextPoolId][msg.sender] += initialLiquidity;\n        \n        // Use the correct function from the points contract\n        try points.recordPoolCreation(msg.sender) {\n            // Successfully recorded pool creation\n        } catch {\n            // Silently fail if the points contract call fails\n        }\n        \n        emit PoolCreated(nextPoolId, msg.sender, nftAddress, initialLiquidity);\n        nextPoolId++;\n    }\n    \n    function addLiquidity(uint256 poolId, uint256 amount) external nonReentrant {\n        require(amount > 0, \"Amount must be > 0\");\n        Pool storage pool = pools[poolId];\n        ex.transferFrom(msg.sender, address(this), amount);\n        pool.liquidity += amount;\n        liquidityProviderShares[poolId][msg.sender] += amount;\n        \n        // Use the correct function from the points contract\n        try points.recordLpParticipation(msg.sender, address(this)) {\n            // Successfully recorded LP participation\n        } catch {\n            // Silently fail if the points contract call fails\n        }\n        \n        emit LiquidityAdded(poolId, msg.sender, amount);\n    }\n    \n    function buyNFT(uint256 poolId, uint256 tokenId) external nonReentrant {\n        Pool storage pool = pools[poolId];\n        uint256 fee = (pool.currentPrice * pool.feePercentage) / 10000;\n        uint256 totalCost = pool.currentPrice + fee;\n        \n        address currentOwner = IERC721(pool.nftAddress).ownerOf(tokenId);\n        require(currentOwner != address(0), \"Invalid NFT owner\");\n        \n        ex.transferFrom(msg.sender, address(this), totalCost);\n        IERC721(pool.nftAddress).transferFrom(currentOwner, msg.sender, tokenId);\n        \n        pool.liquidity += pool.currentPrice;\n        \n        // Use the correct function from the points contract\n        try points.recordPoolTransaction(pool.creator) {\n            // Successfully recorded pool transaction\n        } catch {\n            // Silently fail if the points contract call fails\n        }\n        \n        emit NFTPurchased(poolId, msg.sender, tokenId, pool.currentPrice);\n    }\n    \n    function sellNFT(uint256 poolId, uint256 tokenId) external nonReentrant {\n        Pool storage pool = pools[poolId];\n        require(pool.liquidity >= pool.currentPrice, \"Insufficient pool liquidity\");\n        \n        IERC721(pool.nftAddress).transferFrom(msg.sender, address(this), tokenId);\n        ex.transfer(msg.sender, pool.currentPrice);\n        \n        pool.liquidity -= pool.currentPrice;\n        \n        // Use the correct function from the points contract\n        try points.recordPoolTransaction(pool.creator) {\n            // Successfully recorded pool transaction\n        } catch {\n            // Silently fail if the points contract call fails\n        }\n        \n        emit NFTSold(poolId, msg.sender, tokenId, pool.currentPrice);\n    }\n    \n    function withdrawLiquidity(uint256 poolId, uint256 amount) external nonReentrant {\n        require(amount > 0, \"Zero amount\");\n        require(liquidityProviderShares[poolId][msg.sender] >= amount, \"Insufficient share\");\n        \n        Pool storage pool = pools[poolId];\n        require(pool.liquidity >= amount, \"Pool liquidity low\");\n        \n        liquidityProviderShares[poolId][msg.sender] -= amount;\n        pool.liquidity -= amount;\n        \n        ex.transfer(msg.sender, amount);\n        \n        emit LiquidityWithdrawn(poolId, msg.sender, amount);\n    }\n    \n    // Optional: Admin-only update functions\n    function updatePointsContract(address newAddress) external {\n        require(msg.sender == owner, \"Only owner\");\n        points = IEchoXPoints(newAddress);\n    }\n    \n    function updateEXToken(address newAddress) external {\n        require(msg.sender == owner, \"Only owner\");\n        ex = IERC20(newAddress);\n    }\n}\n",
  "sourcePath": "/workspaces/echoX-nft/echoX-nft/contracts/EchoXPool.sol",
  "compiler": {
    "name": "solc",
    "version": "0.8.20+commit.a1b79de6.Emscripten.clang"
  },
  "schemaVersion": "3.4.16",
  "updatedAt": "2025-05-14T10:52:23.647Z",
  "networkType": "ethereum",
  "devdoc": {
    "kind": "dev",
    "methods": {},
    "version": 1
  },
  "userdoc": {
    "kind": "user",
    "methods": {},
    "version": 1
  }
}