{
  "contractName": "MemeToken",
  "abi": [
    {
      "inputs": [
        {
          "internalType": "string",
          "name": "_name",
          "type": "string"
        },
        {
          "internalType": "string",
          "name": "_symbol",
          "type": "string"
        },
        {
          "internalType": "address",
          "name": "_creator",
          "type": "address"
        },
        {
          "internalType": "uint256",
          "name": "_initialSupply",
          "type": "uint256"
        }
      ],
      "stateMutability": "nonpayable",
      "type": "constructor"
    },
    {
      "anonymous": false,
      "inputs": [
        {
          "indexed": true,
          "internalType": "address",
          "name": "owner",
          "type": "address"
        },
        {
          "indexed": true,
          "internalType": "address",
          "name": "spender",
          "type": "address"
        },
        {
          "indexed": false,
          "internalType": "uint256",
          "name": "value",
          "type": "uint256"
        }
      ],
      "name": "Approval",
      "type": "event"
    },
    {
      "anonymous": false,
      "inputs": [
        {
          "indexed": true,
          "internalType": "address",
          "name": "from",
          "type": "address"
        },
        {
          "indexed": true,
          "internalType": "address",
          "name": "to",
          "type": "address"
        },
        {
          "indexed": false,
          "internalType": "uint256",
          "name": "value",
          "type": "uint256"
        }
      ],
      "name": "Transfer",
      "type": "event"
    },
    {
      "inputs": [
        {
          "internalType": "address",
          "name": "",
          "type": "address"
        },
        {
          "internalType": "address",
          "name": "",
          "type": "address"
        }
      ],
      "name": "allowance",
      "outputs": [
        {
          "internalType": "uint256",
          "name": "",
          "type": "uint256"
        }
      ],
      "stateMutability": "view",
      "type": "function"
    },
    {
      "inputs": [
        {
          "internalType": "address",
          "name": "",
          "type": "address"
        }
      ],
      "name": "balanceOf",
      "outputs": [
        {
          "internalType": "uint256",
          "name": "",
          "type": "uint256"
        }
      ],
      "stateMutability": "view",
      "type": "function"
    },
    {
      "inputs": [],
      "name": "creator",
      "outputs": [
        {
          "internalType": "address",
          "name": "",
          "type": "address"
        }
      ],
      "stateMutability": "view",
      "type": "function"
    },
    {
      "inputs": [],
      "name": "decimals",
      "outputs": [
        {
          "internalType": "uint8",
          "name": "",
          "type": "uint8"
        }
      ],
      "stateMutability": "view",
      "type": "function"
    },
    {
      "inputs": [],
      "name": "name",
      "outputs": [
        {
          "internalType": "string",
          "name": "",
          "type": "string"
        }
      ],
      "stateMutability": "view",
      "type": "function"
    },
    {
      "inputs": [],
      "name": "symbol",
      "outputs": [
        {
          "internalType": "string",
          "name": "",
          "type": "string"
        }
      ],
      "stateMutability": "view",
      "type": "function"
    },
    {
      "inputs": [],
      "name": "totalSupply",
      "outputs": [
        {
          "internalType": "uint256",
          "name": "",
          "type": "uint256"
        }
      ],
      "stateMutability": "view",
      "type": "function"
    },
    {
      "inputs": [
        {
          "internalType": "address",
          "name": "to",
          "type": "address"
        },
        {
          "internalType": "uint256",
          "name": "amount",
          "type": "uint256"
        }
      ],
      "name": "transfer",
      "outputs": [
        {
          "internalType": "bool",
          "name": "",
          "type": "bool"
        }
      ],
      "stateMutability": "nonpayable",
      "type": "function"
    },
    {
      "inputs": [
        {
          "internalType": "address",
          "name": "spender",
          "type": "address"
        },
        {
          "internalType": "uint256",
          "name": "amount",
          "type": "uint256"
        }
      ],
      "name": "approve",
      "outputs": [
        {
          "internalType": "bool",
          "name": "",
          "type": "bool"
        }
      ],
      "stateMutability": "nonpayable",
      "type": "function"
    },
    {
      "inputs": [
        {
          "internalType": "address",
          "name": "from",
          "type": "address"
        },
        {
          "internalType": "address",
          "name": "to",
          "type": "address"
        },
        {
          "internalType": "uint256",
          "name": "amount",
          "type": "uint256"
        }
      ],
      "name": "transferFrom",
      "outputs": [
        {
          "internalType": "bool",
          "name": "",
          "type": "bool"
        }
      ],
      "stateMutability": "nonpayable",
      "type": "function"
    }
  ],
  "bytecode": "0x608060405234620003915762000ef6803803806200001d8162000395565b9283398101608082820312620003915781516001600160401b0391908281116200039157816200004f918501620003bb565b91602091828501519082821162000391576200006d918601620003bb565b60408501516001600160a01b038116959194919086900362000391576060015191601260ff19600254161760025581518181116200037d575f958654916001948584811c9416801562000372575b888510146200035e578190601f948581116200030b575b508890858311600114620002a8578a926200029c575b50505f19600383901b1c191690851b1787555b8051928311620002885783548481811c911680156200027d575b87821014620002695782811162000221575b5085918311600114620001ab575f8051602062000ed683398151915295949392918791836200019f575b50505f19600383901b1c191690821b1790555b600680546001600160a01b03191686179055600381905584845260048252604080852082905551908152a3604051610aaa90816200042c8239f35b015190505f8062000151565b838752858720959493929190601f198316885b8181106200020b5750915f8051602062000ed683398151915297918486959410620001f2575b505050811b01905562000164565b01515f1960f88460031b161c191690555f8080620001e4565b82840151895597850197928701928701620001be565b8488528688208380860160051c8201928987106200025f575b0160051c019085905b8281106200025357505062000127565b89815501859062000243565b925081926200023a565b634e487b7160e01b88526022600452602488fd5b90607f169062000115565b634e487b7160e01b87526041600452602487fd5b015190505f80620000e8565b8a8052898b208894509190601f1984168c5b8c828210620002f45750508411620002db575b505050811b018755620000fb565b01515f1960f88460031b161c191690555f8080620002cd565b8385015186558b97909501949384019301620002ba565b909150898052888a208580850160051c8201928b861062000354575b918991869594930160051c01915b82811062000345575050620000d2565b8c815585945089910162000335565b9250819262000327565b634e487b7160e01b89526022600452602489fd5b93607f1693620000bb565b634e487b7160e01b5f52604160045260245ffd5b5f80fd5b6040519190601f01601f191682016001600160401b038111838210176200037d57604052565b919080601f84011215620003915782516001600160401b0381116200037d57602090620003f1601f8201601f1916830162000395565b9281845282828701011162000391575f5b818110620004175750825f9394955001015290565b85810183015184820184015282016200040256fe6080604081815260049182361015610015575f80fd5b5f92833560e01c91826302d05d3f146108655750816306fdde0314610727578163095ea7b31461068a57816318160ddd1461064d57816323b872dd14610474578163313ce5671461043457816370a08231146103d357816395d89b41146101dc578163a9059cbb14610106575063dd62ed3e14610090575f80fd5b3461010257807ffffffffffffffffffffffffffffffffffffffffffffffffffffffffffffffffc36011261010257806020926100ca610919565b6100d2610940565b73ffffffffffffffffffffffffffffffffffffffff91821683526005865283832091168252845220549051908152f35b5080fd5b9050346101d857817ffffffffffffffffffffffffffffffffffffffffffffffffffffffffffffffffc3601126101d85760209282610142610919565b9173ffffffffffffffffffffffffffffffffffffffff602435931693610169851515610963565b33825280875261017e848484205410156109c8565b338252808752828220610192858254610a2d565b90558482528652206101a5828254610a67565b905582519081527fddf252ad1be2c89b69c2b068fc378daa952ba7f163c4a11628f55a4df523b3ef843392a35160018152f35b8280fd5b83833461010257817ffffffffffffffffffffffffffffffffffffffffffffffffffffffffffffffffc3601126101025780519082600180549081811c908083169283156103c9575b602093848410811461039d57838852879594939291811561034257506001146102c6575b50505003601f017fffffffffffffffffffffffffffffffffffffffffffffffffffffffffffffffe01682019267ffffffffffffffff84118385101761029a57508291826102969252826108b5565b0390f35b806041867f4e487b71000000000000000000000000000000000000000000000000000000006024945252fd5b8088529193925086917fb10e2d527612073b26eecdfd717e6a320cf44b4afac2b0732d9fcbe2b7fa0cf65b82841061032c57505050907fffffffffffffffffffffffffffffffffffffffffffffffffffffffffffffffe092601f92820101918193610248565b80548885018701528794509285019281016102f1565b7fffffffffffffffffffffffffffffffffffffffffffffffffffffffffffffff0016848701525050151560051b830101905081601f7fffffffffffffffffffffffffffffffffffffffffffffffffffffffffffffffe0610248565b60248960228c7f4e487b7100000000000000000000000000000000000000000000000000000000835252fd5b91607f1691610224565b9050346101d85760207ffffffffffffffffffffffffffffffffffffffffffffffffffffffffffffffffc3601126101d857602092829173ffffffffffffffffffffffffffffffffffffffff610426610919565b168252845220549051908152f35b50503461010257817ffffffffffffffffffffffffffffffffffffffffffffffffffffffffffffffffc3601126101025760209060ff600254169051908152f35b82843461064a5760607ffffffffffffffffffffffffffffffffffffffffffffffffffffffffffffffffc36011261064a576104ad610919565b6104b5610940565b73ffffffffffffffffffffffffffffffffffffffff918216916044359183156105ed5716926104e5841515610963565b8281526020958087526104fd838784205410156109c8565b838252600587528582203383528752828683205410610591579185827fddf252ad1be2c89b69c2b068fc378daa952ba7f163c4a11628f55a4df523b3ef94868a9552600585528282203383528552828220610559858254610a2d565b905586825280855282822061056f858254610a2d565b9055878252845220610582828254610a67565b90558551908152a35160018152f35b606490878751917f08c379a0000000000000000000000000000000000000000000000000000000008352820152601660248201527f496e73756666696369656e7420616c6c6f77616e6365000000000000000000006044820152fd5b60648760208851917f08c379a0000000000000000000000000000000000000000000000000000000008352820152601a60248201527f5472616e736665722066726f6d207a65726f20616464726573730000000000006044820152fd5b80fd5b50503461010257817ffffffffffffffffffffffffffffffffffffffffffffffffffffffffffffffffc360112610102576020906003549051908152f35b50503461010257807ffffffffffffffffffffffffffffffffffffffffffffffffffffffffffffffffc36011261010257602091816106c6610919565b916024359182913381526005875273ffffffffffffffffffffffffffffffffffffffff8282209516948582528752205582519081527f8c5be1e5ebec7d5bd14f71427d1e84f3dd0314c0f7b2291e5b200ac8c7c3b925843392a35160018152f35b83833461010257817ffffffffffffffffffffffffffffffffffffffffffffffffffffffffffffffffc36011261010257805190828354600181811c9080831692831561085b575b602093848410811461039d57838852879594939291811561034257506001146107df5750505003601f017fffffffffffffffffffffffffffffffffffffffffffffffffffffffffffffffe01682019267ffffffffffffffff84118385101761029a57508291826102969252826108b5565b8780529193925086917f290decd9548b62a8d60345a988386fc84ba6bc95484008f6362f93160ef3e5635b82841061084557505050907fffffffffffffffffffffffffffffffffffffffffffffffffffffffffffffffe092601f92820101918193610248565b805488850187015287945092850192810161080a565b91607f169161076e565b84903461010257817ffffffffffffffffffffffffffffffffffffffffffffffffffffffffffffffffc3601126101025760209073ffffffffffffffffffffffffffffffffffffffff600654168152f35b6020808252825181830181905293925f5b858110610905575050507fffffffffffffffffffffffffffffffffffffffffffffffffffffffffffffffe0601f845f6040809697860101520116010190565b8181018301518482016040015282016108c6565b6004359073ffffffffffffffffffffffffffffffffffffffff8216820361093c57565b5f80fd5b6024359073ffffffffffffffffffffffffffffffffffffffff8216820361093c57565b1561096a57565b60646040517f08c379a000000000000000000000000000000000000000000000000000000000815260206004820152601860248201527f5472616e7366657220746f207a65726f206164647265737300000000000000006044820152fd5b156109cf57565b60646040517f08c379a000000000000000000000000000000000000000000000000000000000815260206004820152601460248201527f496e73756666696369656e742062616c616e63650000000000000000000000006044820152fd5b91908203918211610a3a57565b7f4e487b71000000000000000000000000000000000000000000000000000000005f52601160045260245ffd5b91908201809211610a3a5756fea2646970667358221220f1f572c939c46932bc364f9f98c29a00cbf73972fa323f965e02a931638b6faf64736f6c63430008140033ddf252ad1be2c89b69c2b068fc378daa952ba7f163c4a11628f55a4df523b3ef",
  "immutableReferences": {},
  "source": "// MemeFactory.sol\n\n// SPDX-License-Identifier: MIT\npragma solidity ^0.8.20;\n\nimport \"./EchoXInterfaces.sol\"; // This is where IEchoXPoints should be defined and imported from\nimport \"@openzeppelin/contracts/token/ERC20/IERC20.sol\";\nimport \"@openzeppelin/contracts/security/ReentrancyGuard.sol\";\nimport \"./PriceTracking.sol\";\nimport \"./CommunityReactions.sol\";\n\ncontract MemeFactory is ReentrancyGuard {\n    address public owner;\n    address public echoXPoints;\n    address public constant EXTUSDT = 0x32741811ceA2B5F50F288053b90891426a11199c; // Updated address\n\n    // External contract addresses\n    IPriceTracking public priceTracker;\n    ICommunityReactions public communityReactions;\n\n    struct MemeTokenInfo {\n        address tokenAddress;\n        string name;\n        string symbol;\n        string logo;\n        address creator;\n        uint256 extusdtReserve;\n        uint256 memeReserve;\n        bool poolCreated;\n        // Community metrics will be handled by CommunityReaction.sol\n    }\n\n    MemeTokenInfo[] public memeTokens;\n\n    // Daily limits tracking\n    mapping(address => uint256) public dailyBuyAmount;\n    mapping(address => uint256) public dailySellAmount;\n    mapping(address => uint256) public lastBuyTimestamp;\n    mapping(address => uint256) public lastSellTimestamp;\n\n    // LP tracking - Fixed to be per meme pool\n    mapping(address => mapping(uint256 => uint256)) public lpTokens;\n    mapping(uint256 => uint256) public totalLpTokens; // Per meme pool tracking\n\n    // Constants\n    uint256 public constant DAILY_BUY_LIMIT_MEME = 10_000 * 10**18;\n    uint256 public constant DAILY_SELL_LIMIT_MEME = 5_000 * 10**18;\n    uint256 public constant INITIAL_MEME_SUPPLY = 100_000_000 * 10**18;\n    uint256 public constant INITIAL_POOL_EXTUSDT = 100_000_000 * 10**18;\n    uint256 public constant INITIAL_POOL_MEME = 100_000_000 * 10**18;\n    uint256 public constant SWAP_FEE_PERCENT = 3; // 0.3% fee (3/1000)\n\n    // Events\n    event MemeTokenCreated(address indexed tokenAddress, string name, string symbol, string logo, address indexed creator);\n    event MemeCreated(address indexed creator, uint256 amount);\n    event MemeTransaction(address indexed creator, uint256 amount, string txType);\n    event LiquidityPoolCreated(address indexed initiator, address indexed tokenAddress, uint256 extusdtAmount, uint256 memeAmount);\n    event LiquidityAdded(address indexed provider, address indexed tokenAddress, uint256 extusdtAmount, uint256 memeAmount);\n    event LiquidityRemoved(address indexed provider, address indexed tokenAddress, uint256 extusdtAmount, uint256 memeAmount);\n    event TokenSwap(address indexed user, address indexed tokenAddress, uint256 amountIn, uint256 amountOut, bool isExtusdtToMeme);\n    event MemeReactionUpdated(uint256 indexed memeIndex, bool isUpvote, bool isComment, bool isEmoji, uint256 timestamp);\n\n    modifier onlyOwner() {\n        require(msg.sender == owner, \"Not authorized\");\n        _;\n    }\n\n    modifier validMemeIndex(uint256 memeIndex) {\n        require(memeIndex < memeTokens.length, \"Invalid meme index\");\n        _;\n    }\n\n    constructor(address _echoXPoints, address _priceTracker, address _communityReactions) {\n        echoXPoints = _echoXPoints;\n        owner = msg.sender;\n        priceTracker = IPriceTracking(_priceTracker);\n        communityReactions = ICommunityReactions(_communityReactions);\n    }\n\n    function updatePointsContract(address _newPointsAddress) external onlyOwner {\n        echoXPoints = _newPointsAddress;\n    }\n\n    function updatePriceTrackerContract(address _newPriceTrackerAddress) external onlyOwner {\n        priceTracker = IPriceTracking(_newPriceTrackerAddress);\n    }\n\n    function updateCommunityReactionsContract(address _newCommunityReactionsAddress) external onlyOwner {\n        communityReactions = ICommunityReactions(_newCommunityReactionsAddress);\n    }\n\n    // ========== COMMUNITY REACTION CALLBACK ==========\n    function updateMemeReactionStats(uint256 memeIndex, bool isUpvote, bool isComment, bool isEmoji) external {\n        // Verify caller is the authorized community reactions contract\n        require(msg.sender == address(communityReactions), \"Only CommunityReactions can call this\");\n        require(memeIndex < memeTokens.length, \"Invalid meme index\");\n        \n        // Log the reaction for tracking/analytics\n        emit MemeReactionUpdated(memeIndex, isUpvote, isComment, isEmoji, block.timestamp);\n        \n        // Optional: You can add more logic here to track reaction stats if needed\n        // For example, you could update internal counters or reward systems\n    }\n\n    function createMemeToken(\n        string memory _name,\n        string memory _symbol,\n        string memory _logo\n    ) external returns (address) {\n        // Deploy new MemeToken contract\n        MemeToken newToken = new MemeToken(_name, _symbol, msg.sender, INITIAL_MEME_SUPPLY);\n        address tokenAddress = address(newToken);\n\n        MemeTokenInfo memory newTokenInfo = MemeTokenInfo({\n            tokenAddress: tokenAddress,\n            name: _name,\n            symbol: _symbol,\n            logo: _logo,\n            creator: msg.sender,\n            extusdtReserve: 0,\n            memeReserve: 0,\n            poolCreated: false\n        });\n\n        memeTokens.push(newTokenInfo);\n\n        // Try to record meme creation in points system\n        try IEchoXPoints(echoXPoints).recordMemeCreation(msg.sender) {\n        } catch {\n            // Silent failure - points system might not be available\n        }\n\n        emit MemeTokenCreated(tokenAddress, _name, _symbol, _logo, msg.sender);\n        emit MemeCreated(msg.sender, INITIAL_MEME_SUPPLY);\n\n        return tokenAddress;\n    }\n\n    function createLiquidityPool(uint256 memeIndex) external nonReentrant validMemeIndex(memeIndex) {\n        MemeTokenInfo storage memeToken = memeTokens[memeIndex];\n        require(!memeToken.poolCreated, \"Pool already created\");\n\n        // Transfer tokens from user to contract\n        require(IERC20(EXTUSDT).transferFrom(msg.sender, address(this), INITIAL_POOL_EXTUSDT), \"EXTUSDT transfer failed\");\n        require(IERC20(memeToken.tokenAddress).transferFrom(msg.sender, address(this), INITIAL_POOL_MEME), \"Meme token transfer failed\");\n\n        // Update pool reserves\n        memeToken.extusdtReserve = INITIAL_POOL_EXTUSDT;\n        memeToken.memeReserve = INITIAL_POOL_MEME;\n        memeToken.poolCreated = true;\n\n        // Mint initial LP tokens\n        uint256 lpTokenAmount = 100 * 10**18; // Fixed initial LP amount\n        lpTokens[msg.sender][memeIndex] += lpTokenAmount;\n        totalLpTokens[memeIndex] += lpTokenAmount; // Per-pool tracking\n\n        // Try to record pool creation in points system\n        try IEchoXPoints(echoXPoints).recordPoolCreation(msg.sender) {\n        } catch {\n            // Silent failure\n        }\n\n        emit LiquidityPoolCreated(msg.sender, memeToken.tokenAddress, INITIAL_POOL_EXTUSDT, INITIAL_POOL_MEME);\n        \n        // Initialize price tracking\n        priceTracker.initializePriceTracking(memeIndex, INITIAL_MEME_SUPPLY, INITIAL_POOL_EXTUSDT, INITIAL_POOL_MEME);\n    }\n\n    function addLiquidity(uint256 memeIndex, uint256 extusdtAmount) external nonReentrant validMemeIndex(memeIndex) {\n        MemeTokenInfo storage memeToken = memeTokens[memeIndex];\n        require(memeToken.poolCreated, \"Pool not created yet\");\n\n        // Calculate proportional meme amount\n        uint256 memeAmount = (extusdtAmount * memeToken.memeReserve) / memeToken.extusdtReserve;\n\n        // Store old reserves for LP calculation\n        uint256 oldExtusdtReserve = memeToken.extusdtReserve;\n        uint256 oldTotalLp = totalLpTokens[memeIndex];\n\n        // Transfer tokens\n        require(IERC20(EXTUSDT).transferFrom(msg.sender, address(this), extusdtAmount), \"EXTUSDT transfer failed\");\n        require(IERC20(memeToken.tokenAddress).transferFrom(msg.sender, address(this), memeAmount), \"Meme token transfer failed\");\n\n        // Update reserves\n        memeToken.extusdtReserve += extusdtAmount;\n        memeToken.memeReserve += memeAmount;\n\n        // Calculate LP tokens using old reserves (before update)\n        uint256 lpTokenAmount = (extusdtAmount * oldTotalLp) / oldExtusdtReserve;\n        lpTokens[msg.sender][memeIndex] += lpTokenAmount;\n        totalLpTokens[memeIndex] += lpTokenAmount;\n\n        // Try to record LP participation\n        try IEchoXPoints(echoXPoints).recordLpParticipation(msg.sender, address(this)) {\n        } catch {\n            // Silent failure\n        }\n\n        emit LiquidityAdded(msg.sender, memeToken.tokenAddress, extusdtAmount, memeAmount);\n\n        // Update price tracking\n        priceTracker.updateLiquidity(memeIndex, memeToken.extusdtReserve * 2);\n    }\n\n    function removeLiquidity(uint256 memeIndex, uint256 lpAmount) external nonReentrant validMemeIndex(memeIndex) {\n        MemeTokenInfo storage memeToken = memeTokens[memeIndex];\n        require(memeToken.poolCreated, \"Pool not created yet\");\n        require(lpTokens[msg.sender][memeIndex] >= lpAmount, \"Insufficient LP tokens\");\n\n        uint256 totalLp = totalLpTokens[memeIndex];\n        require(totalLp > 0, \"No liquidity\");\n\n        // Calculate proportional amounts\n        uint256 extusdtAmount = (lpAmount * memeToken.extusdtReserve) / totalLp;\n        uint256 memeAmount = (lpAmount * memeToken.memeReserve) / totalLp;\n\n        // Update LP tracking\n        lpTokens[msg.sender][memeIndex] -= lpAmount;\n        totalLpTokens[memeIndex] -= lpAmount;\n\n        // Update reserves\n        memeToken.extusdtReserve -= extusdtAmount;\n        memeToken.memeReserve -= memeAmount;\n\n        // Transfer tokens back to user\n        require(IERC20(EXTUSDT).transfer(msg.sender, extusdtAmount), \"EXTUSDT transfer failed\");\n        require(IERC20(memeToken.tokenAddress).transfer(msg.sender, memeAmount), \"Meme token transfer failed\");\n\n        emit LiquidityRemoved(msg.sender, memeToken.tokenAddress, extusdtAmount, memeAmount);\n\n        // Update price tracking\n        priceTracker.updateLiquidity(memeIndex, memeToken.extusdtReserve * 2);\n    }\n\n    function swapExtusdtForMeme(uint256 memeIndex, uint256 extusdtAmount, uint256 minMemeOut) external nonReentrant validMemeIndex(memeIndex) {\n        MemeTokenInfo storage memeToken = memeTokens[memeIndex];\n        require(memeToken.poolCreated, \"Pool not created yet\");\n\n        // Check daily limits\n        uint256 expectedMemeOutWithoutSlippage = (memeToken.memeReserve * extusdtAmount) / (memeToken.extusdtReserve + extusdtAmount);\n        if (block.timestamp / 1 days != lastBuyTimestamp[msg.sender] / 1 days) {\n            dailyBuyAmount[msg.sender] = 0;\n            lastBuyTimestamp[msg.sender] = block.timestamp;\n        }\n        require(dailyBuyAmount[msg.sender] + expectedMemeOutWithoutSlippage <= DAILY_BUY_LIMIT_MEME, \"Daily buy limit exceeded\");\n\n        // Calculate fee (0.3% = 3/1000)\n        uint256 fee = (extusdtAmount * SWAP_FEE_PERCENT) / 1000;\n        uint256 extusdtAmountAfterFee = extusdtAmount - fee;\n\n        // Calculate output using constant product formula\n        uint256 memeOutput = (memeToken.memeReserve * extusdtAmountAfterFee) / (memeToken.extusdtReserve + extusdtAmountAfterFee);\n        require(memeOutput >= minMemeOut, \"Slippage too high\");\n\n        // Transfer EXTUSDT from user\n        require(IERC20(EXTUSDT).transferFrom(msg.sender, address(this), extusdtAmount), \"EXTUSDT transfer failed\");\n\n        // Update reserves\n        memeToken.extusdtReserve += extusdtAmountAfterFee;\n        memeToken.memeReserve -= memeOutput;\n\n        // Transfer meme tokens to user\n        require(IERC20(memeToken.tokenAddress).transfer(msg.sender, memeOutput), \"Meme token transfer failed\");\n\n        // Update daily tracking\n        dailyBuyAmount[msg.sender] += memeOutput;\n\n        // Try to record transactions in points system\n        try IEchoXPoints(echoXPoints).recordMemeTransaction(memeToken.creator) {\n        } catch {\n        }\n\n        try IEchoXPoints(echoXPoints).recordDailySwap(msg.sender) {\n        } catch {\n        }\n\n        emit TokenSwap(msg.sender, memeToken.tokenAddress, extusdtAmount, memeOutput, true);\n        emit MemeTransaction(memeToken.creator, memeOutput, \"buy\");\n        \n        // Update price tracking\n        priceTracker.updatePriceTracking(memeIndex, extusdtAmount, true);\n    }\n\n    function swapMemeForExtusdt(uint256 memeIndex, uint256 memeAmount, uint256 minExtusdtOut) external nonReentrant validMemeIndex(memeIndex) {\n        MemeTokenInfo storage memeToken = memeTokens[memeIndex];\n        require(memeToken.poolCreated, \"Pool not created yet\");\n\n        // Check daily limits\n        if (block.timestamp / 1 days != lastSellTimestamp[msg.sender] / 1 days) {\n            dailySellAmount[msg.sender] = 0;\n            lastSellTimestamp[msg.sender] = block.timestamp;\n        }\n        require(dailySellAmount[msg.sender] + memeAmount <= DAILY_SELL_LIMIT_MEME, \"Daily sell limit exceeded\");\n\n        // Calculate fee (0.3% = 3/1000)\n        uint256 fee = (memeAmount * SWAP_FEE_PERCENT) / 1000;\n        uint256 memeAmountAfterFee = memeAmount - fee;\n\n        // Calculate output using constant product formula\n        uint256 extusdtOutput = (memeToken.extusdtReserve * memeAmountAfterFee) / (memeToken.memeReserve + memeAmountAfterFee);\n        require(extusdtOutput >= minExtusdtOut, \"Slippage too high\");\n\n        // Transfer meme tokens from user\n        require(IERC20(memeToken.tokenAddress).transferFrom(msg.sender, address(this), memeAmount), \"Meme token transfer failed\");\n\n        // Update reserves\n        memeToken.memeReserve += memeAmountAfterFee;\n        memeToken.extusdtReserve -= extusdtOutput;\n\n        // Transfer EXTUSDT to user\n        require(IERC20(EXTUSDT).transfer(msg.sender, extusdtOutput), \"EXTUSDT transfer failed\");\n\n        // Update daily tracking\n        dailySellAmount[msg.sender] += memeAmount;\n\n        // Try to record transactions in points system\n        try IEchoXPoints(echoXPoints).recordMemeTransaction(memeToken.creator) {\n        } catch {\n        }\n\n        try IEchoXPoints(echoXPoints).recordDailySwap(msg.sender) {\n        } catch {\n        }\n\n        emit TokenSwap(msg.sender, memeToken.tokenAddress, memeAmount, extusdtOutput, false);\n        emit MemeTransaction(memeToken.creator, memeAmount, \"sell\");\n        \n        // Update price tracking\n        priceTracker.updatePriceTracking(memeIndex, memeAmount, false);\n    }\n\n    // ========== VIEW FUNCTIONS ==========\n\n    function getMemeTokenAddress(uint256 memeIndex) external view validMemeIndex(memeIndex) returns (address) {\n        return memeTokens[memeIndex].tokenAddress;\n    }\n\n    function getMemePrice(uint256 memeIndex) external view validMemeIndex(memeIndex) returns (uint256) {\n        MemeTokenInfo storage memeToken = memeTokens[memeIndex];\n\n        if (!memeToken.poolCreated || memeToken.memeReserve == 0) {\n            return 0;\n        }\n\n        return (memeToken.extusdtReserve * 10**18) / memeToken.memeReserve;\n    }\n\n    function getAmountOut(uint256 memeIndex, uint256 amountIn, bool isExtusdtToMeme) external view validMemeIndex(memeIndex) returns (uint256) {\n        MemeTokenInfo storage memeToken = memeTokens[memeIndex];\n\n        if (!memeToken.poolCreated) {\n            return 0;\n        }\n\n        uint256 fee = (amountIn * SWAP_FEE_PERCENT) / 1000;\n        uint256 amountInAfterFee = amountIn - fee;\n\n        if (isExtusdtToMeme) {\n            return (memeToken.memeReserve * amountInAfterFee) / (memeToken.extusdtReserve + amountInAfterFee);\n        } else {\n            return (memeToken.extusdtReserve * amountInAfterFee) / (memeToken.memeReserve + amountInAfterFee);\n        }\n    }\n\n    function getUserLpTokens(address user, uint256 memeIndex) external view validMemeIndex(memeIndex) returns (uint256) {\n        return lpTokens[user][memeIndex];\n    }\n\n    function getTotalLpTokens(uint256 memeIndex) external view validMemeIndex(memeIndex) returns (uint256) {\n        return totalLpTokens[memeIndex];\n    }\n\n    function getPoolReserves(uint256 memeIndex) external view validMemeIndex(memeIndex) returns (uint256 extusdtReserve, uint256 memeReserve) {\n        MemeTokenInfo storage memeToken = memeTokens[memeIndex];\n        return (memeToken.extusdtReserve, memeToken.memeReserve);\n    }\n\n    function getMemeTokenCount() external view returns (uint256) {\n        return memeTokens.length;\n    }\n\n    function getMemeToken(uint256 index) external view returns (\n        address tokenAddress,\n        string memory name,\n        string memory symbol,\n        string memory logo,\n        address creator,\n        bool poolCreated\n    ) {\n        require(index < memeTokens.length, \"Index out of bounds\");\n        MemeTokenInfo storage m = memeTokens[index];\n        return (m.tokenAddress, m.name, m.symbol, m.logo, m.creator, m.poolCreated);\n    }\n\n    function getUserDailyLimits(address user) external view returns (\n        uint256 buyAmount,\n        uint256 sellAmount,\n        uint256 buyLimit,\n        uint256 sellLimit\n    ) {\n        if (block.timestamp / 1 days != lastBuyTimestamp[user] / 1 days) {\n            buyAmount = 0;\n        } else {\n            buyAmount = dailyBuyAmount[user];\n        }\n\n        if (block.timestamp / 1 days != lastSellTimestamp[user] / 1 days) {\n            sellAmount = 0;\n        } else {\n            sellAmount = dailySellAmount[user];\n        }\n\n        return (buyAmount, sellAmount, DAILY_BUY_LIMIT_MEME, DAILY_SELL_LIMIT_MEME);\n    }\n}\n\n// Interfaces for imported contracts\ninterface IPriceTracking {\n    function initializePriceTracking(uint256 memeIndex, uint256 totalMemeSupply, uint256 initialExtusdtReserve, uint256 initialMemeReserve) external;\n    function updatePriceTracking(uint256 memeIndex, uint256 tradeVolume, bool isBuy) external;\n    function updateLiquidity(uint256 memeIndex, uint256 totalLiquidity) external;\n}\n\ninterface ICommunityReactions {\n    function getMemeTokenCount() external view returns (uint256);\n}\n\n// ERC20 compliant MemeToken implementation\ncontract MemeToken is IERC20 {\n    string public name;\n    string public symbol;\n    uint8 public decimals = 18;\n    uint256 public totalSupply;\n\n    mapping(address => uint256) public balanceOf;\n    mapping(address => mapping(address => uint256)) public allowance;\n\n    address public creator;\n\n    constructor(string memory _name, string memory _symbol, address _creator, uint256 _initialSupply) {\n        name = _name;\n        symbol = _symbol;\n        creator = _creator;\n        totalSupply = _initialSupply;\n        balanceOf[_creator] = _initialSupply;\n        emit Transfer(address(0), _creator, _initialSupply);\n    }\n\n    function transfer(address to, uint256 amount) external override returns (bool) {\n        require(to != address(0), \"Transfer to zero address\");\n        require(balanceOf[msg.sender] >= amount, \"Insufficient balance\");\n\n        balanceOf[msg.sender] -= amount;\n        balanceOf[to] += amount;\n\n        emit Transfer(msg.sender, to, amount);\n        return true;\n    }\n\n    function approve(address spender, uint256 amount) public override returns (bool) {\n        allowance[msg.sender][spender] = amount;\n        emit Approval(msg.sender, spender, amount);\n        return true;\n    }\n\n    function transferFrom(address from, address to, uint256 amount) external override returns (bool) {\n        require(from != address(0), \"Transfer from zero address\");\n        require(to != address(0), \"Transfer to zero address\");\n        require(balanceOf[from] >= amount, \"Insufficient balance\");\n        require(allowance[from][msg.sender] >= amount, \"Insufficient allowance\");\n\n        allowance[from][msg.sender] -= amount;\n        balanceOf[from] -= amount;\n        balanceOf[to] += amount;\n\n        emit Transfer(from, to, amount);\n        return true;\n    }\n}",
  "sourcePath": "/workspaces/echoX-nft/echoX-nft/contracts/MemeFactory.sol",
  "compiler": {
    "name": "solc",
    "version": "0.8.20+commit.a1b79de6.Emscripten.clang"
  },
  "schemaVersion": "3.4.16",
  "updatedAt": "2025-06-12T07:50:04.513Z",
  "devdoc": {
    "events": {
      "Approval(address,address,uint256)": {
        "details": "Emitted when the allowance of a `spender` for an `owner` is set by a call to {approve}. `value` is the new allowance."
      },
      "Transfer(address,address,uint256)": {
        "details": "Emitted when `value` tokens are moved from one account (`from`) to another (`to`). Note that `value` may be zero."
      }
    },
    "kind": "dev",
    "methods": {
      "approve(address,uint256)": {
        "details": "Sets `amount` as the allowance of `spender` over the caller's tokens. Returns a boolean value indicating whether the operation succeeded. IMPORTANT: Beware that changing an allowance with this method brings the risk that someone may use both the old and the new allowance by unfortunate transaction ordering. One possible solution to mitigate this race condition is to first reduce the spender's allowance to 0 and set the desired value afterwards: https://github.com/ethereum/EIPs/issues/20#issuecomment-263524729 Emits an {Approval} event."
      },
      "transfer(address,uint256)": {
        "details": "Moves `amount` tokens from the caller's account to `to`. Returns a boolean value indicating whether the operation succeeded. Emits a {Transfer} event."
      },
      "transferFrom(address,address,uint256)": {
        "details": "Moves `amount` tokens from `from` to `to` using the allowance mechanism. `amount` is then deducted from the caller's allowance. Returns a boolean value indicating whether the operation succeeded. Emits a {Transfer} event."
      }
    },
    "stateVariables": {
      "allowance": {
        "details": "Returns the remaining number of tokens that `spender` will be allowed to spend on behalf of `owner` through {transferFrom}. This is zero by default. This value changes when {approve} or {transferFrom} are called."
      },
      "balanceOf": {
        "details": "Returns the amount of tokens owned by `account`."
      },
      "totalSupply": {
        "details": "Returns the amount of tokens in existence."
      }
    },
    "version": 1
  },
  "userdoc": {
    "kind": "user",
    "methods": {},
    "version": 1
  }
}