{
  "contractName": "PriceTracking",
  "abi": [
    {
      "inputs": [
        {
          "internalType": "address",
          "name": "_memeFactory",
          "type": "address"
        }
      ],
      "stateMutability": "nonpayable",
      "type": "constructor"
    },
    {
      "anonymous": false,
      "inputs": [
        {
          "indexed": true,
          "internalType": "uint256",
          "name": "memeIndex",
          "type": "uint256"
        },
        {
          "indexed": true,
          "internalType": "uint256",
          "name": "day",
          "type": "uint256"
        },
        {
          "indexed": false,
          "internalType": "uint256",
          "name": "price",
          "type": "uint256"
        },
        {
          "indexed": false,
          "internalType": "uint256",
          "name": "totalVolume",
          "type": "uint256"
        }
      ],
      "name": "DailyPriceUpdated",
      "type": "event"
    },
    {
      "anonymous": false,
      "inputs": [
        {
          "indexed": true,
          "internalType": "uint256",
          "name": "memeIndex",
          "type": "uint256"
        },
        {
          "indexed": false,
          "internalType": "uint256",
          "name": "price",
          "type": "uint256"
        },
        {
          "indexed": false,
          "internalType": "uint256",
          "name": "timestamp",
          "type": "uint256"
        },
        {
          "indexed": false,
          "internalType": "uint256",
          "name": "volume",
          "type": "uint256"
        },
        {
          "indexed": false,
          "internalType": "uint256",
          "name": "liquidity",
          "type": "uint256"
        }
      ],
      "name": "PriceUpdated",
      "type": "event"
    },
    {
      "anonymous": false,
      "inputs": [
        {
          "indexed": true,
          "internalType": "uint256",
          "name": "memeIndex",
          "type": "uint256"
        },
        {
          "indexed": false,
          "internalType": "uint256",
          "name": "price",
          "type": "uint256"
        },
        {
          "indexed": false,
          "internalType": "uint256",
          "name": "volume",
          "type": "uint256"
        },
        {
          "indexed": false,
          "internalType": "bool",
          "name": "isBuy",
          "type": "bool"
        },
        {
          "indexed": false,
          "internalType": "uint256",
          "name": "timestamp",
          "type": "uint256"
        }
      ],
      "name": "TradeEvent",
      "type": "event"
    },
    {
      "anonymous": false,
      "inputs": [
        {
          "indexed": true,
          "internalType": "uint256",
          "name": "memeIndex",
          "type": "uint256"
        },
        {
          "indexed": false,
          "internalType": "uint256",
          "name": "volume24h",
          "type": "uint256"
        },
        {
          "indexed": false,
          "internalType": "uint256",
          "name": "trades24h",
          "type": "uint256"
        },
        {
          "indexed": false,
          "internalType": "uint256",
          "name": "high24h",
          "type": "uint256"
        },
        {
          "indexed": false,
          "internalType": "uint256",
          "name": "low24h",
          "type": "uint256"
        }
      ],
      "name": "TradingMetricsUpdated",
      "type": "event"
    },
    {
      "inputs": [],
      "name": "INITIAL_MEME_SUPPLY",
      "outputs": [
        {
          "internalType": "uint256",
          "name": "",
          "type": "uint256"
        }
      ],
      "stateMutability": "view",
      "type": "function",
      "constant": true
    },
    {
      "inputs": [],
      "name": "MAX_PRICE_POINTS",
      "outputs": [
        {
          "internalType": "uint256",
          "name": "",
          "type": "uint256"
        }
      ],
      "stateMutability": "view",
      "type": "function",
      "constant": true
    },
    {
      "inputs": [],
      "name": "PRICE_UPDATE_INTERVAL",
      "outputs": [
        {
          "internalType": "uint256",
          "name": "",
          "type": "uint256"
        }
      ],
      "stateMutability": "view",
      "type": "function",
      "constant": true
    },
    {
      "inputs": [
        {
          "internalType": "uint256",
          "name": "",
          "type": "uint256"
        },
        {
          "internalType": "uint256",
          "name": "",
          "type": "uint256"
        }
      ],
      "name": "dailyAveragePrice",
      "outputs": [
        {
          "internalType": "uint256",
          "name": "",
          "type": "uint256"
        }
      ],
      "stateMutability": "view",
      "type": "function",
      "constant": true
    },
    {
      "inputs": [
        {
          "internalType": "uint256",
          "name": "",
          "type": "uint256"
        },
        {
          "internalType": "uint256",
          "name": "",
          "type": "uint256"
        }
      ],
      "name": "dailyVolume",
      "outputs": [
        {
          "internalType": "uint256",
          "name": "",
          "type": "uint256"
        }
      ],
      "stateMutability": "view",
      "type": "function",
      "constant": true
    },
    {
      "inputs": [
        {
          "internalType": "uint256",
          "name": "",
          "type": "uint256"
        },
        {
          "internalType": "uint256",
          "name": "",
          "type": "uint256"
        }
      ],
      "name": "dailyVolumes30d",
      "outputs": [
        {
          "internalType": "uint256",
          "name": "",
          "type": "uint256"
        }
      ],
      "stateMutability": "view",
      "type": "function",
      "constant": true
    },
    {
      "inputs": [
        {
          "internalType": "uint256",
          "name": "",
          "type": "uint256"
        },
        {
          "internalType": "uint256",
          "name": "",
          "type": "uint256"
        }
      ],
      "name": "dailyVolumes7d",
      "outputs": [
        {
          "internalType": "uint256",
          "name": "",
          "type": "uint256"
        }
      ],
      "stateMutability": "view",
      "type": "function",
      "constant": true
    },
    {
      "inputs": [
        {
          "internalType": "uint256",
          "name": "",
          "type": "uint256"
        },
        {
          "internalType": "uint256",
          "name": "",
          "type": "uint256"
        }
      ],
      "name": "hourlyAveragePrice",
      "outputs": [
        {
          "internalType": "uint256",
          "name": "",
          "type": "uint256"
        }
      ],
      "stateMutability": "view",
      "type": "function",
      "constant": true
    },
    {
      "inputs": [
        {
          "internalType": "uint256",
          "name": "",
          "type": "uint256"
        },
        {
          "internalType": "uint256",
          "name": "",
          "type": "uint256"
        }
      ],
      "name": "hourlyVolume",
      "outputs": [
        {
          "internalType": "uint256",
          "name": "",
          "type": "uint256"
        }
      ],
      "stateMutability": "view",
      "type": "function",
      "constant": true
    },
    {
      "inputs": [
        {
          "internalType": "uint256",
          "name": "",
          "type": "uint256"
        }
      ],
      "name": "latestPrice",
      "outputs": [
        {
          "internalType": "uint256",
          "name": "",
          "type": "uint256"
        }
      ],
      "stateMutability": "view",
      "type": "function",
      "constant": true
    },
    {
      "inputs": [
        {
          "internalType": "uint256",
          "name": "",
          "type": "uint256"
        }
      ],
      "name": "latestTimestamp",
      "outputs": [
        {
          "internalType": "uint256",
          "name": "",
          "type": "uint256"
        }
      ],
      "stateMutability": "view",
      "type": "function",
      "constant": true
    },
    {
      "inputs": [],
      "name": "memeFactory",
      "outputs": [
        {
          "internalType": "address",
          "name": "",
          "type": "address"
        }
      ],
      "stateMutability": "view",
      "type": "function",
      "constant": true
    },
    {
      "inputs": [
        {
          "internalType": "uint256",
          "name": "",
          "type": "uint256"
        },
        {
          "internalType": "uint256",
          "name": "",
          "type": "uint256"
        }
      ],
      "name": "priceHistory",
      "outputs": [
        {
          "internalType": "uint256",
          "name": "timestamp",
          "type": "uint256"
        },
        {
          "internalType": "uint256",
          "name": "price",
          "type": "uint256"
        },
        {
          "internalType": "uint256",
          "name": "volume24h",
          "type": "uint256"
        },
        {
          "internalType": "uint256",
          "name": "marketCap",
          "type": "uint256"
        },
        {
          "internalType": "uint256",
          "name": "liquidity",
          "type": "uint256"
        }
      ],
      "stateMutability": "view",
      "type": "function",
      "constant": true
    },
    {
      "inputs": [
        {
          "internalType": "uint256",
          "name": "",
          "type": "uint256"
        }
      ],
      "name": "tradingMetrics",
      "outputs": [
        {
          "internalType": "uint256",
          "name": "totalVolume",
          "type": "uint256"
        },
        {
          "internalType": "uint256",
          "name": "volume24h",
          "type": "uint256"
        },
        {
          "internalType": "uint256",
          "name": "trades24h",
          "type": "uint256"
        },
        {
          "internalType": "uint256",
          "name": "lastTradeTimestamp",
          "type": "uint256"
        },
        {
          "internalType": "uint256",
          "name": "highPrice24h",
          "type": "uint256"
        },
        {
          "internalType": "uint256",
          "name": "lowPrice24h",
          "type": "uint256"
        },
        {
          "internalType": "uint256",
          "name": "openPrice24h",
          "type": "uint256"
        }
      ],
      "stateMutability": "view",
      "type": "function",
      "constant": true
    },
    {
      "inputs": [
        {
          "internalType": "address",
          "name": "_newMemeFactory",
          "type": "address"
        }
      ],
      "name": "updateMemeFactory",
      "outputs": [],
      "stateMutability": "nonpayable",
      "type": "function"
    },
    {
      "inputs": [
        {
          "internalType": "uint256",
          "name": "memeIndex",
          "type": "uint256"
        },
        {
          "internalType": "uint256",
          "name": "totalMemeSupply",
          "type": "uint256"
        },
        {
          "internalType": "uint256",
          "name": "initialExtusdtReserve",
          "type": "uint256"
        },
        {
          "internalType": "uint256",
          "name": "initialMemeReserve",
          "type": "uint256"
        }
      ],
      "name": "initializePriceTracking",
      "outputs": [],
      "stateMutability": "nonpayable",
      "type": "function"
    },
    {
      "inputs": [
        {
          "internalType": "uint256",
          "name": "memeIndex",
          "type": "uint256"
        },
        {
          "internalType": "uint256",
          "name": "tradeVolume",
          "type": "uint256"
        },
        {
          "internalType": "bool",
          "name": "isBuy",
          "type": "bool"
        }
      ],
      "name": "updatePriceTracking",
      "outputs": [],
      "stateMutability": "nonpayable",
      "type": "function"
    },
    {
      "inputs": [
        {
          "internalType": "uint256",
          "name": "memeIndex",
          "type": "uint256"
        },
        {
          "internalType": "uint256",
          "name": "totalLiquidity",
          "type": "uint256"
        }
      ],
      "name": "updateLiquidity",
      "outputs": [],
      "stateMutability": "nonpayable",
      "type": "function"
    },
    {
      "inputs": [
        {
          "internalType": "uint256",
          "name": "memeIndex",
          "type": "uint256"
        },
        {
          "internalType": "uint256",
          "name": "fromTimestamp",
          "type": "uint256"
        },
        {
          "internalType": "uint256",
          "name": "toTimestamp",
          "type": "uint256"
        },
        {
          "internalType": "uint256",
          "name": "maxPoints",
          "type": "uint256"
        }
      ],
      "name": "getPriceHistory",
      "outputs": [
        {
          "internalType": "uint256[]",
          "name": "timestamps",
          "type": "uint256[]"
        },
        {
          "internalType": "uint256[]",
          "name": "prices",
          "type": "uint256[]"
        },
        {
          "internalType": "uint256[]",
          "name": "volumes",
          "type": "uint256[]"
        },
        {
          "internalType": "uint256[]",
          "name": "marketCaps",
          "type": "uint256[]"
        },
        {
          "internalType": "uint256[]",
          "name": "liquidities",
          "type": "uint256[]"
        }
      ],
      "stateMutability": "view",
      "type": "function",
      "constant": true
    },
    {
      "inputs": [
        {
          "internalType": "uint256",
          "name": "memeIndex",
          "type": "uint256"
        }
      ],
      "name": "getLatestPriceData",
      "outputs": [
        {
          "internalType": "uint256",
          "name": "currentPrice",
          "type": "uint256"
        },
        {
          "internalType": "int256",
          "name": "priceChange24h",
          "type": "int256"
        },
        {
          "internalType": "uint256",
          "name": "volume24h",
          "type": "uint256"
        },
        {
          "internalType": "uint256",
          "name": "marketCap",
          "type": "uint256"
        },
        {
          "internalType": "uint256",
          "name": "liquidity",
          "type": "uint256"
        }
      ],
      "stateMutability": "view",
      "type": "function",
      "constant": true
    },
    {
      "inputs": [
        {
          "internalType": "uint256",
          "name": "memeIndex",
          "type": "uint256"
        },
        {
          "internalType": "uint256",
          "name": "day",
          "type": "uint256"
        }
      ],
      "name": "getDailyAveragePrice",
      "outputs": [
        {
          "internalType": "uint256",
          "name": "",
          "type": "uint256"
        }
      ],
      "stateMutability": "view",
      "type": "function",
      "constant": true
    },
    {
      "inputs": [
        {
          "internalType": "uint256",
          "name": "memeIndex",
          "type": "uint256"
        },
        {
          "internalType": "uint256",
          "name": "hour",
          "type": "uint256"
        }
      ],
      "name": "getHourlyAveragePrice",
      "outputs": [
        {
          "internalType": "uint256",
          "name": "",
          "type": "uint256"
        }
      ],
      "stateMutability": "view",
      "type": "function",
      "constant": true
    },
    {
      "inputs": [
        {
          "internalType": "uint256",
          "name": "memeIndex",
          "type": "uint256"
        },
        {
          "internalType": "uint256",
          "name": "day",
          "type": "uint256"
        }
      ],
      "name": "getPrice7d",
      "outputs": [
        {
          "internalType": "uint256",
          "name": "",
          "type": "uint256"
        }
      ],
      "stateMutability": "view",
      "type": "function",
      "constant": true
    },
    {
      "inputs": [
        {
          "internalType": "uint256",
          "name": "memeIndex",
          "type": "uint256"
        },
        {
          "internalType": "uint256",
          "name": "day",
          "type": "uint256"
        }
      ],
      "name": "getPrice30d",
      "outputs": [
        {
          "internalType": "uint256",
          "name": "",
          "type": "uint256"
        }
      ],
      "stateMutability": "view",
      "type": "function",
      "constant": true
    },
    {
      "inputs": [
        {
          "internalType": "uint256",
          "name": "memeIndex",
          "type": "uint256"
        }
      ],
      "name": "getLastNDaysPrices7d",
      "outputs": [
        {
          "internalType": "uint256[]",
          "name": "prices",
          "type": "uint256[]"
        }
      ],
      "stateMutability": "view",
      "type": "function",
      "constant": true
    },
    {
      "inputs": [
        {
          "internalType": "uint256",
          "name": "memeIndex",
          "type": "uint256"
        }
      ],
      "name": "getLastNDaysPrices30d",
      "outputs": [
        {
          "internalType": "uint256[]",
          "name": "prices",
          "type": "uint256[]"
        }
      ],
      "stateMutability": "view",
      "type": "function",
      "constant": true
    }
  ],
  "bytecode": "0x60803461007457601f61216138819003918201601f19168301916001600160401b038311848410176100785780849260209460405283398101031261007457516001600160a01b0381169081900361007457600680546001600160a01b0319169190911790556040516120d4908161008d8239f35b5f80fd5b634e487b7160e01b5f52604160045260245ffdfe60806040526004361015610011575f80fd5b5f3560e01c8063174ed5cc146101aa5780631a216534146101a55780631f7236d5146101a05780633a1e20291461019b578063482f20a6146101965780634d114b49146101505780634de71620146101915780635360e9e81461018c57806355e07fbc146101875780635dd6742c146101825780636326c88b1461017d57806369769501146101785780636aaac50e146101735780636d6f625e1461016e5780636f4ed8391461015a5780637ae53e681461016957806388c4303714610164578063c12f35331461015f578063ceb91a621461015a578063d6913c0714610155578063d802252214610150578063e8b5565b1461014b578063edd11a1a14610146578063ee937e8214610141578063f837376c1461013c5763fa754ffc14610137575f80fd5b61101c565b610fd9565b610f9f565b610f16565b610ec2565b6104e0565b610e7a565b610cbf565b610dbb565b610d67565b610d13565b610c85565b610a15565b61096d565b610919565b61088f565b6107d0565b6106ef565b61057b565b61044e565b6103b2565b6102f7565b6101f6565b346101f25760207ffffffffffffffffffffffffffffffffffffffffffffffffffffffffffffffffc3601126101f2576004355f526009602052602060405f2054604051908152f35b5f80fd5b346101f25760207ffffffffffffffffffffffffffffffffffffffffffffffffffffffffffffffffc3601126101f25760048035602073ffffffffffffffffffffffffffffffffffffffff60065416604051938480927fc77031b40000000000000000000000000000000000000000000000000000000082525afa9081156102f257610291610296926102c0945f916102c4575b50821061146c565b612009565b604080519586526020860194909452928401919091526060830152608082015290819060a0820190565b0390f35b6102e5915060203d81116102eb575b6102dd8183611344565b810190611452565b5f610289565b503d6102d3565b611461565b346101f25760607ffffffffffffffffffffffffffffffffffffffffffffffffffffffffffffffffc3601126101f25760043560443580151581036101f257600491602073ffffffffffffffffffffffffffffffffffffffff6006541661035e813314611147565b604051948580927fc77031b40000000000000000000000000000000000000000000000000000000082525afa9283156102f2576103b0936103a7915f916102c45750821061146c565b60243590611658565b005b346101f2575f7ffffffffffffffffffffffffffffffffffffffffffffffffffffffffffffffffc3601126101f257602073ffffffffffffffffffffffffffffffffffffffff60065416604051908152f35b7f4e487b71000000000000000000000000000000000000000000000000000000005f52603260045260245ffd5b8054821015610449575f52600560205f20910201905f90565b610403565b346101f25760407ffffffffffffffffffffffffffffffffffffffffffffffffffffffffffffffffc3601126101f2576024356004355f525f60205260405f209081548110156101f2576104a091610430565b508054600182015460028301546003840154600490940154604080519485526020850193909352918301526060820192909252608081019190915260a090f35b346101f25760407ffffffffffffffffffffffffffffffffffffffffffffffffffffffffffffffffc3601126101f2576004355f52600560205260405f206024355f52602052602060405f2054604051908152f35b9081518082526020808093019301915f5b828110610553575050505090565b835185529381019392810192600101610545565b906020610578928181520190610534565b90565b346101f2576020807ffffffffffffffffffffffffffffffffffffffffffffffffffffffffffffffffc3601126101f2576004359073ffffffffffffffffffffffffffffffffffffffff600654166004826040928351928380927fc77031b40000000000000000000000000000000000000000000000000000000082525afa80156102f257610612915f91610696575b50841061146c565b61061a611c6f565b90620151804204935f5b6007808210156106895781871061067957825f528552825f2090808703918783116106745761066f9261065e91905f5260205260405f2090565b546106698287611d75565b52611569565b610624565b611237565b50805f61066961066f9387611d75565b8351806102c08782610567565b6106ad9150843d86116102eb576102dd8183611344565b5f61060a565b7ffffffffffffffffffffffffffffffffffffffffffffffffffffffffffffffffc60809101126101f25760043590602435906044359060643590565b346101f2576106fd366106b3565b926004602073ffffffffffffffffffffffffffffffffffffffff60069594955416604051928380927fc77031b40000000000000000000000000000000000000000000000000000000082525afa80156102f257610798956107a6956102c0956107b49561077961077e956107c2975f916102c45750821061146c565b611d89565b959260409891949851998a9960a08b5260a08b0190610534565b9089820360208b0152610534565b908782036040890152610534565b908582036060870152610534565b908382036080850152610534565b346101f25760407ffffffffffffffffffffffffffffffffffffffffffffffffffffffffffffffffc3601126101f2576004356004602073ffffffffffffffffffffffffffffffffffffffff60065416604051928380927fc77031b40000000000000000000000000000000000000000000000000000000082525afa80156102f257610863915f916102c45750821061146c565b5f52600760205260405f206024355f526020526102c060405f2054604051918291829190602083019252565b346101f25760207ffffffffffffffffffffffffffffffffffffffffffffffffffffffffffffffffc3601126101f25760043573ffffffffffffffffffffffffffffffffffffffff8082168092036101f2577fffffffffffffffffffffffff0000000000000000000000000000000000000000906109126006549182163314611147565b1617600655005b346101f25760407ffffffffffffffffffffffffffffffffffffffffffffffffffffffffffffffffc3601126101f2576004355f52600b60205260405f206024355f52602052602060405f2054604051908152f35b346101f25760407ffffffffffffffffffffffffffffffffffffffffffffffffffffffffffffffffc3601126101f2576109bf73ffffffffffffffffffffffffffffffffffffffff600654163314611147565b6004355f525f60205260405f208054806109d557005b7fffffffffffffffffffffffffffffffffffffffffffffffffffffffffffffffff810190811161067457610a0891610430565b5060046024359101555f80f35b346101f2577f6eb8ae1524b02365056a88c72dfa5c5eadc348dcfd871d4a990458c73341db78610a8e610c7f610a4a366106b3565b610a7573ffffffffffffffffffffffffffffffffffffffff6006989596949897939754163314611147565b610a808115156111ac565b610a8986611264565b611308565b837f4e9961a4c8434e2b5913a4c29f2b7ada98744216baa0fdec285ffe770424789c610c66610c4162015180420498610b20610aec610ade88610ad8895f525f60205260405f2090565b9e6112c8565b670de0b6b3a7640000900490565b9b610af683611281565b90610aff61138a565b914283528960208401525f9e8f6040850152606084015260808301526113f6565b610ba7610b2b6113aa565b8c81528c60208201528c60408201524260608201528760808201528760a08201528760c0820152610b64875f52600160205260405f2090565b9060c0600691805184556020810151600185015560408101516002850155606081015160038501556080810151600485015560a081015160058501550151910155565b85610bba865f52600960205260405f2090565b5542610bce865f52600a60205260405f2090565b5585610bf38b610be6885f52600760205260405f2090565b905f5260205260405f2090565b5585610c0b8b610be6885f52600860205260405f2090565b558a610c238b610be6885f52600b60205260405f2090565b558a610c3b8b610be6885f52600c60205260405f2090565b55611281565b6040519182914287846060919493926080820195825260208201525f60408201520152565b0390a2604080519182525f602083015290918291820190565b0390a380f35b346101f2575f7ffffffffffffffffffffffffffffffffffffffffffffffffffffffffffffffffc3601126101f25760206040516127108152f35b346101f25760407ffffffffffffffffffffffffffffffffffffffffffffffffffffffffffffffffc3601126101f2576004355f52600460205260405f206024355f52602052602060405f2054604051908152f35b346101f25760407ffffffffffffffffffffffffffffffffffffffffffffffffffffffffffffffffc3601126101f2576004355f52600360205260405f206024355f52602052602060405f2054604051908152f35b346101f25760407ffffffffffffffffffffffffffffffffffffffffffffffffffffffffffffffffc3601126101f2576004355f52600260205260405f206024355f52602052602060405f2054604051908152f35b346101f25760407ffffffffffffffffffffffffffffffffffffffffffffffffffffffffffffffffc3601126101f2576004356004602073ffffffffffffffffffffffffffffffffffffffff60065416604051928380927fc77031b40000000000000000000000000000000000000000000000000000000082525afa80156102f257610e4e915f916102c45750821061146c565b5f52600860205260405f206024355f526020526102c060405f2054604051918291829190602083019252565b346101f25760207ffffffffffffffffffffffffffffffffffffffffffffffffffffffffffffffffc3601126101f2576004355f52600a602052602060405f2054604051908152f35b346101f25760407ffffffffffffffffffffffffffffffffffffffffffffffffffffffffffffffffc3601126101f2576004355f52600c60205260405f206024355f52602052602060405f2054604051908152f35b346101f25760207ffffffffffffffffffffffffffffffffffffffffffffffffffffffffffffffffc3601126101f2576004355f52600160205260e060405f20805490600181015490600281015460038201546004830154916006600585015494015494604051968752602087015260408601526060850152608084015260a083015260c0820152f35b346101f2575f7ffffffffffffffffffffffffffffffffffffffffffffffffffffffffffffffffc3601126101f257602060405161012c8152f35b346101f2575f7ffffffffffffffffffffffffffffffffffffffffffffffffffffffffffffffffc3601126101f25760206040516a084595161401484a0000008152f35b346101f2576020807ffffffffffffffffffffffffffffffffffffffffffffffffffffffffffffffffc3601126101f25760043573ffffffffffffffffffffffffffffffffffffffff600654166004836040928351928380927fc77031b40000000000000000000000000000000000000000000000000000000082525afa80156102f2576110b2915f9161112a575b50831061146c565b6110ba611c9c565b91620151804204935f5b601e81106110d9578351806102c08782610567565b80861061111b57825f5260088252835f209080870391878311610674576111169261110b91905f5260205260405f2090565b546106698288611d75565b6110c4565b805f6106696111169388611d75565b6111419150853d87116102eb576102dd8183611344565b5f6110aa565b1561114e57565b60646040517f08c379a000000000000000000000000000000000000000000000000000000000815260206004820152601e60248201527f4f6e6c79204d656d65466163746f72792063616e2063616c6c207468697300006044820152fd5b156111b357565b60846040517f08c379a000000000000000000000000000000000000000000000000000000000815260206004820152602360248201527f4d656d652072657365727665206d75737420626520677265617465722074686160448201527f6e203000000000000000000000000000000000000000000000000000000000006064820152fd5b7f4e487b71000000000000000000000000000000000000000000000000000000005f52601160045260245ffd5b90670de0b6b3a76400009182810292818404149015171561067457565b908160011b918083046002149015171561067457565b9060648202918083046064149015171561067457565b906a084595161401484a000000918083029283040361067457565b8181029291811591840414171561067457565b7f4e487b71000000000000000000000000000000000000000000000000000000005f52601260045260245ffd5b8115611312570490565b6112db565b7f4e487b71000000000000000000000000000000000000000000000000000000005f52604160045260245ffd5b90601f7fffffffffffffffffffffffffffffffffffffffffffffffffffffffffffffffe0910116810190811067ffffffffffffffff82111761138557604052565b611317565b6040519060a0820182811067ffffffffffffffff82111761138557604052565b6040519060e0820182811067ffffffffffffffff82111761138557604052565b7f4e487b71000000000000000000000000000000000000000000000000000000005f525f60045260245ffd5b8054680100000000000000008110156113855761141891600182018155610430565b91909161144d576080816004925184556020810151600185015560408101516002850155606081015160038501550151910155565b6113ca565b908160209103126101f2575190565b6040513d5f823e3d90fd5b1561147357565b60646040517f08c379a000000000000000000000000000000000000000000000000000000000815260206004820152601260248201527f496e76616c6964206d656d6520696e64657800000000000000000000000000006044820152fd5b91908260409103126101f2576020825192015190565b906001820180921161067457565b9190820180921161067457565b907fffffffffffffffffffffffffffffffffffffffffffffffffffffffffffffffff820191821161067457565b907ffffffffffffffffffffffffffffffffffffffffffffffffffffffffffffffc18820191821161067457565b9190820391821161067457565b7fffffffffffffffffffffffffffffffffffffffffffffffffffffffffffffffff81146106745760010190565b919061144d578082036115a7575050565b60048181925484556001810154600185015560028101546002850155600381015460038501550154910155565b8054801561162b577fffffffffffffffffffffffffffffffffffffffffffffffffffffffffffffffff01906116098282610430565b61144d576004815f809355826001820155826002820155826003820155015555565b7f4e487b71000000000000000000000000000000000000000000000000000000005f52603160045260245ffd5b9092919261169a61168161168160065473ffffffffffffffffffffffffffffffffffffffff1690565b73ffffffffffffffffffffffffffffffffffffffff1690565b60409081805180927f01c8867c00000000000000000000000000000000000000000000000000000000825281806116d989600483019190602083019252565b03915afa80156102f2575f918291611c28575b508015611c1f5761170090610a8983611264565b95611713855f52600160205260405f2090565b93857f2b3cfa1ffa56f29bed204c308162a0771d5f4977cbf0c546298c7f7de0e0208b89600388019485549561174a868b546114f5565b8a5542908190556201518080820497610e1090920491048714611bcb578560018b015561177a60028b0160019055565b8260048b01558260058b01558260068b01555b6117a387610be6875f52600260205260405f2090565b6117ae8782546114f5565b90556117c681610be6875f52600360205260405f2090565b6117d18782546114f5565b90556117e987610be6875f52600460205260405f2090565b548361180183610be6895f52600560205260405f2090565b549180611bb957505b61182089610be6895f52600460205260405f2090565b558381611b9d576118409150915b610be6875f52600560205260405f2090565b5587519182526020820185905215156040820152426060820152608090a287611871875f52600960205260405f2090565b5542611885875f52600a60205260405f2090565b558761189d83610be6895f52600760205260405f2090565b556118b482610be6885f52600b60205260405f2090565b6118bf8282546114f5565b9055876118d883610be6895f52600860205260405f2090565b556118fa6118f283610be6895f52600c60205260405f2090565b9182546114f5565b9055847f6eb8ae1524b02365056a88c72dfa5c5eadc348dcfd871d4a990458c73341db7861194f61193784610be6855f52600b60205260405f2090565b5486518b815260208101919091529081906040820190565b0390a3611963845f525f60205260405f2090565b955f87549081155f14611afb575060015b611983575b5050505050509050565b6127101115611a8c575b91847f4e9961a4c8434e2b5913a4c29f2b7ada98744216baa0fdec285ffe770424789c611a7d93857e84a8e4e50177265c96bf3c5b0cbe0d9fa49a8a1c4ee91aa31782755aa6048598999a611a226119f36119ed610ade611a489b6112ad565b94611281565b9360018b0192835491611a0461138a565b924284528660208501528a84015260608301528560808301526113f6565b548551918252426020830152604082018190526060820192909252909581906080820190565b0390a2600284015493600560048201549101549151948594859094939260609260808301968352602083015260408201520152565b0390a2805f8080808080611979565b94939291906103e85b8754811015611ad25780611ac8611aaf611acd938b610430565b50611ac2611abc8461152f565b8c610430565b90611596565b611569565b611a95565b5090919293945f5b6103e88110611ae9575061198d565b611af690611ac8896115d4565b611ada565b611b0d611b0783611502565b8a610430565b506001611b1b82544261155c565b91015480851115611b8d57611b30818661155c565b905b80611b77575015611b6c5761012c60ff60645b16915b1090811591611b60575b501561197457506001611974565b6001915010155f611b52565b61012c60ff83611b45565b611b8790610a8961012c93611297565b91611b48565b611b97858261155c565b90611b32565b611bad611bb391611840936114f5565b60011c90565b9161182e565b611bc691611bad916114f5565b61180a565b60018a01611bda8782546114f5565b905560028a01611bea81546114e7565b90558260048b0180548211611c17575b5060058b0180548210611c0f575b505061178d565b55825f611c08565b55825f611bfa565b50505050509050565b9050611c4a9150823d8411611c50575b611c428183611344565b8101906114d1565b5f6116ec565b503d611c38565b67ffffffffffffffff81116113855760051b60200190565b60405190610100820182811067ffffffffffffffff821117611385576040526007825260e0366020840137565b604051906103e0820182811067ffffffffffffffff82111761138557604052601e82526103c0366020840137565b6040516020810181811067ffffffffffffffff821117611385576040525f8152905f368137565b90611cfb82611c57565b611d086040519182611344565b8281527fffffffffffffffffffffffffffffffffffffffffffffffffffffffffffffffe0611d368294611c57565b0190602036910137565b8015610674577fffffffffffffffffffffffffffffffffffffffffffffffffffffffffffffffff0190565b8115611312570690565b80518210156104495760209160051b010190565b611d9d909291925f525f60205260405f2090565b8054918215611fd0575f928094845b828110611fa4575b5050805b611f6f575b505082821015611f3857611dd1828461155c565b94600192839580151580611f2f575b611edd575b50611def87611cf1565b96611df981611cf1565b8097611e0483611cf1565b97611e0e84611cf1565b97611e1885611cf1565b97888d8b8d5f9a985b878a10611e4c575b505050505050505050508110611e3c5750565b8087528086528085528084528252565b8a8c969798999a9c105f14611ed557856004611ec19582958f95610669958f9a97611ec79c8f8f611e9893611e8091610430565b5096611e8e83895492611d75565b5286015492611d75565b52611ea885600285015492611d75565b52611eb884600384015492611d75565b52015492611d75565b976114f5565b93929190888d8b8d8f611e21565b859b50611e29565b879650611eee81611ef49399611308565b96611d6b565b611f1f575b611f1885610a89611f1382611f0e8b8a61155c565b6114f5565b611502565b955f611de5565b93611f2990611569565b93611ef9565b50808811611de0565b50505050611f44611cca565b611f4c611cca565b91611f55611cca565b91611f5e611cca565b91611f67611cca565b919493929190565b81611f82611f7c83611502565b85610430565b50541115611f9957611f9390611d40565b80611db8565b93505f905080611dbd565b81611faf8287610430565b50541015611fc557611fc090611569565b611dac565b94505f905080611db4565b5050505050611f44611cca565b7f80000000000000000000000000000000000000000000000000000000000000008114610674575f0390565b905f828152806020526040812080548015612090579061202b61203192611502565b90610430565b50600181015493600282015492600661205c60046003860154950154935f52600160205260405f2090565b015480612067575093565b905080861061207d5761207a908661155c565b93565b8581039081116106745761207a90611fdd565b50508091925091818091819056fea26469706673582212204de8043b50a3c072c8a0c0cc90a8e3c7612c05055f7c8d599d3b47d7b77298f564736f6c63430008140033",
  "immutableReferences": {},
  "source": "// Price Tracking\n\n// SPDX-License-Identifier: MIT\npragma solidity ^0.8.20;\n\n// Rename this interface to avoid conflict with the actual MemeFactory contract\n// This interface is used by PriceTracking to call *back* to MemeFactory for its reserves and token count.\ninterface IMemeFactoryCaller {\n    function getPoolReserves(uint256 memeIndex) external view returns (uint256 extusdtReserve, uint256 memeReserve);\n    function getMemeTokenCount() external view returns (uint256);\n}\n\ncontract PriceTracking {\n    // --- PriceTracking original state variables ---\n    struct PricePoint {\n        uint256 timestamp;\n        uint256 price;\n        uint256 volume24h;\n        uint256 marketCap;\n        uint256 liquidity;\n    }\n\n    struct TradingMetrics {\n        uint256 totalVolume;\n        uint256 volume24h;\n        uint256 trades24h;\n        uint256 lastTradeTimestamp;\n        uint256 highPrice24h;\n        uint256 lowPrice24h;\n        uint256 openPrice24h;\n    }\n\n    mapping(uint256 => PricePoint[]) public priceHistory;\n    mapping(uint256 => TradingMetrics) public tradingMetrics;\n\n    mapping(uint256 => mapping(uint256 => uint256)) public dailyVolume; // memeIndex => day => volume\n    mapping(uint256 => mapping(uint256 => uint256)) public hourlyVolume; // memeIndex => hour => volume\n    mapping(uint256 => mapping(uint256 => uint256)) public dailyAveragePrice; // memeIndex => day => avgPrice\n    mapping(uint256 => mapping(uint256 => uint256)) public hourlyAveragePrice; // memeIndex => hour => avgPrice\n\n    uint256 public constant PRICE_UPDATE_INTERVAL = 300; // 5 minutes\n    uint256 public constant MAX_PRICE_POINTS = 10000;\n    uint256 public constant INITIAL_MEME_SUPPLY = 10_000_000 * 10**18;\n\n    address public memeFactory;\n\n    // --- PriceTracker integrated state variables ---\n    // Using UNIX days as keys (e.g. timestamp / 86400)\n    mapping(uint256 => mapping(uint256 => uint256)) private dailyPrices7d; // memeIndex => UNIX_day => price\n    mapping(uint256 => mapping(uint256 => uint256)) private dailyPrices30d; // memeIndex => UNIX_day => price\n\n    // Track the latest price (could be last trade price) per memeIndex\n    mapping(uint256 => uint256) public latestPrice; // memeIndex => price\n    mapping(uint256 => uint256) public latestTimestamp; // memeIndex => timestamp\n\n    // Keep track of volume per day for analytics (optional) per memeIndex\n    mapping(uint256 => mapping(uint256 => uint256)) public dailyVolumes7d; // memeIndex => UNIX_day => volume\n    mapping(uint256 => mapping(uint256 => uint256)) public dailyVolumes30d; // memeIndex => UNIX_day => volume\n\n\n    // --- Events ---\n    event PriceUpdated(uint256 indexed memeIndex, uint256 price, uint256 timestamp, uint256 volume, uint256 liquidity);\n    event TradingMetricsUpdated(uint256 indexed memeIndex, uint256 volume24h, uint256 trades24h, uint256 high24h, uint256 low24h);\n    event TradeEvent(uint256 indexed memeIndex, uint256 price, uint256 volume, bool isBuy, uint256 timestamp);\n    event DailyPriceUpdated(\n        uint256 indexed memeIndex,\n        uint256 indexed day, // UNIX day (timestamp / 86400)\n        uint256 price,\n        uint256 totalVolume\n    );\n\n    constructor(address _memeFactory) {\n        memeFactory = _memeFactory;\n    }\n\n    modifier onlyMemeFactory() {\n        require(msg.sender == memeFactory, \"Only MemeFactory can call this\");\n        _;\n    }\n\n    modifier validMemeIndex(uint256 memeIndex) {\n        // Use the renamed interface here\n        require(memeIndex < IMemeFactoryCaller(memeFactory).getMemeTokenCount(), \"Invalid meme index\");\n        _;\n    }\n\n    function updateMemeFactory(address _newMemeFactory) external onlyMemeFactory {\n        memeFactory = _newMemeFactory;\n    }\n\n    function initializePriceTracking(uint256 memeIndex, uint256 totalMemeSupply, uint256 initialExtusdtReserve, uint256 initialMemeReserve) external onlyMemeFactory {\n        require(initialMemeReserve > 0, \"Meme reserve must be greater than 0\");\n        uint256 initialPrice = (initialExtusdtReserve * 1e18) / initialMemeReserve;\n        uint256 currentDay = block.timestamp / 86400;\n\n        priceHistory[memeIndex].push(PricePoint({\n            timestamp: block.timestamp,\n            price: initialPrice,\n            volume24h: 0,\n            marketCap: (totalMemeSupply * initialPrice) / 1e18, // Use totalMemeSupply here\n            liquidity: initialExtusdtReserve * 2\n        }));\n\n        tradingMetrics[memeIndex] = TradingMetrics({\n            totalVolume: 0,\n            volume24h: 0,\n            trades24h: 0,\n            lastTradeTimestamp: block.timestamp,\n            highPrice24h: initialPrice,\n            lowPrice24h: initialPrice,\n            openPrice24h: initialPrice\n        });\n\n        // Initialize PriceTracker related data\n        latestPrice[memeIndex] = initialPrice;\n        latestTimestamp[memeIndex] = block.timestamp;\n        dailyPrices7d[memeIndex][currentDay] = initialPrice;\n        dailyPrices30d[memeIndex][currentDay] = initialPrice;\n        dailyVolumes7d[memeIndex][currentDay] = 0;\n        dailyVolumes30d[memeIndex][currentDay] = 0;\n\n        emit PriceUpdated(memeIndex, initialPrice, block.timestamp, 0, initialExtusdtReserve * 2);\n        emit DailyPriceUpdated(memeIndex, currentDay, initialPrice, 0);\n    }\n\n    // Renamed from recordTrade to updatePriceTracking to match MemeFactory's call and actual contract function\n    function updatePriceTracking(uint256 memeIndex, uint256 tradeVolume, bool isBuy) external onlyMemeFactory validMemeIndex(memeIndex) {\n        // Use the renamed interface here\n        (uint256 extusdtReserve, uint256 memeReserve) = IMemeFactoryCaller(memeFactory).getPoolReserves(memeIndex);\n        if (memeReserve == 0) return;\n\n        uint256 currentPrice = (extusdtReserve * 1e18) / memeReserve;\n        TradingMetrics storage metrics = tradingMetrics[memeIndex];\n\n        uint256 previousTimestamp = metrics.lastTradeTimestamp;\n        metrics.totalVolume += tradeVolume;\n        metrics.lastTradeTimestamp = block.timestamp;\n\n        uint256 currentDay = block.timestamp / 1 days;\n        uint256 currentHour = block.timestamp / 1 hours;\n        uint256 lastTradeDay = previousTimestamp / 1 days;\n\n        // Update 24h trading metrics\n        if (currentDay != lastTradeDay) {\n            metrics.volume24h = tradeVolume;\n            metrics.trades24h = 1;\n            metrics.highPrice24h = currentPrice;\n            metrics.lowPrice24h = currentPrice;\n            metrics.openPrice24h = currentPrice;\n        } else {\n            metrics.volume24h += tradeVolume;\n            metrics.trades24h += 1;\n            if (currentPrice > metrics.highPrice24h) metrics.highPrice24h = currentPrice;\n            if (currentPrice < metrics.lowPrice24h) metrics.lowPrice24h = currentPrice;\n        }\n\n        // Update daily and hourly volumes and average prices\n        dailyVolume[memeIndex][currentDay] += tradeVolume;\n        hourlyVolume[memeIndex][currentHour] += tradeVolume;\n\n        uint256 oldDailyPrice = dailyAveragePrice[memeIndex][currentDay];\n        uint256 oldHourlyPrice = hourlyAveragePrice[memeIndex][currentHour];\n\n        dailyAveragePrice[memeIndex][currentDay] = oldDailyPrice == 0 ? currentPrice : (oldDailyPrice + currentPrice) / 2;\n        hourlyAveragePrice[memeIndex][currentHour] = oldHourlyPrice == 0 ? currentPrice : (oldHourlyPrice + currentPrice) / 2;\n\n        emit TradeEvent(memeIndex, currentPrice, tradeVolume, isBuy, block.timestamp);\n\n        // --- PriceTracker specific updates ---\n        latestPrice[memeIndex] = currentPrice;\n        latestTimestamp[memeIndex] = block.timestamp;\n\n        dailyPrices7d[memeIndex][currentDay] = currentPrice;\n        dailyVolumes7d[memeIndex][currentDay] += tradeVolume;\n\n        dailyPrices30d[memeIndex][currentDay] = currentPrice;\n        dailyVolumes30d[memeIndex][currentDay] += tradeVolume;\n\n        emit DailyPriceUpdated(memeIndex, currentDay, currentPrice, dailyVolumes7d[memeIndex][currentDay]);\n\n\n        // --- PriceHistory specific updates (PriceTracking's original detailed history) ---\n        PricePoint[] storage history = priceHistory[memeIndex];\n        bool shouldUpdatePrice = false;\n\n        if (history.length == 0) {\n            shouldUpdatePrice = true;\n        } else {\n            PricePoint storage lastPoint = history[history.length - 1];\n            uint256 timeDiff = block.timestamp - lastPoint.timestamp;\n           uint256 priceDiff = currentPrice > lastPoint.price ? currentPrice - lastPoint.price : lastPoint.price - currentPrice;\n            \n            // Avoid division by zero if lastPoint.price is 0 (though unlikely after initial setup)\n            uint256 priceChangePercent = lastPoint.price == 0 ? (priceDiff > 0 ? 100 : 0) : (priceDiff * 100) / lastPoint.price;\n\n            if (timeDiff >= PRICE_UPDATE_INTERVAL || priceChangePercent >= 1) {\n                shouldUpdatePrice = true;\n            }\n        }\n\n        if (shouldUpdatePrice) {\n            if (history.length >= MAX_PRICE_POINTS) {\n                // Efficiently remove the oldest 10% of entries to keep history within MAX_PRICE_POINTS\n                uint256 removeCount = MAX_PRICE_POINTS / 10;\n                for (uint256 i = removeCount; i < history.length; i++) {\n                    history[i - removeCount] = history[i];\n                }\n                for (uint256 i = 0; i < removeCount; i++) {\n                    history.pop();\n                }\n            }\n\n            uint256 marketCap = (INITIAL_MEME_SUPPLY * currentPrice) / 1e18;\n            uint256 totalLiquidity = extusdtReserve * 2; // Assuming 2x extusdtReserve for total liquidity in a 50/50 pool\n\n            history.push(PricePoint({\n                timestamp: block.timestamp,\n                price: currentPrice,\n                volume24h: metrics.volume24h,\n                marketCap: marketCap,\n                liquidity: totalLiquidity\n            }));\n\n            emit PriceUpdated(memeIndex, currentPrice, block.timestamp, metrics.volume24h, totalLiquidity);\n            emit TradingMetricsUpdated(memeIndex, metrics.volume24h, metrics.trades24h, metrics.highPrice24h, metrics.lowPrice24h);\n        }\n    }\n\n    function updateLiquidity(uint256 memeIndex, uint256 totalLiquidity) external onlyMemeFactory {\n        PricePoint[] storage history = priceHistory[memeIndex];\n        if (history.length > 0) {\n            history[history.length - 1].liquidity = totalLiquidity;\n            // Optionally emit a specific event for liquidity updates if needed\n        }\n    }\n\n    function getPriceHistory(uint256 memeIndex, uint256 fromTimestamp, uint256 toTimestamp, uint256 maxPoints)\n        external view validMemeIndex(memeIndex)\n        returns (\n            uint256[] memory timestamps,\n            uint256[] memory prices,\n            uint256[] memory volumes,\n            uint256[] memory marketCaps,\n            uint256[] memory liquidities\n        )\n    {\n        PricePoint[] storage history = priceHistory[memeIndex];\n        if (history.length == 0) {\n            return (new uint256[](0), new uint256[](0), new uint256[](0), new uint256[](0), new uint256[](0));\n        }\n\n        uint256 startIndex = 0;\n        uint256 endIndex = history.length;\n\n        // Find startIndex\n        for (uint256 i = 0; i < history.length; i++) {\n            if (history[i].timestamp >= fromTimestamp) {\n                startIndex = i;\n                break;\n            }\n        }\n\n        // Find endIndex\n        for (uint256 i = history.length; i > 0; i--) {\n            if (history[i - 1].timestamp <= toTimestamp) {\n                endIndex = i;\n                break;\n            }\n        }\n\n        if (startIndex >= endIndex) {\n            return (new uint256[](0), new uint256[](0), new uint256[](0), new uint256[](0), new uint256[](0));\n        }\n\n        uint256 totalPoints = endIndex - startIndex;\n        uint256 step = 1;\n        if (maxPoints > 0 && totalPoints > maxPoints) {\n            step = totalPoints / maxPoints;\n            if (totalPoints % maxPoints != 0) { // Ensure step is at least 1 and covers the range\n                step++;\n            }\n            totalPoints = (endIndex - startIndex + step -1) / step; // Recalculate total points after determining step\n        }\n\n        timestamps = new uint256[](totalPoints);\n        prices = new uint256[](totalPoints);\n        volumes = new uint256[](totalPoints);\n        marketCaps = new uint256[](totalPoints);\n        liquidities = new uint256[](totalPoints);\n\n        uint256 outputIndex = 0;\n        for (uint256 i = startIndex; i < endIndex; i += step) {\n            if (outputIndex < totalPoints) { // Prevent out-of-bounds access if totalPoints calculation was off\n                PricePoint storage point = history[i];\n                timestamps[outputIndex] = point.timestamp;\n                prices[outputIndex] = point.price;\n                volumes[outputIndex] = point.volume24h;\n                marketCaps[outputIndex] = point.marketCap;\n                liquidities[outputIndex] = point.liquidity;\n                outputIndex++;\n            } else {\n                break; // Filled all required points\n            }\n        }\n\n        // If the number of points collected is less than totalPoints (due to rounding or step calculation),\n        // resize the arrays to the actual collected count.\n        if (outputIndex < totalPoints) {\n            assembly {\n                mstore(timestamps, outputIndex)\n                mstore(prices, outputIndex)\n                mstore(volumes, outputIndex)\n                mstore(marketCaps, outputIndex)\n                mstore(liquidities, outputIndex)\n            }\n        }\n    }\n\n\n    function getLatestPriceData(uint256 memeIndex)\n        external\n        view\n        validMemeIndex(memeIndex)\n        returns (\n            uint256 currentPrice,\n            int256 priceChange24h,\n            uint256 volume24h,\n            uint256 marketCap,\n            uint256 liquidity\n        )\n    {\n        PricePoint[] storage history = priceHistory[memeIndex];\n        if (history.length == 0) return (0, 0, 0, 0, 0);\n\n        PricePoint storage latest = history[history.length - 1];\n        currentPrice = latest.price;\n        volume24h = latest.volume24h;\n        marketCap = latest.marketCap;\n        liquidity = latest.liquidity;\n\n        TradingMetrics storage metrics = tradingMetrics[memeIndex];\n        if (metrics.openPrice24h == 0) {\n            priceChange24h = 0;\n        } else if (currentPrice >= metrics.openPrice24h) {\n            priceChange24h = int256(currentPrice - metrics.openPrice24h);\n        } else {\n            priceChange24h = -int256(metrics.openPrice24h - currentPrice);\n        }\n    }\n\n    function getDailyAveragePrice(uint256 memeIndex, uint256 day) external view returns (uint256) {\n        return dailyAveragePrice[memeIndex][day];\n    }\n\n    function getHourlyAveragePrice(uint256 memeIndex, uint256 hour) external view returns (uint256) {\n        return hourlyAveragePrice[memeIndex][hour];\n    }\n\n    // --- PriceTracker specific getters, adapted for memeIndex ---\n\n    // Get price for a specific day (for 7d or 30d history)\n    function getPrice7d(uint256 memeIndex, uint256 day) external view validMemeIndex(memeIndex) returns (uint256) {\n        // day: UNIX day number (timestamp / 86400)\n        return dailyPrices7d[memeIndex][day];\n    }\n\n    function getPrice30d(uint256 memeIndex, uint256 day) external view validMemeIndex(memeIndex) returns (uint256) {\n        return dailyPrices30d[memeIndex][day];\n    }\n\n    // Helper to get last 7 days' prices\n    function getLastNDaysPrices7d(uint256 memeIndex) external view validMemeIndex(memeIndex) returns (uint256[] memory prices) {\n        prices = new uint256[](7);\n        uint256 currentDay = block.timestamp / 86400;\n        for (uint256 i = 0; i < 7; i++) {\n            if (currentDay >= i) { // Ensure we don't try to access negative days\n                prices[i] = dailyPrices7d[memeIndex][currentDay - i];\n            } else {\n                prices[i] = 0; // Or handle as appropriate if data doesn't exist for past days\n            }\n        }\n    }\n\n    // Helper to get last 30 days' prices\n    function getLastNDaysPrices30d(uint256 memeIndex) external view validMemeIndex(memeIndex) returns (uint256[] memory prices) {\n        prices = new uint256[](30);\n        uint256 currentDay = block.timestamp / 86400;\n        for (uint256 i = 0; i < 30; i++) {\n            if (currentDay >= i) { // Ensure we don't try to access negative days\n                prices[i] = dailyPrices30d[memeIndex][currentDay - i];\n            } else {\n                prices[i] = 0; // Or handle as appropriate if data doesn't exist for past days\n            }\n        }\n    }\n}",
  "sourcePath": "/workspaces/echoX-nft/echoX-nft/contracts/PriceTracking.sol",
  "compiler": {
    "name": "solc",
    "version": "0.8.20+commit.a1b79de6.Emscripten.clang"
  },
  "schemaVersion": "3.4.16",
  "updatedAt": "2025-06-12T07:50:54.396Z",
  "networkType": "ethereum",
  "devdoc": {
    "kind": "dev",
    "methods": {},
    "version": 1
  },
  "userdoc": {
    "kind": "user",
    "methods": {},
    "version": 1
  }
}