{
  "contractName": "ReferralSystem",
  "abi": [
    {
      "inputs": [],
      "stateMutability": "nonpayable",
      "type": "constructor"
    },
    {
      "anonymous": false,
      "inputs": [
        {
          "indexed": true,
          "internalType": "address",
          "name": "user",
          "type": "address"
        },
        {
          "indexed": false,
          "internalType": "string[]",
          "name": "codes",
          "type": "string[]"
        }
      ],
      "name": "CodesGenerated",
      "type": "event"
    },
    {
      "anonymous": false,
      "inputs": [
        {
          "indexed": false,
          "internalType": "string",
          "name": "code",
          "type": "string"
        },
        {
          "indexed": true,
          "internalType": "address",
          "name": "referred",
          "type": "address"
        },
        {
          "indexed": true,
          "internalType": "address",
          "name": "referrer",
          "type": "address"
        }
      ],
      "name": "ReferralUsed",
      "type": "event"
    },
    {
      "anonymous": false,
      "inputs": [
        {
          "indexed": true,
          "internalType": "address",
          "name": "user",
          "type": "address"
        },
        {
          "indexed": false,
          "internalType": "string",
          "name": "refCode",
          "type": "string"
        }
      ],
      "name": "ReferralVerified",
      "type": "event"
    },
    {
      "inputs": [],
      "name": "GENESIS_CODE",
      "outputs": [
        {
          "internalType": "string",
          "name": "",
          "type": "string"
        }
      ],
      "stateMutability": "view",
      "type": "function",
      "constant": true
    },
    {
      "inputs": [],
      "name": "GENESIS_CODE_LIMIT",
      "outputs": [
        {
          "internalType": "uint256",
          "name": "",
          "type": "uint256"
        }
      ],
      "stateMutability": "view",
      "type": "function",
      "constant": true
    },
    {
      "inputs": [
        {
          "internalType": "string",
          "name": "",
          "type": "string"
        }
      ],
      "name": "codeInfo",
      "outputs": [
        {
          "internalType": "address",
          "name": "owner",
          "type": "address"
        },
        {
          "internalType": "uint256",
          "name": "uses",
          "type": "uint256"
        }
      ],
      "stateMutability": "view",
      "type": "function",
      "constant": true
    },
    {
      "inputs": [
        {
          "internalType": "address",
          "name": "",
          "type": "address"
        }
      ],
      "name": "hasJoined",
      "outputs": [
        {
          "internalType": "bool",
          "name": "",
          "type": "bool"
        }
      ],
      "stateMutability": "view",
      "type": "function",
      "constant": true
    },
    {
      "inputs": [
        {
          "internalType": "address",
          "name": "",
          "type": "address"
        },
        {
          "internalType": "uint256",
          "name": "",
          "type": "uint256"
        }
      ],
      "name": "userCodes",
      "outputs": [
        {
          "internalType": "string",
          "name": "",
          "type": "string"
        }
      ],
      "stateMutability": "view",
      "type": "function",
      "constant": true
    },
    {
      "inputs": [
        {
          "internalType": "address",
          "name": "",
          "type": "address"
        }
      ],
      "name": "userPoints",
      "outputs": [
        {
          "internalType": "uint256",
          "name": "",
          "type": "uint256"
        }
      ],
      "stateMutability": "view",
      "type": "function",
      "constant": true
    },
    {
      "inputs": [
        {
          "internalType": "string",
          "name": "refCode",
          "type": "string"
        }
      ],
      "name": "joinAirdrop",
      "outputs": [],
      "stateMutability": "nonpayable",
      "type": "function"
    },
    {
      "inputs": [
        {
          "internalType": "string",
          "name": "refCode",
          "type": "string"
        }
      ],
      "name": "getOrJoinAirdrop",
      "outputs": [],
      "stateMutability": "nonpayable",
      "type": "function"
    },
    {
      "inputs": [
        {
          "internalType": "address",
          "name": "user",
          "type": "address"
        }
      ],
      "name": "getUserCodes",
      "outputs": [
        {
          "internalType": "string[]",
          "name": "",
          "type": "string[]"
        }
      ],
      "stateMutability": "view",
      "type": "function",
      "constant": true
    },
    {
      "inputs": [
        {
          "internalType": "string",
          "name": "code",
          "type": "string"
        }
      ],
      "name": "getCodeData",
      "outputs": [
        {
          "internalType": "address",
          "name": "owner",
          "type": "address"
        },
        {
          "internalType": "uint256",
          "name": "uses",
          "type": "uint256"
        }
      ],
      "stateMutability": "view",
      "type": "function",
      "constant": true
    },
    {
      "inputs": [
        {
          "internalType": "address",
          "name": "user",
          "type": "address"
        }
      ],
      "name": "getPoints",
      "outputs": [
        {
          "internalType": "uint256",
          "name": "",
          "type": "uint256"
        }
      ],
      "stateMutability": "view",
      "type": "function",
      "constant": true
    },
    {
      "inputs": [
        {
          "internalType": "address",
          "name": "user",
          "type": "address"
        }
      ],
      "name": "hasUserJoined",
      "outputs": [
        {
          "internalType": "bool",
          "name": "",
          "type": "bool"
        }
      ],
      "stateMutability": "view",
      "type": "function",
      "constant": true
    }
  ],
  "bytecode": "0x608060405234801561000f575f80fd5b5060405180604001604052805f6001600160a01b031681526020015f8152506002604051806040016040528060078152602001660303030303030360cc1b81525060405161005d9190610097565b90815260405160209181900382019020825181546001600160a01b0319166001600160a01b039091161781559101516001909101556100c3565b5f82515f5b818110156100b6576020818601810151858301520161009c565b505f920191825250919050565b610fc9806100d05f395ff3fe608060405234801561000f575f80fd5b50600436106100b1575f3560e01c8063b52ba01b1161006e578063b52ba01b146101b1578063b6add44c146101ef578063cd0c50dd14610202578063ee204abb14610218578063f4462f5514610240578063f50ddbc714610253575f80fd5b80632c542605146100b5578063461551fe146100ec578063877f4e121461011f578063992f6572146101515780639d0a1c9a14610166578063a3565bd714610186575b5f80fd5b6100c86100c3366004610ade565b610272565b604080516001600160a01b0390931683526020830191909152015b60405180910390f35b610112604051806040016040528060078152602001660303030303030360cc1b81525081565b6040516100e39190610bd6565b61014161012d366004610c0a565b5f6020819052908152604090205460ff1681565b60405190151581526020016100e3565b61016461015f366004610ade565b6102bf565b005b610179610174366004610c0a565b6102e1565b6040516100e39190610c23565b610141610194366004610c0a565b6001600160a01b03165f9081526020819052604090205460ff1690565b6100c86101bf366004610ade565b8051602081830181018051600282529282019190930120915280546001909101546001600160a01b039091169082565b6101646101fd366004610ade565b6103cb565b61020a600881565b6040519081526020016100e3565b61020a610226366004610c0a565b6001600160a01b03165f9081526003602052604090205490565b61011261024e366004610c83565b61090e565b61020a610261366004610c0a565b60036020525f908152604090205481565b5f805f6002846040516102859190610cab565b908152604080516020928190038301812081830190925281546001600160a01b031680825260019092015492018290529590945092505050565b335f9081526020819052604090205460ff166102de576102de816103cb565b50565b6001600160a01b0381165f908152600160209081526040808320805482518185028101850190935280835260609492939192909184015b828210156103c0578382905f5260205f2001805461033590610cc6565b80601f016020809104026020016040519081016040528092919081815260200182805461036190610cc6565b80156103ac5780601f10610383576101008083540402835291602001916103ac565b820191905f5260205f20905b81548152906001019060200180831161038f57829003601f168201915b505050505081526020019060010190610318565b505050509050919050565b335f9081526020819052604090205460ff16156104205760405162461bcd60e51b815260206004820152600e60248201526d105b1c9958591e481a9bda5b995960921b60448201526064015b60405180910390fd5b5f6001600160a01b031660028260405161043a9190610cab565b908152604051908190036020019020546001600160a01b03161415806104a357506040805180820190915260078152660303030303030360cc1b6020918201528151908201207f2980933e4095bde1a2e8ec6a1ada0e91fa4b04a6f068ad12b66e21b19cf2f8ab145b6104e75760405162461bcd60e51b8152602060048201526015602482015274496e76616c696420726566657272616c20636f646560581b6044820152606401610417565b6040805180820190915260078152660303030303030360cc1b6020918201528151908201207fd67f6cc1bf6a421e5d171395e525f16e05b4fb590f9752ed4991de4e630d07550161066c5760086002604051806040016040528060078152602001660303030303030360cc1b8152506040516105639190610cab565b908152602001604051809103902060010154106105c25760405162461bcd60e51b815260206004820181905260248201527f47656e6573697320636f6465207573616765206c696d697420726561636865646044820152606401610417565b60408051808201825260078152660303030303030360cc1b602082015290516002916105ed91610cab565b9081526040519081900360200190206001018054905f61060c83610d12565b909155505060408051808201825260078152660303030303030360cc1b602082015290515f9133917fdb6a33c25560f88a0fe3a04a8e84b7a908cd18b1c8388be0f05bb60e8d1163dd9161065f91610bd6565b60405180910390a3610779565b5f60028260405161067d9190610cab565b9081526020016040518091039020905060148160010154106106eb5760405162461bcd60e51b815260206004820152602160248201527f526566657272616c20636f6465207573616765206c696d6974207265616368656044820152601960fa1b6064820152608401610417565b600181018054905f6106fc83610d12565b909155505080546001600160a01b03165f90815260036020526040812080546064929061072a908490610d2a565b909155505080546040516001600160a01b039091169033907fdb6a33c25560f88a0fe3a04a8e84b7a908cd18b1c8388be0f05bb60e8d1163dd9061076f908690610bd6565b60405180910390a3505b335f90815260208181526040808320805460ff191660011790558051600a80825261016082019092529182015b60608152602001906001900390816107a65790505090505f5b600a811015610887575f6107d333836109bf565b9050808383815181106107e8576107e8610d3d565b602090810291909101810191909152335f9081526001808352604082208054918201815582529190200161081c8282610d9f565b506040805180820182523381525f6020820152905160029061083f908490610cab565b90815260405160209181900382019020825181546001600160a01b0319166001600160a01b03909116178155910151600190910155508061087f81610d12565b9150506107bf565b50336001600160a01b03167fc6dfe167a637673acdc0cf8eb485261d86681805e94e503dc47166d42e623462836040516108c19190610bd6565b60405180910390a2336001600160a01b03167f5d890499905a4a60f73641e07770506102769a9b650a6dfc954af0bf7e2e7fab826040516109029190610c23565b60405180910390a25050565b6001602052815f5260405f208181548110610927575f80fd5b905f5260205f20015f9150915050805461094090610cc6565b80601f016020809104026020016040519081016040528092919081815260200182805461096c90610cc6565b80156109b75780601f1061098e576101008083540402835291602001916109b7565b820191905f5260205f20905b81548152906001019060200180831161099a57829003601f168201915b505050505081565b604051606083811b6bffffffffffffffffffffffff1916602083015260348201839052905f906054016040516020818303038152906040528051906020012090505f6007600a610a0f9190610f3b565b610a199083610f5a565b6040805160078082528183019092529192505f91906020820181803683370190505090505f5b6007811015610abe57610a53600a84610f5a565b610a5e906030610d2a565b60f81b8282610a6f60016007610f6d565b610a799190610f6d565b81518110610a8957610a89610d3d565b60200101906001600160f81b03191690815f1a905350610aaa600a84610f80565b925080610ab681610d12565b915050610a3f565b50925050505b92915050565b634e487b7160e01b5f52604160045260245ffd5b5f60208284031215610aee575f80fd5b813567ffffffffffffffff80821115610b05575f80fd5b818401915084601f830112610b18575f80fd5b813581811115610b2a57610b2a610aca565b604051601f8201601f19908116603f01168101908382118183101715610b5257610b52610aca565b81604052828152876020848701011115610b6a575f80fd5b826020860160208301375f928101602001929092525095945050505050565b5f5b83811015610ba3578181015183820152602001610b8b565b50505f910152565b5f8151808452610bc2816020860160208601610b89565b601f01601f19169290920160200192915050565b602081525f610be86020830184610bab565b9392505050565b80356001600160a01b0381168114610c05575f80fd5b919050565b5f60208284031215610c1a575f80fd5b610be882610bef565b5f602080830181845280855180835260408601915060408160051b87010192508387015f5b82811015610c7657603f19888603018452610c64858351610bab565b94509285019290850190600101610c48565b5092979650505050505050565b5f8060408385031215610c94575f80fd5b610c9d83610bef565b946020939093013593505050565b5f8251610cbc818460208701610b89565b9190910192915050565b600181811c90821680610cda57607f821691505b602082108103610cf857634e487b7160e01b5f52602260045260245ffd5b50919050565b634e487b7160e01b5f52601160045260245ffd5b5f60018201610d2357610d23610cfe565b5060010190565b80820180821115610ac457610ac4610cfe565b634e487b7160e01b5f52603260045260245ffd5b601f821115610d9a575f81815260208120601f850160051c81016020861015610d775750805b601f850160051c820191505b81811015610d9657828155600101610d83565b5050505b505050565b815167ffffffffffffffff811115610db957610db9610aca565b610dcd81610dc78454610cc6565b84610d51565b602080601f831160018114610e00575f8415610de95750858301515b5f19600386901b1c1916600185901b178555610d96565b5f85815260208120601f198616915b82811015610e2e57888601518255948401946001909101908401610e0f565b5085821015610e4b57878501515f19600388901b60f8161c191681555b5050505050600190811b01905550565b600181815b80851115610e9557815f1904821115610e7b57610e7b610cfe565b80851615610e8857918102915b93841c9390800290610e60565b509250929050565b5f82610eab57506001610ac4565b81610eb757505f610ac4565b8160018114610ecd5760028114610ed757610ef3565b6001915050610ac4565b60ff841115610ee857610ee8610cfe565b50506001821b610ac4565b5060208310610133831016604e8410600b8410161715610f16575081810a610ac4565b610f208383610e5b565b805f1904821115610f3357610f33610cfe565b029392505050565b5f610be88383610e9d565b634e487b7160e01b5f52601260045260245ffd5b5f82610f6857610f68610f46565b500690565b81810381811115610ac457610ac4610cfe565b5f82610f8e57610f8e610f46565b50049056fea264697066735822122041b9d745ff8a5db27bbd2e7d522f5896836422241e1bd6f1242a47724e68e06264736f6c63430008140033",
  "immutableReferences": {},
  "source": "// SPDX-License-Identifier: MIT\npragma solidity ^0.8.20;\n\ncontract ReferralSystem {\n    uint256 constant MAX_CODE_USAGE = 20;\n    uint256 constant REFERRAL_REWARD = 100;\n    uint256 constant NUM_CODES = 10;\n    uint256 constant CODE_LENGTH = 7;\n\n    string public constant GENESIS_CODE = \"0000000\";\n    uint256 public constant GENESIS_CODE_LIMIT = 8;\n\n    struct CodeData {\n        address owner;\n        uint256 uses;\n    }\n\n    mapping(address => bool) public hasJoined;\n    mapping(address => string[]) public userCodes;\n    mapping(string => CodeData) public codeInfo;\n    mapping(address => uint256) public userPoints;\n\n    event ReferralVerified(address indexed user, string refCode);\n    event CodesGenerated(address indexed user, string[] codes);\n    event ReferralUsed(string code, address indexed referred, address indexed referrer);\n\n    constructor() {\n        // Set up genesis code with dummy address as owner (zero address)\n        codeInfo[GENESIS_CODE] = CodeData({owner: address(0), uses: 0});\n    }\n\n    /// @notice Join airdrop with referral code (or genesis), generate codes, add points\n    function joinAirdrop(string memory refCode) public {\n        require(!hasJoined[msg.sender], \"Already joined\");\n        require(codeInfo[refCode].owner != address(0) || keccak256(bytes(refCode)) == keccak256(bytes(GENESIS_CODE)), \"Invalid referral code\");\n\n        // Genesis code logic\n        if (keccak256(bytes(refCode)) == keccak256(bytes(GENESIS_CODE))) {\n            require(codeInfo[GENESIS_CODE].uses < GENESIS_CODE_LIMIT, \"Genesis code usage limit reached\");\n            codeInfo[GENESIS_CODE].uses++;\n            emit ReferralUsed(GENESIS_CODE, msg.sender, address(0));\n        } else {\n            // Normal referral\n            CodeData storage data = codeInfo[refCode];\n            require(data.uses < MAX_CODE_USAGE, \"Referral code usage limit reached\");\n            data.uses++;\n            userPoints[data.owner] += REFERRAL_REWARD;\n            emit ReferralUsed(refCode, msg.sender, data.owner);\n        }\n\n        // Register user\n        hasJoined[msg.sender] = true;\n\n        // Generate 10 unique referral codes for this user\n        string[] memory newCodes = new string[](NUM_CODES);\n        for (uint256 i = 0; i < NUM_CODES; i++) {\n            string memory code = generateCode(msg.sender, i);\n            newCodes[i] = code;\n            userCodes[msg.sender].push(code);\n            codeInfo[code] = CodeData({owner: msg.sender, uses: 0});\n        }\n\n        emit ReferralVerified(msg.sender, refCode);\n        emit CodesGenerated(msg.sender, newCodes);\n    }\n\n    /// @notice Auto-join if not already joined\n    function getOrJoinAirdrop(string memory refCode) external {\n        if (!hasJoined[msg.sender]) {\n            joinAirdrop(refCode);\n        }\n    }\n\n    /// @notice Generate a 7-digit zero-padded referral code\n    function generateCode(address user, uint256 index) internal pure returns (string memory) {\n        bytes32 hash = keccak256(abi.encodePacked(user, index));\n        uint256 number = uint256(hash) % 10**CODE_LENGTH;\n\n        bytes memory buffer = new bytes(CODE_LENGTH);\n        for (uint256 i = 0; i < CODE_LENGTH; i++) {\n            buffer[CODE_LENGTH - 1 - i] = bytes1(uint8(48 + number % 10));\n            number /= 10;\n        }\n\n        return string(buffer);\n    }\n\n    /// @notice View all codes owned by a user\n    function getUserCodes(address user) external view returns (string[] memory) {\n        return userCodes[user];\n    }\n\n    /// @notice View code ownership and usage\n    function getCodeData(string memory code) external view returns (address owner, uint256 uses) {\n        CodeData memory data = codeInfo[code];\n        return (data.owner, data.uses);\n    }\n\n    /// @notice View a user's earned referral points\n    function getPoints(address user) external view returns (uint256) {\n        return userPoints[user];\n    }\n\n    /// @notice Check if a wallet address has joined already\n    function hasUserJoined(address user) external view returns (bool) {\n        return hasJoined[user];\n    }\n}\n",
  "sourcePath": "/workspaces/echoX-nft/echoX-nft/contracts/ReferralSystem.sol",
  "compiler": {
    "name": "solc",
    "version": "0.8.20+commit.a1b79de6.Emscripten.clang"
  },
  "schemaVersion": "3.4.16",
  "updatedAt": "2025-05-24T14:57:53.974Z",
  "networkType": "ethereum",
  "devdoc": {
    "kind": "dev",
    "methods": {},
    "version": 1
  },
  "userdoc": {
    "kind": "user",
    "methods": {
      "getCodeData(string)": {
        "notice": "View code ownership and usage"
      },
      "getOrJoinAirdrop(string)": {
        "notice": "Auto-join if not already joined"
      },
      "getPoints(address)": {
        "notice": "View a user's earned referral points"
      },
      "getUserCodes(address)": {
        "notice": "View all codes owned by a user"
      },
      "hasUserJoined(address)": {
        "notice": "Check if a wallet address has joined already"
      },
      "joinAirdrop(string)": {
        "notice": "Join airdrop with referral code (or genesis), generate codes, add points"
      }
    },
    "version": 1
  }
}